{
	"BlockGames_Task3/ypeterc20.sol": {
		"YPetToken": {
			"abi": [
				{
					"inputs": [
						{
							"internalType": "address payable",
							"name": "ypetwallet",
							"type": "address"
						}
					],
					"stateMutability": "nonpayable",
					"type": "constructor"
				},
				{
					"anonymous": false,
					"inputs": [
						{
							"indexed": true,
							"internalType": "address",
							"name": "owner",
							"type": "address"
						},
						{
							"indexed": true,
							"internalType": "address",
							"name": "spender",
							"type": "address"
						},
						{
							"indexed": false,
							"internalType": "uint256",
							"name": "value",
							"type": "uint256"
						}
					],
					"name": "Approval",
					"type": "event"
				},
				{
					"anonymous": false,
					"inputs": [
						{
							"indexed": true,
							"internalType": "address",
							"name": "previousOwner",
							"type": "address"
						},
						{
							"indexed": true,
							"internalType": "address",
							"name": "newOwner",
							"type": "address"
						}
					],
					"name": "OwnershipTransferred",
					"type": "event"
				},
				{
					"anonymous": false,
					"inputs": [
						{
							"indexed": true,
							"internalType": "address",
							"name": "from",
							"type": "address"
						},
						{
							"indexed": true,
							"internalType": "address",
							"name": "to",
							"type": "address"
						},
						{
							"indexed": false,
							"internalType": "uint256",
							"name": "value",
							"type": "uint256"
						}
					],
					"name": "Transfer",
					"type": "event"
				},
				{
					"anonymous": false,
					"inputs": [
						{
							"indexed": false,
							"internalType": "address",
							"name": "buyer",
							"type": "address"
						},
						{
							"indexed": false,
							"internalType": "address",
							"name": "receiver",
							"type": "address"
						},
						{
							"indexed": false,
							"internalType": "uint256",
							"name": "tokenAmount",
							"type": "uint256"
						}
					],
					"name": "onBuy",
					"type": "event"
				},
				{
					"inputs": [
						{
							"internalType": "address",
							"name": "owner",
							"type": "address"
						},
						{
							"internalType": "address",
							"name": "spender",
							"type": "address"
						}
					],
					"name": "allowance",
					"outputs": [
						{
							"internalType": "uint256",
							"name": "",
							"type": "uint256"
						}
					],
					"stateMutability": "view",
					"type": "function"
				},
				{
					"inputs": [
						{
							"internalType": "address",
							"name": "spender",
							"type": "address"
						},
						{
							"internalType": "uint256",
							"name": "amount",
							"type": "uint256"
						}
					],
					"name": "approve",
					"outputs": [
						{
							"internalType": "bool",
							"name": "",
							"type": "bool"
						}
					],
					"stateMutability": "nonpayable",
					"type": "function"
				},
				{
					"inputs": [
						{
							"internalType": "address",
							"name": "account",
							"type": "address"
						}
					],
					"name": "balanceOf",
					"outputs": [
						{
							"internalType": "uint256",
							"name": "",
							"type": "uint256"
						}
					],
					"stateMutability": "view",
					"type": "function"
				},
				{
					"inputs": [
						{
							"internalType": "address",
							"name": "receiver",
							"type": "address"
						}
					],
					"name": "buyToken",
					"outputs": [],
					"stateMutability": "payable",
					"type": "function"
				},
				{
					"inputs": [],
					"name": "decimals",
					"outputs": [
						{
							"internalType": "uint8",
							"name": "",
							"type": "uint8"
						}
					],
					"stateMutability": "view",
					"type": "function"
				},
				{
					"inputs": [
						{
							"internalType": "address",
							"name": "spender",
							"type": "address"
						},
						{
							"internalType": "uint256",
							"name": "subtractedValue",
							"type": "uint256"
						}
					],
					"name": "decreaseAllowance",
					"outputs": [
						{
							"internalType": "bool",
							"name": "",
							"type": "bool"
						}
					],
					"stateMutability": "nonpayable",
					"type": "function"
				},
				{
					"inputs": [
						{
							"internalType": "address",
							"name": "spender",
							"type": "address"
						},
						{
							"internalType": "uint256",
							"name": "addedValue",
							"type": "uint256"
						}
					],
					"name": "increaseAllowance",
					"outputs": [
						{
							"internalType": "bool",
							"name": "",
							"type": "bool"
						}
					],
					"stateMutability": "nonpayable",
					"type": "function"
				},
				{
					"inputs": [
						{
							"internalType": "address",
							"name": "to",
							"type": "address"
						},
						{
							"internalType": "uint256",
							"name": "amount",
							"type": "uint256"
						}
					],
					"name": "mint",
					"outputs": [],
					"stateMutability": "nonpayable",
					"type": "function"
				},
				{
					"inputs": [],
					"name": "name",
					"outputs": [
						{
							"internalType": "string",
							"name": "",
							"type": "string"
						}
					],
					"stateMutability": "view",
					"type": "function"
				},
				{
					"inputs": [],
					"name": "owner",
					"outputs": [
						{
							"internalType": "address",
							"name": "",
							"type": "address"
						}
					],
					"stateMutability": "view",
					"type": "function"
				},
				{
					"inputs": [],
					"name": "rate",
					"outputs": [
						{
							"internalType": "uint256",
							"name": "",
							"type": "uint256"
						}
					],
					"stateMutability": "view",
					"type": "function"
				},
				{
					"inputs": [],
					"name": "renounceOwnership",
					"outputs": [],
					"stateMutability": "nonpayable",
					"type": "function"
				},
				{
					"inputs": [],
					"name": "symbol",
					"outputs": [
						{
							"internalType": "string",
							"name": "",
							"type": "string"
						}
					],
					"stateMutability": "view",
					"type": "function"
				},
				{
					"inputs": [],
					"name": "totalSupply",
					"outputs": [
						{
							"internalType": "uint256",
							"name": "",
							"type": "uint256"
						}
					],
					"stateMutability": "view",
					"type": "function"
				},
				{
					"inputs": [
						{
							"internalType": "address",
							"name": "to",
							"type": "address"
						},
						{
							"internalType": "uint256",
							"name": "amount",
							"type": "uint256"
						}
					],
					"name": "transfer",
					"outputs": [
						{
							"internalType": "bool",
							"name": "",
							"type": "bool"
						}
					],
					"stateMutability": "nonpayable",
					"type": "function"
				},
				{
					"inputs": [
						{
							"internalType": "address",
							"name": "from",
							"type": "address"
						},
						{
							"internalType": "address",
							"name": "to",
							"type": "address"
						},
						{
							"internalType": "uint256",
							"name": "amount",
							"type": "uint256"
						}
					],
					"name": "transferFrom",
					"outputs": [
						{
							"internalType": "bool",
							"name": "",
							"type": "bool"
						}
					],
					"stateMutability": "nonpayable",
					"type": "function"
				},
				{
					"inputs": [
						{
							"internalType": "address",
							"name": "newOwner",
							"type": "address"
						}
					],
					"name": "transferOwnership",
					"outputs": [],
					"stateMutability": "nonpayable",
					"type": "function"
				}
			],
			"devdoc": {
				"kind": "dev",
				"methods": {
					"allowance(address,address)": {
						"details": "See {IERC20-allowance}."
					},
					"approve(address,uint256)": {
						"details": "See {IERC20-approve}. NOTE: If `amount` is the maximum `uint256`, the allowance is not updated on `transferFrom`. This is semantically equivalent to an infinite approval. Requirements: - `spender` cannot be the zero address."
					},
					"balanceOf(address)": {
						"details": "See {IERC20-balanceOf}."
					},
					"decimals()": {
						"details": "Returns the number of decimals used to get its user representation. For example, if `decimals` equals `2`, a balance of `505` tokens should be displayed to a user as `5.05` (`505 / 10 ** 2`). Tokens usually opt for a value of 18, imitating the relationship between Ether and Wei. This is the value {ERC20} uses, unless this function is overridden; NOTE: This information is only used for _display_ purposes: it in no way affects any of the arithmetic of the contract, including {IERC20-balanceOf} and {IERC20-transfer}."
					},
					"decreaseAllowance(address,uint256)": {
						"details": "Atomically decreases the allowance granted to `spender` by the caller. This is an alternative to {approve} that can be used as a mitigation for problems described in {IERC20-approve}. Emits an {Approval} event indicating the updated allowance. Requirements: - `spender` cannot be the zero address. - `spender` must have allowance for the caller of at least `subtractedValue`."
					},
					"increaseAllowance(address,uint256)": {
						"details": "Atomically increases the allowance granted to `spender` by the caller. This is an alternative to {approve} that can be used as a mitigation for problems described in {IERC20-approve}. Emits an {Approval} event indicating the updated allowance. Requirements: - `spender` cannot be the zero address."
					},
					"name()": {
						"details": "Returns the name of the token."
					},
					"owner()": {
						"details": "Returns the address of the current owner."
					},
					"renounceOwnership()": {
						"details": "Leaves the contract without owner. It will not be possible to call `onlyOwner` functions anymore. Can only be called by the current owner. NOTE: Renouncing ownership will leave the contract without an owner, thereby removing any functionality that is only available to the owner."
					},
					"symbol()": {
						"details": "Returns the symbol of the token, usually a shorter version of the name."
					},
					"totalSupply()": {
						"details": "See {IERC20-totalSupply}."
					},
					"transfer(address,uint256)": {
						"details": "See {IERC20-transfer}. Requirements: - `to` cannot be the zero address. - the caller must have a balance of at least `amount`."
					},
					"transferFrom(address,address,uint256)": {
						"details": "See {IERC20-transferFrom}. Emits an {Approval} event indicating the updated allowance. This is not required by the EIP. See the note at the beginning of {ERC20}. NOTE: Does not update the allowance if the current allowance is the maximum `uint256`. Requirements: - `from` and `to` cannot be the zero address. - `from` must have a balance of at least `amount`. - the caller must have allowance for ``from``'s tokens of at least `amount`."
					},
					"transferOwnership(address)": {
						"details": "Transfers ownership of the contract to a new account (`newOwner`). Can only be called by the current owner."
					}
				},
				"version": 1
			},
			"evm": {
				"assembly": "    /* \"BlockGames_Task3/ypeterc20.sol\":173:1132  contract YPetToken is ERC20, Ownable {\r... */\n  mstore(0x40, 0x80)\n    /* \"BlockGames_Task3/ypeterc20.sol\":270:277  1000000 */\n  0x0f4240\n    /* \"BlockGames_Task3/ypeterc20.sol\":247:277  uint256 _totalSupply = 1000000 */\n  0x07\n  sstore\n    /* \"BlockGames_Task3/ypeterc20.sol\":330:334  1000 */\n  0x03e8\n    /* \"BlockGames_Task3/ypeterc20.sol\":308:334  uint256 public rate = 1000 */\n  0x09\n  sstore\n    /* \"BlockGames_Task3/ypeterc20.sol\":417:566  constructor(address payable ypetwallet) ERC20(\"YPetToken\", \"YPTN\") {\r... */\n  callvalue\n  dup1\n  iszero\n  tag_1\n  jumpi\n  0x00\n  dup1\n  revert\ntag_1:\n  pop\n  mload(0x40)\n  sub(codesize, bytecodeSize)\n  dup1\n  bytecodeSize\n  dup4\n  codecopy\n  dup2\n  dup2\n  add\n  0x40\n  mstore\n  dup2\n  add\n  swap1\n  tag_2\n  swap2\n  swap1\n  tag_3\n  jump\t// in\ntag_2:\n    /* \"@openzeppelin/contracts/token/ERC20/ERC20.sol\":1978:2091  constructor(string memory name_, string memory symbol_) {... */\n  mload(0x40)\n  dup1\n  0x40\n  add\n  0x40\n  mstore\n  dup1\n  0x09\n  dup2\n  mstore\n  0x20\n  add\n  0x59506574546f6b656e0000000000000000000000000000000000000000000000\n  dup2\n  mstore\n  pop\n  mload(0x40)\n  dup1\n  0x40\n  add\n  0x40\n  mstore\n  dup1\n  0x04\n  dup2\n  mstore\n  0x20\n  add\n  0x5950544e00000000000000000000000000000000000000000000000000000000\n  dup2\n  mstore\n  pop\n    /* \"@openzeppelin/contracts/token/ERC20/ERC20.sol\":2052:2057  name_ */\n  dup2\n    /* \"@openzeppelin/contracts/token/ERC20/ERC20.sol\":2044:2049  _name */\n  0x03\n    /* \"@openzeppelin/contracts/token/ERC20/ERC20.sol\":2044:2057  _name = name_ */\n  swap1\n  dup1\n  mload\n  swap1\n  0x20\n  add\n  swap1\n  tag_8\n  swap3\n  swap2\n  swap1\n  tag_9\n  jump\t// in\ntag_8:\n  pop\n    /* \"@openzeppelin/contracts/token/ERC20/ERC20.sol\":2077:2084  symbol_ */\n  dup1\n    /* \"@openzeppelin/contracts/token/ERC20/ERC20.sol\":2067:2074  _symbol */\n  0x04\n    /* \"@openzeppelin/contracts/token/ERC20/ERC20.sol\":2067:2084  _symbol = symbol_ */\n  swap1\n  dup1\n  mload\n  swap1\n  0x20\n  add\n  swap1\n  tag_10\n  swap3\n  swap2\n  swap1\n  tag_9\n  jump\t// in\ntag_10:\n  pop\n    /* \"@openzeppelin/contracts/token/ERC20/ERC20.sol\":1978:2091  constructor(string memory name_, string memory symbol_) {... */\n  pop\n  pop\n    /* \"@openzeppelin/contracts/access/Ownable.sol\":921:953  _transferOwnership(_msgSender()) */\n  tag_12\n    /* \"@openzeppelin/contracts/access/Ownable.sol\":940:952  _msgSender() */\n  tag_13\n    /* \"@openzeppelin/contracts/access/Ownable.sol\":940:950  _msgSender */\n  shl(0x20, tag_14)\n    /* \"@openzeppelin/contracts/access/Ownable.sol\":940:952  _msgSender() */\n  0x20\n  shr\n  jump\t// in\ntag_13:\n    /* \"@openzeppelin/contracts/access/Ownable.sol\":921:939  _transferOwnership */\n  shl(0x20, tag_15)\n    /* \"@openzeppelin/contracts/access/Ownable.sol\":921:953  _transferOwnership(_msgSender()) */\n  0x20\n  shr\n  jump\t// in\ntag_12:\n    /* \"BlockGames_Task3/ypeterc20.sol\":505:515  ypetwallet */\n  dup1\n    /* \"BlockGames_Task3/ypeterc20.sol\":495:502  yWallet */\n  0x06\n  0x00\n    /* \"BlockGames_Task3/ypeterc20.sol\":495:515  yWallet = ypetwallet */\n  0x0100\n  exp\n  dup2\n  sload\n  dup2\n  0xffffffffffffffffffffffffffffffffffffffff\n  mul\n  not\n  and\n  swap1\n  dup4\n  0xffffffffffffffffffffffffffffffffffffffff\n  and\n  mul\n  or\n  swap1\n  sstore\n  pop\n    /* \"BlockGames_Task3/ypeterc20.sol\":526:558  _mint(msg.sender, _totalSupply ) */\n  tag_17\n    /* \"BlockGames_Task3/ypeterc20.sol\":532:542  msg.sender */\n  caller\n    /* \"BlockGames_Task3/ypeterc20.sol\":544:556  _totalSupply */\n  sload(0x07)\n    /* \"BlockGames_Task3/ypeterc20.sol\":526:531  _mint */\n  shl(0x20, tag_18)\n    /* \"BlockGames_Task3/ypeterc20.sol\":526:558  _mint(msg.sender, _totalSupply ) */\n  0x20\n  shr\n  jump\t// in\ntag_17:\n    /* \"BlockGames_Task3/ypeterc20.sol\":417:566  constructor(address payable ypetwallet) ERC20(\"YPetToken\", \"YPTN\") {\r... */\n  pop\n    /* \"BlockGames_Task3/ypeterc20.sol\":173:1132  contract YPetToken is ERC20, Ownable {\r... */\n  jump(tag_19)\n    /* \"@openzeppelin/contracts/utils/Context.sol\":640:736  function _msgSender() internal view virtual returns (address) {... */\ntag_14:\n    /* \"@openzeppelin/contracts/utils/Context.sol\":693:700  address */\n  0x00\n    /* \"@openzeppelin/contracts/utils/Context.sol\":719:729  msg.sender */\n  caller\n    /* \"@openzeppelin/contracts/utils/Context.sol\":712:729  return msg.sender */\n  swap1\n  pop\n    /* \"@openzeppelin/contracts/utils/Context.sol\":640:736  function _msgSender() internal view virtual returns (address) {... */\n  swap1\n  jump\t// out\n    /* \"@openzeppelin/contracts/access/Ownable.sol\":2270:2457  function _transferOwnership(address newOwner) internal virtual {... */\ntag_15:\n    /* \"@openzeppelin/contracts/access/Ownable.sol\":2343:2359  address oldOwner */\n  0x00\n    /* \"@openzeppelin/contracts/access/Ownable.sol\":2362:2368  _owner */\n  0x05\n  0x00\n  swap1\n  sload\n  swap1\n  0x0100\n  exp\n  swap1\n  div\n  0xffffffffffffffffffffffffffffffffffffffff\n  and\n    /* \"@openzeppelin/contracts/access/Ownable.sol\":2343:2368  address oldOwner = _owner */\n  swap1\n  pop\n    /* \"@openzeppelin/contracts/access/Ownable.sol\":2387:2395  newOwner */\n  dup2\n    /* \"@openzeppelin/contracts/access/Ownable.sol\":2378:2384  _owner */\n  0x05\n  0x00\n    /* \"@openzeppelin/contracts/access/Ownable.sol\":2378:2395  _owner = newOwner */\n  0x0100\n  exp\n  dup2\n  sload\n  dup2\n  0xffffffffffffffffffffffffffffffffffffffff\n  mul\n  not\n  and\n  swap1\n  dup4\n  0xffffffffffffffffffffffffffffffffffffffff\n  and\n  mul\n  or\n  swap1\n  sstore\n  pop\n    /* \"@openzeppelin/contracts/access/Ownable.sol\":2441:2449  newOwner */\n  dup2\n    /* \"@openzeppelin/contracts/access/Ownable.sol\":2410:2450  OwnershipTransferred(oldOwner, newOwner) */\n  0xffffffffffffffffffffffffffffffffffffffff\n  and\n    /* \"@openzeppelin/contracts/access/Ownable.sol\":2431:2439  oldOwner */\n  dup2\n    /* \"@openzeppelin/contracts/access/Ownable.sol\":2410:2450  OwnershipTransferred(oldOwner, newOwner) */\n  0xffffffffffffffffffffffffffffffffffffffff\n  and\n  0x8be0079c531659141344cd1fd0a4f28419497f9722a3daafe3b4186f6b6457e0\n  mload(0x40)\n  mload(0x40)\n  dup1\n  swap2\n  sub\n  swap1\n  log3\n    /* \"@openzeppelin/contracts/access/Ownable.sol\":2270:2457  function _transferOwnership(address newOwner) internal virtual {... */\n  pop\n  pop\n  jump\t// out\n    /* \"@openzeppelin/contracts/token/ERC20/ERC20.sol\":8415:8804  function _mint(address account, uint256 amount) internal virtual {... */\ntag_18:\n    /* \"@openzeppelin/contracts/token/ERC20/ERC20.sol\":8517:8518  0 */\n  0x00\n    /* \"@openzeppelin/contracts/token/ERC20/ERC20.sol\":8498:8519  account != address(0) */\n  0xffffffffffffffffffffffffffffffffffffffff\n  and\n    /* \"@openzeppelin/contracts/token/ERC20/ERC20.sol\":8498:8505  account */\n  dup3\n    /* \"@openzeppelin/contracts/token/ERC20/ERC20.sol\":8498:8519  account != address(0) */\n  0xffffffffffffffffffffffffffffffffffffffff\n  and\n  eq\n  iszero\n    /* \"@openzeppelin/contracts/token/ERC20/ERC20.sol\":8490:8555  require(account != address(0), \"ERC20: mint to the zero address\") */\n  tag_23\n  jumpi\n  mload(0x40)\n  0x08c379a000000000000000000000000000000000000000000000000000000000\n  dup2\n  mstore\n  0x04\n  add\n  tag_24\n  swap1\n  tag_25\n  jump\t// in\ntag_24:\n  mload(0x40)\n  dup1\n  swap2\n  sub\n  swap1\n  revert\ntag_23:\n    /* \"@openzeppelin/contracts/token/ERC20/ERC20.sol\":8566:8615  _beforeTokenTransfer(address(0), account, amount) */\n  tag_26\n    /* \"@openzeppelin/contracts/token/ERC20/ERC20.sol\":8595:8596  0 */\n  0x00\n    /* \"@openzeppelin/contracts/token/ERC20/ERC20.sol\":8599:8606  account */\n  dup4\n    /* \"@openzeppelin/contracts/token/ERC20/ERC20.sol\":8608:8614  amount */\n  dup4\n    /* \"@openzeppelin/contracts/token/ERC20/ERC20.sol\":8566:8586  _beforeTokenTransfer */\n  shl(0x20, tag_27)\n    /* \"@openzeppelin/contracts/token/ERC20/ERC20.sol\":8566:8615  _beforeTokenTransfer(address(0), account, amount) */\n  0x20\n  shr\n  jump\t// in\ntag_26:\n    /* \"@openzeppelin/contracts/token/ERC20/ERC20.sol\":8642:8648  amount */\n  dup1\n    /* \"@openzeppelin/contracts/token/ERC20/ERC20.sol\":8626:8638  _totalSupply */\n  0x02\n  0x00\n    /* \"@openzeppelin/contracts/token/ERC20/ERC20.sol\":8626:8648  _totalSupply += amount */\n  dup3\n  dup3\n  sload\n  tag_28\n  swap2\n  swap1\n  tag_29\n  jump\t// in\ntag_28:\n  swap3\n  pop\n  pop\n  dup2\n  swap1\n  sstore\n  pop\n    /* \"@openzeppelin/contracts/token/ERC20/ERC20.sol\":8680:8686  amount */\n  dup1\n    /* \"@openzeppelin/contracts/token/ERC20/ERC20.sol\":8658:8667  _balances */\n  0x00\n    /* \"@openzeppelin/contracts/token/ERC20/ERC20.sol\":8658:8676  _balances[account] */\n  dup1\n    /* \"@openzeppelin/contracts/token/ERC20/ERC20.sol\":8668:8675  account */\n  dup5\n    /* \"@openzeppelin/contracts/token/ERC20/ERC20.sol\":8658:8676  _balances[account] */\n  0xffffffffffffffffffffffffffffffffffffffff\n  and\n  0xffffffffffffffffffffffffffffffffffffffff\n  and\n  dup2\n  mstore\n  0x20\n  add\n  swap1\n  dup2\n  mstore\n  0x20\n  add\n  0x00\n  keccak256\n  0x00\n    /* \"@openzeppelin/contracts/token/ERC20/ERC20.sol\":8658:8686  _balances[account] += amount */\n  dup3\n  dup3\n  sload\n  tag_30\n  swap2\n  swap1\n  tag_29\n  jump\t// in\ntag_30:\n  swap3\n  pop\n  pop\n  dup2\n  swap1\n  sstore\n  pop\n    /* \"@openzeppelin/contracts/token/ERC20/ERC20.sol\":8722:8729  account */\n  dup2\n    /* \"@openzeppelin/contracts/token/ERC20/ERC20.sol\":8701:8738  Transfer(address(0), account, amount) */\n  0xffffffffffffffffffffffffffffffffffffffff\n  and\n    /* \"@openzeppelin/contracts/token/ERC20/ERC20.sol\":8718:8719  0 */\n  0x00\n    /* \"@openzeppelin/contracts/token/ERC20/ERC20.sol\":8701:8738  Transfer(address(0), account, amount) */\n  0xffffffffffffffffffffffffffffffffffffffff\n  and\n  0xddf252ad1be2c89b69c2b068fc378daa952ba7f163c4a11628f55a4df523b3ef\n    /* \"@openzeppelin/contracts/token/ERC20/ERC20.sol\":8731:8737  amount */\n  dup4\n    /* \"@openzeppelin/contracts/token/ERC20/ERC20.sol\":8701:8738  Transfer(address(0), account, amount) */\n  mload(0x40)\n  tag_31\n  swap2\n  swap1\n  tag_32\n  jump\t// in\ntag_31:\n  mload(0x40)\n  dup1\n  swap2\n  sub\n  swap1\n  log3\n    /* \"@openzeppelin/contracts/token/ERC20/ERC20.sol\":8749:8797  _afterTokenTransfer(address(0), account, amount) */\n  tag_33\n    /* \"@openzeppelin/contracts/token/ERC20/ERC20.sol\":8777:8778  0 */\n  0x00\n    /* \"@openzeppelin/contracts/token/ERC20/ERC20.sol\":8781:8788  account */\n  dup4\n    /* \"@openzeppelin/contracts/token/ERC20/ERC20.sol\":8790:8796  amount */\n  dup4\n    /* \"@openzeppelin/contracts/token/ERC20/ERC20.sol\":8749:8768  _afterTokenTransfer */\n  shl(0x20, tag_34)\n    /* \"@openzeppelin/contracts/token/ERC20/ERC20.sol\":8749:8797  _afterTokenTransfer(address(0), account, amount) */\n  0x20\n  shr\n  jump\t// in\ntag_33:\n    /* \"@openzeppelin/contracts/token/ERC20/ERC20.sol\":8415:8804  function _mint(address account, uint256 amount) internal virtual {... */\n  pop\n  pop\n  jump\t// out\n    /* \"@openzeppelin/contracts/token/ERC20/ERC20.sol\":11795:11916  function _beforeTokenTransfer(... */\ntag_27:\n  pop\n  pop\n  pop\n  jump\t// out\n    /* \"@openzeppelin/contracts/token/ERC20/ERC20.sol\":12504:12624  function _afterTokenTransfer(... */\ntag_34:\n  pop\n  pop\n  pop\n  jump\t// out\n    /* \"BlockGames_Task3/ypeterc20.sol\":173:1132  contract YPetToken is ERC20, Ownable {\r... */\ntag_9:\n  dup3\n  dup1\n  sload\n  tag_37\n  swap1\n  tag_38\n  jump\t// in\ntag_37:\n  swap1\n  0x00\n  mstore\n  keccak256(0x00, 0x20)\n  swap1\n  0x1f\n  add\n  0x20\n  swap1\n  div\n  dup2\n  add\n  swap3\n  dup3\n  tag_40\n  jumpi\n  0x00\n  dup6\n  sstore\n  jump(tag_39)\ntag_40:\n  dup3\n  0x1f\n  lt\n  tag_41\n  jumpi\n  dup1\n  mload\n  not(0xff)\n  and\n  dup4\n  dup1\n  add\n  or\n  dup6\n  sstore\n  jump(tag_39)\ntag_41:\n  dup3\n  dup1\n  add\n  0x01\n  add\n  dup6\n  sstore\n  dup3\n  iszero\n  tag_39\n  jumpi\n  swap2\n  dup3\n  add\ntag_42:\n  dup3\n  dup2\n  gt\n  iszero\n  tag_43\n  jumpi\n  dup3\n  mload\n  dup3\n  sstore\n  swap2\n  0x20\n  add\n  swap2\n  swap1\n  0x01\n  add\n  swap1\n  jump(tag_42)\ntag_43:\ntag_39:\n  pop\n  swap1\n  pop\n  tag_44\n  swap2\n  swap1\n  tag_45\n  jump\t// in\ntag_44:\n  pop\n  swap1\n  jump\t// out\ntag_45:\ntag_46:\n  dup1\n  dup3\n  gt\n  iszero\n  tag_47\n  jumpi\n  0x00\n  dup2\n  0x00\n  swap1\n  sstore\n  pop\n  0x01\n  add\n  jump(tag_46)\ntag_47:\n  pop\n  swap1\n  jump\t// out\n    /* \"#utility.yul\":7:166   */\ntag_49:\n    /* \"#utility.yul\":72:77   */\n  0x00\n    /* \"#utility.yul\":103:109   */\n  dup2\n    /* \"#utility.yul\":97:110   */\n  mload\n    /* \"#utility.yul\":88:110   */\n  swap1\n  pop\n    /* \"#utility.yul\":119:160   */\n  tag_51\n    /* \"#utility.yul\":154:159   */\n  dup2\n    /* \"#utility.yul\":119:160   */\n  tag_52\n  jump\t// in\ntag_51:\n    /* \"#utility.yul\":78:166   */\n  swap3\n  swap2\n  pop\n  pop\n  jump\t// out\n    /* \"#utility.yul\":172:472   */\ntag_3:\n    /* \"#utility.yul\":250:256   */\n  0x00\n    /* \"#utility.yul\":299:301   */\n  0x20\n    /* \"#utility.yul\":287:296   */\n  dup3\n    /* \"#utility.yul\":278:285   */\n  dup5\n    /* \"#utility.yul\":274:297   */\n  sub\n    /* \"#utility.yul\":270:302   */\n  slt\n    /* \"#utility.yul\":267:269   */\n  iszero\n  tag_54\n  jumpi\n    /* \"#utility.yul\":315:316   */\n  0x00\n    /* \"#utility.yul\":312:313   */\n  dup1\n    /* \"#utility.yul\":305:317   */\n  revert\n    /* \"#utility.yul\":267:269   */\ntag_54:\n    /* \"#utility.yul\":358:359   */\n  0x00\n    /* \"#utility.yul\":383:455   */\n  tag_55\n    /* \"#utility.yul\":447:454   */\n  dup5\n    /* \"#utility.yul\":438:444   */\n  dup3\n    /* \"#utility.yul\":427:436   */\n  dup6\n    /* \"#utility.yul\":423:445   */\n  add\n    /* \"#utility.yul\":383:455   */\n  tag_49\n  jump\t// in\ntag_55:\n    /* \"#utility.yul\":373:455   */\n  swap2\n  pop\n    /* \"#utility.yul\":329:465   */\n  pop\n    /* \"#utility.yul\":257:472   */\n  swap3\n  swap2\n  pop\n  pop\n  jump\t// out\n    /* \"#utility.yul\":478:844   */\ntag_56:\n    /* \"#utility.yul\":620:623   */\n  0x00\n    /* \"#utility.yul\":641:708   */\n  tag_58\n    /* \"#utility.yul\":705:707   */\n  0x1f\n    /* \"#utility.yul\":700:703   */\n  dup4\n    /* \"#utility.yul\":641:708   */\n  tag_59\n  jump\t// in\ntag_58:\n    /* \"#utility.yul\":634:708   */\n  swap2\n  pop\n    /* \"#utility.yul\":717:810   */\n  tag_60\n    /* \"#utility.yul\":806:809   */\n  dup3\n    /* \"#utility.yul\":717:810   */\n  tag_61\n  jump\t// in\ntag_60:\n    /* \"#utility.yul\":835:837   */\n  0x20\n    /* \"#utility.yul\":830:833   */\n  dup3\n    /* \"#utility.yul\":826:838   */\n  add\n    /* \"#utility.yul\":819:838   */\n  swap1\n  pop\n    /* \"#utility.yul\":624:844   */\n  swap2\n  swap1\n  pop\n  jump\t// out\n    /* \"#utility.yul\":850:968   */\ntag_62:\n    /* \"#utility.yul\":937:961   */\n  tag_64\n    /* \"#utility.yul\":955:960   */\n  dup2\n    /* \"#utility.yul\":937:961   */\n  tag_65\n  jump\t// in\ntag_64:\n    /* \"#utility.yul\":932:935   */\n  dup3\n    /* \"#utility.yul\":925:962   */\n  mstore\n    /* \"#utility.yul\":915:968   */\n  pop\n  pop\n  jump\t// out\n    /* \"#utility.yul\":974:1393   */\ntag_25:\n    /* \"#utility.yul\":1140:1144   */\n  0x00\n    /* \"#utility.yul\":1178:1180   */\n  0x20\n    /* \"#utility.yul\":1167:1176   */\n  dup3\n    /* \"#utility.yul\":1163:1181   */\n  add\n    /* \"#utility.yul\":1155:1181   */\n  swap1\n  pop\n    /* \"#utility.yul\":1227:1236   */\n  dup2\n    /* \"#utility.yul\":1221:1225   */\n  dup2\n    /* \"#utility.yul\":1217:1237   */\n  sub\n    /* \"#utility.yul\":1213:1214   */\n  0x00\n    /* \"#utility.yul\":1202:1211   */\n  dup4\n    /* \"#utility.yul\":1198:1215   */\n  add\n    /* \"#utility.yul\":1191:1238   */\n  mstore\n    /* \"#utility.yul\":1255:1386   */\n  tag_67\n    /* \"#utility.yul\":1381:1385   */\n  dup2\n    /* \"#utility.yul\":1255:1386   */\n  tag_56\n  jump\t// in\ntag_67:\n    /* \"#utility.yul\":1247:1386   */\n  swap1\n  pop\n    /* \"#utility.yul\":1145:1393   */\n  swap2\n  swap1\n  pop\n  jump\t// out\n    /* \"#utility.yul\":1399:1621   */\ntag_32:\n    /* \"#utility.yul\":1492:1496   */\n  0x00\n    /* \"#utility.yul\":1530:1532   */\n  0x20\n    /* \"#utility.yul\":1519:1528   */\n  dup3\n    /* \"#utility.yul\":1515:1533   */\n  add\n    /* \"#utility.yul\":1507:1533   */\n  swap1\n  pop\n    /* \"#utility.yul\":1543:1614   */\n  tag_69\n    /* \"#utility.yul\":1611:1612   */\n  0x00\n    /* \"#utility.yul\":1600:1609   */\n  dup4\n    /* \"#utility.yul\":1596:1613   */\n  add\n    /* \"#utility.yul\":1587:1593   */\n  dup5\n    /* \"#utility.yul\":1543:1614   */\n  tag_62\n  jump\t// in\ntag_69:\n    /* \"#utility.yul\":1497:1621   */\n  swap3\n  swap2\n  pop\n  pop\n  jump\t// out\n    /* \"#utility.yul\":1627:1796   */\ntag_59:\n    /* \"#utility.yul\":1711:1722   */\n  0x00\n    /* \"#utility.yul\":1745:1751   */\n  dup3\n    /* \"#utility.yul\":1740:1743   */\n  dup3\n    /* \"#utility.yul\":1733:1752   */\n  mstore\n    /* \"#utility.yul\":1785:1789   */\n  0x20\n    /* \"#utility.yul\":1780:1783   */\n  dup3\n    /* \"#utility.yul\":1776:1790   */\n  add\n    /* \"#utility.yul\":1761:1790   */\n  swap1\n  pop\n    /* \"#utility.yul\":1723:1796   */\n  swap3\n  swap2\n  pop\n  pop\n  jump\t// out\n    /* \"#utility.yul\":1802:2107   */\ntag_29:\n    /* \"#utility.yul\":1842:1845   */\n  0x00\n    /* \"#utility.yul\":1861:1881   */\n  tag_72\n    /* \"#utility.yul\":1879:1880   */\n  dup3\n    /* \"#utility.yul\":1861:1881   */\n  tag_65\n  jump\t// in\ntag_72:\n    /* \"#utility.yul\":1856:1881   */\n  swap2\n  pop\n    /* \"#utility.yul\":1895:1915   */\n  tag_73\n    /* \"#utility.yul\":1913:1914   */\n  dup4\n    /* \"#utility.yul\":1895:1915   */\n  tag_65\n  jump\t// in\ntag_73:\n    /* \"#utility.yul\":1890:1915   */\n  swap3\n  pop\n    /* \"#utility.yul\":2049:2050   */\n  dup3\n    /* \"#utility.yul\":1981:2047   */\n  0xffffffffffffffffffffffffffffffffffffffffffffffffffffffffffffffff\n    /* \"#utility.yul\":1977:2051   */\n  sub\n    /* \"#utility.yul\":1974:1975   */\n  dup3\n    /* \"#utility.yul\":1971:2052   */\n  gt\n    /* \"#utility.yul\":1968:1970   */\n  iszero\n  tag_74\n  jumpi\n    /* \"#utility.yul\":2055:2073   */\n  tag_75\n  tag_76\n  jump\t// in\ntag_75:\n    /* \"#utility.yul\":1968:1970   */\ntag_74:\n    /* \"#utility.yul\":2099:2100   */\n  dup3\n    /* \"#utility.yul\":2096:2097   */\n  dup3\n    /* \"#utility.yul\":2092:2101   */\n  add\n    /* \"#utility.yul\":2085:2101   */\n  swap1\n  pop\n    /* \"#utility.yul\":1846:2107   */\n  swap3\n  swap2\n  pop\n  pop\n  jump\t// out\n    /* \"#utility.yul\":2113:2217   */\ntag_77:\n    /* \"#utility.yul\":2158:2165   */\n  0x00\n    /* \"#utility.yul\":2187:2211   */\n  tag_79\n    /* \"#utility.yul\":2205:2210   */\n  dup3\n    /* \"#utility.yul\":2187:2211   */\n  tag_80\n  jump\t// in\ntag_79:\n    /* \"#utility.yul\":2176:2211   */\n  swap1\n  pop\n    /* \"#utility.yul\":2166:2217   */\n  swap2\n  swap1\n  pop\n  jump\t// out\n    /* \"#utility.yul\":2223:2349   */\ntag_80:\n    /* \"#utility.yul\":2260:2267   */\n  0x00\n    /* \"#utility.yul\":2300:2342   */\n  0xffffffffffffffffffffffffffffffffffffffff\n    /* \"#utility.yul\":2293:2298   */\n  dup3\n    /* \"#utility.yul\":2289:2343   */\n  and\n    /* \"#utility.yul\":2278:2343   */\n  swap1\n  pop\n    /* \"#utility.yul\":2268:2349   */\n  swap2\n  swap1\n  pop\n  jump\t// out\n    /* \"#utility.yul\":2355:2432   */\ntag_65:\n    /* \"#utility.yul\":2392:2399   */\n  0x00\n    /* \"#utility.yul\":2421:2426   */\n  dup2\n    /* \"#utility.yul\":2410:2426   */\n  swap1\n  pop\n    /* \"#utility.yul\":2400:2432   */\n  swap2\n  swap1\n  pop\n  jump\t// out\n    /* \"#utility.yul\":2438:2758   */\ntag_38:\n    /* \"#utility.yul\":2482:2488   */\n  0x00\n    /* \"#utility.yul\":2519:2520   */\n  0x02\n    /* \"#utility.yul\":2513:2517   */\n  dup3\n    /* \"#utility.yul\":2509:2521   */\n  div\n    /* \"#utility.yul\":2499:2521   */\n  swap1\n  pop\n    /* \"#utility.yul\":2566:2567   */\n  0x01\n    /* \"#utility.yul\":2560:2564   */\n  dup3\n    /* \"#utility.yul\":2556:2568   */\n  and\n    /* \"#utility.yul\":2587:2605   */\n  dup1\n    /* \"#utility.yul\":2577:2579   */\n  tag_84\n  jumpi\n    /* \"#utility.yul\":2643:2647   */\n  0x7f\n    /* \"#utility.yul\":2635:2641   */\n  dup3\n    /* \"#utility.yul\":2631:2648   */\n  and\n    /* \"#utility.yul\":2621:2648   */\n  swap2\n  pop\n    /* \"#utility.yul\":2577:2579   */\ntag_84:\n    /* \"#utility.yul\":2705:2707   */\n  0x20\n    /* \"#utility.yul\":2697:2703   */\n  dup3\n    /* \"#utility.yul\":2694:2708   */\n  lt\n    /* \"#utility.yul\":2674:2692   */\n  dup2\n    /* \"#utility.yul\":2671:2709   */\n  eq\n    /* \"#utility.yul\":2668:2670   */\n  iszero\n  tag_85\n  jumpi\n    /* \"#utility.yul\":2724:2742   */\n  tag_86\n  tag_87\n  jump\t// in\ntag_86:\n    /* \"#utility.yul\":2668:2670   */\ntag_85:\n    /* \"#utility.yul\":2489:2758   */\n  pop\n  swap2\n  swap1\n  pop\n  jump\t// out\n    /* \"#utility.yul\":2764:2944   */\ntag_76:\n    /* \"#utility.yul\":2812:2889   */\n  0x4e487b7100000000000000000000000000000000000000000000000000000000\n    /* \"#utility.yul\":2809:2810   */\n  0x00\n    /* \"#utility.yul\":2802:2890   */\n  mstore\n    /* \"#utility.yul\":2909:2913   */\n  0x11\n    /* \"#utility.yul\":2906:2907   */\n  0x04\n    /* \"#utility.yul\":2899:2914   */\n  mstore\n    /* \"#utility.yul\":2933:2937   */\n  0x24\n    /* \"#utility.yul\":2930:2931   */\n  0x00\n    /* \"#utility.yul\":2923:2938   */\n  revert\n    /* \"#utility.yul\":2950:3130   */\ntag_87:\n    /* \"#utility.yul\":2998:3075   */\n  0x4e487b7100000000000000000000000000000000000000000000000000000000\n    /* \"#utility.yul\":2995:2996   */\n  0x00\n    /* \"#utility.yul\":2988:3076   */\n  mstore\n    /* \"#utility.yul\":3095:3099   */\n  0x22\n    /* \"#utility.yul\":3092:3093   */\n  0x04\n    /* \"#utility.yul\":3085:3100   */\n  mstore\n    /* \"#utility.yul\":3119:3123   */\n  0x24\n    /* \"#utility.yul\":3116:3117   */\n  0x00\n    /* \"#utility.yul\":3109:3124   */\n  revert\n    /* \"#utility.yul\":3136:3317   */\ntag_61:\n    /* \"#utility.yul\":3276:3309   */\n  0x45524332303a206d696e7420746f20746865207a65726f206164647265737300\n    /* \"#utility.yul\":3272:3273   */\n  0x00\n    /* \"#utility.yul\":3264:3270   */\n  dup3\n    /* \"#utility.yul\":3260:3274   */\n  add\n    /* \"#utility.yul\":3253:3310   */\n  mstore\n    /* \"#utility.yul\":3242:3317   */\n  pop\n  jump\t// out\n    /* \"#utility.yul\":3323:3461   */\ntag_52:\n    /* \"#utility.yul\":3404:3436   */\n  tag_92\n    /* \"#utility.yul\":3430:3435   */\n  dup2\n    /* \"#utility.yul\":3404:3436   */\n  tag_77\n  jump\t// in\ntag_92:\n    /* \"#utility.yul\":3397:3402   */\n  dup2\n    /* \"#utility.yul\":3394:3437   */\n  eq\n    /* \"#utility.yul\":3384:3386   */\n  tag_93\n  jumpi\n    /* \"#utility.yul\":3451:3452   */\n  0x00\n    /* \"#utility.yul\":3448:3449   */\n  dup1\n    /* \"#utility.yul\":3441:3453   */\n  revert\n    /* \"#utility.yul\":3384:3386   */\ntag_93:\n    /* \"#utility.yul\":3374:3461   */\n  pop\n  jump\t// out\n    /* \"BlockGames_Task3/ypeterc20.sol\":173:1132  contract YPetToken is ERC20, Ownable {\r... */\ntag_19:\n  dataSize(sub_0)\n  dup1\n  dataOffset(sub_0)\n  0x00\n  codecopy\n  0x00\n  return\nstop\n\nsub_0: assembly {\n        /* \"BlockGames_Task3/ypeterc20.sol\":173:1132  contract YPetToken is ERC20, Ownable {\r... */\n      mstore(0x40, 0x80)\n      jumpi(tag_1, lt(calldatasize, 0x04))\n      shr(0xe0, calldataload(0x00))\n      dup1\n      0x70a08231\n      gt\n      tag_19\n      jumpi\n      dup1\n      0x95d89b41\n      gt\n      tag_20\n      jumpi\n      dup1\n      0x95d89b41\n      eq\n      tag_14\n      jumpi\n      dup1\n      0xa457c2d7\n      eq\n      tag_15\n      jumpi\n      dup1\n      0xa9059cbb\n      eq\n      tag_16\n      jumpi\n      dup1\n      0xdd62ed3e\n      eq\n      tag_17\n      jumpi\n      dup1\n      0xf2fde38b\n      eq\n      tag_18\n      jumpi\n      jump(tag_1)\n    tag_20:\n      dup1\n      0x70a08231\n      eq\n      tag_10\n      jumpi\n      dup1\n      0x715018a6\n      eq\n      tag_11\n      jumpi\n      dup1\n      0x7e72fb52\n      eq\n      tag_12\n      jumpi\n      dup1\n      0x8da5cb5b\n      eq\n      tag_13\n      jumpi\n      jump(tag_1)\n    tag_19:\n      dup1\n      0x2c4e722e\n      gt\n      tag_21\n      jumpi\n      dup1\n      0x2c4e722e\n      eq\n      tag_6\n      jumpi\n      dup1\n      0x313ce567\n      eq\n      tag_7\n      jumpi\n      dup1\n      0x39509351\n      eq\n      tag_8\n      jumpi\n      dup1\n      0x40c10f19\n      eq\n      tag_9\n      jumpi\n      jump(tag_1)\n    tag_21:\n      dup1\n      0x06fdde03\n      eq\n      tag_2\n      jumpi\n      dup1\n      0x095ea7b3\n      eq\n      tag_3\n      jumpi\n      dup1\n      0x18160ddd\n      eq\n      tag_4\n      jumpi\n      dup1\n      0x23b872dd\n      eq\n      tag_5\n      jumpi\n    tag_1:\n      0x00\n      dup1\n      revert\n        /* \"@openzeppelin/contracts/token/ERC20/ERC20.sol\":2156:2254  function name() public view virtual override returns (string memory) {... */\n    tag_2:\n      callvalue\n      dup1\n      iszero\n      tag_22\n      jumpi\n      0x00\n      dup1\n      revert\n    tag_22:\n      pop\n      tag_23\n      tag_24\n      jump\t// in\n    tag_23:\n      mload(0x40)\n      tag_25\n      swap2\n      swap1\n      tag_26\n      jump\t// in\n    tag_25:\n      mload(0x40)\n      dup1\n      swap2\n      sub\n      swap1\n      return\n        /* \"@openzeppelin/contracts/token/ERC20/ERC20.sol\":4433:4630  function approve(address spender, uint256 amount) public virtual override returns (bool) {... */\n    tag_3:\n      callvalue\n      dup1\n      iszero\n      tag_27\n      jumpi\n      0x00\n      dup1\n      revert\n    tag_27:\n      pop\n      tag_28\n      0x04\n      dup1\n      calldatasize\n      sub\n      dup2\n      add\n      swap1\n      tag_29\n      swap2\n      swap1\n      tag_30\n      jump\t// in\n    tag_29:\n      tag_31\n      jump\t// in\n    tag_28:\n      mload(0x40)\n      tag_32\n      swap2\n      swap1\n      tag_33\n      jump\t// in\n    tag_32:\n      mload(0x40)\n      dup1\n      swap2\n      sub\n      swap1\n      return\n        /* \"@openzeppelin/contracts/token/ERC20/ERC20.sol\":3244:3350  function totalSupply() public view virtual override returns (uint256) {... */\n    tag_4:\n      callvalue\n      dup1\n      iszero\n      tag_34\n      jumpi\n      0x00\n      dup1\n      revert\n    tag_34:\n      pop\n      tag_35\n      tag_36\n      jump\t// in\n    tag_35:\n      mload(0x40)\n      tag_37\n      swap2\n      swap1\n      tag_38\n      jump\t// in\n    tag_37:\n      mload(0x40)\n      dup1\n      swap2\n      sub\n      swap1\n      return\n        /* \"@openzeppelin/contracts/token/ERC20/ERC20.sol\":5192:5478  function transferFrom(... */\n    tag_5:\n      callvalue\n      dup1\n      iszero\n      tag_39\n      jumpi\n      0x00\n      dup1\n      revert\n    tag_39:\n      pop\n      tag_40\n      0x04\n      dup1\n      calldatasize\n      sub\n      dup2\n      add\n      swap1\n      tag_41\n      swap2\n      swap1\n      tag_42\n      jump\t// in\n    tag_41:\n      tag_43\n      jump\t// in\n    tag_40:\n      mload(0x40)\n      tag_44\n      swap2\n      swap1\n      tag_33\n      jump\t// in\n    tag_44:\n      mload(0x40)\n      dup1\n      swap2\n      sub\n      swap1\n      return\n        /* \"BlockGames_Task3/ypeterc20.sol\":308:334  uint256 public rate = 1000 */\n    tag_6:\n      callvalue\n      dup1\n      iszero\n      tag_45\n      jumpi\n      0x00\n      dup1\n      revert\n    tag_45:\n      pop\n      tag_46\n      tag_47\n      jump\t// in\n    tag_46:\n      mload(0x40)\n      tag_48\n      swap2\n      swap1\n      tag_38\n      jump\t// in\n    tag_48:\n      mload(0x40)\n      dup1\n      swap2\n      sub\n      swap1\n      return\n        /* \"@openzeppelin/contracts/token/ERC20/ERC20.sol\":3093:3184  function decimals() public view virtual override returns (uint8) {... */\n    tag_7:\n      callvalue\n      dup1\n      iszero\n      tag_49\n      jumpi\n      0x00\n      dup1\n      revert\n    tag_49:\n      pop\n      tag_50\n      tag_51\n      jump\t// in\n    tag_50:\n      mload(0x40)\n      tag_52\n      swap2\n      swap1\n      tag_53\n      jump\t// in\n    tag_52:\n      mload(0x40)\n      dup1\n      swap2\n      sub\n      swap1\n      return\n        /* \"@openzeppelin/contracts/token/ERC20/ERC20.sol\":5873:6109  function increaseAllowance(address spender, uint256 addedValue) public virtual returns (bool) {... */\n    tag_8:\n      callvalue\n      dup1\n      iszero\n      tag_54\n      jumpi\n      0x00\n      dup1\n      revert\n    tag_54:\n      pop\n      tag_55\n      0x04\n      dup1\n      calldatasize\n      sub\n      dup2\n      add\n      swap1\n      tag_56\n      swap2\n      swap1\n      tag_30\n      jump\t// in\n    tag_56:\n      tag_57\n      jump\t// in\n    tag_55:\n      mload(0x40)\n      tag_58\n      swap2\n      swap1\n      tag_33\n      jump\t// in\n    tag_58:\n      mload(0x40)\n      dup1\n      swap2\n      sub\n      swap1\n      return\n        /* \"BlockGames_Task3/ypeterc20.sol\":574:669  function mint(address to, uint256 amount) public onlyOwner {\r... */\n    tag_9:\n      callvalue\n      dup1\n      iszero\n      tag_59\n      jumpi\n      0x00\n      dup1\n      revert\n    tag_59:\n      pop\n      tag_60\n      0x04\n      dup1\n      calldatasize\n      sub\n      dup2\n      add\n      swap1\n      tag_61\n      swap2\n      swap1\n      tag_30\n      jump\t// in\n    tag_61:\n      tag_62\n      jump\t// in\n    tag_60:\n      stop\n        /* \"@openzeppelin/contracts/token/ERC20/ERC20.sol\":3408:3533  function balanceOf(address account) public view virtual override returns (uint256) {... */\n    tag_10:\n      callvalue\n      dup1\n      iszero\n      tag_63\n      jumpi\n      0x00\n      dup1\n      revert\n    tag_63:\n      pop\n      tag_64\n      0x04\n      dup1\n      calldatasize\n      sub\n      dup2\n      add\n      swap1\n      tag_65\n      swap2\n      swap1\n      tag_66\n      jump\t// in\n    tag_65:\n      tag_67\n      jump\t// in\n    tag_64:\n      mload(0x40)\n      tag_68\n      swap2\n      swap1\n      tag_38\n      jump\t// in\n    tag_68:\n      mload(0x40)\n      dup1\n      swap2\n      sub\n      swap1\n      return\n        /* \"@openzeppelin/contracts/access/Ownable.sol\":1668:1769  function renounceOwnership() public virtual onlyOwner {... */\n    tag_11:\n      callvalue\n      dup1\n      iszero\n      tag_69\n      jumpi\n      0x00\n      dup1\n      revert\n    tag_69:\n      pop\n      tag_70\n      tag_71\n      jump\t// in\n    tag_70:\n      stop\n        /* \"BlockGames_Task3/ypeterc20.sol\":677:1129  function buyToken(address receiver) public payable {\r... */\n    tag_12:\n      tag_72\n      0x04\n      dup1\n      calldatasize\n      sub\n      dup2\n      add\n      swap1\n      tag_73\n      swap2\n      swap1\n      tag_66\n      jump\t// in\n    tag_73:\n      tag_74\n      jump\t// in\n    tag_72:\n      stop\n        /* \"@openzeppelin/contracts/access/Ownable.sol\":1036:1121  function owner() public view virtual returns (address) {... */\n    tag_13:\n      callvalue\n      dup1\n      iszero\n      tag_75\n      jumpi\n      0x00\n      dup1\n      revert\n    tag_75:\n      pop\n      tag_76\n      tag_77\n      jump\t// in\n    tag_76:\n      mload(0x40)\n      tag_78\n      swap2\n      swap1\n      tag_79\n      jump\t// in\n    tag_78:\n      mload(0x40)\n      dup1\n      swap2\n      sub\n      swap1\n      return\n        /* \"@openzeppelin/contracts/token/ERC20/ERC20.sol\":2367:2469  function symbol() public view virtual override returns (string memory) {... */\n    tag_14:\n      callvalue\n      dup1\n      iszero\n      tag_80\n      jumpi\n      0x00\n      dup1\n      revert\n    tag_80:\n      pop\n      tag_81\n      tag_82\n      jump\t// in\n    tag_81:\n      mload(0x40)\n      tag_83\n      swap2\n      swap1\n      tag_26\n      jump\t// in\n    tag_83:\n      mload(0x40)\n      dup1\n      swap2\n      sub\n      swap1\n      return\n        /* \"@openzeppelin/contracts/token/ERC20/ERC20.sol\":6596:7025  function decreaseAllowance(address spender, uint256 subtractedValue) public virtual returns (bool) {... */\n    tag_15:\n      callvalue\n      dup1\n      iszero\n      tag_84\n      jumpi\n      0x00\n      dup1\n      revert\n    tag_84:\n      pop\n      tag_85\n      0x04\n      dup1\n      calldatasize\n      sub\n      dup2\n      add\n      swap1\n      tag_86\n      swap2\n      swap1\n      tag_30\n      jump\t// in\n    tag_86:\n      tag_87\n      jump\t// in\n    tag_85:\n      mload(0x40)\n      tag_88\n      swap2\n      swap1\n      tag_33\n      jump\t// in\n    tag_88:\n      mload(0x40)\n      dup1\n      swap2\n      sub\n      swap1\n      return\n        /* \"@openzeppelin/contracts/token/ERC20/ERC20.sol\":3729:3918  function transfer(address to, uint256 amount) public virtual override returns (bool) {... */\n    tag_16:\n      callvalue\n      dup1\n      iszero\n      tag_89\n      jumpi\n      0x00\n      dup1\n      revert\n    tag_89:\n      pop\n      tag_90\n      0x04\n      dup1\n      calldatasize\n      sub\n      dup2\n      add\n      swap1\n      tag_91\n      swap2\n      swap1\n      tag_30\n      jump\t// in\n    tag_91:\n      tag_92\n      jump\t// in\n    tag_90:\n      mload(0x40)\n      tag_93\n      swap2\n      swap1\n      tag_33\n      jump\t// in\n    tag_93:\n      mload(0x40)\n      dup1\n      swap2\n      sub\n      swap1\n      return\n        /* \"@openzeppelin/contracts/token/ERC20/ERC20.sol\":3976:4125  function allowance(address owner, address spender) public view virtual override returns (uint256) {... */\n    tag_17:\n      callvalue\n      dup1\n      iszero\n      tag_94\n      jumpi\n      0x00\n      dup1\n      revert\n    tag_94:\n      pop\n      tag_95\n      0x04\n      dup1\n      calldatasize\n      sub\n      dup2\n      add\n      swap1\n      tag_96\n      swap2\n      swap1\n      tag_97\n      jump\t// in\n    tag_96:\n      tag_98\n      jump\t// in\n    tag_95:\n      mload(0x40)\n      tag_99\n      swap2\n      swap1\n      tag_38\n      jump\t// in\n    tag_99:\n      mload(0x40)\n      dup1\n      swap2\n      sub\n      swap1\n      return\n        /* \"@openzeppelin/contracts/access/Ownable.sol\":1918:2116  function transferOwnership(address newOwner) public virtual onlyOwner {... */\n    tag_18:\n      callvalue\n      dup1\n      iszero\n      tag_100\n      jumpi\n      0x00\n      dup1\n      revert\n    tag_100:\n      pop\n      tag_101\n      0x04\n      dup1\n      calldatasize\n      sub\n      dup2\n      add\n      swap1\n      tag_102\n      swap2\n      swap1\n      tag_66\n      jump\t// in\n    tag_102:\n      tag_103\n      jump\t// in\n    tag_101:\n      stop\n        /* \"@openzeppelin/contracts/token/ERC20/ERC20.sol\":2156:2254  function name() public view virtual override returns (string memory) {... */\n    tag_24:\n        /* \"@openzeppelin/contracts/token/ERC20/ERC20.sol\":2210:2223  string memory */\n      0x60\n        /* \"@openzeppelin/contracts/token/ERC20/ERC20.sol\":2242:2247  _name */\n      0x03\n        /* \"@openzeppelin/contracts/token/ERC20/ERC20.sol\":2235:2247  return _name */\n      dup1\n      sload\n      tag_105\n      swap1\n      tag_106\n      jump\t// in\n    tag_105:\n      dup1\n      0x1f\n      add\n      0x20\n      dup1\n      swap2\n      div\n      mul\n      0x20\n      add\n      mload(0x40)\n      swap1\n      dup2\n      add\n      0x40\n      mstore\n      dup1\n      swap3\n      swap2\n      swap1\n      dup2\n      dup2\n      mstore\n      0x20\n      add\n      dup3\n      dup1\n      sload\n      tag_107\n      swap1\n      tag_106\n      jump\t// in\n    tag_107:\n      dup1\n      iszero\n      tag_108\n      jumpi\n      dup1\n      0x1f\n      lt\n      tag_109\n      jumpi\n      0x0100\n      dup1\n      dup4\n      sload\n      div\n      mul\n      dup4\n      mstore\n      swap2\n      0x20\n      add\n      swap2\n      jump(tag_108)\n    tag_109:\n      dup3\n      add\n      swap2\n      swap1\n      0x00\n      mstore\n      keccak256(0x00, 0x20)\n      swap1\n    tag_110:\n      dup2\n      sload\n      dup2\n      mstore\n      swap1\n      0x01\n      add\n      swap1\n      0x20\n      add\n      dup1\n      dup4\n      gt\n      tag_110\n      jumpi\n      dup3\n      swap1\n      sub\n      0x1f\n      and\n      dup3\n      add\n      swap2\n    tag_108:\n      pop\n      pop\n      pop\n      pop\n      pop\n      swap1\n      pop\n        /* \"@openzeppelin/contracts/token/ERC20/ERC20.sol\":2156:2254  function name() public view virtual override returns (string memory) {... */\n      swap1\n      jump\t// out\n        /* \"@openzeppelin/contracts/token/ERC20/ERC20.sol\":4433:4630  function approve(address spender, uint256 amount) public virtual override returns (bool) {... */\n    tag_31:\n        /* \"@openzeppelin/contracts/token/ERC20/ERC20.sol\":4516:4520  bool */\n      0x00\n        /* \"@openzeppelin/contracts/token/ERC20/ERC20.sol\":4532:4545  address owner */\n      dup1\n        /* \"@openzeppelin/contracts/token/ERC20/ERC20.sol\":4548:4560  _msgSender() */\n      tag_112\n        /* \"@openzeppelin/contracts/token/ERC20/ERC20.sol\":4548:4558  _msgSender */\n      tag_113\n        /* \"@openzeppelin/contracts/token/ERC20/ERC20.sol\":4548:4560  _msgSender() */\n      jump\t// in\n    tag_112:\n        /* \"@openzeppelin/contracts/token/ERC20/ERC20.sol\":4532:4560  address owner = _msgSender() */\n      swap1\n      pop\n        /* \"@openzeppelin/contracts/token/ERC20/ERC20.sol\":4570:4602  _approve(owner, spender, amount) */\n      tag_114\n        /* \"@openzeppelin/contracts/token/ERC20/ERC20.sol\":4579:4584  owner */\n      dup2\n        /* \"@openzeppelin/contracts/token/ERC20/ERC20.sol\":4586:4593  spender */\n      dup6\n        /* \"@openzeppelin/contracts/token/ERC20/ERC20.sol\":4595:4601  amount */\n      dup6\n        /* \"@openzeppelin/contracts/token/ERC20/ERC20.sol\":4570:4578  _approve */\n      tag_115\n        /* \"@openzeppelin/contracts/token/ERC20/ERC20.sol\":4570:4602  _approve(owner, spender, amount) */\n      jump\t// in\n    tag_114:\n        /* \"@openzeppelin/contracts/token/ERC20/ERC20.sol\":4619:4623  true */\n      0x01\n        /* \"@openzeppelin/contracts/token/ERC20/ERC20.sol\":4612:4623  return true */\n      swap2\n      pop\n      pop\n        /* \"@openzeppelin/contracts/token/ERC20/ERC20.sol\":4433:4630  function approve(address spender, uint256 amount) public virtual override returns (bool) {... */\n      swap3\n      swap2\n      pop\n      pop\n      jump\t// out\n        /* \"@openzeppelin/contracts/token/ERC20/ERC20.sol\":3244:3350  function totalSupply() public view virtual override returns (uint256) {... */\n    tag_36:\n        /* \"@openzeppelin/contracts/token/ERC20/ERC20.sol\":3305:3312  uint256 */\n      0x00\n        /* \"@openzeppelin/contracts/token/ERC20/ERC20.sol\":3331:3343  _totalSupply */\n      sload(0x02)\n        /* \"@openzeppelin/contracts/token/ERC20/ERC20.sol\":3324:3343  return _totalSupply */\n      swap1\n      pop\n        /* \"@openzeppelin/contracts/token/ERC20/ERC20.sol\":3244:3350  function totalSupply() public view virtual override returns (uint256) {... */\n      swap1\n      jump\t// out\n        /* \"@openzeppelin/contracts/token/ERC20/ERC20.sol\":5192:5478  function transferFrom(... */\n    tag_43:\n        /* \"@openzeppelin/contracts/token/ERC20/ERC20.sol\":5319:5323  bool */\n      0x00\n        /* \"@openzeppelin/contracts/token/ERC20/ERC20.sol\":5335:5350  address spender */\n      dup1\n        /* \"@openzeppelin/contracts/token/ERC20/ERC20.sol\":5353:5365  _msgSender() */\n      tag_118\n        /* \"@openzeppelin/contracts/token/ERC20/ERC20.sol\":5353:5363  _msgSender */\n      tag_113\n        /* \"@openzeppelin/contracts/token/ERC20/ERC20.sol\":5353:5365  _msgSender() */\n      jump\t// in\n    tag_118:\n        /* \"@openzeppelin/contracts/token/ERC20/ERC20.sol\":5335:5365  address spender = _msgSender() */\n      swap1\n      pop\n        /* \"@openzeppelin/contracts/token/ERC20/ERC20.sol\":5375:5413  _spendAllowance(from, spender, amount) */\n      tag_119\n        /* \"@openzeppelin/contracts/token/ERC20/ERC20.sol\":5391:5395  from */\n      dup6\n        /* \"@openzeppelin/contracts/token/ERC20/ERC20.sol\":5397:5404  spender */\n      dup3\n        /* \"@openzeppelin/contracts/token/ERC20/ERC20.sol\":5406:5412  amount */\n      dup6\n        /* \"@openzeppelin/contracts/token/ERC20/ERC20.sol\":5375:5390  _spendAllowance */\n      tag_120\n        /* \"@openzeppelin/contracts/token/ERC20/ERC20.sol\":5375:5413  _spendAllowance(from, spender, amount) */\n      jump\t// in\n    tag_119:\n        /* \"@openzeppelin/contracts/token/ERC20/ERC20.sol\":5423:5450  _transfer(from, to, amount) */\n      tag_121\n        /* \"@openzeppelin/contracts/token/ERC20/ERC20.sol\":5433:5437  from */\n      dup6\n        /* \"@openzeppelin/contracts/token/ERC20/ERC20.sol\":5439:5441  to */\n      dup6\n        /* \"@openzeppelin/contracts/token/ERC20/ERC20.sol\":5443:5449  amount */\n      dup6\n        /* \"@openzeppelin/contracts/token/ERC20/ERC20.sol\":5423:5432  _transfer */\n      tag_122\n        /* \"@openzeppelin/contracts/token/ERC20/ERC20.sol\":5423:5450  _transfer(from, to, amount) */\n      jump\t// in\n    tag_121:\n        /* \"@openzeppelin/contracts/token/ERC20/ERC20.sol\":5467:5471  true */\n      0x01\n        /* \"@openzeppelin/contracts/token/ERC20/ERC20.sol\":5460:5471  return true */\n      swap2\n      pop\n      pop\n        /* \"@openzeppelin/contracts/token/ERC20/ERC20.sol\":5192:5478  function transferFrom(... */\n      swap4\n      swap3\n      pop\n      pop\n      pop\n      jump\t// out\n        /* \"BlockGames_Task3/ypeterc20.sol\":308:334  uint256 public rate = 1000 */\n    tag_47:\n      sload(0x09)\n      dup2\n      jump\t// out\n        /* \"@openzeppelin/contracts/token/ERC20/ERC20.sol\":3093:3184  function decimals() public view virtual override returns (uint8) {... */\n    tag_51:\n        /* \"@openzeppelin/contracts/token/ERC20/ERC20.sol\":3151:3156  uint8 */\n      0x00\n        /* \"@openzeppelin/contracts/token/ERC20/ERC20.sol\":3175:3177  18 */\n      0x12\n        /* \"@openzeppelin/contracts/token/ERC20/ERC20.sol\":3168:3177  return 18 */\n      swap1\n      pop\n        /* \"@openzeppelin/contracts/token/ERC20/ERC20.sol\":3093:3184  function decimals() public view virtual override returns (uint8) {... */\n      swap1\n      jump\t// out\n        /* \"@openzeppelin/contracts/token/ERC20/ERC20.sol\":5873:6109  function increaseAllowance(address spender, uint256 addedValue) public virtual returns (bool) {... */\n    tag_57:\n        /* \"@openzeppelin/contracts/token/ERC20/ERC20.sol\":5961:5965  bool */\n      0x00\n        /* \"@openzeppelin/contracts/token/ERC20/ERC20.sol\":5977:5990  address owner */\n      dup1\n        /* \"@openzeppelin/contracts/token/ERC20/ERC20.sol\":5993:6005  _msgSender() */\n      tag_125\n        /* \"@openzeppelin/contracts/token/ERC20/ERC20.sol\":5993:6003  _msgSender */\n      tag_113\n        /* \"@openzeppelin/contracts/token/ERC20/ERC20.sol\":5993:6005  _msgSender() */\n      jump\t// in\n    tag_125:\n        /* \"@openzeppelin/contracts/token/ERC20/ERC20.sol\":5977:6005  address owner = _msgSender() */\n      swap1\n      pop\n        /* \"@openzeppelin/contracts/token/ERC20/ERC20.sol\":6015:6081  _approve(owner, spender, _allowances[owner][spender] + addedValue) */\n      tag_126\n        /* \"@openzeppelin/contracts/token/ERC20/ERC20.sol\":6024:6029  owner */\n      dup2\n        /* \"@openzeppelin/contracts/token/ERC20/ERC20.sol\":6031:6038  spender */\n      dup6\n        /* \"@openzeppelin/contracts/token/ERC20/ERC20.sol\":6070:6080  addedValue */\n      dup6\n        /* \"@openzeppelin/contracts/token/ERC20/ERC20.sol\":6040:6051  _allowances */\n      0x01\n        /* \"@openzeppelin/contracts/token/ERC20/ERC20.sol\":6040:6058  _allowances[owner] */\n      0x00\n        /* \"@openzeppelin/contracts/token/ERC20/ERC20.sol\":6052:6057  owner */\n      dup7\n        /* \"@openzeppelin/contracts/token/ERC20/ERC20.sol\":6040:6058  _allowances[owner] */\n      0xffffffffffffffffffffffffffffffffffffffff\n      and\n      0xffffffffffffffffffffffffffffffffffffffff\n      and\n      dup2\n      mstore\n      0x20\n      add\n      swap1\n      dup2\n      mstore\n      0x20\n      add\n      0x00\n      keccak256\n        /* \"@openzeppelin/contracts/token/ERC20/ERC20.sol\":6040:6067  _allowances[owner][spender] */\n      0x00\n        /* \"@openzeppelin/contracts/token/ERC20/ERC20.sol\":6059:6066  spender */\n      dup10\n        /* \"@openzeppelin/contracts/token/ERC20/ERC20.sol\":6040:6067  _allowances[owner][spender] */\n      0xffffffffffffffffffffffffffffffffffffffff\n      and\n      0xffffffffffffffffffffffffffffffffffffffff\n      and\n      dup2\n      mstore\n      0x20\n      add\n      swap1\n      dup2\n      mstore\n      0x20\n      add\n      0x00\n      keccak256\n      sload\n        /* \"@openzeppelin/contracts/token/ERC20/ERC20.sol\":6040:6080  _allowances[owner][spender] + addedValue */\n      tag_127\n      swap2\n      swap1\n      tag_128\n      jump\t// in\n    tag_127:\n        /* \"@openzeppelin/contracts/token/ERC20/ERC20.sol\":6015:6023  _approve */\n      tag_115\n        /* \"@openzeppelin/contracts/token/ERC20/ERC20.sol\":6015:6081  _approve(owner, spender, _allowances[owner][spender] + addedValue) */\n      jump\t// in\n    tag_126:\n        /* \"@openzeppelin/contracts/token/ERC20/ERC20.sol\":6098:6102  true */\n      0x01\n        /* \"@openzeppelin/contracts/token/ERC20/ERC20.sol\":6091:6102  return true */\n      swap2\n      pop\n      pop\n        /* \"@openzeppelin/contracts/token/ERC20/ERC20.sol\":5873:6109  function increaseAllowance(address spender, uint256 addedValue) public virtual returns (bool) {... */\n      swap3\n      swap2\n      pop\n      pop\n      jump\t// out\n        /* \"BlockGames_Task3/ypeterc20.sol\":574:669  function mint(address to, uint256 amount) public onlyOwner {\r... */\n    tag_62:\n        /* \"@openzeppelin/contracts/access/Ownable.sol\":1259:1271  _msgSender() */\n      tag_130\n        /* \"@openzeppelin/contracts/access/Ownable.sol\":1259:1269  _msgSender */\n      tag_113\n        /* \"@openzeppelin/contracts/access/Ownable.sol\":1259:1271  _msgSender() */\n      jump\t// in\n    tag_130:\n        /* \"@openzeppelin/contracts/access/Ownable.sol\":1248:1271  owner() == _msgSender() */\n      0xffffffffffffffffffffffffffffffffffffffff\n      and\n        /* \"@openzeppelin/contracts/access/Ownable.sol\":1248:1255  owner() */\n      tag_131\n        /* \"@openzeppelin/contracts/access/Ownable.sol\":1248:1253  owner */\n      tag_77\n        /* \"@openzeppelin/contracts/access/Ownable.sol\":1248:1255  owner() */\n      jump\t// in\n    tag_131:\n        /* \"@openzeppelin/contracts/access/Ownable.sol\":1248:1271  owner() == _msgSender() */\n      0xffffffffffffffffffffffffffffffffffffffff\n      and\n      eq\n        /* \"@openzeppelin/contracts/access/Ownable.sol\":1240:1308  require(owner() == _msgSender(), \"Ownable: caller is not the owner\") */\n      tag_132\n      jumpi\n      mload(0x40)\n      0x08c379a000000000000000000000000000000000000000000000000000000000\n      dup2\n      mstore\n      0x04\n      add\n      tag_133\n      swap1\n      tag_134\n      jump\t// in\n    tag_133:\n      mload(0x40)\n      dup1\n      swap2\n      sub\n      swap1\n      revert\n    tag_132:\n        /* \"BlockGames_Task3/ypeterc20.sol\":644:661  _mint(to, amount) */\n      tag_136\n        /* \"BlockGames_Task3/ypeterc20.sol\":650:652  to */\n      dup3\n        /* \"BlockGames_Task3/ypeterc20.sol\":654:660  amount */\n      dup3\n        /* \"BlockGames_Task3/ypeterc20.sol\":644:649  _mint */\n      tag_137\n        /* \"BlockGames_Task3/ypeterc20.sol\":644:661  _mint(to, amount) */\n      jump\t// in\n    tag_136:\n        /* \"BlockGames_Task3/ypeterc20.sol\":574:669  function mint(address to, uint256 amount) public onlyOwner {\r... */\n      pop\n      pop\n      jump\t// out\n        /* \"@openzeppelin/contracts/token/ERC20/ERC20.sol\":3408:3533  function balanceOf(address account) public view virtual override returns (uint256) {... */\n    tag_67:\n        /* \"@openzeppelin/contracts/token/ERC20/ERC20.sol\":3482:3489  uint256 */\n      0x00\n        /* \"@openzeppelin/contracts/token/ERC20/ERC20.sol\":3508:3517  _balances */\n      dup1\n        /* \"@openzeppelin/contracts/token/ERC20/ERC20.sol\":3508:3526  _balances[account] */\n      0x00\n        /* \"@openzeppelin/contracts/token/ERC20/ERC20.sol\":3518:3525  account */\n      dup4\n        /* \"@openzeppelin/contracts/token/ERC20/ERC20.sol\":3508:3526  _balances[account] */\n      0xffffffffffffffffffffffffffffffffffffffff\n      and\n      0xffffffffffffffffffffffffffffffffffffffff\n      and\n      dup2\n      mstore\n      0x20\n      add\n      swap1\n      dup2\n      mstore\n      0x20\n      add\n      0x00\n      keccak256\n      sload\n        /* \"@openzeppelin/contracts/token/ERC20/ERC20.sol\":3501:3526  return _balances[account] */\n      swap1\n      pop\n        /* \"@openzeppelin/contracts/token/ERC20/ERC20.sol\":3408:3533  function balanceOf(address account) public view virtual override returns (uint256) {... */\n      swap2\n      swap1\n      pop\n      jump\t// out\n        /* \"@openzeppelin/contracts/access/Ownable.sol\":1668:1769  function renounceOwnership() public virtual onlyOwner {... */\n    tag_71:\n        /* \"@openzeppelin/contracts/access/Ownable.sol\":1259:1271  _msgSender() */\n      tag_140\n        /* \"@openzeppelin/contracts/access/Ownable.sol\":1259:1269  _msgSender */\n      tag_113\n        /* \"@openzeppelin/contracts/access/Ownable.sol\":1259:1271  _msgSender() */\n      jump\t// in\n    tag_140:\n        /* \"@openzeppelin/contracts/access/Ownable.sol\":1248:1271  owner() == _msgSender() */\n      0xffffffffffffffffffffffffffffffffffffffff\n      and\n        /* \"@openzeppelin/contracts/access/Ownable.sol\":1248:1255  owner() */\n      tag_141\n        /* \"@openzeppelin/contracts/access/Ownable.sol\":1248:1253  owner */\n      tag_77\n        /* \"@openzeppelin/contracts/access/Ownable.sol\":1248:1255  owner() */\n      jump\t// in\n    tag_141:\n        /* \"@openzeppelin/contracts/access/Ownable.sol\":1248:1271  owner() == _msgSender() */\n      0xffffffffffffffffffffffffffffffffffffffff\n      and\n      eq\n        /* \"@openzeppelin/contracts/access/Ownable.sol\":1240:1308  require(owner() == _msgSender(), \"Ownable: caller is not the owner\") */\n      tag_142\n      jumpi\n      mload(0x40)\n      0x08c379a000000000000000000000000000000000000000000000000000000000\n      dup2\n      mstore\n      0x04\n      add\n      tag_143\n      swap1\n      tag_134\n      jump\t// in\n    tag_143:\n      mload(0x40)\n      dup1\n      swap2\n      sub\n      swap1\n      revert\n    tag_142:\n        /* \"@openzeppelin/contracts/access/Ownable.sol\":1732:1762  _transferOwnership(address(0)) */\n      tag_145\n        /* \"@openzeppelin/contracts/access/Ownable.sol\":1759:1760  0 */\n      0x00\n        /* \"@openzeppelin/contracts/access/Ownable.sol\":1732:1750  _transferOwnership */\n      tag_146\n        /* \"@openzeppelin/contracts/access/Ownable.sol\":1732:1762  _transferOwnership(address(0)) */\n      jump\t// in\n    tag_145:\n        /* \"@openzeppelin/contracts/access/Ownable.sol\":1668:1769  function renounceOwnership() public virtual onlyOwner {... */\n      jump\t// out\n        /* \"BlockGames_Task3/ypeterc20.sol\":677:1129  function buyToken(address receiver) public payable {\r... */\n    tag_74:\n        /* \"BlockGames_Task3/ypeterc20.sol\":760:770  1 * 10**18 */\n      0x0de0b6b3a7640000\n        /* \"BlockGames_Task3/ypeterc20.sol\":747:756  msg.value */\n      callvalue\n        /* \"BlockGames_Task3/ypeterc20.sol\":747:770  msg.value >= 1 * 10**18 */\n      lt\n      iszero\n        /* \"BlockGames_Task3/ypeterc20.sol\":739:808  require(msg.value >= 1 * 10**18, \"Insufficient Balance for purchase\") */\n      tag_148\n      jumpi\n      mload(0x40)\n      0x08c379a000000000000000000000000000000000000000000000000000000000\n      dup2\n      mstore\n      0x04\n      add\n      tag_149\n      swap1\n      tag_150\n      jump\t// in\n    tag_149:\n      mload(0x40)\n      dup1\n      swap2\n      sub\n      swap1\n      revert\n    tag_148:\n        /* \"BlockGames_Task3/ypeterc20.sol\":819:826  yWallet */\n      0x06\n      0x00\n      swap1\n      sload\n      swap1\n      0x0100\n      exp\n      swap1\n      div\n      0xffffffffffffffffffffffffffffffffffffffff\n      and\n        /* \"BlockGames_Task3/ypeterc20.sol\":819:835  yWallet.transfer */\n      0xffffffffffffffffffffffffffffffffffffffff\n      and\n        /* \"BlockGames_Task3/ypeterc20.sol\":819:846  yWallet.transfer(msg.value) */\n      0x08fc\n        /* \"BlockGames_Task3/ypeterc20.sol\":836:845  msg.value */\n      callvalue\n        /* \"BlockGames_Task3/ypeterc20.sol\":819:846  yWallet.transfer(msg.value) */\n      swap1\n      dup2\n      iszero\n      mul\n      swap1\n      mload(0x40)\n      0x00\n      mload(0x40)\n      dup1\n      dup4\n      sub\n      dup2\n      dup6\n      dup9\n      dup9\n      call\n      swap4\n      pop\n      pop\n      pop\n      pop\n      iszero\n      dup1\n      iszero\n      tag_152\n      jumpi\n      returndatasize\n      0x00\n      dup1\n      returndatacopy\n      revert(0x00, returndatasize)\n    tag_152:\n      pop\n        /* \"BlockGames_Task3/ypeterc20.sol\":858:877  uint256 amountToBuy */\n      0x00\n        /* \"BlockGames_Task3/ypeterc20.sol\":892:898  10**18 */\n      0x0de0b6b3a7640000\n        /* \"BlockGames_Task3/ypeterc20.sol\":880:889  msg.value */\n      callvalue\n        /* \"BlockGames_Task3/ypeterc20.sol\":880:898  msg.value / 10**18 */\n      tag_153\n      swap2\n      swap1\n      tag_154\n      jump\t// in\n    tag_153:\n        /* \"BlockGames_Task3/ypeterc20.sol\":858:898  uint256 amountToBuy = msg.value / 10**18 */\n      swap1\n      pop\n        /* \"BlockGames_Task3/ypeterc20.sol\":1015:1026  amountToBuy */\n      dup1\n        /* \"BlockGames_Task3/ypeterc20.sol\":999:1011  _totalSupply */\n      0x07\n      0x00\n        /* \"BlockGames_Task3/ypeterc20.sol\":999:1026  _totalSupply -= amountToBuy */\n      dup3\n      dup3\n      sload\n      tag_155\n      swap2\n      swap1\n      tag_156\n      jump\t// in\n    tag_155:\n      swap3\n      pop\n      pop\n      dup2\n      swap1\n      sstore\n      pop\n        /* \"BlockGames_Task3/ypeterc20.sol\":1037:1065  _mint(receiver, amountToBuy) */\n      tag_157\n        /* \"BlockGames_Task3/ypeterc20.sol\":1043:1051  receiver */\n      dup3\n        /* \"BlockGames_Task3/ypeterc20.sol\":1053:1064  amountToBuy */\n      dup3\n        /* \"BlockGames_Task3/ypeterc20.sol\":1037:1042  _mint */\n      tag_137\n        /* \"BlockGames_Task3/ypeterc20.sol\":1037:1065  _mint(receiver, amountToBuy) */\n      jump\t// in\n    tag_157:\n        /* \"BlockGames_Task3/ypeterc20.sol\":1081:1121  onBuy(msg.sender, receiver, amountToBuy) */\n      0x1f437f9d9a2cd912a1b9ef9573239cfd5bfc901558877d14b92f4be14dd23f39\n        /* \"BlockGames_Task3/ypeterc20.sol\":1087:1097  msg.sender */\n      caller\n        /* \"BlockGames_Task3/ypeterc20.sol\":1099:1107  receiver */\n      dup4\n        /* \"BlockGames_Task3/ypeterc20.sol\":1109:1120  amountToBuy */\n      dup4\n        /* \"BlockGames_Task3/ypeterc20.sol\":1081:1121  onBuy(msg.sender, receiver, amountToBuy) */\n      mload(0x40)\n      tag_158\n      swap4\n      swap3\n      swap2\n      swap1\n      tag_159\n      jump\t// in\n    tag_158:\n      mload(0x40)\n      dup1\n      swap2\n      sub\n      swap1\n      log1\n        /* \"BlockGames_Task3/ypeterc20.sol\":677:1129  function buyToken(address receiver) public payable {\r... */\n      pop\n      pop\n      jump\t// out\n        /* \"@openzeppelin/contracts/access/Ownable.sol\":1036:1121  function owner() public view virtual returns (address) {... */\n    tag_77:\n        /* \"@openzeppelin/contracts/access/Ownable.sol\":1082:1089  address */\n      0x00\n        /* \"@openzeppelin/contracts/access/Ownable.sol\":1108:1114  _owner */\n      0x05\n      0x00\n      swap1\n      sload\n      swap1\n      0x0100\n      exp\n      swap1\n      div\n      0xffffffffffffffffffffffffffffffffffffffff\n      and\n        /* \"@openzeppelin/contracts/access/Ownable.sol\":1101:1114  return _owner */\n      swap1\n      pop\n        /* \"@openzeppelin/contracts/access/Ownable.sol\":1036:1121  function owner() public view virtual returns (address) {... */\n      swap1\n      jump\t// out\n        /* \"@openzeppelin/contracts/token/ERC20/ERC20.sol\":2367:2469  function symbol() public view virtual override returns (string memory) {... */\n    tag_82:\n        /* \"@openzeppelin/contracts/token/ERC20/ERC20.sol\":2423:2436  string memory */\n      0x60\n        /* \"@openzeppelin/contracts/token/ERC20/ERC20.sol\":2455:2462  _symbol */\n      0x04\n        /* \"@openzeppelin/contracts/token/ERC20/ERC20.sol\":2448:2462  return _symbol */\n      dup1\n      sload\n      tag_162\n      swap1\n      tag_106\n      jump\t// in\n    tag_162:\n      dup1\n      0x1f\n      add\n      0x20\n      dup1\n      swap2\n      div\n      mul\n      0x20\n      add\n      mload(0x40)\n      swap1\n      dup2\n      add\n      0x40\n      mstore\n      dup1\n      swap3\n      swap2\n      swap1\n      dup2\n      dup2\n      mstore\n      0x20\n      add\n      dup3\n      dup1\n      sload\n      tag_163\n      swap1\n      tag_106\n      jump\t// in\n    tag_163:\n      dup1\n      iszero\n      tag_164\n      jumpi\n      dup1\n      0x1f\n      lt\n      tag_165\n      jumpi\n      0x0100\n      dup1\n      dup4\n      sload\n      div\n      mul\n      dup4\n      mstore\n      swap2\n      0x20\n      add\n      swap2\n      jump(tag_164)\n    tag_165:\n      dup3\n      add\n      swap2\n      swap1\n      0x00\n      mstore\n      keccak256(0x00, 0x20)\n      swap1\n    tag_166:\n      dup2\n      sload\n      dup2\n      mstore\n      swap1\n      0x01\n      add\n      swap1\n      0x20\n      add\n      dup1\n      dup4\n      gt\n      tag_166\n      jumpi\n      dup3\n      swap1\n      sub\n      0x1f\n      and\n      dup3\n      add\n      swap2\n    tag_164:\n      pop\n      pop\n      pop\n      pop\n      pop\n      swap1\n      pop\n        /* \"@openzeppelin/contracts/token/ERC20/ERC20.sol\":2367:2469  function symbol() public view virtual override returns (string memory) {... */\n      swap1\n      jump\t// out\n        /* \"@openzeppelin/contracts/token/ERC20/ERC20.sol\":6596:7025  function decreaseAllowance(address spender, uint256 subtractedValue) public virtual returns (bool) {... */\n    tag_87:\n        /* \"@openzeppelin/contracts/token/ERC20/ERC20.sol\":6689:6693  bool */\n      0x00\n        /* \"@openzeppelin/contracts/token/ERC20/ERC20.sol\":6705:6718  address owner */\n      dup1\n        /* \"@openzeppelin/contracts/token/ERC20/ERC20.sol\":6721:6733  _msgSender() */\n      tag_168\n        /* \"@openzeppelin/contracts/token/ERC20/ERC20.sol\":6721:6731  _msgSender */\n      tag_113\n        /* \"@openzeppelin/contracts/token/ERC20/ERC20.sol\":6721:6733  _msgSender() */\n      jump\t// in\n    tag_168:\n        /* \"@openzeppelin/contracts/token/ERC20/ERC20.sol\":6705:6733  address owner = _msgSender() */\n      swap1\n      pop\n        /* \"@openzeppelin/contracts/token/ERC20/ERC20.sol\":6743:6767  uint256 currentAllowance */\n      0x00\n        /* \"@openzeppelin/contracts/token/ERC20/ERC20.sol\":6770:6781  _allowances */\n      0x01\n        /* \"@openzeppelin/contracts/token/ERC20/ERC20.sol\":6770:6788  _allowances[owner] */\n      0x00\n        /* \"@openzeppelin/contracts/token/ERC20/ERC20.sol\":6782:6787  owner */\n      dup4\n        /* \"@openzeppelin/contracts/token/ERC20/ERC20.sol\":6770:6788  _allowances[owner] */\n      0xffffffffffffffffffffffffffffffffffffffff\n      and\n      0xffffffffffffffffffffffffffffffffffffffff\n      and\n      dup2\n      mstore\n      0x20\n      add\n      swap1\n      dup2\n      mstore\n      0x20\n      add\n      0x00\n      keccak256\n        /* \"@openzeppelin/contracts/token/ERC20/ERC20.sol\":6770:6797  _allowances[owner][spender] */\n      0x00\n        /* \"@openzeppelin/contracts/token/ERC20/ERC20.sol\":6789:6796  spender */\n      dup7\n        /* \"@openzeppelin/contracts/token/ERC20/ERC20.sol\":6770:6797  _allowances[owner][spender] */\n      0xffffffffffffffffffffffffffffffffffffffff\n      and\n      0xffffffffffffffffffffffffffffffffffffffff\n      and\n      dup2\n      mstore\n      0x20\n      add\n      swap1\n      dup2\n      mstore\n      0x20\n      add\n      0x00\n      keccak256\n      sload\n        /* \"@openzeppelin/contracts/token/ERC20/ERC20.sol\":6743:6797  uint256 currentAllowance = _allowances[owner][spender] */\n      swap1\n      pop\n        /* \"@openzeppelin/contracts/token/ERC20/ERC20.sol\":6835:6850  subtractedValue */\n      dup4\n        /* \"@openzeppelin/contracts/token/ERC20/ERC20.sol\":6815:6831  currentAllowance */\n      dup2\n        /* \"@openzeppelin/contracts/token/ERC20/ERC20.sol\":6815:6850  currentAllowance >= subtractedValue */\n      lt\n      iszero\n        /* \"@openzeppelin/contracts/token/ERC20/ERC20.sol\":6807:6892  require(currentAllowance >= subtractedValue, \"ERC20: decreased allowance below zero\") */\n      tag_169\n      jumpi\n      mload(0x40)\n      0x08c379a000000000000000000000000000000000000000000000000000000000\n      dup2\n      mstore\n      0x04\n      add\n      tag_170\n      swap1\n      tag_171\n      jump\t// in\n    tag_170:\n      mload(0x40)\n      dup1\n      swap2\n      sub\n      swap1\n      revert\n    tag_169:\n        /* \"@openzeppelin/contracts/token/ERC20/ERC20.sol\":6926:6986  _approve(owner, spender, currentAllowance - subtractedValue) */\n      tag_172\n        /* \"@openzeppelin/contracts/token/ERC20/ERC20.sol\":6935:6940  owner */\n      dup3\n        /* \"@openzeppelin/contracts/token/ERC20/ERC20.sol\":6942:6949  spender */\n      dup7\n        /* \"@openzeppelin/contracts/token/ERC20/ERC20.sol\":6970:6985  subtractedValue */\n      dup7\n        /* \"@openzeppelin/contracts/token/ERC20/ERC20.sol\":6951:6967  currentAllowance */\n      dup5\n        /* \"@openzeppelin/contracts/token/ERC20/ERC20.sol\":6951:6985  currentAllowance - subtractedValue */\n      sub\n        /* \"@openzeppelin/contracts/token/ERC20/ERC20.sol\":6926:6934  _approve */\n      tag_115\n        /* \"@openzeppelin/contracts/token/ERC20/ERC20.sol\":6926:6986  _approve(owner, spender, currentAllowance - subtractedValue) */\n      jump\t// in\n    tag_172:\n        /* \"@openzeppelin/contracts/token/ERC20/ERC20.sol\":7014:7018  true */\n      0x01\n        /* \"@openzeppelin/contracts/token/ERC20/ERC20.sol\":7007:7018  return true */\n      swap3\n      pop\n      pop\n      pop\n        /* \"@openzeppelin/contracts/token/ERC20/ERC20.sol\":6596:7025  function decreaseAllowance(address spender, uint256 subtractedValue) public virtual returns (bool) {... */\n      swap3\n      swap2\n      pop\n      pop\n      jump\t// out\n        /* \"@openzeppelin/contracts/token/ERC20/ERC20.sol\":3729:3918  function transfer(address to, uint256 amount) public virtual override returns (bool) {... */\n    tag_92:\n        /* \"@openzeppelin/contracts/token/ERC20/ERC20.sol\":3808:3812  bool */\n      0x00\n        /* \"@openzeppelin/contracts/token/ERC20/ERC20.sol\":3824:3837  address owner */\n      dup1\n        /* \"@openzeppelin/contracts/token/ERC20/ERC20.sol\":3840:3852  _msgSender() */\n      tag_174\n        /* \"@openzeppelin/contracts/token/ERC20/ERC20.sol\":3840:3850  _msgSender */\n      tag_113\n        /* \"@openzeppelin/contracts/token/ERC20/ERC20.sol\":3840:3852  _msgSender() */\n      jump\t// in\n    tag_174:\n        /* \"@openzeppelin/contracts/token/ERC20/ERC20.sol\":3824:3852  address owner = _msgSender() */\n      swap1\n      pop\n        /* \"@openzeppelin/contracts/token/ERC20/ERC20.sol\":3862:3890  _transfer(owner, to, amount) */\n      tag_175\n        /* \"@openzeppelin/contracts/token/ERC20/ERC20.sol\":3872:3877  owner */\n      dup2\n        /* \"@openzeppelin/contracts/token/ERC20/ERC20.sol\":3879:3881  to */\n      dup6\n        /* \"@openzeppelin/contracts/token/ERC20/ERC20.sol\":3883:3889  amount */\n      dup6\n        /* \"@openzeppelin/contracts/token/ERC20/ERC20.sol\":3862:3871  _transfer */\n      tag_122\n        /* \"@openzeppelin/contracts/token/ERC20/ERC20.sol\":3862:3890  _transfer(owner, to, amount) */\n      jump\t// in\n    tag_175:\n        /* \"@openzeppelin/contracts/token/ERC20/ERC20.sol\":3907:3911  true */\n      0x01\n        /* \"@openzeppelin/contracts/token/ERC20/ERC20.sol\":3900:3911  return true */\n      swap2\n      pop\n      pop\n        /* \"@openzeppelin/contracts/token/ERC20/ERC20.sol\":3729:3918  function transfer(address to, uint256 amount) public virtual override returns (bool) {... */\n      swap3\n      swap2\n      pop\n      pop\n      jump\t// out\n        /* \"@openzeppelin/contracts/token/ERC20/ERC20.sol\":3976:4125  function allowance(address owner, address spender) public view virtual override returns (uint256) {... */\n    tag_98:\n        /* \"@openzeppelin/contracts/token/ERC20/ERC20.sol\":4065:4072  uint256 */\n      0x00\n        /* \"@openzeppelin/contracts/token/ERC20/ERC20.sol\":4091:4102  _allowances */\n      0x01\n        /* \"@openzeppelin/contracts/token/ERC20/ERC20.sol\":4091:4109  _allowances[owner] */\n      0x00\n        /* \"@openzeppelin/contracts/token/ERC20/ERC20.sol\":4103:4108  owner */\n      dup5\n        /* \"@openzeppelin/contracts/token/ERC20/ERC20.sol\":4091:4109  _allowances[owner] */\n      0xffffffffffffffffffffffffffffffffffffffff\n      and\n      0xffffffffffffffffffffffffffffffffffffffff\n      and\n      dup2\n      mstore\n      0x20\n      add\n      swap1\n      dup2\n      mstore\n      0x20\n      add\n      0x00\n      keccak256\n        /* \"@openzeppelin/contracts/token/ERC20/ERC20.sol\":4091:4118  _allowances[owner][spender] */\n      0x00\n        /* \"@openzeppelin/contracts/token/ERC20/ERC20.sol\":4110:4117  spender */\n      dup4\n        /* \"@openzeppelin/contracts/token/ERC20/ERC20.sol\":4091:4118  _allowances[owner][spender] */\n      0xffffffffffffffffffffffffffffffffffffffff\n      and\n      0xffffffffffffffffffffffffffffffffffffffff\n      and\n      dup2\n      mstore\n      0x20\n      add\n      swap1\n      dup2\n      mstore\n      0x20\n      add\n      0x00\n      keccak256\n      sload\n        /* \"@openzeppelin/contracts/token/ERC20/ERC20.sol\":4084:4118  return _allowances[owner][spender] */\n      swap1\n      pop\n        /* \"@openzeppelin/contracts/token/ERC20/ERC20.sol\":3976:4125  function allowance(address owner, address spender) public view virtual override returns (uint256) {... */\n      swap3\n      swap2\n      pop\n      pop\n      jump\t// out\n        /* \"@openzeppelin/contracts/access/Ownable.sol\":1918:2116  function transferOwnership(address newOwner) public virtual onlyOwner {... */\n    tag_103:\n        /* \"@openzeppelin/contracts/access/Ownable.sol\":1259:1271  _msgSender() */\n      tag_178\n        /* \"@openzeppelin/contracts/access/Ownable.sol\":1259:1269  _msgSender */\n      tag_113\n        /* \"@openzeppelin/contracts/access/Ownable.sol\":1259:1271  _msgSender() */\n      jump\t// in\n    tag_178:\n        /* \"@openzeppelin/contracts/access/Ownable.sol\":1248:1271  owner() == _msgSender() */\n      0xffffffffffffffffffffffffffffffffffffffff\n      and\n        /* \"@openzeppelin/contracts/access/Ownable.sol\":1248:1255  owner() */\n      tag_179\n        /* \"@openzeppelin/contracts/access/Ownable.sol\":1248:1253  owner */\n      tag_77\n        /* \"@openzeppelin/contracts/access/Ownable.sol\":1248:1255  owner() */\n      jump\t// in\n    tag_179:\n        /* \"@openzeppelin/contracts/access/Ownable.sol\":1248:1271  owner() == _msgSender() */\n      0xffffffffffffffffffffffffffffffffffffffff\n      and\n      eq\n        /* \"@openzeppelin/contracts/access/Ownable.sol\":1240:1308  require(owner() == _msgSender(), \"Ownable: caller is not the owner\") */\n      tag_180\n      jumpi\n      mload(0x40)\n      0x08c379a000000000000000000000000000000000000000000000000000000000\n      dup2\n      mstore\n      0x04\n      add\n      tag_181\n      swap1\n      tag_134\n      jump\t// in\n    tag_181:\n      mload(0x40)\n      dup1\n      swap2\n      sub\n      swap1\n      revert\n    tag_180:\n        /* \"@openzeppelin/contracts/access/Ownable.sol\":2026:2027  0 */\n      0x00\n        /* \"@openzeppelin/contracts/access/Ownable.sol\":2006:2028  newOwner != address(0) */\n      0xffffffffffffffffffffffffffffffffffffffff\n      and\n        /* \"@openzeppelin/contracts/access/Ownable.sol\":2006:2014  newOwner */\n      dup2\n        /* \"@openzeppelin/contracts/access/Ownable.sol\":2006:2028  newOwner != address(0) */\n      0xffffffffffffffffffffffffffffffffffffffff\n      and\n      eq\n      iszero\n        /* \"@openzeppelin/contracts/access/Ownable.sol\":1998:2071  require(newOwner != address(0), \"Ownable: new owner is the zero address\") */\n      tag_183\n      jumpi\n      mload(0x40)\n      0x08c379a000000000000000000000000000000000000000000000000000000000\n      dup2\n      mstore\n      0x04\n      add\n      tag_184\n      swap1\n      tag_185\n      jump\t// in\n    tag_184:\n      mload(0x40)\n      dup1\n      swap2\n      sub\n      swap1\n      revert\n    tag_183:\n        /* \"@openzeppelin/contracts/access/Ownable.sol\":2081:2109  _transferOwnership(newOwner) */\n      tag_186\n        /* \"@openzeppelin/contracts/access/Ownable.sol\":2100:2108  newOwner */\n      dup2\n        /* \"@openzeppelin/contracts/access/Ownable.sol\":2081:2099  _transferOwnership */\n      tag_146\n        /* \"@openzeppelin/contracts/access/Ownable.sol\":2081:2109  _transferOwnership(newOwner) */\n      jump\t// in\n    tag_186:\n        /* \"@openzeppelin/contracts/access/Ownable.sol\":1918:2116  function transferOwnership(address newOwner) public virtual onlyOwner {... */\n      pop\n      jump\t// out\n        /* \"@openzeppelin/contracts/utils/Context.sol\":640:736  function _msgSender() internal view virtual returns (address) {... */\n    tag_113:\n        /* \"@openzeppelin/contracts/utils/Context.sol\":693:700  address */\n      0x00\n        /* \"@openzeppelin/contracts/utils/Context.sol\":719:729  msg.sender */\n      caller\n        /* \"@openzeppelin/contracts/utils/Context.sol\":712:729  return msg.sender */\n      swap1\n      pop\n        /* \"@openzeppelin/contracts/utils/Context.sol\":640:736  function _msgSender() internal view virtual returns (address) {... */\n      swap1\n      jump\t// out\n        /* \"@openzeppelin/contracts/token/ERC20/ERC20.sol\":10123:10493  function _approve(... */\n    tag_115:\n        /* \"@openzeppelin/contracts/token/ERC20/ERC20.sol\":10271:10272  0 */\n      0x00\n        /* \"@openzeppelin/contracts/token/ERC20/ERC20.sol\":10254:10273  owner != address(0) */\n      0xffffffffffffffffffffffffffffffffffffffff\n      and\n        /* \"@openzeppelin/contracts/token/ERC20/ERC20.sol\":10254:10259  owner */\n      dup4\n        /* \"@openzeppelin/contracts/token/ERC20/ERC20.sol\":10254:10273  owner != address(0) */\n      0xffffffffffffffffffffffffffffffffffffffff\n      and\n      eq\n      iszero\n        /* \"@openzeppelin/contracts/token/ERC20/ERC20.sol\":10246:10314  require(owner != address(0), \"ERC20: approve from the zero address\") */\n      tag_189\n      jumpi\n      mload(0x40)\n      0x08c379a000000000000000000000000000000000000000000000000000000000\n      dup2\n      mstore\n      0x04\n      add\n      tag_190\n      swap1\n      tag_191\n      jump\t// in\n    tag_190:\n      mload(0x40)\n      dup1\n      swap2\n      sub\n      swap1\n      revert\n    tag_189:\n        /* \"@openzeppelin/contracts/token/ERC20/ERC20.sol\":10351:10352  0 */\n      0x00\n        /* \"@openzeppelin/contracts/token/ERC20/ERC20.sol\":10332:10353  spender != address(0) */\n      0xffffffffffffffffffffffffffffffffffffffff\n      and\n        /* \"@openzeppelin/contracts/token/ERC20/ERC20.sol\":10332:10339  spender */\n      dup3\n        /* \"@openzeppelin/contracts/token/ERC20/ERC20.sol\":10332:10353  spender != address(0) */\n      0xffffffffffffffffffffffffffffffffffffffff\n      and\n      eq\n      iszero\n        /* \"@openzeppelin/contracts/token/ERC20/ERC20.sol\":10324:10392  require(spender != address(0), \"ERC20: approve to the zero address\") */\n      tag_192\n      jumpi\n      mload(0x40)\n      0x08c379a000000000000000000000000000000000000000000000000000000000\n      dup2\n      mstore\n      0x04\n      add\n      tag_193\n      swap1\n      tag_194\n      jump\t// in\n    tag_193:\n      mload(0x40)\n      dup1\n      swap2\n      sub\n      swap1\n      revert\n    tag_192:\n        /* \"@openzeppelin/contracts/token/ERC20/ERC20.sol\":10433:10439  amount */\n      dup1\n        /* \"@openzeppelin/contracts/token/ERC20/ERC20.sol\":10403:10414  _allowances */\n      0x01\n        /* \"@openzeppelin/contracts/token/ERC20/ERC20.sol\":10403:10421  _allowances[owner] */\n      0x00\n        /* \"@openzeppelin/contracts/token/ERC20/ERC20.sol\":10415:10420  owner */\n      dup6\n        /* \"@openzeppelin/contracts/token/ERC20/ERC20.sol\":10403:10421  _allowances[owner] */\n      0xffffffffffffffffffffffffffffffffffffffff\n      and\n      0xffffffffffffffffffffffffffffffffffffffff\n      and\n      dup2\n      mstore\n      0x20\n      add\n      swap1\n      dup2\n      mstore\n      0x20\n      add\n      0x00\n      keccak256\n        /* \"@openzeppelin/contracts/token/ERC20/ERC20.sol\":10403:10430  _allowances[owner][spender] */\n      0x00\n        /* \"@openzeppelin/contracts/token/ERC20/ERC20.sol\":10422:10429  spender */\n      dup5\n        /* \"@openzeppelin/contracts/token/ERC20/ERC20.sol\":10403:10430  _allowances[owner][spender] */\n      0xffffffffffffffffffffffffffffffffffffffff\n      and\n      0xffffffffffffffffffffffffffffffffffffffff\n      and\n      dup2\n      mstore\n      0x20\n      add\n      swap1\n      dup2\n      mstore\n      0x20\n      add\n      0x00\n      keccak256\n        /* \"@openzeppelin/contracts/token/ERC20/ERC20.sol\":10403:10439  _allowances[owner][spender] = amount */\n      dup2\n      swap1\n      sstore\n      pop\n        /* \"@openzeppelin/contracts/token/ERC20/ERC20.sol\":10470:10477  spender */\n      dup2\n        /* \"@openzeppelin/contracts/token/ERC20/ERC20.sol\":10454:10486  Approval(owner, spender, amount) */\n      0xffffffffffffffffffffffffffffffffffffffff\n      and\n        /* \"@openzeppelin/contracts/token/ERC20/ERC20.sol\":10463:10468  owner */\n      dup4\n        /* \"@openzeppelin/contracts/token/ERC20/ERC20.sol\":10454:10486  Approval(owner, spender, amount) */\n      0xffffffffffffffffffffffffffffffffffffffff\n      and\n      0x8c5be1e5ebec7d5bd14f71427d1e84f3dd0314c0f7b2291e5b200ac8c7c3b925\n        /* \"@openzeppelin/contracts/token/ERC20/ERC20.sol\":10479:10485  amount */\n      dup4\n        /* \"@openzeppelin/contracts/token/ERC20/ERC20.sol\":10454:10486  Approval(owner, spender, amount) */\n      mload(0x40)\n      tag_195\n      swap2\n      swap1\n      tag_38\n      jump\t// in\n    tag_195:\n      mload(0x40)\n      dup1\n      swap2\n      sub\n      swap1\n      log3\n        /* \"@openzeppelin/contracts/token/ERC20/ERC20.sol\":10123:10493  function _approve(... */\n      pop\n      pop\n      pop\n      jump\t// out\n        /* \"@openzeppelin/contracts/token/ERC20/ERC20.sol\":10770:11211  function _spendAllowance(... */\n    tag_120:\n        /* \"@openzeppelin/contracts/token/ERC20/ERC20.sol\":10900:10924  uint256 currentAllowance */\n      0x00\n        /* \"@openzeppelin/contracts/token/ERC20/ERC20.sol\":10927:10952  allowance(owner, spender) */\n      tag_197\n        /* \"@openzeppelin/contracts/token/ERC20/ERC20.sol\":10937:10942  owner */\n      dup5\n        /* \"@openzeppelin/contracts/token/ERC20/ERC20.sol\":10944:10951  spender */\n      dup5\n        /* \"@openzeppelin/contracts/token/ERC20/ERC20.sol\":10927:10936  allowance */\n      tag_98\n        /* \"@openzeppelin/contracts/token/ERC20/ERC20.sol\":10927:10952  allowance(owner, spender) */\n      jump\t// in\n    tag_197:\n        /* \"@openzeppelin/contracts/token/ERC20/ERC20.sol\":10900:10952  uint256 currentAllowance = allowance(owner, spender) */\n      swap1\n      pop\n        /* \"@openzeppelin/contracts/token/ERC20/ERC20.sol\":10986:11003  type(uint256).max */\n      0xffffffffffffffffffffffffffffffffffffffffffffffffffffffffffffffff\n        /* \"@openzeppelin/contracts/token/ERC20/ERC20.sol\":10966:10982  currentAllowance */\n      dup2\n        /* \"@openzeppelin/contracts/token/ERC20/ERC20.sol\":10966:11003  currentAllowance != type(uint256).max */\n      eq\n        /* \"@openzeppelin/contracts/token/ERC20/ERC20.sol\":10962:11205  if (currentAllowance != type(uint256).max) {... */\n      tag_198\n      jumpi\n        /* \"@openzeppelin/contracts/token/ERC20/ERC20.sol\":11047:11053  amount */\n      dup2\n        /* \"@openzeppelin/contracts/token/ERC20/ERC20.sol\":11027:11043  currentAllowance */\n      dup2\n        /* \"@openzeppelin/contracts/token/ERC20/ERC20.sol\":11027:11053  currentAllowance >= amount */\n      lt\n      iszero\n        /* \"@openzeppelin/contracts/token/ERC20/ERC20.sol\":11019:11087  require(currentAllowance >= amount, \"ERC20: insufficient allowance\") */\n      tag_199\n      jumpi\n      mload(0x40)\n      0x08c379a000000000000000000000000000000000000000000000000000000000\n      dup2\n      mstore\n      0x04\n      add\n      tag_200\n      swap1\n      tag_201\n      jump\t// in\n    tag_200:\n      mload(0x40)\n      dup1\n      swap2\n      sub\n      swap1\n      revert\n    tag_199:\n        /* \"@openzeppelin/contracts/token/ERC20/ERC20.sol\":11129:11180  _approve(owner, spender, currentAllowance - amount) */\n      tag_202\n        /* \"@openzeppelin/contracts/token/ERC20/ERC20.sol\":11138:11143  owner */\n      dup5\n        /* \"@openzeppelin/contracts/token/ERC20/ERC20.sol\":11145:11152  spender */\n      dup5\n        /* \"@openzeppelin/contracts/token/ERC20/ERC20.sol\":11173:11179  amount */\n      dup5\n        /* \"@openzeppelin/contracts/token/ERC20/ERC20.sol\":11154:11170  currentAllowance */\n      dup5\n        /* \"@openzeppelin/contracts/token/ERC20/ERC20.sol\":11154:11179  currentAllowance - amount */\n      sub\n        /* \"@openzeppelin/contracts/token/ERC20/ERC20.sol\":11129:11137  _approve */\n      tag_115\n        /* \"@openzeppelin/contracts/token/ERC20/ERC20.sol\":11129:11180  _approve(owner, spender, currentAllowance - amount) */\n      jump\t// in\n    tag_202:\n        /* \"@openzeppelin/contracts/token/ERC20/ERC20.sol\":10962:11205  if (currentAllowance != type(uint256).max) {... */\n    tag_198:\n        /* \"@openzeppelin/contracts/token/ERC20/ERC20.sol\":10770:11211  function _spendAllowance(... */\n      pop\n      pop\n      pop\n      pop\n      jump\t// out\n        /* \"@openzeppelin/contracts/token/ERC20/ERC20.sol\":7488:8139  function _transfer(... */\n    tag_122:\n        /* \"@openzeppelin/contracts/token/ERC20/ERC20.sol\":7630:7631  0 */\n      0x00\n        /* \"@openzeppelin/contracts/token/ERC20/ERC20.sol\":7614:7632  from != address(0) */\n      0xffffffffffffffffffffffffffffffffffffffff\n      and\n        /* \"@openzeppelin/contracts/token/ERC20/ERC20.sol\":7614:7618  from */\n      dup4\n        /* \"@openzeppelin/contracts/token/ERC20/ERC20.sol\":7614:7632  from != address(0) */\n      0xffffffffffffffffffffffffffffffffffffffff\n      and\n      eq\n      iszero\n        /* \"@openzeppelin/contracts/token/ERC20/ERC20.sol\":7606:7674  require(from != address(0), \"ERC20: transfer from the zero address\") */\n      tag_204\n      jumpi\n      mload(0x40)\n      0x08c379a000000000000000000000000000000000000000000000000000000000\n      dup2\n      mstore\n      0x04\n      add\n      tag_205\n      swap1\n      tag_206\n      jump\t// in\n    tag_205:\n      mload(0x40)\n      dup1\n      swap2\n      sub\n      swap1\n      revert\n    tag_204:\n        /* \"@openzeppelin/contracts/token/ERC20/ERC20.sol\":7706:7707  0 */\n      0x00\n        /* \"@openzeppelin/contracts/token/ERC20/ERC20.sol\":7692:7708  to != address(0) */\n      0xffffffffffffffffffffffffffffffffffffffff\n      and\n        /* \"@openzeppelin/contracts/token/ERC20/ERC20.sol\":7692:7694  to */\n      dup3\n        /* \"@openzeppelin/contracts/token/ERC20/ERC20.sol\":7692:7708  to != address(0) */\n      0xffffffffffffffffffffffffffffffffffffffff\n      and\n      eq\n      iszero\n        /* \"@openzeppelin/contracts/token/ERC20/ERC20.sol\":7684:7748  require(to != address(0), \"ERC20: transfer to the zero address\") */\n      tag_207\n      jumpi\n      mload(0x40)\n      0x08c379a000000000000000000000000000000000000000000000000000000000\n      dup2\n      mstore\n      0x04\n      add\n      tag_208\n      swap1\n      tag_209\n      jump\t// in\n    tag_208:\n      mload(0x40)\n      dup1\n      swap2\n      sub\n      swap1\n      revert\n    tag_207:\n        /* \"@openzeppelin/contracts/token/ERC20/ERC20.sol\":7759:7797  _beforeTokenTransfer(from, to, amount) */\n      tag_210\n        /* \"@openzeppelin/contracts/token/ERC20/ERC20.sol\":7780:7784  from */\n      dup4\n        /* \"@openzeppelin/contracts/token/ERC20/ERC20.sol\":7786:7788  to */\n      dup4\n        /* \"@openzeppelin/contracts/token/ERC20/ERC20.sol\":7790:7796  amount */\n      dup4\n        /* \"@openzeppelin/contracts/token/ERC20/ERC20.sol\":7759:7779  _beforeTokenTransfer */\n      tag_211\n        /* \"@openzeppelin/contracts/token/ERC20/ERC20.sol\":7759:7797  _beforeTokenTransfer(from, to, amount) */\n      jump\t// in\n    tag_210:\n        /* \"@openzeppelin/contracts/token/ERC20/ERC20.sol\":7808:7827  uint256 fromBalance */\n      0x00\n        /* \"@openzeppelin/contracts/token/ERC20/ERC20.sol\":7830:7839  _balances */\n      dup1\n        /* \"@openzeppelin/contracts/token/ERC20/ERC20.sol\":7830:7845  _balances[from] */\n      0x00\n        /* \"@openzeppelin/contracts/token/ERC20/ERC20.sol\":7840:7844  from */\n      dup6\n        /* \"@openzeppelin/contracts/token/ERC20/ERC20.sol\":7830:7845  _balances[from] */\n      0xffffffffffffffffffffffffffffffffffffffff\n      and\n      0xffffffffffffffffffffffffffffffffffffffff\n      and\n      dup2\n      mstore\n      0x20\n      add\n      swap1\n      dup2\n      mstore\n      0x20\n      add\n      0x00\n      keccak256\n      sload\n        /* \"@openzeppelin/contracts/token/ERC20/ERC20.sol\":7808:7845  uint256 fromBalance = _balances[from] */\n      swap1\n      pop\n        /* \"@openzeppelin/contracts/token/ERC20/ERC20.sol\":7878:7884  amount */\n      dup2\n        /* \"@openzeppelin/contracts/token/ERC20/ERC20.sol\":7863:7874  fromBalance */\n      dup2\n        /* \"@openzeppelin/contracts/token/ERC20/ERC20.sol\":7863:7884  fromBalance >= amount */\n      lt\n      iszero\n        /* \"@openzeppelin/contracts/token/ERC20/ERC20.sol\":7855:7927  require(fromBalance >= amount, \"ERC20: transfer amount exceeds balance\") */\n      tag_212\n      jumpi\n      mload(0x40)\n      0x08c379a000000000000000000000000000000000000000000000000000000000\n      dup2\n      mstore\n      0x04\n      add\n      tag_213\n      swap1\n      tag_214\n      jump\t// in\n    tag_213:\n      mload(0x40)\n      dup1\n      swap2\n      sub\n      swap1\n      revert\n    tag_212:\n        /* \"@openzeppelin/contracts/token/ERC20/ERC20.sol\":7993:7999  amount */\n      dup2\n        /* \"@openzeppelin/contracts/token/ERC20/ERC20.sol\":7979:7990  fromBalance */\n      dup2\n        /* \"@openzeppelin/contracts/token/ERC20/ERC20.sol\":7979:7999  fromBalance - amount */\n      sub\n        /* \"@openzeppelin/contracts/token/ERC20/ERC20.sol\":7961:7970  _balances */\n      0x00\n        /* \"@openzeppelin/contracts/token/ERC20/ERC20.sol\":7961:7976  _balances[from] */\n      dup1\n        /* \"@openzeppelin/contracts/token/ERC20/ERC20.sol\":7971:7975  from */\n      dup7\n        /* \"@openzeppelin/contracts/token/ERC20/ERC20.sol\":7961:7976  _balances[from] */\n      0xffffffffffffffffffffffffffffffffffffffff\n      and\n      0xffffffffffffffffffffffffffffffffffffffff\n      and\n      dup2\n      mstore\n      0x20\n      add\n      swap1\n      dup2\n      mstore\n      0x20\n      add\n      0x00\n      keccak256\n        /* \"@openzeppelin/contracts/token/ERC20/ERC20.sol\":7961:7999  _balances[from] = fromBalance - amount */\n      dup2\n      swap1\n      sstore\n      pop\n        /* \"@openzeppelin/contracts/token/ERC20/ERC20.sol\":8036:8042  amount */\n      dup2\n        /* \"@openzeppelin/contracts/token/ERC20/ERC20.sol\":8019:8028  _balances */\n      0x00\n        /* \"@openzeppelin/contracts/token/ERC20/ERC20.sol\":8019:8032  _balances[to] */\n      dup1\n        /* \"@openzeppelin/contracts/token/ERC20/ERC20.sol\":8029:8031  to */\n      dup6\n        /* \"@openzeppelin/contracts/token/ERC20/ERC20.sol\":8019:8032  _balances[to] */\n      0xffffffffffffffffffffffffffffffffffffffff\n      and\n      0xffffffffffffffffffffffffffffffffffffffff\n      and\n      dup2\n      mstore\n      0x20\n      add\n      swap1\n      dup2\n      mstore\n      0x20\n      add\n      0x00\n      keccak256\n      0x00\n        /* \"@openzeppelin/contracts/token/ERC20/ERC20.sol\":8019:8042  _balances[to] += amount */\n      dup3\n      dup3\n      sload\n      tag_215\n      swap2\n      swap1\n      tag_128\n      jump\t// in\n    tag_215:\n      swap3\n      pop\n      pop\n      dup2\n      swap1\n      sstore\n      pop\n        /* \"@openzeppelin/contracts/token/ERC20/ERC20.sol\":8073:8075  to */\n      dup3\n        /* \"@openzeppelin/contracts/token/ERC20/ERC20.sol\":8058:8084  Transfer(from, to, amount) */\n      0xffffffffffffffffffffffffffffffffffffffff\n      and\n        /* \"@openzeppelin/contracts/token/ERC20/ERC20.sol\":8067:8071  from */\n      dup5\n        /* \"@openzeppelin/contracts/token/ERC20/ERC20.sol\":8058:8084  Transfer(from, to, amount) */\n      0xffffffffffffffffffffffffffffffffffffffff\n      and\n      0xddf252ad1be2c89b69c2b068fc378daa952ba7f163c4a11628f55a4df523b3ef\n        /* \"@openzeppelin/contracts/token/ERC20/ERC20.sol\":8077:8083  amount */\n      dup5\n        /* \"@openzeppelin/contracts/token/ERC20/ERC20.sol\":8058:8084  Transfer(from, to, amount) */\n      mload(0x40)\n      tag_216\n      swap2\n      swap1\n      tag_38\n      jump\t// in\n    tag_216:\n      mload(0x40)\n      dup1\n      swap2\n      sub\n      swap1\n      log3\n        /* \"@openzeppelin/contracts/token/ERC20/ERC20.sol\":8095:8132  _afterTokenTransfer(from, to, amount) */\n      tag_217\n        /* \"@openzeppelin/contracts/token/ERC20/ERC20.sol\":8115:8119  from */\n      dup5\n        /* \"@openzeppelin/contracts/token/ERC20/ERC20.sol\":8121:8123  to */\n      dup5\n        /* \"@openzeppelin/contracts/token/ERC20/ERC20.sol\":8125:8131  amount */\n      dup5\n        /* \"@openzeppelin/contracts/token/ERC20/ERC20.sol\":8095:8114  _afterTokenTransfer */\n      tag_218\n        /* \"@openzeppelin/contracts/token/ERC20/ERC20.sol\":8095:8132  _afterTokenTransfer(from, to, amount) */\n      jump\t// in\n    tag_217:\n        /* \"@openzeppelin/contracts/token/ERC20/ERC20.sol\":7488:8139  function _transfer(... */\n      pop\n      pop\n      pop\n      pop\n      jump\t// out\n        /* \"@openzeppelin/contracts/token/ERC20/ERC20.sol\":8415:8804  function _mint(address account, uint256 amount) internal virtual {... */\n    tag_137:\n        /* \"@openzeppelin/contracts/token/ERC20/ERC20.sol\":8517:8518  0 */\n      0x00\n        /* \"@openzeppelin/contracts/token/ERC20/ERC20.sol\":8498:8519  account != address(0) */\n      0xffffffffffffffffffffffffffffffffffffffff\n      and\n        /* \"@openzeppelin/contracts/token/ERC20/ERC20.sol\":8498:8505  account */\n      dup3\n        /* \"@openzeppelin/contracts/token/ERC20/ERC20.sol\":8498:8519  account != address(0) */\n      0xffffffffffffffffffffffffffffffffffffffff\n      and\n      eq\n      iszero\n        /* \"@openzeppelin/contracts/token/ERC20/ERC20.sol\":8490:8555  require(account != address(0), \"ERC20: mint to the zero address\") */\n      tag_220\n      jumpi\n      mload(0x40)\n      0x08c379a000000000000000000000000000000000000000000000000000000000\n      dup2\n      mstore\n      0x04\n      add\n      tag_221\n      swap1\n      tag_222\n      jump\t// in\n    tag_221:\n      mload(0x40)\n      dup1\n      swap2\n      sub\n      swap1\n      revert\n    tag_220:\n        /* \"@openzeppelin/contracts/token/ERC20/ERC20.sol\":8566:8615  _beforeTokenTransfer(address(0), account, amount) */\n      tag_223\n        /* \"@openzeppelin/contracts/token/ERC20/ERC20.sol\":8595:8596  0 */\n      0x00\n        /* \"@openzeppelin/contracts/token/ERC20/ERC20.sol\":8599:8606  account */\n      dup4\n        /* \"@openzeppelin/contracts/token/ERC20/ERC20.sol\":8608:8614  amount */\n      dup4\n        /* \"@openzeppelin/contracts/token/ERC20/ERC20.sol\":8566:8586  _beforeTokenTransfer */\n      tag_211\n        /* \"@openzeppelin/contracts/token/ERC20/ERC20.sol\":8566:8615  _beforeTokenTransfer(address(0), account, amount) */\n      jump\t// in\n    tag_223:\n        /* \"@openzeppelin/contracts/token/ERC20/ERC20.sol\":8642:8648  amount */\n      dup1\n        /* \"@openzeppelin/contracts/token/ERC20/ERC20.sol\":8626:8638  _totalSupply */\n      0x02\n      0x00\n        /* \"@openzeppelin/contracts/token/ERC20/ERC20.sol\":8626:8648  _totalSupply += amount */\n      dup3\n      dup3\n      sload\n      tag_224\n      swap2\n      swap1\n      tag_128\n      jump\t// in\n    tag_224:\n      swap3\n      pop\n      pop\n      dup2\n      swap1\n      sstore\n      pop\n        /* \"@openzeppelin/contracts/token/ERC20/ERC20.sol\":8680:8686  amount */\n      dup1\n        /* \"@openzeppelin/contracts/token/ERC20/ERC20.sol\":8658:8667  _balances */\n      0x00\n        /* \"@openzeppelin/contracts/token/ERC20/ERC20.sol\":8658:8676  _balances[account] */\n      dup1\n        /* \"@openzeppelin/contracts/token/ERC20/ERC20.sol\":8668:8675  account */\n      dup5\n        /* \"@openzeppelin/contracts/token/ERC20/ERC20.sol\":8658:8676  _balances[account] */\n      0xffffffffffffffffffffffffffffffffffffffff\n      and\n      0xffffffffffffffffffffffffffffffffffffffff\n      and\n      dup2\n      mstore\n      0x20\n      add\n      swap1\n      dup2\n      mstore\n      0x20\n      add\n      0x00\n      keccak256\n      0x00\n        /* \"@openzeppelin/contracts/token/ERC20/ERC20.sol\":8658:8686  _balances[account] += amount */\n      dup3\n      dup3\n      sload\n      tag_225\n      swap2\n      swap1\n      tag_128\n      jump\t// in\n    tag_225:\n      swap3\n      pop\n      pop\n      dup2\n      swap1\n      sstore\n      pop\n        /* \"@openzeppelin/contracts/token/ERC20/ERC20.sol\":8722:8729  account */\n      dup2\n        /* \"@openzeppelin/contracts/token/ERC20/ERC20.sol\":8701:8738  Transfer(address(0), account, amount) */\n      0xffffffffffffffffffffffffffffffffffffffff\n      and\n        /* \"@openzeppelin/contracts/token/ERC20/ERC20.sol\":8718:8719  0 */\n      0x00\n        /* \"@openzeppelin/contracts/token/ERC20/ERC20.sol\":8701:8738  Transfer(address(0), account, amount) */\n      0xffffffffffffffffffffffffffffffffffffffff\n      and\n      0xddf252ad1be2c89b69c2b068fc378daa952ba7f163c4a11628f55a4df523b3ef\n        /* \"@openzeppelin/contracts/token/ERC20/ERC20.sol\":8731:8737  amount */\n      dup4\n        /* \"@openzeppelin/contracts/token/ERC20/ERC20.sol\":8701:8738  Transfer(address(0), account, amount) */\n      mload(0x40)\n      tag_226\n      swap2\n      swap1\n      tag_38\n      jump\t// in\n    tag_226:\n      mload(0x40)\n      dup1\n      swap2\n      sub\n      swap1\n      log3\n        /* \"@openzeppelin/contracts/token/ERC20/ERC20.sol\":8749:8797  _afterTokenTransfer(address(0), account, amount) */\n      tag_227\n        /* \"@openzeppelin/contracts/token/ERC20/ERC20.sol\":8777:8778  0 */\n      0x00\n        /* \"@openzeppelin/contracts/token/ERC20/ERC20.sol\":8781:8788  account */\n      dup4\n        /* \"@openzeppelin/contracts/token/ERC20/ERC20.sol\":8790:8796  amount */\n      dup4\n        /* \"@openzeppelin/contracts/token/ERC20/ERC20.sol\":8749:8768  _afterTokenTransfer */\n      tag_218\n        /* \"@openzeppelin/contracts/token/ERC20/ERC20.sol\":8749:8797  _afterTokenTransfer(address(0), account, amount) */\n      jump\t// in\n    tag_227:\n        /* \"@openzeppelin/contracts/token/ERC20/ERC20.sol\":8415:8804  function _mint(address account, uint256 amount) internal virtual {... */\n      pop\n      pop\n      jump\t// out\n        /* \"@openzeppelin/contracts/access/Ownable.sol\":2270:2457  function _transferOwnership(address newOwner) internal virtual {... */\n    tag_146:\n        /* \"@openzeppelin/contracts/access/Ownable.sol\":2343:2359  address oldOwner */\n      0x00\n        /* \"@openzeppelin/contracts/access/Ownable.sol\":2362:2368  _owner */\n      0x05\n      0x00\n      swap1\n      sload\n      swap1\n      0x0100\n      exp\n      swap1\n      div\n      0xffffffffffffffffffffffffffffffffffffffff\n      and\n        /* \"@openzeppelin/contracts/access/Ownable.sol\":2343:2368  address oldOwner = _owner */\n      swap1\n      pop\n        /* \"@openzeppelin/contracts/access/Ownable.sol\":2387:2395  newOwner */\n      dup2\n        /* \"@openzeppelin/contracts/access/Ownable.sol\":2378:2384  _owner */\n      0x05\n      0x00\n        /* \"@openzeppelin/contracts/access/Ownable.sol\":2378:2395  _owner = newOwner */\n      0x0100\n      exp\n      dup2\n      sload\n      dup2\n      0xffffffffffffffffffffffffffffffffffffffff\n      mul\n      not\n      and\n      swap1\n      dup4\n      0xffffffffffffffffffffffffffffffffffffffff\n      and\n      mul\n      or\n      swap1\n      sstore\n      pop\n        /* \"@openzeppelin/contracts/access/Ownable.sol\":2441:2449  newOwner */\n      dup2\n        /* \"@openzeppelin/contracts/access/Ownable.sol\":2410:2450  OwnershipTransferred(oldOwner, newOwner) */\n      0xffffffffffffffffffffffffffffffffffffffff\n      and\n        /* \"@openzeppelin/contracts/access/Ownable.sol\":2431:2439  oldOwner */\n      dup2\n        /* \"@openzeppelin/contracts/access/Ownable.sol\":2410:2450  OwnershipTransferred(oldOwner, newOwner) */\n      0xffffffffffffffffffffffffffffffffffffffff\n      and\n      0x8be0079c531659141344cd1fd0a4f28419497f9722a3daafe3b4186f6b6457e0\n      mload(0x40)\n      mload(0x40)\n      dup1\n      swap2\n      sub\n      swap1\n      log3\n        /* \"@openzeppelin/contracts/access/Ownable.sol\":2270:2457  function _transferOwnership(address newOwner) internal virtual {... */\n      pop\n      pop\n      jump\t// out\n        /* \"@openzeppelin/contracts/token/ERC20/ERC20.sol\":11795:11916  function _beforeTokenTransfer(... */\n    tag_211:\n      pop\n      pop\n      pop\n      jump\t// out\n        /* \"@openzeppelin/contracts/token/ERC20/ERC20.sol\":12504:12624  function _afterTokenTransfer(... */\n    tag_218:\n      pop\n      pop\n      pop\n      jump\t// out\n        /* \"#utility.yul\":7:146   */\n    tag_232:\n        /* \"#utility.yul\":53:58   */\n      0x00\n        /* \"#utility.yul\":91:97   */\n      dup2\n        /* \"#utility.yul\":78:98   */\n      calldataload\n        /* \"#utility.yul\":69:98   */\n      swap1\n      pop\n        /* \"#utility.yul\":107:140   */\n      tag_234\n        /* \"#utility.yul\":134:139   */\n      dup2\n        /* \"#utility.yul\":107:140   */\n      tag_235\n      jump\t// in\n    tag_234:\n        /* \"#utility.yul\":59:146   */\n      swap3\n      swap2\n      pop\n      pop\n      jump\t// out\n        /* \"#utility.yul\":152:291   */\n    tag_236:\n        /* \"#utility.yul\":198:203   */\n      0x00\n        /* \"#utility.yul\":236:242   */\n      dup2\n        /* \"#utility.yul\":223:243   */\n      calldataload\n        /* \"#utility.yul\":214:243   */\n      swap1\n      pop\n        /* \"#utility.yul\":252:285   */\n      tag_238\n        /* \"#utility.yul\":279:284   */\n      dup2\n        /* \"#utility.yul\":252:285   */\n      tag_239\n      jump\t// in\n    tag_238:\n        /* \"#utility.yul\":204:291   */\n      swap3\n      swap2\n      pop\n      pop\n      jump\t// out\n        /* \"#utility.yul\":297:559   */\n    tag_66:\n        /* \"#utility.yul\":356:362   */\n      0x00\n        /* \"#utility.yul\":405:407   */\n      0x20\n        /* \"#utility.yul\":393:402   */\n      dup3\n        /* \"#utility.yul\":384:391   */\n      dup5\n        /* \"#utility.yul\":380:403   */\n      sub\n        /* \"#utility.yul\":376:408   */\n      slt\n        /* \"#utility.yul\":373:375   */\n      iszero\n      tag_241\n      jumpi\n        /* \"#utility.yul\":421:422   */\n      0x00\n        /* \"#utility.yul\":418:419   */\n      dup1\n        /* \"#utility.yul\":411:423   */\n      revert\n        /* \"#utility.yul\":373:375   */\n    tag_241:\n        /* \"#utility.yul\":464:465   */\n      0x00\n        /* \"#utility.yul\":489:542   */\n      tag_242\n        /* \"#utility.yul\":534:541   */\n      dup5\n        /* \"#utility.yul\":525:531   */\n      dup3\n        /* \"#utility.yul\":514:523   */\n      dup6\n        /* \"#utility.yul\":510:532   */\n      add\n        /* \"#utility.yul\":489:542   */\n      tag_232\n      jump\t// in\n    tag_242:\n        /* \"#utility.yul\":479:542   */\n      swap2\n      pop\n        /* \"#utility.yul\":435:552   */\n      pop\n        /* \"#utility.yul\":363:559   */\n      swap3\n      swap2\n      pop\n      pop\n      jump\t// out\n        /* \"#utility.yul\":565:972   */\n    tag_97:\n        /* \"#utility.yul\":633:639   */\n      0x00\n        /* \"#utility.yul\":641:647   */\n      dup1\n        /* \"#utility.yul\":690:692   */\n      0x40\n        /* \"#utility.yul\":678:687   */\n      dup4\n        /* \"#utility.yul\":669:676   */\n      dup6\n        /* \"#utility.yul\":665:688   */\n      sub\n        /* \"#utility.yul\":661:693   */\n      slt\n        /* \"#utility.yul\":658:660   */\n      iszero\n      tag_244\n      jumpi\n        /* \"#utility.yul\":706:707   */\n      0x00\n        /* \"#utility.yul\":703:704   */\n      dup1\n        /* \"#utility.yul\":696:708   */\n      revert\n        /* \"#utility.yul\":658:660   */\n    tag_244:\n        /* \"#utility.yul\":749:750   */\n      0x00\n        /* \"#utility.yul\":774:827   */\n      tag_245\n        /* \"#utility.yul\":819:826   */\n      dup6\n        /* \"#utility.yul\":810:816   */\n      dup3\n        /* \"#utility.yul\":799:808   */\n      dup7\n        /* \"#utility.yul\":795:817   */\n      add\n        /* \"#utility.yul\":774:827   */\n      tag_232\n      jump\t// in\n    tag_245:\n        /* \"#utility.yul\":764:827   */\n      swap3\n      pop\n        /* \"#utility.yul\":720:837   */\n      pop\n        /* \"#utility.yul\":876:878   */\n      0x20\n        /* \"#utility.yul\":902:955   */\n      tag_246\n        /* \"#utility.yul\":947:954   */\n      dup6\n        /* \"#utility.yul\":938:944   */\n      dup3\n        /* \"#utility.yul\":927:936   */\n      dup7\n        /* \"#utility.yul\":923:945   */\n      add\n        /* \"#utility.yul\":902:955   */\n      tag_232\n      jump\t// in\n    tag_246:\n        /* \"#utility.yul\":892:955   */\n      swap2\n      pop\n        /* \"#utility.yul\":847:965   */\n      pop\n        /* \"#utility.yul\":648:972   */\n      swap3\n      pop\n      swap3\n      swap1\n      pop\n      jump\t// out\n        /* \"#utility.yul\":978:1530   */\n    tag_42:\n        /* \"#utility.yul\":1055:1061   */\n      0x00\n        /* \"#utility.yul\":1063:1069   */\n      dup1\n        /* \"#utility.yul\":1071:1077   */\n      0x00\n        /* \"#utility.yul\":1120:1122   */\n      0x60\n        /* \"#utility.yul\":1108:1117   */\n      dup5\n        /* \"#utility.yul\":1099:1106   */\n      dup7\n        /* \"#utility.yul\":1095:1118   */\n      sub\n        /* \"#utility.yul\":1091:1123   */\n      slt\n        /* \"#utility.yul\":1088:1090   */\n      iszero\n      tag_248\n      jumpi\n        /* \"#utility.yul\":1136:1137   */\n      0x00\n        /* \"#utility.yul\":1133:1134   */\n      dup1\n        /* \"#utility.yul\":1126:1138   */\n      revert\n        /* \"#utility.yul\":1088:1090   */\n    tag_248:\n        /* \"#utility.yul\":1179:1180   */\n      0x00\n        /* \"#utility.yul\":1204:1257   */\n      tag_249\n        /* \"#utility.yul\":1249:1256   */\n      dup7\n        /* \"#utility.yul\":1240:1246   */\n      dup3\n        /* \"#utility.yul\":1229:1238   */\n      dup8\n        /* \"#utility.yul\":1225:1247   */\n      add\n        /* \"#utility.yul\":1204:1257   */\n      tag_232\n      jump\t// in\n    tag_249:\n        /* \"#utility.yul\":1194:1257   */\n      swap4\n      pop\n        /* \"#utility.yul\":1150:1267   */\n      pop\n        /* \"#utility.yul\":1306:1308   */\n      0x20\n        /* \"#utility.yul\":1332:1385   */\n      tag_250\n        /* \"#utility.yul\":1377:1384   */\n      dup7\n        /* \"#utility.yul\":1368:1374   */\n      dup3\n        /* \"#utility.yul\":1357:1366   */\n      dup8\n        /* \"#utility.yul\":1353:1375   */\n      add\n        /* \"#utility.yul\":1332:1385   */\n      tag_232\n      jump\t// in\n    tag_250:\n        /* \"#utility.yul\":1322:1385   */\n      swap3\n      pop\n        /* \"#utility.yul\":1277:1395   */\n      pop\n        /* \"#utility.yul\":1434:1436   */\n      0x40\n        /* \"#utility.yul\":1460:1513   */\n      tag_251\n        /* \"#utility.yul\":1505:1512   */\n      dup7\n        /* \"#utility.yul\":1496:1502   */\n      dup3\n        /* \"#utility.yul\":1485:1494   */\n      dup8\n        /* \"#utility.yul\":1481:1503   */\n      add\n        /* \"#utility.yul\":1460:1513   */\n      tag_236\n      jump\t// in\n    tag_251:\n        /* \"#utility.yul\":1450:1513   */\n      swap2\n      pop\n        /* \"#utility.yul\":1405:1523   */\n      pop\n        /* \"#utility.yul\":1078:1530   */\n      swap3\n      pop\n      swap3\n      pop\n      swap3\n      jump\t// out\n        /* \"#utility.yul\":1536:1943   */\n    tag_30:\n        /* \"#utility.yul\":1604:1610   */\n      0x00\n        /* \"#utility.yul\":1612:1618   */\n      dup1\n        /* \"#utility.yul\":1661:1663   */\n      0x40\n        /* \"#utility.yul\":1649:1658   */\n      dup4\n        /* \"#utility.yul\":1640:1647   */\n      dup6\n        /* \"#utility.yul\":1636:1659   */\n      sub\n        /* \"#utility.yul\":1632:1664   */\n      slt\n        /* \"#utility.yul\":1629:1631   */\n      iszero\n      tag_253\n      jumpi\n        /* \"#utility.yul\":1677:1678   */\n      0x00\n        /* \"#utility.yul\":1674:1675   */\n      dup1\n        /* \"#utility.yul\":1667:1679   */\n      revert\n        /* \"#utility.yul\":1629:1631   */\n    tag_253:\n        /* \"#utility.yul\":1720:1721   */\n      0x00\n        /* \"#utility.yul\":1745:1798   */\n      tag_254\n        /* \"#utility.yul\":1790:1797   */\n      dup6\n        /* \"#utility.yul\":1781:1787   */\n      dup3\n        /* \"#utility.yul\":1770:1779   */\n      dup7\n        /* \"#utility.yul\":1766:1788   */\n      add\n        /* \"#utility.yul\":1745:1798   */\n      tag_232\n      jump\t// in\n    tag_254:\n        /* \"#utility.yul\":1735:1798   */\n      swap3\n      pop\n        /* \"#utility.yul\":1691:1808   */\n      pop\n        /* \"#utility.yul\":1847:1849   */\n      0x20\n        /* \"#utility.yul\":1873:1926   */\n      tag_255\n        /* \"#utility.yul\":1918:1925   */\n      dup6\n        /* \"#utility.yul\":1909:1915   */\n      dup3\n        /* \"#utility.yul\":1898:1907   */\n      dup7\n        /* \"#utility.yul\":1894:1916   */\n      add\n        /* \"#utility.yul\":1873:1926   */\n      tag_236\n      jump\t// in\n    tag_255:\n        /* \"#utility.yul\":1863:1926   */\n      swap2\n      pop\n        /* \"#utility.yul\":1818:1936   */\n      pop\n        /* \"#utility.yul\":1619:1943   */\n      swap3\n      pop\n      swap3\n      swap1\n      pop\n      jump\t// out\n        /* \"#utility.yul\":1949:2067   */\n    tag_256:\n        /* \"#utility.yul\":2036:2060   */\n      tag_258\n        /* \"#utility.yul\":2054:2059   */\n      dup2\n        /* \"#utility.yul\":2036:2060   */\n      tag_259\n      jump\t// in\n    tag_258:\n        /* \"#utility.yul\":2031:2034   */\n      dup3\n        /* \"#utility.yul\":2024:2061   */\n      mstore\n        /* \"#utility.yul\":2014:2067   */\n      pop\n      pop\n      jump\t// out\n        /* \"#utility.yul\":2073:2182   */\n    tag_260:\n        /* \"#utility.yul\":2154:2175   */\n      tag_262\n        /* \"#utility.yul\":2169:2174   */\n      dup2\n        /* \"#utility.yul\":2154:2175   */\n      tag_263\n      jump\t// in\n    tag_262:\n        /* \"#utility.yul\":2149:2152   */\n      dup3\n        /* \"#utility.yul\":2142:2176   */\n      mstore\n        /* \"#utility.yul\":2132:2182   */\n      pop\n      pop\n      jump\t// out\n        /* \"#utility.yul\":2188:2552   */\n    tag_264:\n        /* \"#utility.yul\":2276:2279   */\n      0x00\n        /* \"#utility.yul\":2304:2343   */\n      tag_266\n        /* \"#utility.yul\":2337:2342   */\n      dup3\n        /* \"#utility.yul\":2304:2343   */\n      tag_267\n      jump\t// in\n    tag_266:\n        /* \"#utility.yul\":2359:2430   */\n      tag_268\n        /* \"#utility.yul\":2423:2429   */\n      dup2\n        /* \"#utility.yul\":2418:2421   */\n      dup6\n        /* \"#utility.yul\":2359:2430   */\n      tag_269\n      jump\t// in\n    tag_268:\n        /* \"#utility.yul\":2352:2430   */\n      swap4\n      pop\n        /* \"#utility.yul\":2439:2491   */\n      tag_270\n        /* \"#utility.yul\":2484:2490   */\n      dup2\n        /* \"#utility.yul\":2479:2482   */\n      dup6\n        /* \"#utility.yul\":2472:2476   */\n      0x20\n        /* \"#utility.yul\":2465:2470   */\n      dup7\n        /* \"#utility.yul\":2461:2477   */\n      add\n        /* \"#utility.yul\":2439:2491   */\n      tag_271\n      jump\t// in\n    tag_270:\n        /* \"#utility.yul\":2516:2545   */\n      tag_272\n        /* \"#utility.yul\":2538:2544   */\n      dup2\n        /* \"#utility.yul\":2516:2545   */\n      tag_273\n      jump\t// in\n    tag_272:\n        /* \"#utility.yul\":2511:2514   */\n      dup5\n        /* \"#utility.yul\":2507:2546   */\n      add\n        /* \"#utility.yul\":2500:2546   */\n      swap2\n      pop\n        /* \"#utility.yul\":2280:2552   */\n      pop\n      swap3\n      swap2\n      pop\n      pop\n      jump\t// out\n        /* \"#utility.yul\":2558:2924   */\n    tag_274:\n        /* \"#utility.yul\":2700:2703   */\n      0x00\n        /* \"#utility.yul\":2721:2788   */\n      tag_276\n        /* \"#utility.yul\":2785:2787   */\n      0x23\n        /* \"#utility.yul\":2780:2783   */\n      dup4\n        /* \"#utility.yul\":2721:2788   */\n      tag_269\n      jump\t// in\n    tag_276:\n        /* \"#utility.yul\":2714:2788   */\n      swap2\n      pop\n        /* \"#utility.yul\":2797:2890   */\n      tag_277\n        /* \"#utility.yul\":2886:2889   */\n      dup3\n        /* \"#utility.yul\":2797:2890   */\n      tag_278\n      jump\t// in\n    tag_277:\n        /* \"#utility.yul\":2915:2917   */\n      0x40\n        /* \"#utility.yul\":2910:2913   */\n      dup3\n        /* \"#utility.yul\":2906:2918   */\n      add\n        /* \"#utility.yul\":2899:2918   */\n      swap1\n      pop\n        /* \"#utility.yul\":2704:2924   */\n      swap2\n      swap1\n      pop\n      jump\t// out\n        /* \"#utility.yul\":2930:3296   */\n    tag_279:\n        /* \"#utility.yul\":3072:3075   */\n      0x00\n        /* \"#utility.yul\":3093:3160   */\n      tag_281\n        /* \"#utility.yul\":3157:3159   */\n      0x26\n        /* \"#utility.yul\":3152:3155   */\n      dup4\n        /* \"#utility.yul\":3093:3160   */\n      tag_269\n      jump\t// in\n    tag_281:\n        /* \"#utility.yul\":3086:3160   */\n      swap2\n      pop\n        /* \"#utility.yul\":3169:3262   */\n      tag_282\n        /* \"#utility.yul\":3258:3261   */\n      dup3\n        /* \"#utility.yul\":3169:3262   */\n      tag_283\n      jump\t// in\n    tag_282:\n        /* \"#utility.yul\":3287:3289   */\n      0x40\n        /* \"#utility.yul\":3282:3285   */\n      dup3\n        /* \"#utility.yul\":3278:3290   */\n      add\n        /* \"#utility.yul\":3271:3290   */\n      swap1\n      pop\n        /* \"#utility.yul\":3076:3296   */\n      swap2\n      swap1\n      pop\n      jump\t// out\n        /* \"#utility.yul\":3302:3668   */\n    tag_284:\n        /* \"#utility.yul\":3444:3447   */\n      0x00\n        /* \"#utility.yul\":3465:3532   */\n      tag_286\n        /* \"#utility.yul\":3529:3531   */\n      0x22\n        /* \"#utility.yul\":3524:3527   */\n      dup4\n        /* \"#utility.yul\":3465:3532   */\n      tag_269\n      jump\t// in\n    tag_286:\n        /* \"#utility.yul\":3458:3532   */\n      swap2\n      pop\n        /* \"#utility.yul\":3541:3634   */\n      tag_287\n        /* \"#utility.yul\":3630:3633   */\n      dup3\n        /* \"#utility.yul\":3541:3634   */\n      tag_288\n      jump\t// in\n    tag_287:\n        /* \"#utility.yul\":3659:3661   */\n      0x40\n        /* \"#utility.yul\":3654:3657   */\n      dup3\n        /* \"#utility.yul\":3650:3662   */\n      add\n        /* \"#utility.yul\":3643:3662   */\n      swap1\n      pop\n        /* \"#utility.yul\":3448:3668   */\n      swap2\n      swap1\n      pop\n      jump\t// out\n        /* \"#utility.yul\":3674:4040   */\n    tag_289:\n        /* \"#utility.yul\":3816:3819   */\n      0x00\n        /* \"#utility.yul\":3837:3904   */\n      tag_291\n        /* \"#utility.yul\":3901:3903   */\n      0x1d\n        /* \"#utility.yul\":3896:3899   */\n      dup4\n        /* \"#utility.yul\":3837:3904   */\n      tag_269\n      jump\t// in\n    tag_291:\n        /* \"#utility.yul\":3830:3904   */\n      swap2\n      pop\n        /* \"#utility.yul\":3913:4006   */\n      tag_292\n        /* \"#utility.yul\":4002:4005   */\n      dup3\n        /* \"#utility.yul\":3913:4006   */\n      tag_293\n      jump\t// in\n    tag_292:\n        /* \"#utility.yul\":4031:4033   */\n      0x20\n        /* \"#utility.yul\":4026:4029   */\n      dup3\n        /* \"#utility.yul\":4022:4034   */\n      add\n        /* \"#utility.yul\":4015:4034   */\n      swap1\n      pop\n        /* \"#utility.yul\":3820:4040   */\n      swap2\n      swap1\n      pop\n      jump\t// out\n        /* \"#utility.yul\":4046:4412   */\n    tag_294:\n        /* \"#utility.yul\":4188:4191   */\n      0x00\n        /* \"#utility.yul\":4209:4276   */\n      tag_296\n        /* \"#utility.yul\":4273:4275   */\n      0x26\n        /* \"#utility.yul\":4268:4271   */\n      dup4\n        /* \"#utility.yul\":4209:4276   */\n      tag_269\n      jump\t// in\n    tag_296:\n        /* \"#utility.yul\":4202:4276   */\n      swap2\n      pop\n        /* \"#utility.yul\":4285:4378   */\n      tag_297\n        /* \"#utility.yul\":4374:4377   */\n      dup3\n        /* \"#utility.yul\":4285:4378   */\n      tag_298\n      jump\t// in\n    tag_297:\n        /* \"#utility.yul\":4403:4405   */\n      0x40\n        /* \"#utility.yul\":4398:4401   */\n      dup3\n        /* \"#utility.yul\":4394:4406   */\n      add\n        /* \"#utility.yul\":4387:4406   */\n      swap1\n      pop\n        /* \"#utility.yul\":4192:4412   */\n      swap2\n      swap1\n      pop\n      jump\t// out\n        /* \"#utility.yul\":4418:4784   */\n    tag_299:\n        /* \"#utility.yul\":4560:4563   */\n      0x00\n        /* \"#utility.yul\":4581:4648   */\n      tag_301\n        /* \"#utility.yul\":4645:4647   */\n      0x20\n        /* \"#utility.yul\":4640:4643   */\n      dup4\n        /* \"#utility.yul\":4581:4648   */\n      tag_269\n      jump\t// in\n    tag_301:\n        /* \"#utility.yul\":4574:4648   */\n      swap2\n      pop\n        /* \"#utility.yul\":4657:4750   */\n      tag_302\n        /* \"#utility.yul\":4746:4749   */\n      dup3\n        /* \"#utility.yul\":4657:4750   */\n      tag_303\n      jump\t// in\n    tag_302:\n        /* \"#utility.yul\":4775:4777   */\n      0x20\n        /* \"#utility.yul\":4770:4773   */\n      dup3\n        /* \"#utility.yul\":4766:4778   */\n      add\n        /* \"#utility.yul\":4759:4778   */\n      swap1\n      pop\n        /* \"#utility.yul\":4564:4784   */\n      swap2\n      swap1\n      pop\n      jump\t// out\n        /* \"#utility.yul\":4790:5156   */\n    tag_304:\n        /* \"#utility.yul\":4932:4935   */\n      0x00\n        /* \"#utility.yul\":4953:5020   */\n      tag_306\n        /* \"#utility.yul\":5017:5019   */\n      0x25\n        /* \"#utility.yul\":5012:5015   */\n      dup4\n        /* \"#utility.yul\":4953:5020   */\n      tag_269\n      jump\t// in\n    tag_306:\n        /* \"#utility.yul\":4946:5020   */\n      swap2\n      pop\n        /* \"#utility.yul\":5029:5122   */\n      tag_307\n        /* \"#utility.yul\":5118:5121   */\n      dup3\n        /* \"#utility.yul\":5029:5122   */\n      tag_308\n      jump\t// in\n    tag_307:\n        /* \"#utility.yul\":5147:5149   */\n      0x40\n        /* \"#utility.yul\":5142:5145   */\n      dup3\n        /* \"#utility.yul\":5138:5150   */\n      add\n        /* \"#utility.yul\":5131:5150   */\n      swap1\n      pop\n        /* \"#utility.yul\":4936:5156   */\n      swap2\n      swap1\n      pop\n      jump\t// out\n        /* \"#utility.yul\":5162:5528   */\n    tag_309:\n        /* \"#utility.yul\":5304:5307   */\n      0x00\n        /* \"#utility.yul\":5325:5392   */\n      tag_311\n        /* \"#utility.yul\":5389:5391   */\n      0x24\n        /* \"#utility.yul\":5384:5387   */\n      dup4\n        /* \"#utility.yul\":5325:5392   */\n      tag_269\n      jump\t// in\n    tag_311:\n        /* \"#utility.yul\":5318:5392   */\n      swap2\n      pop\n        /* \"#utility.yul\":5401:5494   */\n      tag_312\n        /* \"#utility.yul\":5490:5493   */\n      dup3\n        /* \"#utility.yul\":5401:5494   */\n      tag_313\n      jump\t// in\n    tag_312:\n        /* \"#utility.yul\":5519:5521   */\n      0x40\n        /* \"#utility.yul\":5514:5517   */\n      dup3\n        /* \"#utility.yul\":5510:5522   */\n      add\n        /* \"#utility.yul\":5503:5522   */\n      swap1\n      pop\n        /* \"#utility.yul\":5308:5528   */\n      swap2\n      swap1\n      pop\n      jump\t// out\n        /* \"#utility.yul\":5534:5900   */\n    tag_314:\n        /* \"#utility.yul\":5676:5679   */\n      0x00\n        /* \"#utility.yul\":5697:5764   */\n      tag_316\n        /* \"#utility.yul\":5761:5763   */\n      0x21\n        /* \"#utility.yul\":5756:5759   */\n      dup4\n        /* \"#utility.yul\":5697:5764   */\n      tag_269\n      jump\t// in\n    tag_316:\n        /* \"#utility.yul\":5690:5764   */\n      swap2\n      pop\n        /* \"#utility.yul\":5773:5866   */\n      tag_317\n        /* \"#utility.yul\":5862:5865   */\n      dup3\n        /* \"#utility.yul\":5773:5866   */\n      tag_318\n      jump\t// in\n    tag_317:\n        /* \"#utility.yul\":5891:5893   */\n      0x40\n        /* \"#utility.yul\":5886:5889   */\n      dup3\n        /* \"#utility.yul\":5882:5894   */\n      add\n        /* \"#utility.yul\":5875:5894   */\n      swap1\n      pop\n        /* \"#utility.yul\":5680:5900   */\n      swap2\n      swap1\n      pop\n      jump\t// out\n        /* \"#utility.yul\":5906:6272   */\n    tag_319:\n        /* \"#utility.yul\":6048:6051   */\n      0x00\n        /* \"#utility.yul\":6069:6136   */\n      tag_321\n        /* \"#utility.yul\":6133:6135   */\n      0x25\n        /* \"#utility.yul\":6128:6131   */\n      dup4\n        /* \"#utility.yul\":6069:6136   */\n      tag_269\n      jump\t// in\n    tag_321:\n        /* \"#utility.yul\":6062:6136   */\n      swap2\n      pop\n        /* \"#utility.yul\":6145:6238   */\n      tag_322\n        /* \"#utility.yul\":6234:6237   */\n      dup3\n        /* \"#utility.yul\":6145:6238   */\n      tag_323\n      jump\t// in\n    tag_322:\n        /* \"#utility.yul\":6263:6265   */\n      0x40\n        /* \"#utility.yul\":6258:6261   */\n      dup3\n        /* \"#utility.yul\":6254:6266   */\n      add\n        /* \"#utility.yul\":6247:6266   */\n      swap1\n      pop\n        /* \"#utility.yul\":6052:6272   */\n      swap2\n      swap1\n      pop\n      jump\t// out\n        /* \"#utility.yul\":6278:6644   */\n    tag_324:\n        /* \"#utility.yul\":6420:6423   */\n      0x00\n        /* \"#utility.yul\":6441:6508   */\n      tag_326\n        /* \"#utility.yul\":6505:6507   */\n      0x1f\n        /* \"#utility.yul\":6500:6503   */\n      dup4\n        /* \"#utility.yul\":6441:6508   */\n      tag_269\n      jump\t// in\n    tag_326:\n        /* \"#utility.yul\":6434:6508   */\n      swap2\n      pop\n        /* \"#utility.yul\":6517:6610   */\n      tag_327\n        /* \"#utility.yul\":6606:6609   */\n      dup3\n        /* \"#utility.yul\":6517:6610   */\n      tag_328\n      jump\t// in\n    tag_327:\n        /* \"#utility.yul\":6635:6637   */\n      0x20\n        /* \"#utility.yul\":6630:6633   */\n      dup3\n        /* \"#utility.yul\":6626:6638   */\n      add\n        /* \"#utility.yul\":6619:6638   */\n      swap1\n      pop\n        /* \"#utility.yul\":6424:6644   */\n      swap2\n      swap1\n      pop\n      jump\t// out\n        /* \"#utility.yul\":6650:6768   */\n    tag_329:\n        /* \"#utility.yul\":6737:6761   */\n      tag_331\n        /* \"#utility.yul\":6755:6760   */\n      dup2\n        /* \"#utility.yul\":6737:6761   */\n      tag_332\n      jump\t// in\n    tag_331:\n        /* \"#utility.yul\":6732:6735   */\n      dup3\n        /* \"#utility.yul\":6725:6762   */\n      mstore\n        /* \"#utility.yul\":6715:6768   */\n      pop\n      pop\n      jump\t// out\n        /* \"#utility.yul\":6774:6886   */\n    tag_333:\n        /* \"#utility.yul\":6857:6879   */\n      tag_335\n        /* \"#utility.yul\":6873:6878   */\n      dup2\n        /* \"#utility.yul\":6857:6879   */\n      tag_336\n      jump\t// in\n    tag_335:\n        /* \"#utility.yul\":6852:6855   */\n      dup3\n        /* \"#utility.yul\":6845:6880   */\n      mstore\n        /* \"#utility.yul\":6835:6886   */\n      pop\n      pop\n      jump\t// out\n        /* \"#utility.yul\":6892:7114   */\n    tag_79:\n        /* \"#utility.yul\":6985:6989   */\n      0x00\n        /* \"#utility.yul\":7023:7025   */\n      0x20\n        /* \"#utility.yul\":7012:7021   */\n      dup3\n        /* \"#utility.yul\":7008:7026   */\n      add\n        /* \"#utility.yul\":7000:7026   */\n      swap1\n      pop\n        /* \"#utility.yul\":7036:7107   */\n      tag_338\n        /* \"#utility.yul\":7104:7105   */\n      0x00\n        /* \"#utility.yul\":7093:7102   */\n      dup4\n        /* \"#utility.yul\":7089:7106   */\n      add\n        /* \"#utility.yul\":7080:7086   */\n      dup5\n        /* \"#utility.yul\":7036:7107   */\n      tag_256\n      jump\t// in\n    tag_338:\n        /* \"#utility.yul\":6990:7114   */\n      swap3\n      swap2\n      pop\n      pop\n      jump\t// out\n        /* \"#utility.yul\":7120:7562   */\n    tag_159:\n        /* \"#utility.yul\":7269:7273   */\n      0x00\n        /* \"#utility.yul\":7307:7309   */\n      0x60\n        /* \"#utility.yul\":7296:7305   */\n      dup3\n        /* \"#utility.yul\":7292:7310   */\n      add\n        /* \"#utility.yul\":7284:7310   */\n      swap1\n      pop\n        /* \"#utility.yul\":7320:7391   */\n      tag_340\n        /* \"#utility.yul\":7388:7389   */\n      0x00\n        /* \"#utility.yul\":7377:7386   */\n      dup4\n        /* \"#utility.yul\":7373:7390   */\n      add\n        /* \"#utility.yul\":7364:7370   */\n      dup7\n        /* \"#utility.yul\":7320:7391   */\n      tag_256\n      jump\t// in\n    tag_340:\n        /* \"#utility.yul\":7401:7473   */\n      tag_341\n        /* \"#utility.yul\":7469:7471   */\n      0x20\n        /* \"#utility.yul\":7458:7467   */\n      dup4\n        /* \"#utility.yul\":7454:7472   */\n      add\n        /* \"#utility.yul\":7445:7451   */\n      dup6\n        /* \"#utility.yul\":7401:7473   */\n      tag_256\n      jump\t// in\n    tag_341:\n        /* \"#utility.yul\":7483:7555   */\n      tag_342\n        /* \"#utility.yul\":7551:7553   */\n      0x40\n        /* \"#utility.yul\":7540:7549   */\n      dup4\n        /* \"#utility.yul\":7536:7554   */\n      add\n        /* \"#utility.yul\":7527:7533   */\n      dup5\n        /* \"#utility.yul\":7483:7555   */\n      tag_329\n      jump\t// in\n    tag_342:\n        /* \"#utility.yul\":7274:7562   */\n      swap5\n      swap4\n      pop\n      pop\n      pop\n      pop\n      jump\t// out\n        /* \"#utility.yul\":7568:7778   */\n    tag_33:\n        /* \"#utility.yul\":7655:7659   */\n      0x00\n        /* \"#utility.yul\":7693:7695   */\n      0x20\n        /* \"#utility.yul\":7682:7691   */\n      dup3\n        /* \"#utility.yul\":7678:7696   */\n      add\n        /* \"#utility.yul\":7670:7696   */\n      swap1\n      pop\n        /* \"#utility.yul\":7706:7771   */\n      tag_344\n        /* \"#utility.yul\":7768:7769   */\n      0x00\n        /* \"#utility.yul\":7757:7766   */\n      dup4\n        /* \"#utility.yul\":7753:7770   */\n      add\n        /* \"#utility.yul\":7744:7750   */\n      dup5\n        /* \"#utility.yul\":7706:7771   */\n      tag_260\n      jump\t// in\n    tag_344:\n        /* \"#utility.yul\":7660:7778   */\n      swap3\n      swap2\n      pop\n      pop\n      jump\t// out\n        /* \"#utility.yul\":7784:8097   */\n    tag_26:\n        /* \"#utility.yul\":7897:7901   */\n      0x00\n        /* \"#utility.yul\":7935:7937   */\n      0x20\n        /* \"#utility.yul\":7924:7933   */\n      dup3\n        /* \"#utility.yul\":7920:7938   */\n      add\n        /* \"#utility.yul\":7912:7938   */\n      swap1\n      pop\n        /* \"#utility.yul\":7984:7993   */\n      dup2\n        /* \"#utility.yul\":7978:7982   */\n      dup2\n        /* \"#utility.yul\":7974:7994   */\n      sub\n        /* \"#utility.yul\":7970:7971   */\n      0x00\n        /* \"#utility.yul\":7959:7968   */\n      dup4\n        /* \"#utility.yul\":7955:7972   */\n      add\n        /* \"#utility.yul\":7948:7995   */\n      mstore\n        /* \"#utility.yul\":8012:8090   */\n      tag_346\n        /* \"#utility.yul\":8085:8089   */\n      dup2\n        /* \"#utility.yul\":8076:8082   */\n      dup5\n        /* \"#utility.yul\":8012:8090   */\n      tag_264\n      jump\t// in\n    tag_346:\n        /* \"#utility.yul\":8004:8090   */\n      swap1\n      pop\n        /* \"#utility.yul\":7902:8097   */\n      swap3\n      swap2\n      pop\n      pop\n      jump\t// out\n        /* \"#utility.yul\":8103:8522   */\n    tag_209:\n        /* \"#utility.yul\":8269:8273   */\n      0x00\n        /* \"#utility.yul\":8307:8309   */\n      0x20\n        /* \"#utility.yul\":8296:8305   */\n      dup3\n        /* \"#utility.yul\":8292:8310   */\n      add\n        /* \"#utility.yul\":8284:8310   */\n      swap1\n      pop\n        /* \"#utility.yul\":8356:8365   */\n      dup2\n        /* \"#utility.yul\":8350:8354   */\n      dup2\n        /* \"#utility.yul\":8346:8366   */\n      sub\n        /* \"#utility.yul\":8342:8343   */\n      0x00\n        /* \"#utility.yul\":8331:8340   */\n      dup4\n        /* \"#utility.yul\":8327:8344   */\n      add\n        /* \"#utility.yul\":8320:8367   */\n      mstore\n        /* \"#utility.yul\":8384:8515   */\n      tag_348\n        /* \"#utility.yul\":8510:8514   */\n      dup2\n        /* \"#utility.yul\":8384:8515   */\n      tag_274\n      jump\t// in\n    tag_348:\n        /* \"#utility.yul\":8376:8515   */\n      swap1\n      pop\n        /* \"#utility.yul\":8274:8522   */\n      swap2\n      swap1\n      pop\n      jump\t// out\n        /* \"#utility.yul\":8528:8947   */\n    tag_185:\n        /* \"#utility.yul\":8694:8698   */\n      0x00\n        /* \"#utility.yul\":8732:8734   */\n      0x20\n        /* \"#utility.yul\":8721:8730   */\n      dup3\n        /* \"#utility.yul\":8717:8735   */\n      add\n        /* \"#utility.yul\":8709:8735   */\n      swap1\n      pop\n        /* \"#utility.yul\":8781:8790   */\n      dup2\n        /* \"#utility.yul\":8775:8779   */\n      dup2\n        /* \"#utility.yul\":8771:8791   */\n      sub\n        /* \"#utility.yul\":8767:8768   */\n      0x00\n        /* \"#utility.yul\":8756:8765   */\n      dup4\n        /* \"#utility.yul\":8752:8769   */\n      add\n        /* \"#utility.yul\":8745:8792   */\n      mstore\n        /* \"#utility.yul\":8809:8940   */\n      tag_350\n        /* \"#utility.yul\":8935:8939   */\n      dup2\n        /* \"#utility.yul\":8809:8940   */\n      tag_279\n      jump\t// in\n    tag_350:\n        /* \"#utility.yul\":8801:8940   */\n      swap1\n      pop\n        /* \"#utility.yul\":8699:8947   */\n      swap2\n      swap1\n      pop\n      jump\t// out\n        /* \"#utility.yul\":8953:9372   */\n    tag_194:\n        /* \"#utility.yul\":9119:9123   */\n      0x00\n        /* \"#utility.yul\":9157:9159   */\n      0x20\n        /* \"#utility.yul\":9146:9155   */\n      dup3\n        /* \"#utility.yul\":9142:9160   */\n      add\n        /* \"#utility.yul\":9134:9160   */\n      swap1\n      pop\n        /* \"#utility.yul\":9206:9215   */\n      dup2\n        /* \"#utility.yul\":9200:9204   */\n      dup2\n        /* \"#utility.yul\":9196:9216   */\n      sub\n        /* \"#utility.yul\":9192:9193   */\n      0x00\n        /* \"#utility.yul\":9181:9190   */\n      dup4\n        /* \"#utility.yul\":9177:9194   */\n      add\n        /* \"#utility.yul\":9170:9217   */\n      mstore\n        /* \"#utility.yul\":9234:9365   */\n      tag_352\n        /* \"#utility.yul\":9360:9364   */\n      dup2\n        /* \"#utility.yul\":9234:9365   */\n      tag_284\n      jump\t// in\n    tag_352:\n        /* \"#utility.yul\":9226:9365   */\n      swap1\n      pop\n        /* \"#utility.yul\":9124:9372   */\n      swap2\n      swap1\n      pop\n      jump\t// out\n        /* \"#utility.yul\":9378:9797   */\n    tag_201:\n        /* \"#utility.yul\":9544:9548   */\n      0x00\n        /* \"#utility.yul\":9582:9584   */\n      0x20\n        /* \"#utility.yul\":9571:9580   */\n      dup3\n        /* \"#utility.yul\":9567:9585   */\n      add\n        /* \"#utility.yul\":9559:9585   */\n      swap1\n      pop\n        /* \"#utility.yul\":9631:9640   */\n      dup2\n        /* \"#utility.yul\":9625:9629   */\n      dup2\n        /* \"#utility.yul\":9621:9641   */\n      sub\n        /* \"#utility.yul\":9617:9618   */\n      0x00\n        /* \"#utility.yul\":9606:9615   */\n      dup4\n        /* \"#utility.yul\":9602:9619   */\n      add\n        /* \"#utility.yul\":9595:9642   */\n      mstore\n        /* \"#utility.yul\":9659:9790   */\n      tag_354\n        /* \"#utility.yul\":9785:9789   */\n      dup2\n        /* \"#utility.yul\":9659:9790   */\n      tag_289\n      jump\t// in\n    tag_354:\n        /* \"#utility.yul\":9651:9790   */\n      swap1\n      pop\n        /* \"#utility.yul\":9549:9797   */\n      swap2\n      swap1\n      pop\n      jump\t// out\n        /* \"#utility.yul\":9803:10222   */\n    tag_214:\n        /* \"#utility.yul\":9969:9973   */\n      0x00\n        /* \"#utility.yul\":10007:10009   */\n      0x20\n        /* \"#utility.yul\":9996:10005   */\n      dup3\n        /* \"#utility.yul\":9992:10010   */\n      add\n        /* \"#utility.yul\":9984:10010   */\n      swap1\n      pop\n        /* \"#utility.yul\":10056:10065   */\n      dup2\n        /* \"#utility.yul\":10050:10054   */\n      dup2\n        /* \"#utility.yul\":10046:10066   */\n      sub\n        /* \"#utility.yul\":10042:10043   */\n      0x00\n        /* \"#utility.yul\":10031:10040   */\n      dup4\n        /* \"#utility.yul\":10027:10044   */\n      add\n        /* \"#utility.yul\":10020:10067   */\n      mstore\n        /* \"#utility.yul\":10084:10215   */\n      tag_356\n        /* \"#utility.yul\":10210:10214   */\n      dup2\n        /* \"#utility.yul\":10084:10215   */\n      tag_294\n      jump\t// in\n    tag_356:\n        /* \"#utility.yul\":10076:10215   */\n      swap1\n      pop\n        /* \"#utility.yul\":9974:10222   */\n      swap2\n      swap1\n      pop\n      jump\t// out\n        /* \"#utility.yul\":10228:10647   */\n    tag_134:\n        /* \"#utility.yul\":10394:10398   */\n      0x00\n        /* \"#utility.yul\":10432:10434   */\n      0x20\n        /* \"#utility.yul\":10421:10430   */\n      dup3\n        /* \"#utility.yul\":10417:10435   */\n      add\n        /* \"#utility.yul\":10409:10435   */\n      swap1\n      pop\n        /* \"#utility.yul\":10481:10490   */\n      dup2\n        /* \"#utility.yul\":10475:10479   */\n      dup2\n        /* \"#utility.yul\":10471:10491   */\n      sub\n        /* \"#utility.yul\":10467:10468   */\n      0x00\n        /* \"#utility.yul\":10456:10465   */\n      dup4\n        /* \"#utility.yul\":10452:10469   */\n      add\n        /* \"#utility.yul\":10445:10492   */\n      mstore\n        /* \"#utility.yul\":10509:10640   */\n      tag_358\n        /* \"#utility.yul\":10635:10639   */\n      dup2\n        /* \"#utility.yul\":10509:10640   */\n      tag_299\n      jump\t// in\n    tag_358:\n        /* \"#utility.yul\":10501:10640   */\n      swap1\n      pop\n        /* \"#utility.yul\":10399:10647   */\n      swap2\n      swap1\n      pop\n      jump\t// out\n        /* \"#utility.yul\":10653:11072   */\n    tag_206:\n        /* \"#utility.yul\":10819:10823   */\n      0x00\n        /* \"#utility.yul\":10857:10859   */\n      0x20\n        /* \"#utility.yul\":10846:10855   */\n      dup3\n        /* \"#utility.yul\":10842:10860   */\n      add\n        /* \"#utility.yul\":10834:10860   */\n      swap1\n      pop\n        /* \"#utility.yul\":10906:10915   */\n      dup2\n        /* \"#utility.yul\":10900:10904   */\n      dup2\n        /* \"#utility.yul\":10896:10916   */\n      sub\n        /* \"#utility.yul\":10892:10893   */\n      0x00\n        /* \"#utility.yul\":10881:10890   */\n      dup4\n        /* \"#utility.yul\":10877:10894   */\n      add\n        /* \"#utility.yul\":10870:10917   */\n      mstore\n        /* \"#utility.yul\":10934:11065   */\n      tag_360\n        /* \"#utility.yul\":11060:11064   */\n      dup2\n        /* \"#utility.yul\":10934:11065   */\n      tag_304\n      jump\t// in\n    tag_360:\n        /* \"#utility.yul\":10926:11065   */\n      swap1\n      pop\n        /* \"#utility.yul\":10824:11072   */\n      swap2\n      swap1\n      pop\n      jump\t// out\n        /* \"#utility.yul\":11078:11497   */\n    tag_191:\n        /* \"#utility.yul\":11244:11248   */\n      0x00\n        /* \"#utility.yul\":11282:11284   */\n      0x20\n        /* \"#utility.yul\":11271:11280   */\n      dup3\n        /* \"#utility.yul\":11267:11285   */\n      add\n        /* \"#utility.yul\":11259:11285   */\n      swap1\n      pop\n        /* \"#utility.yul\":11331:11340   */\n      dup2\n        /* \"#utility.yul\":11325:11329   */\n      dup2\n        /* \"#utility.yul\":11321:11341   */\n      sub\n        /* \"#utility.yul\":11317:11318   */\n      0x00\n        /* \"#utility.yul\":11306:11315   */\n      dup4\n        /* \"#utility.yul\":11302:11319   */\n      add\n        /* \"#utility.yul\":11295:11342   */\n      mstore\n        /* \"#utility.yul\":11359:11490   */\n      tag_362\n        /* \"#utility.yul\":11485:11489   */\n      dup2\n        /* \"#utility.yul\":11359:11490   */\n      tag_309\n      jump\t// in\n    tag_362:\n        /* \"#utility.yul\":11351:11490   */\n      swap1\n      pop\n        /* \"#utility.yul\":11249:11497   */\n      swap2\n      swap1\n      pop\n      jump\t// out\n        /* \"#utility.yul\":11503:11922   */\n    tag_150:\n        /* \"#utility.yul\":11669:11673   */\n      0x00\n        /* \"#utility.yul\":11707:11709   */\n      0x20\n        /* \"#utility.yul\":11696:11705   */\n      dup3\n        /* \"#utility.yul\":11692:11710   */\n      add\n        /* \"#utility.yul\":11684:11710   */\n      swap1\n      pop\n        /* \"#utility.yul\":11756:11765   */\n      dup2\n        /* \"#utility.yul\":11750:11754   */\n      dup2\n        /* \"#utility.yul\":11746:11766   */\n      sub\n        /* \"#utility.yul\":11742:11743   */\n      0x00\n        /* \"#utility.yul\":11731:11740   */\n      dup4\n        /* \"#utility.yul\":11727:11744   */\n      add\n        /* \"#utility.yul\":11720:11767   */\n      mstore\n        /* \"#utility.yul\":11784:11915   */\n      tag_364\n        /* \"#utility.yul\":11910:11914   */\n      dup2\n        /* \"#utility.yul\":11784:11915   */\n      tag_314\n      jump\t// in\n    tag_364:\n        /* \"#utility.yul\":11776:11915   */\n      swap1\n      pop\n        /* \"#utility.yul\":11674:11922   */\n      swap2\n      swap1\n      pop\n      jump\t// out\n        /* \"#utility.yul\":11928:12347   */\n    tag_171:\n        /* \"#utility.yul\":12094:12098   */\n      0x00\n        /* \"#utility.yul\":12132:12134   */\n      0x20\n        /* \"#utility.yul\":12121:12130   */\n      dup3\n        /* \"#utility.yul\":12117:12135   */\n      add\n        /* \"#utility.yul\":12109:12135   */\n      swap1\n      pop\n        /* \"#utility.yul\":12181:12190   */\n      dup2\n        /* \"#utility.yul\":12175:12179   */\n      dup2\n        /* \"#utility.yul\":12171:12191   */\n      sub\n        /* \"#utility.yul\":12167:12168   */\n      0x00\n        /* \"#utility.yul\":12156:12165   */\n      dup4\n        /* \"#utility.yul\":12152:12169   */\n      add\n        /* \"#utility.yul\":12145:12192   */\n      mstore\n        /* \"#utility.yul\":12209:12340   */\n      tag_366\n        /* \"#utility.yul\":12335:12339   */\n      dup2\n        /* \"#utility.yul\":12209:12340   */\n      tag_319\n      jump\t// in\n    tag_366:\n        /* \"#utility.yul\":12201:12340   */\n      swap1\n      pop\n        /* \"#utility.yul\":12099:12347   */\n      swap2\n      swap1\n      pop\n      jump\t// out\n        /* \"#utility.yul\":12353:12772   */\n    tag_222:\n        /* \"#utility.yul\":12519:12523   */\n      0x00\n        /* \"#utility.yul\":12557:12559   */\n      0x20\n        /* \"#utility.yul\":12546:12555   */\n      dup3\n        /* \"#utility.yul\":12542:12560   */\n      add\n        /* \"#utility.yul\":12534:12560   */\n      swap1\n      pop\n        /* \"#utility.yul\":12606:12615   */\n      dup2\n        /* \"#utility.yul\":12600:12604   */\n      dup2\n        /* \"#utility.yul\":12596:12616   */\n      sub\n        /* \"#utility.yul\":12592:12593   */\n      0x00\n        /* \"#utility.yul\":12581:12590   */\n      dup4\n        /* \"#utility.yul\":12577:12594   */\n      add\n        /* \"#utility.yul\":12570:12617   */\n      mstore\n        /* \"#utility.yul\":12634:12765   */\n      tag_368\n        /* \"#utility.yul\":12760:12764   */\n      dup2\n        /* \"#utility.yul\":12634:12765   */\n      tag_324\n      jump\t// in\n    tag_368:\n        /* \"#utility.yul\":12626:12765   */\n      swap1\n      pop\n        /* \"#utility.yul\":12524:12772   */\n      swap2\n      swap1\n      pop\n      jump\t// out\n        /* \"#utility.yul\":12778:13000   */\n    tag_38:\n        /* \"#utility.yul\":12871:12875   */\n      0x00\n        /* \"#utility.yul\":12909:12911   */\n      0x20\n        /* \"#utility.yul\":12898:12907   */\n      dup3\n        /* \"#utility.yul\":12894:12912   */\n      add\n        /* \"#utility.yul\":12886:12912   */\n      swap1\n      pop\n        /* \"#utility.yul\":12922:12993   */\n      tag_370\n        /* \"#utility.yul\":12990:12991   */\n      0x00\n        /* \"#utility.yul\":12979:12988   */\n      dup4\n        /* \"#utility.yul\":12975:12992   */\n      add\n        /* \"#utility.yul\":12966:12972   */\n      dup5\n        /* \"#utility.yul\":12922:12993   */\n      tag_329\n      jump\t// in\n    tag_370:\n        /* \"#utility.yul\":12876:13000   */\n      swap3\n      swap2\n      pop\n      pop\n      jump\t// out\n        /* \"#utility.yul\":13006:13220   */\n    tag_53:\n        /* \"#utility.yul\":13095:13099   */\n      0x00\n        /* \"#utility.yul\":13133:13135   */\n      0x20\n        /* \"#utility.yul\":13122:13131   */\n      dup3\n        /* \"#utility.yul\":13118:13136   */\n      add\n        /* \"#utility.yul\":13110:13136   */\n      swap1\n      pop\n        /* \"#utility.yul\":13146:13213   */\n      tag_372\n        /* \"#utility.yul\":13210:13211   */\n      0x00\n        /* \"#utility.yul\":13199:13208   */\n      dup4\n        /* \"#utility.yul\":13195:13212   */\n      add\n        /* \"#utility.yul\":13186:13192   */\n      dup5\n        /* \"#utility.yul\":13146:13213   */\n      tag_333\n      jump\t// in\n    tag_372:\n        /* \"#utility.yul\":13100:13220   */\n      swap3\n      swap2\n      pop\n      pop\n      jump\t// out\n        /* \"#utility.yul\":13226:13325   */\n    tag_267:\n        /* \"#utility.yul\":13278:13284   */\n      0x00\n        /* \"#utility.yul\":13312:13317   */\n      dup2\n        /* \"#utility.yul\":13306:13318   */\n      mload\n        /* \"#utility.yul\":13296:13318   */\n      swap1\n      pop\n        /* \"#utility.yul\":13285:13325   */\n      swap2\n      swap1\n      pop\n      jump\t// out\n        /* \"#utility.yul\":13331:13500   */\n    tag_269:\n        /* \"#utility.yul\":13415:13426   */\n      0x00\n        /* \"#utility.yul\":13449:13455   */\n      dup3\n        /* \"#utility.yul\":13444:13447   */\n      dup3\n        /* \"#utility.yul\":13437:13456   */\n      mstore\n        /* \"#utility.yul\":13489:13493   */\n      0x20\n        /* \"#utility.yul\":13484:13487   */\n      dup3\n        /* \"#utility.yul\":13480:13494   */\n      add\n        /* \"#utility.yul\":13465:13494   */\n      swap1\n      pop\n        /* \"#utility.yul\":13427:13500   */\n      swap3\n      swap2\n      pop\n      pop\n      jump\t// out\n        /* \"#utility.yul\":13506:13811   */\n    tag_128:\n        /* \"#utility.yul\":13546:13549   */\n      0x00\n        /* \"#utility.yul\":13565:13585   */\n      tag_376\n        /* \"#utility.yul\":13583:13584   */\n      dup3\n        /* \"#utility.yul\":13565:13585   */\n      tag_332\n      jump\t// in\n    tag_376:\n        /* \"#utility.yul\":13560:13585   */\n      swap2\n      pop\n        /* \"#utility.yul\":13599:13619   */\n      tag_377\n        /* \"#utility.yul\":13617:13618   */\n      dup4\n        /* \"#utility.yul\":13599:13619   */\n      tag_332\n      jump\t// in\n    tag_377:\n        /* \"#utility.yul\":13594:13619   */\n      swap3\n      pop\n        /* \"#utility.yul\":13753:13754   */\n      dup3\n        /* \"#utility.yul\":13685:13751   */\n      0xffffffffffffffffffffffffffffffffffffffffffffffffffffffffffffffff\n        /* \"#utility.yul\":13681:13755   */\n      sub\n        /* \"#utility.yul\":13678:13679   */\n      dup3\n        /* \"#utility.yul\":13675:13756   */\n      gt\n        /* \"#utility.yul\":13672:13674   */\n      iszero\n      tag_378\n      jumpi\n        /* \"#utility.yul\":13759:13777   */\n      tag_379\n      tag_380\n      jump\t// in\n    tag_379:\n        /* \"#utility.yul\":13672:13674   */\n    tag_378:\n        /* \"#utility.yul\":13803:13804   */\n      dup3\n        /* \"#utility.yul\":13800:13801   */\n      dup3\n        /* \"#utility.yul\":13796:13805   */\n      add\n        /* \"#utility.yul\":13789:13805   */\n      swap1\n      pop\n        /* \"#utility.yul\":13550:13811   */\n      swap3\n      swap2\n      pop\n      pop\n      jump\t// out\n        /* \"#utility.yul\":13817:14002   */\n    tag_154:\n        /* \"#utility.yul\":13857:13858   */\n      0x00\n        /* \"#utility.yul\":13874:13894   */\n      tag_382\n        /* \"#utility.yul\":13892:13893   */\n      dup3\n        /* \"#utility.yul\":13874:13894   */\n      tag_332\n      jump\t// in\n    tag_382:\n        /* \"#utility.yul\":13869:13894   */\n      swap2\n      pop\n        /* \"#utility.yul\":13908:13928   */\n      tag_383\n        /* \"#utility.yul\":13926:13927   */\n      dup4\n        /* \"#utility.yul\":13908:13928   */\n      tag_332\n      jump\t// in\n    tag_383:\n        /* \"#utility.yul\":13903:13928   */\n      swap3\n      pop\n        /* \"#utility.yul\":13947:13948   */\n      dup3\n        /* \"#utility.yul\":13937:13939   */\n      tag_384\n      jumpi\n        /* \"#utility.yul\":13952:13970   */\n      tag_385\n      tag_386\n      jump\t// in\n    tag_385:\n        /* \"#utility.yul\":13937:13939   */\n    tag_384:\n        /* \"#utility.yul\":13994:13995   */\n      dup3\n        /* \"#utility.yul\":13991:13992   */\n      dup3\n        /* \"#utility.yul\":13987:13996   */\n      div\n        /* \"#utility.yul\":13982:13996   */\n      swap1\n      pop\n        /* \"#utility.yul\":13859:14002   */\n      swap3\n      swap2\n      pop\n      pop\n      jump\t// out\n        /* \"#utility.yul\":14008:14199   */\n    tag_156:\n        /* \"#utility.yul\":14048:14052   */\n      0x00\n        /* \"#utility.yul\":14068:14088   */\n      tag_388\n        /* \"#utility.yul\":14086:14087   */\n      dup3\n        /* \"#utility.yul\":14068:14088   */\n      tag_332\n      jump\t// in\n    tag_388:\n        /* \"#utility.yul\":14063:14088   */\n      swap2\n      pop\n        /* \"#utility.yul\":14102:14122   */\n      tag_389\n        /* \"#utility.yul\":14120:14121   */\n      dup4\n        /* \"#utility.yul\":14102:14122   */\n      tag_332\n      jump\t// in\n    tag_389:\n        /* \"#utility.yul\":14097:14122   */\n      swap3\n      pop\n        /* \"#utility.yul\":14141:14142   */\n      dup3\n        /* \"#utility.yul\":14138:14139   */\n      dup3\n        /* \"#utility.yul\":14135:14143   */\n      lt\n        /* \"#utility.yul\":14132:14134   */\n      iszero\n      tag_390\n      jumpi\n        /* \"#utility.yul\":14146:14164   */\n      tag_391\n      tag_380\n      jump\t// in\n    tag_391:\n        /* \"#utility.yul\":14132:14134   */\n    tag_390:\n        /* \"#utility.yul\":14191:14192   */\n      dup3\n        /* \"#utility.yul\":14188:14189   */\n      dup3\n        /* \"#utility.yul\":14184:14193   */\n      sub\n        /* \"#utility.yul\":14176:14193   */\n      swap1\n      pop\n        /* \"#utility.yul\":14053:14199   */\n      swap3\n      swap2\n      pop\n      pop\n      jump\t// out\n        /* \"#utility.yul\":14205:14301   */\n    tag_259:\n        /* \"#utility.yul\":14242:14249   */\n      0x00\n        /* \"#utility.yul\":14271:14295   */\n      tag_393\n        /* \"#utility.yul\":14289:14294   */\n      dup3\n        /* \"#utility.yul\":14271:14295   */\n      tag_394\n      jump\t// in\n    tag_393:\n        /* \"#utility.yul\":14260:14295   */\n      swap1\n      pop\n        /* \"#utility.yul\":14250:14301   */\n      swap2\n      swap1\n      pop\n      jump\t// out\n        /* \"#utility.yul\":14307:14397   */\n    tag_263:\n        /* \"#utility.yul\":14341:14348   */\n      0x00\n        /* \"#utility.yul\":14384:14389   */\n      dup2\n        /* \"#utility.yul\":14377:14390   */\n      iszero\n        /* \"#utility.yul\":14370:14391   */\n      iszero\n        /* \"#utility.yul\":14359:14391   */\n      swap1\n      pop\n        /* \"#utility.yul\":14349:14397   */\n      swap2\n      swap1\n      pop\n      jump\t// out\n        /* \"#utility.yul\":14403:14529   */\n    tag_394:\n        /* \"#utility.yul\":14440:14447   */\n      0x00\n        /* \"#utility.yul\":14480:14522   */\n      0xffffffffffffffffffffffffffffffffffffffff\n        /* \"#utility.yul\":14473:14478   */\n      dup3\n        /* \"#utility.yul\":14469:14523   */\n      and\n        /* \"#utility.yul\":14458:14523   */\n      swap1\n      pop\n        /* \"#utility.yul\":14448:14529   */\n      swap2\n      swap1\n      pop\n      jump\t// out\n        /* \"#utility.yul\":14535:14612   */\n    tag_332:\n        /* \"#utility.yul\":14572:14579   */\n      0x00\n        /* \"#utility.yul\":14601:14606   */\n      dup2\n        /* \"#utility.yul\":14590:14606   */\n      swap1\n      pop\n        /* \"#utility.yul\":14580:14612   */\n      swap2\n      swap1\n      pop\n      jump\t// out\n        /* \"#utility.yul\":14618:14704   */\n    tag_336:\n        /* \"#utility.yul\":14653:14660   */\n      0x00\n        /* \"#utility.yul\":14693:14697   */\n      0xff\n        /* \"#utility.yul\":14686:14691   */\n      dup3\n        /* \"#utility.yul\":14682:14698   */\n      and\n        /* \"#utility.yul\":14671:14698   */\n      swap1\n      pop\n        /* \"#utility.yul\":14661:14704   */\n      swap2\n      swap1\n      pop\n      jump\t// out\n        /* \"#utility.yul\":14710:15017   */\n    tag_271:\n        /* \"#utility.yul\":14778:14779   */\n      0x00\n        /* \"#utility.yul\":14788:14901   */\n    tag_400:\n        /* \"#utility.yul\":14802:14808   */\n      dup4\n        /* \"#utility.yul\":14799:14800   */\n      dup2\n        /* \"#utility.yul\":14796:14809   */\n      lt\n        /* \"#utility.yul\":14788:14901   */\n      iszero\n      tag_402\n      jumpi\n        /* \"#utility.yul\":14887:14888   */\n      dup1\n        /* \"#utility.yul\":14882:14885   */\n      dup3\n        /* \"#utility.yul\":14878:14889   */\n      add\n        /* \"#utility.yul\":14872:14890   */\n      mload\n        /* \"#utility.yul\":14868:14869   */\n      dup2\n        /* \"#utility.yul\":14863:14866   */\n      dup5\n        /* \"#utility.yul\":14859:14870   */\n      add\n        /* \"#utility.yul\":14852:14891   */\n      mstore\n        /* \"#utility.yul\":14824:14826   */\n      0x20\n        /* \"#utility.yul\":14821:14822   */\n      dup2\n        /* \"#utility.yul\":14817:14827   */\n      add\n        /* \"#utility.yul\":14812:14827   */\n      swap1\n      pop\n        /* \"#utility.yul\":14788:14901   */\n      jump(tag_400)\n    tag_402:\n        /* \"#utility.yul\":14919:14925   */\n      dup4\n        /* \"#utility.yul\":14916:14917   */\n      dup2\n        /* \"#utility.yul\":14913:14926   */\n      gt\n        /* \"#utility.yul\":14910:14912   */\n      iszero\n      tag_403\n      jumpi\n        /* \"#utility.yul\":14999:15000   */\n      0x00\n        /* \"#utility.yul\":14990:14996   */\n      dup5\n        /* \"#utility.yul\":14985:14988   */\n      dup5\n        /* \"#utility.yul\":14981:14997   */\n      add\n        /* \"#utility.yul\":14974:15001   */\n      mstore\n        /* \"#utility.yul\":14910:14912   */\n    tag_403:\n        /* \"#utility.yul\":14759:15017   */\n      pop\n      pop\n      pop\n      pop\n      jump\t// out\n        /* \"#utility.yul\":15023:15343   */\n    tag_106:\n        /* \"#utility.yul\":15067:15073   */\n      0x00\n        /* \"#utility.yul\":15104:15105   */\n      0x02\n        /* \"#utility.yul\":15098:15102   */\n      dup3\n        /* \"#utility.yul\":15094:15106   */\n      div\n        /* \"#utility.yul\":15084:15106   */\n      swap1\n      pop\n        /* \"#utility.yul\":15151:15152   */\n      0x01\n        /* \"#utility.yul\":15145:15149   */\n      dup3\n        /* \"#utility.yul\":15141:15153   */\n      and\n        /* \"#utility.yul\":15172:15190   */\n      dup1\n        /* \"#utility.yul\":15162:15164   */\n      tag_405\n      jumpi\n        /* \"#utility.yul\":15228:15232   */\n      0x7f\n        /* \"#utility.yul\":15220:15226   */\n      dup3\n        /* \"#utility.yul\":15216:15233   */\n      and\n        /* \"#utility.yul\":15206:15233   */\n      swap2\n      pop\n        /* \"#utility.yul\":15162:15164   */\n    tag_405:\n        /* \"#utility.yul\":15290:15292   */\n      0x20\n        /* \"#utility.yul\":15282:15288   */\n      dup3\n        /* \"#utility.yul\":15279:15293   */\n      lt\n        /* \"#utility.yul\":15259:15277   */\n      dup2\n        /* \"#utility.yul\":15256:15294   */\n      eq\n        /* \"#utility.yul\":15253:15255   */\n      iszero\n      tag_406\n      jumpi\n        /* \"#utility.yul\":15309:15327   */\n      tag_407\n      tag_408\n      jump\t// in\n    tag_407:\n        /* \"#utility.yul\":15253:15255   */\n    tag_406:\n        /* \"#utility.yul\":15074:15343   */\n      pop\n      swap2\n      swap1\n      pop\n      jump\t// out\n        /* \"#utility.yul\":15349:15529   */\n    tag_380:\n        /* \"#utility.yul\":15397:15474   */\n      0x4e487b7100000000000000000000000000000000000000000000000000000000\n        /* \"#utility.yul\":15394:15395   */\n      0x00\n        /* \"#utility.yul\":15387:15475   */\n      mstore\n        /* \"#utility.yul\":15494:15498   */\n      0x11\n        /* \"#utility.yul\":15491:15492   */\n      0x04\n        /* \"#utility.yul\":15484:15499   */\n      mstore\n        /* \"#utility.yul\":15518:15522   */\n      0x24\n        /* \"#utility.yul\":15515:15516   */\n      0x00\n        /* \"#utility.yul\":15508:15523   */\n      revert\n        /* \"#utility.yul\":15535:15715   */\n    tag_386:\n        /* \"#utility.yul\":15583:15660   */\n      0x4e487b7100000000000000000000000000000000000000000000000000000000\n        /* \"#utility.yul\":15580:15581   */\n      0x00\n        /* \"#utility.yul\":15573:15661   */\n      mstore\n        /* \"#utility.yul\":15680:15684   */\n      0x12\n        /* \"#utility.yul\":15677:15678   */\n      0x04\n        /* \"#utility.yul\":15670:15685   */\n      mstore\n        /* \"#utility.yul\":15704:15708   */\n      0x24\n        /* \"#utility.yul\":15701:15702   */\n      0x00\n        /* \"#utility.yul\":15694:15709   */\n      revert\n        /* \"#utility.yul\":15721:15901   */\n    tag_408:\n        /* \"#utility.yul\":15769:15846   */\n      0x4e487b7100000000000000000000000000000000000000000000000000000000\n        /* \"#utility.yul\":15766:15767   */\n      0x00\n        /* \"#utility.yul\":15759:15847   */\n      mstore\n        /* \"#utility.yul\":15866:15870   */\n      0x22\n        /* \"#utility.yul\":15863:15864   */\n      0x04\n        /* \"#utility.yul\":15856:15871   */\n      mstore\n        /* \"#utility.yul\":15890:15894   */\n      0x24\n        /* \"#utility.yul\":15887:15888   */\n      0x00\n        /* \"#utility.yul\":15880:15895   */\n      revert\n        /* \"#utility.yul\":15907:16009   */\n    tag_273:\n        /* \"#utility.yul\":15948:15954   */\n      0x00\n        /* \"#utility.yul\":15999:16001   */\n      0x1f\n        /* \"#utility.yul\":15995:16002   */\n      not\n        /* \"#utility.yul\":15990:15992   */\n      0x1f\n        /* \"#utility.yul\":15983:15988   */\n      dup4\n        /* \"#utility.yul\":15979:15993   */\n      add\n        /* \"#utility.yul\":15975:16003   */\n      and\n        /* \"#utility.yul\":15965:16003   */\n      swap1\n      pop\n        /* \"#utility.yul\":15955:16009   */\n      swap2\n      swap1\n      pop\n      jump\t// out\n        /* \"#utility.yul\":16015:16237   */\n    tag_278:\n        /* \"#utility.yul\":16155:16189   */\n      0x45524332303a207472616e7366657220746f20746865207a65726f2061646472\n        /* \"#utility.yul\":16151:16152   */\n      0x00\n        /* \"#utility.yul\":16143:16149   */\n      dup3\n        /* \"#utility.yul\":16139:16153   */\n      add\n        /* \"#utility.yul\":16132:16190   */\n      mstore\n        /* \"#utility.yul\":16224:16229   */\n      0x6573730000000000000000000000000000000000000000000000000000000000\n        /* \"#utility.yul\":16219:16221   */\n      0x20\n        /* \"#utility.yul\":16211:16217   */\n      dup3\n        /* \"#utility.yul\":16207:16222   */\n      add\n        /* \"#utility.yul\":16200:16230   */\n      mstore\n        /* \"#utility.yul\":16121:16237   */\n      pop\n      jump\t// out\n        /* \"#utility.yul\":16243:16468   */\n    tag_283:\n        /* \"#utility.yul\":16383:16417   */\n      0x4f776e61626c653a206e6577206f776e657220697320746865207a65726f2061\n        /* \"#utility.yul\":16379:16380   */\n      0x00\n        /* \"#utility.yul\":16371:16377   */\n      dup3\n        /* \"#utility.yul\":16367:16381   */\n      add\n        /* \"#utility.yul\":16360:16418   */\n      mstore\n        /* \"#utility.yul\":16452:16460   */\n      0x6464726573730000000000000000000000000000000000000000000000000000\n        /* \"#utility.yul\":16447:16449   */\n      0x20\n        /* \"#utility.yul\":16439:16445   */\n      dup3\n        /* \"#utility.yul\":16435:16450   */\n      add\n        /* \"#utility.yul\":16428:16461   */\n      mstore\n        /* \"#utility.yul\":16349:16468   */\n      pop\n      jump\t// out\n        /* \"#utility.yul\":16474:16695   */\n    tag_288:\n        /* \"#utility.yul\":16614:16648   */\n      0x45524332303a20617070726f766520746f20746865207a65726f206164647265\n        /* \"#utility.yul\":16610:16611   */\n      0x00\n        /* \"#utility.yul\":16602:16608   */\n      dup3\n        /* \"#utility.yul\":16598:16612   */\n      add\n        /* \"#utility.yul\":16591:16649   */\n      mstore\n        /* \"#utility.yul\":16683:16687   */\n      0x7373000000000000000000000000000000000000000000000000000000000000\n        /* \"#utility.yul\":16678:16680   */\n      0x20\n        /* \"#utility.yul\":16670:16676   */\n      dup3\n        /* \"#utility.yul\":16666:16681   */\n      add\n        /* \"#utility.yul\":16659:16688   */\n      mstore\n        /* \"#utility.yul\":16580:16695   */\n      pop\n      jump\t// out\n        /* \"#utility.yul\":16701:16880   */\n    tag_293:\n        /* \"#utility.yul\":16841:16872   */\n      0x45524332303a20696e73756666696369656e7420616c6c6f77616e6365000000\n        /* \"#utility.yul\":16837:16838   */\n      0x00\n        /* \"#utility.yul\":16829:16835   */\n      dup3\n        /* \"#utility.yul\":16825:16839   */\n      add\n        /* \"#utility.yul\":16818:16873   */\n      mstore\n        /* \"#utility.yul\":16807:16880   */\n      pop\n      jump\t// out\n        /* \"#utility.yul\":16886:17111   */\n    tag_298:\n        /* \"#utility.yul\":17026:17060   */\n      0x45524332303a207472616e7366657220616d6f756e7420657863656564732062\n        /* \"#utility.yul\":17022:17023   */\n      0x00\n        /* \"#utility.yul\":17014:17020   */\n      dup3\n        /* \"#utility.yul\":17010:17024   */\n      add\n        /* \"#utility.yul\":17003:17061   */\n      mstore\n        /* \"#utility.yul\":17095:17103   */\n      0x616c616e63650000000000000000000000000000000000000000000000000000\n        /* \"#utility.yul\":17090:17092   */\n      0x20\n        /* \"#utility.yul\":17082:17088   */\n      dup3\n        /* \"#utility.yul\":17078:17093   */\n      add\n        /* \"#utility.yul\":17071:17104   */\n      mstore\n        /* \"#utility.yul\":16992:17111   */\n      pop\n      jump\t// out\n        /* \"#utility.yul\":17117:17299   */\n    tag_303:\n        /* \"#utility.yul\":17257:17291   */\n      0x4f776e61626c653a2063616c6c6572206973206e6f7420746865206f776e6572\n        /* \"#utility.yul\":17253:17254   */\n      0x00\n        /* \"#utility.yul\":17245:17251   */\n      dup3\n        /* \"#utility.yul\":17241:17255   */\n      add\n        /* \"#utility.yul\":17234:17292   */\n      mstore\n        /* \"#utility.yul\":17223:17299   */\n      pop\n      jump\t// out\n        /* \"#utility.yul\":17305:17529   */\n    tag_308:\n        /* \"#utility.yul\":17445:17479   */\n      0x45524332303a207472616e736665722066726f6d20746865207a65726f206164\n        /* \"#utility.yul\":17441:17442   */\n      0x00\n        /* \"#utility.yul\":17433:17439   */\n      dup3\n        /* \"#utility.yul\":17429:17443   */\n      add\n        /* \"#utility.yul\":17422:17480   */\n      mstore\n        /* \"#utility.yul\":17514:17521   */\n      0x6472657373000000000000000000000000000000000000000000000000000000\n        /* \"#utility.yul\":17509:17511   */\n      0x20\n        /* \"#utility.yul\":17501:17507   */\n      dup3\n        /* \"#utility.yul\":17497:17512   */\n      add\n        /* \"#utility.yul\":17490:17522   */\n      mstore\n        /* \"#utility.yul\":17411:17529   */\n      pop\n      jump\t// out\n        /* \"#utility.yul\":17535:17758   */\n    tag_313:\n        /* \"#utility.yul\":17675:17709   */\n      0x45524332303a20617070726f76652066726f6d20746865207a65726f20616464\n        /* \"#utility.yul\":17671:17672   */\n      0x00\n        /* \"#utility.yul\":17663:17669   */\n      dup3\n        /* \"#utility.yul\":17659:17673   */\n      add\n        /* \"#utility.yul\":17652:17710   */\n      mstore\n        /* \"#utility.yul\":17744:17750   */\n      0x7265737300000000000000000000000000000000000000000000000000000000\n        /* \"#utility.yul\":17739:17741   */\n      0x20\n        /* \"#utility.yul\":17731:17737   */\n      dup3\n        /* \"#utility.yul\":17727:17742   */\n      add\n        /* \"#utility.yul\":17720:17751   */\n      mstore\n        /* \"#utility.yul\":17641:17758   */\n      pop\n      jump\t// out\n        /* \"#utility.yul\":17764:17984   */\n    tag_318:\n        /* \"#utility.yul\":17904:17938   */\n      0x496e73756666696369656e742042616c616e636520666f722070757263686173\n        /* \"#utility.yul\":17900:17901   */\n      0x00\n        /* \"#utility.yul\":17892:17898   */\n      dup3\n        /* \"#utility.yul\":17888:17902   */\n      add\n        /* \"#utility.yul\":17881:17939   */\n      mstore\n        /* \"#utility.yul\":17973:17976   */\n      0x6500000000000000000000000000000000000000000000000000000000000000\n        /* \"#utility.yul\":17968:17970   */\n      0x20\n        /* \"#utility.yul\":17960:17966   */\n      dup3\n        /* \"#utility.yul\":17956:17971   */\n      add\n        /* \"#utility.yul\":17949:17977   */\n      mstore\n        /* \"#utility.yul\":17870:17984   */\n      pop\n      jump\t// out\n        /* \"#utility.yul\":17990:18214   */\n    tag_323:\n        /* \"#utility.yul\":18130:18164   */\n      0x45524332303a2064656372656173656420616c6c6f77616e63652062656c6f77\n        /* \"#utility.yul\":18126:18127   */\n      0x00\n        /* \"#utility.yul\":18118:18124   */\n      dup3\n        /* \"#utility.yul\":18114:18128   */\n      add\n        /* \"#utility.yul\":18107:18165   */\n      mstore\n        /* \"#utility.yul\":18199:18206   */\n      0x207a65726f000000000000000000000000000000000000000000000000000000\n        /* \"#utility.yul\":18194:18196   */\n      0x20\n        /* \"#utility.yul\":18186:18192   */\n      dup3\n        /* \"#utility.yul\":18182:18197   */\n      add\n        /* \"#utility.yul\":18175:18207   */\n      mstore\n        /* \"#utility.yul\":18096:18214   */\n      pop\n      jump\t// out\n        /* \"#utility.yul\":18220:18401   */\n    tag_328:\n        /* \"#utility.yul\":18360:18393   */\n      0x45524332303a206d696e7420746f20746865207a65726f206164647265737300\n        /* \"#utility.yul\":18356:18357   */\n      0x00\n        /* \"#utility.yul\":18348:18354   */\n      dup3\n        /* \"#utility.yul\":18344:18358   */\n      add\n        /* \"#utility.yul\":18337:18394   */\n      mstore\n        /* \"#utility.yul\":18326:18401   */\n      pop\n      jump\t// out\n        /* \"#utility.yul\":18407:18529   */\n    tag_235:\n        /* \"#utility.yul\":18480:18504   */\n      tag_425\n        /* \"#utility.yul\":18498:18503   */\n      dup2\n        /* \"#utility.yul\":18480:18504   */\n      tag_259\n      jump\t// in\n    tag_425:\n        /* \"#utility.yul\":18473:18478   */\n      dup2\n        /* \"#utility.yul\":18470:18505   */\n      eq\n        /* \"#utility.yul\":18460:18462   */\n      tag_426\n      jumpi\n        /* \"#utility.yul\":18519:18520   */\n      0x00\n        /* \"#utility.yul\":18516:18517   */\n      dup1\n        /* \"#utility.yul\":18509:18521   */\n      revert\n        /* \"#utility.yul\":18460:18462   */\n    tag_426:\n        /* \"#utility.yul\":18450:18529   */\n      pop\n      jump\t// out\n        /* \"#utility.yul\":18535:18657   */\n    tag_239:\n        /* \"#utility.yul\":18608:18632   */\n      tag_428\n        /* \"#utility.yul\":18626:18631   */\n      dup2\n        /* \"#utility.yul\":18608:18632   */\n      tag_332\n      jump\t// in\n    tag_428:\n        /* \"#utility.yul\":18601:18606   */\n      dup2\n        /* \"#utility.yul\":18598:18633   */\n      eq\n        /* \"#utility.yul\":18588:18590   */\n      tag_429\n      jumpi\n        /* \"#utility.yul\":18647:18648   */\n      0x00\n        /* \"#utility.yul\":18644:18645   */\n      dup1\n        /* \"#utility.yul\":18637:18649   */\n      revert\n        /* \"#utility.yul\":18588:18590   */\n    tag_429:\n        /* \"#utility.yul\":18578:18657   */\n      pop\n      jump\t// out\n\n    auxdata: 0xa26469706673582212203fdbb0641add1dac4c7b2c10d6eee99cb48d82e8f12bc1dd9c72bc5d8a698f2364736f6c63430008040033\n}\n",
				"bytecode": {
					"linkReferences": {},
					"object": "6080604052620f42406007556103e86009553480156200001e57600080fd5b506040516200242538038062002425833981810160405281019062000044919062000478565b6040518060400160405280600981526020017f59506574546f6b656e00000000000000000000000000000000000000000000008152506040518060400160405280600481526020017f5950544e000000000000000000000000000000000000000000000000000000008152508160039080519060200190620000c8929190620003b1565b508060049080519060200190620000e1929190620003b1565b50505062000104620000f86200016060201b60201c565b6200016860201b60201c565b80600660006101000a81548173ffffffffffffffffffffffffffffffffffffffff021916908373ffffffffffffffffffffffffffffffffffffffff16021790555062000159336007546200022e60201b60201c565b506200069e565b600033905090565b6000600560009054906101000a900473ffffffffffffffffffffffffffffffffffffffff16905081600560006101000a81548173ffffffffffffffffffffffffffffffffffffffff021916908373ffffffffffffffffffffffffffffffffffffffff1602179055508173ffffffffffffffffffffffffffffffffffffffff168173ffffffffffffffffffffffffffffffffffffffff167f8be0079c531659141344cd1fd0a4f28419497f9722a3daafe3b4186f6b6457e060405160405180910390a35050565b600073ffffffffffffffffffffffffffffffffffffffff168273ffffffffffffffffffffffffffffffffffffffff161415620002a1576040517f08c379a00000000000000000000000000000000000000000000000000000000081526004016200029890620004dc565b60405180910390fd5b620002b560008383620003a760201b60201c565b8060026000828254620002c991906200052c565b92505081905550806000808473ffffffffffffffffffffffffffffffffffffffff1673ffffffffffffffffffffffffffffffffffffffff16815260200190815260200160002060008282546200032091906200052c565b925050819055508173ffffffffffffffffffffffffffffffffffffffff16600073ffffffffffffffffffffffffffffffffffffffff167fddf252ad1be2c89b69c2b068fc378daa952ba7f163c4a11628f55a4df523b3ef83604051620003879190620004fe565b60405180910390a3620003a360008383620003ac60201b60201c565b5050565b505050565b505050565b828054620003bf90620005c7565b90600052602060002090601f016020900481019282620003e357600085556200042f565b82601f10620003fe57805160ff19168380011785556200042f565b828001600101855582156200042f579182015b828111156200042e57825182559160200191906001019062000411565b5b5090506200043e919062000442565b5090565b5b808211156200045d57600081600090555060010162000443565b5090565b600081519050620004728162000684565b92915050565b6000602082840312156200048b57600080fd5b60006200049b8482850162000461565b91505092915050565b6000620004b3601f836200051b565b9150620004c0826200065b565b602082019050919050565b620004d681620005bd565b82525050565b60006020820190508181036000830152620004f781620004a4565b9050919050565b6000602082019050620005156000830184620004cb565b92915050565b600082825260208201905092915050565b60006200053982620005bd565b91506200054683620005bd565b9250827fffffffffffffffffffffffffffffffffffffffffffffffffffffffffffffffff038211156200057e576200057d620005fd565b5b828201905092915050565b600062000596826200059d565b9050919050565b600073ffffffffffffffffffffffffffffffffffffffff82169050919050565b6000819050919050565b60006002820490506001821680620005e057607f821691505b60208210811415620005f757620005f66200062c565b5b50919050565b7f4e487b7100000000000000000000000000000000000000000000000000000000600052601160045260246000fd5b7f4e487b7100000000000000000000000000000000000000000000000000000000600052602260045260246000fd5b7f45524332303a206d696e7420746f20746865207a65726f206164647265737300600082015250565b6200068f8162000589565b81146200069b57600080fd5b50565b611d7780620006ae6000396000f3fe6080604052600436106100fe5760003560e01c806370a082311161009557806395d89b411161006457806395d89b411461032a578063a457c2d714610355578063a9059cbb14610392578063dd62ed3e146103cf578063f2fde38b1461040c576100fe565b806370a082311461028f578063715018a6146102cc5780637e72fb52146102e35780638da5cb5b146102ff576100fe565b80632c4e722e116100d15780632c4e722e146101d3578063313ce567146101fe578063395093511461022957806340c10f1914610266576100fe565b806306fdde0314610103578063095ea7b31461012e57806318160ddd1461016b57806323b872dd14610196575b600080fd5b34801561010f57600080fd5b50610118610435565b6040516101259190611639565b60405180910390f35b34801561013a57600080fd5b506101556004803603810190610150919061139a565b6104c7565b604051610162919061161e565b60405180910390f35b34801561017757600080fd5b506101806104ea565b60405161018d91906117bb565b60405180910390f35b3480156101a257600080fd5b506101bd60048036038101906101b8919061134b565b6104f4565b6040516101ca919061161e565b60405180910390f35b3480156101df57600080fd5b506101e8610523565b6040516101f591906117bb565b60405180910390f35b34801561020a57600080fd5b50610213610529565b60405161022091906117d6565b60405180910390f35b34801561023557600080fd5b50610250600480360381019061024b919061139a565b610532565b60405161025d919061161e565b60405180910390f35b34801561027257600080fd5b5061028d6004803603810190610288919061139a565b6105dc565b005b34801561029b57600080fd5b506102b660048036038101906102b191906112e6565b610666565b6040516102c391906117bb565b60405180910390f35b3480156102d857600080fd5b506102e16106ae565b005b6102fd60048036038101906102f891906112e6565b610736565b005b34801561030b57600080fd5b50610314610864565b60405161032191906115cc565b60405180910390f35b34801561033657600080fd5b5061033f61088e565b60405161034c9190611639565b60405180910390f35b34801561036157600080fd5b5061037c6004803603810190610377919061139a565b610920565b604051610389919061161e565b60405180910390f35b34801561039e57600080fd5b506103b960048036038101906103b4919061139a565b610a0a565b6040516103c6919061161e565b60405180910390f35b3480156103db57600080fd5b506103f660048036038101906103f1919061130f565b610a2d565b60405161040391906117bb565b60405180910390f35b34801561041857600080fd5b50610433600480360381019061042e91906112e6565b610ab4565b005b60606003805461044490611950565b80601f016020809104026020016040519081016040528092919081815260200182805461047090611950565b80156104bd5780601f10610492576101008083540402835291602001916104bd565b820191906000526020600020905b8154815290600101906020018083116104a057829003601f168201915b5050505050905090565b6000806104d2610bac565b90506104df818585610bb4565b600191505092915050565b6000600254905090565b6000806104ff610bac565b905061050c858285610d7f565b610517858585610e0b565b60019150509392505050565b60095481565b60006012905090565b60008061053d610bac565b90506105d1818585600160008673ffffffffffffffffffffffffffffffffffffffff1673ffffffffffffffffffffffffffffffffffffffff16815260200190815260200160002060008973ffffffffffffffffffffffffffffffffffffffff1673ffffffffffffffffffffffffffffffffffffffff168152602001908152602001600020546105cc919061180d565b610bb4565b600191505092915050565b6105e4610bac565b73ffffffffffffffffffffffffffffffffffffffff16610602610864565b73ffffffffffffffffffffffffffffffffffffffff1614610658576040517f08c379a000000000000000000000000000000000000000000000000000000000815260040161064f906116fb565b60405180910390fd5b610662828261108c565b5050565b60008060008373ffffffffffffffffffffffffffffffffffffffff1673ffffffffffffffffffffffffffffffffffffffff168152602001908152602001600020549050919050565b6106b6610bac565b73ffffffffffffffffffffffffffffffffffffffff166106d4610864565b73ffffffffffffffffffffffffffffffffffffffff161461072a576040517f08c379a0000000000000000000000000000000000000000000000000000000008152600401610721906116fb565b60405180910390fd5b61073460006111ec565b565b670de0b6b3a7640000341015610781576040517f08c379a00000000000000000000000000000000000000000000000000000000081526004016107789061175b565b60405180910390fd5b600660009054906101000a900473ffffffffffffffffffffffffffffffffffffffff1673ffffffffffffffffffffffffffffffffffffffff166108fc349081150290604051600060405180830381858888f193505050501580156107e9573d6000803e3d6000fd5b506000670de0b6b3a7640000346108009190611863565b905080600760008282546108149190611894565b92505081905550610825828261108c565b7f1f437f9d9a2cd912a1b9ef9573239cfd5bfc901558877d14b92f4be14dd23f39338383604051610858939291906115e7565b60405180910390a15050565b6000600560009054906101000a900473ffffffffffffffffffffffffffffffffffffffff16905090565b60606004805461089d90611950565b80601f01602080910402602001604051908101604052809291908181526020018280546108c990611950565b80156109165780601f106108eb57610100808354040283529160200191610916565b820191906000526020600020905b8154815290600101906020018083116108f957829003601f168201915b5050505050905090565b60008061092b610bac565b90506000600160008373ffffffffffffffffffffffffffffffffffffffff1673ffffffffffffffffffffffffffffffffffffffff16815260200190815260200160002060008673ffffffffffffffffffffffffffffffffffffffff1673ffffffffffffffffffffffffffffffffffffffff168152602001908152602001600020549050838110156109f1576040517f08c379a00000000000000000000000000000000000000000000000000000000081526004016109e89061177b565b60405180910390fd5b6109fe8286868403610bb4565b60019250505092915050565b600080610a15610bac565b9050610a22818585610e0b565b600191505092915050565b6000600160008473ffffffffffffffffffffffffffffffffffffffff1673ffffffffffffffffffffffffffffffffffffffff16815260200190815260200160002060008373ffffffffffffffffffffffffffffffffffffffff1673ffffffffffffffffffffffffffffffffffffffff16815260200190815260200160002054905092915050565b610abc610bac565b73ffffffffffffffffffffffffffffffffffffffff16610ada610864565b73ffffffffffffffffffffffffffffffffffffffff1614610b30576040517f08c379a0000000000000000000000000000000000000000000000000000000008152600401610b27906116fb565b60405180910390fd5b600073ffffffffffffffffffffffffffffffffffffffff168173ffffffffffffffffffffffffffffffffffffffff161415610ba0576040517f08c379a0000000000000000000000000000000000000000000000000000000008152600401610b979061167b565b60405180910390fd5b610ba9816111ec565b50565b600033905090565b600073ffffffffffffffffffffffffffffffffffffffff168373ffffffffffffffffffffffffffffffffffffffff161415610c24576040517f08c379a0000000000000000000000000000000000000000000000000000000008152600401610c1b9061173b565b60405180910390fd5b600073ffffffffffffffffffffffffffffffffffffffff168273ffffffffffffffffffffffffffffffffffffffff161415610c94576040517f08c379a0000000000000000000000000000000000000000000000000000000008152600401610c8b9061169b565b60405180910390fd5b80600160008573ffffffffffffffffffffffffffffffffffffffff1673ffffffffffffffffffffffffffffffffffffffff16815260200190815260200160002060008473ffffffffffffffffffffffffffffffffffffffff1673ffffffffffffffffffffffffffffffffffffffff168152602001908152602001600020819055508173ffffffffffffffffffffffffffffffffffffffff168373ffffffffffffffffffffffffffffffffffffffff167f8c5be1e5ebec7d5bd14f71427d1e84f3dd0314c0f7b2291e5b200ac8c7c3b92583604051610d7291906117bb565b60405180910390a3505050565b6000610d8b8484610a2d565b90507fffffffffffffffffffffffffffffffffffffffffffffffffffffffffffffffff8114610e055781811015610df7576040517f08c379a0000000000000000000000000000000000000000000000000000000008152600401610dee906116bb565b60405180910390fd5b610e048484848403610bb4565b5b50505050565b600073ffffffffffffffffffffffffffffffffffffffff168373ffffffffffffffffffffffffffffffffffffffff161415610e7b576040517f08c379a0000000000000000000000000000000000000000000000000000000008152600401610e729061171b565b60405180910390fd5b600073ffffffffffffffffffffffffffffffffffffffff168273ffffffffffffffffffffffffffffffffffffffff161415610eeb576040517f08c379a0000000000000000000000000000000000000000000000000000000008152600401610ee29061165b565b60405180910390fd5b610ef68383836112b2565b60008060008573ffffffffffffffffffffffffffffffffffffffff1673ffffffffffffffffffffffffffffffffffffffff16815260200190815260200160002054905081811015610f7c576040517f08c379a0000000000000000000000000000000000000000000000000000000008152600401610f73906116db565b60405180910390fd5b8181036000808673ffffffffffffffffffffffffffffffffffffffff1673ffffffffffffffffffffffffffffffffffffffff16815260200190815260200160002081905550816000808573ffffffffffffffffffffffffffffffffffffffff1673ffffffffffffffffffffffffffffffffffffffff168152602001908152602001600020600082825461100f919061180d565b925050819055508273ffffffffffffffffffffffffffffffffffffffff168473ffffffffffffffffffffffffffffffffffffffff167fddf252ad1be2c89b69c2b068fc378daa952ba7f163c4a11628f55a4df523b3ef8460405161107391906117bb565b60405180910390a36110868484846112b7565b50505050565b600073ffffffffffffffffffffffffffffffffffffffff168273ffffffffffffffffffffffffffffffffffffffff1614156110fc576040517f08c379a00000000000000000000000000000000000000000000000000000000081526004016110f39061179b565b60405180910390fd5b611108600083836112b2565b806002600082825461111a919061180d565b92505081905550806000808473ffffffffffffffffffffffffffffffffffffffff1673ffffffffffffffffffffffffffffffffffffffff168152602001908152602001600020600082825461116f919061180d565b925050819055508173ffffffffffffffffffffffffffffffffffffffff16600073ffffffffffffffffffffffffffffffffffffffff167fddf252ad1be2c89b69c2b068fc378daa952ba7f163c4a11628f55a4df523b3ef836040516111d491906117bb565b60405180910390a36111e8600083836112b7565b5050565b6000600560009054906101000a900473ffffffffffffffffffffffffffffffffffffffff16905081600560006101000a81548173ffffffffffffffffffffffffffffffffffffffff021916908373ffffffffffffffffffffffffffffffffffffffff1602179055508173ffffffffffffffffffffffffffffffffffffffff168173ffffffffffffffffffffffffffffffffffffffff167f8be0079c531659141344cd1fd0a4f28419497f9722a3daafe3b4186f6b6457e060405160405180910390a35050565b505050565b505050565b6000813590506112cb81611d13565b92915050565b6000813590506112e081611d2a565b92915050565b6000602082840312156112f857600080fd5b6000611306848285016112bc565b91505092915050565b6000806040838503121561132257600080fd5b6000611330858286016112bc565b9250506020611341858286016112bc565b9150509250929050565b60008060006060848603121561136057600080fd5b600061136e868287016112bc565b935050602061137f868287016112bc565b9250506040611390868287016112d1565b9150509250925092565b600080604083850312156113ad57600080fd5b60006113bb858286016112bc565b92505060206113cc858286016112d1565b9150509250929050565b6113df816118c8565b82525050565b6113ee816118da565b82525050565b60006113ff826117f1565b61140981856117fc565b935061141981856020860161191d565b61142281611a0f565b840191505092915050565b600061143a6023836117fc565b915061144582611a20565b604082019050919050565b600061145d6026836117fc565b915061146882611a6f565b604082019050919050565b60006114806022836117fc565b915061148b82611abe565b604082019050919050565b60006114a3601d836117fc565b91506114ae82611b0d565b602082019050919050565b60006114c66026836117fc565b91506114d182611b36565b604082019050919050565b60006114e96020836117fc565b91506114f482611b85565b602082019050919050565b600061150c6025836117fc565b915061151782611bae565b604082019050919050565b600061152f6024836117fc565b915061153a82611bfd565b604082019050919050565b60006115526021836117fc565b915061155d82611c4c565b604082019050919050565b60006115756025836117fc565b915061158082611c9b565b604082019050919050565b6000611598601f836117fc565b91506115a382611cea565b602082019050919050565b6115b781611906565b82525050565b6115c681611910565b82525050565b60006020820190506115e160008301846113d6565b92915050565b60006060820190506115fc60008301866113d6565b61160960208301856113d6565b61161660408301846115ae565b949350505050565b600060208201905061163360008301846113e5565b92915050565b6000602082019050818103600083015261165381846113f4565b905092915050565b600060208201905081810360008301526116748161142d565b9050919050565b6000602082019050818103600083015261169481611450565b9050919050565b600060208201905081810360008301526116b481611473565b9050919050565b600060208201905081810360008301526116d481611496565b9050919050565b600060208201905081810360008301526116f4816114b9565b9050919050565b60006020820190508181036000830152611714816114dc565b9050919050565b60006020820190508181036000830152611734816114ff565b9050919050565b6000602082019050818103600083015261175481611522565b9050919050565b6000602082019050818103600083015261177481611545565b9050919050565b6000602082019050818103600083015261179481611568565b9050919050565b600060208201905081810360008301526117b48161158b565b9050919050565b60006020820190506117d060008301846115ae565b92915050565b60006020820190506117eb60008301846115bd565b92915050565b600081519050919050565b600082825260208201905092915050565b600061181882611906565b915061182383611906565b9250827fffffffffffffffffffffffffffffffffffffffffffffffffffffffffffffffff0382111561185857611857611982565b5b828201905092915050565b600061186e82611906565b915061187983611906565b925082611889576118886119b1565b5b828204905092915050565b600061189f82611906565b91506118aa83611906565b9250828210156118bd576118bc611982565b5b828203905092915050565b60006118d3826118e6565b9050919050565b60008115159050919050565b600073ffffffffffffffffffffffffffffffffffffffff82169050919050565b6000819050919050565b600060ff82169050919050565b60005b8381101561193b578082015181840152602081019050611920565b8381111561194a576000848401525b50505050565b6000600282049050600182168061196857607f821691505b6020821081141561197c5761197b6119e0565b5b50919050565b7f4e487b7100000000000000000000000000000000000000000000000000000000600052601160045260246000fd5b7f4e487b7100000000000000000000000000000000000000000000000000000000600052601260045260246000fd5b7f4e487b7100000000000000000000000000000000000000000000000000000000600052602260045260246000fd5b6000601f19601f8301169050919050565b7f45524332303a207472616e7366657220746f20746865207a65726f206164647260008201527f6573730000000000000000000000000000000000000000000000000000000000602082015250565b7f4f776e61626c653a206e6577206f776e657220697320746865207a65726f206160008201527f6464726573730000000000000000000000000000000000000000000000000000602082015250565b7f45524332303a20617070726f766520746f20746865207a65726f20616464726560008201527f7373000000000000000000000000000000000000000000000000000000000000602082015250565b7f45524332303a20696e73756666696369656e7420616c6c6f77616e6365000000600082015250565b7f45524332303a207472616e7366657220616d6f756e742065786365656473206260008201527f616c616e63650000000000000000000000000000000000000000000000000000602082015250565b7f4f776e61626c653a2063616c6c6572206973206e6f7420746865206f776e6572600082015250565b7f45524332303a207472616e736665722066726f6d20746865207a65726f20616460008201527f6472657373000000000000000000000000000000000000000000000000000000602082015250565b7f45524332303a20617070726f76652066726f6d20746865207a65726f2061646460008201527f7265737300000000000000000000000000000000000000000000000000000000602082015250565b7f496e73756666696369656e742042616c616e636520666f72207075726368617360008201527f6500000000000000000000000000000000000000000000000000000000000000602082015250565b7f45524332303a2064656372656173656420616c6c6f77616e63652062656c6f7760008201527f207a65726f000000000000000000000000000000000000000000000000000000602082015250565b7f45524332303a206d696e7420746f20746865207a65726f206164647265737300600082015250565b611d1c816118c8565b8114611d2757600080fd5b50565b611d3381611906565b8114611d3e57600080fd5b5056fea26469706673582212203fdbb0641add1dac4c7b2c10d6eee99cb48d82e8f12bc1dd9c72bc5d8a698f2364736f6c63430008040033",
					"opcodes": "PUSH1 0x80 PUSH1 0x40 MSTORE PUSH3 0xF4240 PUSH1 0x7 SSTORE PUSH2 0x3E8 PUSH1 0x9 SSTORE CALLVALUE DUP1 ISZERO PUSH3 0x1E JUMPI PUSH1 0x0 DUP1 REVERT JUMPDEST POP PUSH1 0x40 MLOAD PUSH3 0x2425 CODESIZE SUB DUP1 PUSH3 0x2425 DUP4 CODECOPY DUP2 DUP2 ADD PUSH1 0x40 MSTORE DUP2 ADD SWAP1 PUSH3 0x44 SWAP2 SWAP1 PUSH3 0x478 JUMP JUMPDEST PUSH1 0x40 MLOAD DUP1 PUSH1 0x40 ADD PUSH1 0x40 MSTORE DUP1 PUSH1 0x9 DUP2 MSTORE PUSH1 0x20 ADD PUSH32 0x59506574546F6B656E0000000000000000000000000000000000000000000000 DUP2 MSTORE POP PUSH1 0x40 MLOAD DUP1 PUSH1 0x40 ADD PUSH1 0x40 MSTORE DUP1 PUSH1 0x4 DUP2 MSTORE PUSH1 0x20 ADD PUSH32 0x5950544E00000000000000000000000000000000000000000000000000000000 DUP2 MSTORE POP DUP2 PUSH1 0x3 SWAP1 DUP1 MLOAD SWAP1 PUSH1 0x20 ADD SWAP1 PUSH3 0xC8 SWAP3 SWAP2 SWAP1 PUSH3 0x3B1 JUMP JUMPDEST POP DUP1 PUSH1 0x4 SWAP1 DUP1 MLOAD SWAP1 PUSH1 0x20 ADD SWAP1 PUSH3 0xE1 SWAP3 SWAP2 SWAP1 PUSH3 0x3B1 JUMP JUMPDEST POP POP POP PUSH3 0x104 PUSH3 0xF8 PUSH3 0x160 PUSH1 0x20 SHL PUSH1 0x20 SHR JUMP JUMPDEST PUSH3 0x168 PUSH1 0x20 SHL PUSH1 0x20 SHR JUMP JUMPDEST DUP1 PUSH1 0x6 PUSH1 0x0 PUSH2 0x100 EXP DUP2 SLOAD DUP2 PUSH20 0xFFFFFFFFFFFFFFFFFFFFFFFFFFFFFFFFFFFFFFFF MUL NOT AND SWAP1 DUP4 PUSH20 0xFFFFFFFFFFFFFFFFFFFFFFFFFFFFFFFFFFFFFFFF AND MUL OR SWAP1 SSTORE POP PUSH3 0x159 CALLER PUSH1 0x7 SLOAD PUSH3 0x22E PUSH1 0x20 SHL PUSH1 0x20 SHR JUMP JUMPDEST POP PUSH3 0x69E JUMP JUMPDEST PUSH1 0x0 CALLER SWAP1 POP SWAP1 JUMP JUMPDEST PUSH1 0x0 PUSH1 0x5 PUSH1 0x0 SWAP1 SLOAD SWAP1 PUSH2 0x100 EXP SWAP1 DIV PUSH20 0xFFFFFFFFFFFFFFFFFFFFFFFFFFFFFFFFFFFFFFFF AND SWAP1 POP DUP2 PUSH1 0x5 PUSH1 0x0 PUSH2 0x100 EXP DUP2 SLOAD DUP2 PUSH20 0xFFFFFFFFFFFFFFFFFFFFFFFFFFFFFFFFFFFFFFFF MUL NOT AND SWAP1 DUP4 PUSH20 0xFFFFFFFFFFFFFFFFFFFFFFFFFFFFFFFFFFFFFFFF AND MUL OR SWAP1 SSTORE POP DUP2 PUSH20 0xFFFFFFFFFFFFFFFFFFFFFFFFFFFFFFFFFFFFFFFF AND DUP2 PUSH20 0xFFFFFFFFFFFFFFFFFFFFFFFFFFFFFFFFFFFFFFFF AND PUSH32 0x8BE0079C531659141344CD1FD0A4F28419497F9722A3DAAFE3B4186F6B6457E0 PUSH1 0x40 MLOAD PUSH1 0x40 MLOAD DUP1 SWAP2 SUB SWAP1 LOG3 POP POP JUMP JUMPDEST PUSH1 0x0 PUSH20 0xFFFFFFFFFFFFFFFFFFFFFFFFFFFFFFFFFFFFFFFF AND DUP3 PUSH20 0xFFFFFFFFFFFFFFFFFFFFFFFFFFFFFFFFFFFFFFFF AND EQ ISZERO PUSH3 0x2A1 JUMPI PUSH1 0x40 MLOAD PUSH32 0x8C379A000000000000000000000000000000000000000000000000000000000 DUP2 MSTORE PUSH1 0x4 ADD PUSH3 0x298 SWAP1 PUSH3 0x4DC JUMP JUMPDEST PUSH1 0x40 MLOAD DUP1 SWAP2 SUB SWAP1 REVERT JUMPDEST PUSH3 0x2B5 PUSH1 0x0 DUP4 DUP4 PUSH3 0x3A7 PUSH1 0x20 SHL PUSH1 0x20 SHR JUMP JUMPDEST DUP1 PUSH1 0x2 PUSH1 0x0 DUP3 DUP3 SLOAD PUSH3 0x2C9 SWAP2 SWAP1 PUSH3 0x52C JUMP JUMPDEST SWAP3 POP POP DUP2 SWAP1 SSTORE POP DUP1 PUSH1 0x0 DUP1 DUP5 PUSH20 0xFFFFFFFFFFFFFFFFFFFFFFFFFFFFFFFFFFFFFFFF AND PUSH20 0xFFFFFFFFFFFFFFFFFFFFFFFFFFFFFFFFFFFFFFFF AND DUP2 MSTORE PUSH1 0x20 ADD SWAP1 DUP2 MSTORE PUSH1 0x20 ADD PUSH1 0x0 KECCAK256 PUSH1 0x0 DUP3 DUP3 SLOAD PUSH3 0x320 SWAP2 SWAP1 PUSH3 0x52C JUMP JUMPDEST SWAP3 POP POP DUP2 SWAP1 SSTORE POP DUP2 PUSH20 0xFFFFFFFFFFFFFFFFFFFFFFFFFFFFFFFFFFFFFFFF AND PUSH1 0x0 PUSH20 0xFFFFFFFFFFFFFFFFFFFFFFFFFFFFFFFFFFFFFFFF AND PUSH32 0xDDF252AD1BE2C89B69C2B068FC378DAA952BA7F163C4A11628F55A4DF523B3EF DUP4 PUSH1 0x40 MLOAD PUSH3 0x387 SWAP2 SWAP1 PUSH3 0x4FE JUMP JUMPDEST PUSH1 0x40 MLOAD DUP1 SWAP2 SUB SWAP1 LOG3 PUSH3 0x3A3 PUSH1 0x0 DUP4 DUP4 PUSH3 0x3AC PUSH1 0x20 SHL PUSH1 0x20 SHR JUMP JUMPDEST POP POP JUMP JUMPDEST POP POP POP JUMP JUMPDEST POP POP POP JUMP JUMPDEST DUP3 DUP1 SLOAD PUSH3 0x3BF SWAP1 PUSH3 0x5C7 JUMP JUMPDEST SWAP1 PUSH1 0x0 MSTORE PUSH1 0x20 PUSH1 0x0 KECCAK256 SWAP1 PUSH1 0x1F ADD PUSH1 0x20 SWAP1 DIV DUP2 ADD SWAP3 DUP3 PUSH3 0x3E3 JUMPI PUSH1 0x0 DUP6 SSTORE PUSH3 0x42F JUMP JUMPDEST DUP3 PUSH1 0x1F LT PUSH3 0x3FE JUMPI DUP1 MLOAD PUSH1 0xFF NOT AND DUP4 DUP1 ADD OR DUP6 SSTORE PUSH3 0x42F JUMP JUMPDEST DUP3 DUP1 ADD PUSH1 0x1 ADD DUP6 SSTORE DUP3 ISZERO PUSH3 0x42F JUMPI SWAP2 DUP3 ADD JUMPDEST DUP3 DUP2 GT ISZERO PUSH3 0x42E JUMPI DUP3 MLOAD DUP3 SSTORE SWAP2 PUSH1 0x20 ADD SWAP2 SWAP1 PUSH1 0x1 ADD SWAP1 PUSH3 0x411 JUMP JUMPDEST JUMPDEST POP SWAP1 POP PUSH3 0x43E SWAP2 SWAP1 PUSH3 0x442 JUMP JUMPDEST POP SWAP1 JUMP JUMPDEST JUMPDEST DUP1 DUP3 GT ISZERO PUSH3 0x45D JUMPI PUSH1 0x0 DUP2 PUSH1 0x0 SWAP1 SSTORE POP PUSH1 0x1 ADD PUSH3 0x443 JUMP JUMPDEST POP SWAP1 JUMP JUMPDEST PUSH1 0x0 DUP2 MLOAD SWAP1 POP PUSH3 0x472 DUP2 PUSH3 0x684 JUMP JUMPDEST SWAP3 SWAP2 POP POP JUMP JUMPDEST PUSH1 0x0 PUSH1 0x20 DUP3 DUP5 SUB SLT ISZERO PUSH3 0x48B JUMPI PUSH1 0x0 DUP1 REVERT JUMPDEST PUSH1 0x0 PUSH3 0x49B DUP5 DUP3 DUP6 ADD PUSH3 0x461 JUMP JUMPDEST SWAP2 POP POP SWAP3 SWAP2 POP POP JUMP JUMPDEST PUSH1 0x0 PUSH3 0x4B3 PUSH1 0x1F DUP4 PUSH3 0x51B JUMP JUMPDEST SWAP2 POP PUSH3 0x4C0 DUP3 PUSH3 0x65B JUMP JUMPDEST PUSH1 0x20 DUP3 ADD SWAP1 POP SWAP2 SWAP1 POP JUMP JUMPDEST PUSH3 0x4D6 DUP2 PUSH3 0x5BD JUMP JUMPDEST DUP3 MSTORE POP POP JUMP JUMPDEST PUSH1 0x0 PUSH1 0x20 DUP3 ADD SWAP1 POP DUP2 DUP2 SUB PUSH1 0x0 DUP4 ADD MSTORE PUSH3 0x4F7 DUP2 PUSH3 0x4A4 JUMP JUMPDEST SWAP1 POP SWAP2 SWAP1 POP JUMP JUMPDEST PUSH1 0x0 PUSH1 0x20 DUP3 ADD SWAP1 POP PUSH3 0x515 PUSH1 0x0 DUP4 ADD DUP5 PUSH3 0x4CB JUMP JUMPDEST SWAP3 SWAP2 POP POP JUMP JUMPDEST PUSH1 0x0 DUP3 DUP3 MSTORE PUSH1 0x20 DUP3 ADD SWAP1 POP SWAP3 SWAP2 POP POP JUMP JUMPDEST PUSH1 0x0 PUSH3 0x539 DUP3 PUSH3 0x5BD JUMP JUMPDEST SWAP2 POP PUSH3 0x546 DUP4 PUSH3 0x5BD JUMP JUMPDEST SWAP3 POP DUP3 PUSH32 0xFFFFFFFFFFFFFFFFFFFFFFFFFFFFFFFFFFFFFFFFFFFFFFFFFFFFFFFFFFFFFFFF SUB DUP3 GT ISZERO PUSH3 0x57E JUMPI PUSH3 0x57D PUSH3 0x5FD JUMP JUMPDEST JUMPDEST DUP3 DUP3 ADD SWAP1 POP SWAP3 SWAP2 POP POP JUMP JUMPDEST PUSH1 0x0 PUSH3 0x596 DUP3 PUSH3 0x59D JUMP JUMPDEST SWAP1 POP SWAP2 SWAP1 POP JUMP JUMPDEST PUSH1 0x0 PUSH20 0xFFFFFFFFFFFFFFFFFFFFFFFFFFFFFFFFFFFFFFFF DUP3 AND SWAP1 POP SWAP2 SWAP1 POP JUMP JUMPDEST PUSH1 0x0 DUP2 SWAP1 POP SWAP2 SWAP1 POP JUMP JUMPDEST PUSH1 0x0 PUSH1 0x2 DUP3 DIV SWAP1 POP PUSH1 0x1 DUP3 AND DUP1 PUSH3 0x5E0 JUMPI PUSH1 0x7F DUP3 AND SWAP2 POP JUMPDEST PUSH1 0x20 DUP3 LT DUP2 EQ ISZERO PUSH3 0x5F7 JUMPI PUSH3 0x5F6 PUSH3 0x62C JUMP JUMPDEST JUMPDEST POP SWAP2 SWAP1 POP JUMP JUMPDEST PUSH32 0x4E487B7100000000000000000000000000000000000000000000000000000000 PUSH1 0x0 MSTORE PUSH1 0x11 PUSH1 0x4 MSTORE PUSH1 0x24 PUSH1 0x0 REVERT JUMPDEST PUSH32 0x4E487B7100000000000000000000000000000000000000000000000000000000 PUSH1 0x0 MSTORE PUSH1 0x22 PUSH1 0x4 MSTORE PUSH1 0x24 PUSH1 0x0 REVERT JUMPDEST PUSH32 0x45524332303A206D696E7420746F20746865207A65726F206164647265737300 PUSH1 0x0 DUP3 ADD MSTORE POP JUMP JUMPDEST PUSH3 0x68F DUP2 PUSH3 0x589 JUMP JUMPDEST DUP2 EQ PUSH3 0x69B JUMPI PUSH1 0x0 DUP1 REVERT JUMPDEST POP JUMP JUMPDEST PUSH2 0x1D77 DUP1 PUSH3 0x6AE PUSH1 0x0 CODECOPY PUSH1 0x0 RETURN INVALID PUSH1 0x80 PUSH1 0x40 MSTORE PUSH1 0x4 CALLDATASIZE LT PUSH2 0xFE JUMPI PUSH1 0x0 CALLDATALOAD PUSH1 0xE0 SHR DUP1 PUSH4 0x70A08231 GT PUSH2 0x95 JUMPI DUP1 PUSH4 0x95D89B41 GT PUSH2 0x64 JUMPI DUP1 PUSH4 0x95D89B41 EQ PUSH2 0x32A JUMPI DUP1 PUSH4 0xA457C2D7 EQ PUSH2 0x355 JUMPI DUP1 PUSH4 0xA9059CBB EQ PUSH2 0x392 JUMPI DUP1 PUSH4 0xDD62ED3E EQ PUSH2 0x3CF JUMPI DUP1 PUSH4 0xF2FDE38B EQ PUSH2 0x40C JUMPI PUSH2 0xFE JUMP JUMPDEST DUP1 PUSH4 0x70A08231 EQ PUSH2 0x28F JUMPI DUP1 PUSH4 0x715018A6 EQ PUSH2 0x2CC JUMPI DUP1 PUSH4 0x7E72FB52 EQ PUSH2 0x2E3 JUMPI DUP1 PUSH4 0x8DA5CB5B EQ PUSH2 0x2FF JUMPI PUSH2 0xFE JUMP JUMPDEST DUP1 PUSH4 0x2C4E722E GT PUSH2 0xD1 JUMPI DUP1 PUSH4 0x2C4E722E EQ PUSH2 0x1D3 JUMPI DUP1 PUSH4 0x313CE567 EQ PUSH2 0x1FE JUMPI DUP1 PUSH4 0x39509351 EQ PUSH2 0x229 JUMPI DUP1 PUSH4 0x40C10F19 EQ PUSH2 0x266 JUMPI PUSH2 0xFE JUMP JUMPDEST DUP1 PUSH4 0x6FDDE03 EQ PUSH2 0x103 JUMPI DUP1 PUSH4 0x95EA7B3 EQ PUSH2 0x12E JUMPI DUP1 PUSH4 0x18160DDD EQ PUSH2 0x16B JUMPI DUP1 PUSH4 0x23B872DD EQ PUSH2 0x196 JUMPI JUMPDEST PUSH1 0x0 DUP1 REVERT JUMPDEST CALLVALUE DUP1 ISZERO PUSH2 0x10F JUMPI PUSH1 0x0 DUP1 REVERT JUMPDEST POP PUSH2 0x118 PUSH2 0x435 JUMP JUMPDEST PUSH1 0x40 MLOAD PUSH2 0x125 SWAP2 SWAP1 PUSH2 0x1639 JUMP JUMPDEST PUSH1 0x40 MLOAD DUP1 SWAP2 SUB SWAP1 RETURN JUMPDEST CALLVALUE DUP1 ISZERO PUSH2 0x13A JUMPI PUSH1 0x0 DUP1 REVERT JUMPDEST POP PUSH2 0x155 PUSH1 0x4 DUP1 CALLDATASIZE SUB DUP2 ADD SWAP1 PUSH2 0x150 SWAP2 SWAP1 PUSH2 0x139A JUMP JUMPDEST PUSH2 0x4C7 JUMP JUMPDEST PUSH1 0x40 MLOAD PUSH2 0x162 SWAP2 SWAP1 PUSH2 0x161E JUMP JUMPDEST PUSH1 0x40 MLOAD DUP1 SWAP2 SUB SWAP1 RETURN JUMPDEST CALLVALUE DUP1 ISZERO PUSH2 0x177 JUMPI PUSH1 0x0 DUP1 REVERT JUMPDEST POP PUSH2 0x180 PUSH2 0x4EA JUMP JUMPDEST PUSH1 0x40 MLOAD PUSH2 0x18D SWAP2 SWAP1 PUSH2 0x17BB JUMP JUMPDEST PUSH1 0x40 MLOAD DUP1 SWAP2 SUB SWAP1 RETURN JUMPDEST CALLVALUE DUP1 ISZERO PUSH2 0x1A2 JUMPI PUSH1 0x0 DUP1 REVERT JUMPDEST POP PUSH2 0x1BD PUSH1 0x4 DUP1 CALLDATASIZE SUB DUP2 ADD SWAP1 PUSH2 0x1B8 SWAP2 SWAP1 PUSH2 0x134B JUMP JUMPDEST PUSH2 0x4F4 JUMP JUMPDEST PUSH1 0x40 MLOAD PUSH2 0x1CA SWAP2 SWAP1 PUSH2 0x161E JUMP JUMPDEST PUSH1 0x40 MLOAD DUP1 SWAP2 SUB SWAP1 RETURN JUMPDEST CALLVALUE DUP1 ISZERO PUSH2 0x1DF JUMPI PUSH1 0x0 DUP1 REVERT JUMPDEST POP PUSH2 0x1E8 PUSH2 0x523 JUMP JUMPDEST PUSH1 0x40 MLOAD PUSH2 0x1F5 SWAP2 SWAP1 PUSH2 0x17BB JUMP JUMPDEST PUSH1 0x40 MLOAD DUP1 SWAP2 SUB SWAP1 RETURN JUMPDEST CALLVALUE DUP1 ISZERO PUSH2 0x20A JUMPI PUSH1 0x0 DUP1 REVERT JUMPDEST POP PUSH2 0x213 PUSH2 0x529 JUMP JUMPDEST PUSH1 0x40 MLOAD PUSH2 0x220 SWAP2 SWAP1 PUSH2 0x17D6 JUMP JUMPDEST PUSH1 0x40 MLOAD DUP1 SWAP2 SUB SWAP1 RETURN JUMPDEST CALLVALUE DUP1 ISZERO PUSH2 0x235 JUMPI PUSH1 0x0 DUP1 REVERT JUMPDEST POP PUSH2 0x250 PUSH1 0x4 DUP1 CALLDATASIZE SUB DUP2 ADD SWAP1 PUSH2 0x24B SWAP2 SWAP1 PUSH2 0x139A JUMP JUMPDEST PUSH2 0x532 JUMP JUMPDEST PUSH1 0x40 MLOAD PUSH2 0x25D SWAP2 SWAP1 PUSH2 0x161E JUMP JUMPDEST PUSH1 0x40 MLOAD DUP1 SWAP2 SUB SWAP1 RETURN JUMPDEST CALLVALUE DUP1 ISZERO PUSH2 0x272 JUMPI PUSH1 0x0 DUP1 REVERT JUMPDEST POP PUSH2 0x28D PUSH1 0x4 DUP1 CALLDATASIZE SUB DUP2 ADD SWAP1 PUSH2 0x288 SWAP2 SWAP1 PUSH2 0x139A JUMP JUMPDEST PUSH2 0x5DC JUMP JUMPDEST STOP JUMPDEST CALLVALUE DUP1 ISZERO PUSH2 0x29B JUMPI PUSH1 0x0 DUP1 REVERT JUMPDEST POP PUSH2 0x2B6 PUSH1 0x4 DUP1 CALLDATASIZE SUB DUP2 ADD SWAP1 PUSH2 0x2B1 SWAP2 SWAP1 PUSH2 0x12E6 JUMP JUMPDEST PUSH2 0x666 JUMP JUMPDEST PUSH1 0x40 MLOAD PUSH2 0x2C3 SWAP2 SWAP1 PUSH2 0x17BB JUMP JUMPDEST PUSH1 0x40 MLOAD DUP1 SWAP2 SUB SWAP1 RETURN JUMPDEST CALLVALUE DUP1 ISZERO PUSH2 0x2D8 JUMPI PUSH1 0x0 DUP1 REVERT JUMPDEST POP PUSH2 0x2E1 PUSH2 0x6AE JUMP JUMPDEST STOP JUMPDEST PUSH2 0x2FD PUSH1 0x4 DUP1 CALLDATASIZE SUB DUP2 ADD SWAP1 PUSH2 0x2F8 SWAP2 SWAP1 PUSH2 0x12E6 JUMP JUMPDEST PUSH2 0x736 JUMP JUMPDEST STOP JUMPDEST CALLVALUE DUP1 ISZERO PUSH2 0x30B JUMPI PUSH1 0x0 DUP1 REVERT JUMPDEST POP PUSH2 0x314 PUSH2 0x864 JUMP JUMPDEST PUSH1 0x40 MLOAD PUSH2 0x321 SWAP2 SWAP1 PUSH2 0x15CC JUMP JUMPDEST PUSH1 0x40 MLOAD DUP1 SWAP2 SUB SWAP1 RETURN JUMPDEST CALLVALUE DUP1 ISZERO PUSH2 0x336 JUMPI PUSH1 0x0 DUP1 REVERT JUMPDEST POP PUSH2 0x33F PUSH2 0x88E JUMP JUMPDEST PUSH1 0x40 MLOAD PUSH2 0x34C SWAP2 SWAP1 PUSH2 0x1639 JUMP JUMPDEST PUSH1 0x40 MLOAD DUP1 SWAP2 SUB SWAP1 RETURN JUMPDEST CALLVALUE DUP1 ISZERO PUSH2 0x361 JUMPI PUSH1 0x0 DUP1 REVERT JUMPDEST POP PUSH2 0x37C PUSH1 0x4 DUP1 CALLDATASIZE SUB DUP2 ADD SWAP1 PUSH2 0x377 SWAP2 SWAP1 PUSH2 0x139A JUMP JUMPDEST PUSH2 0x920 JUMP JUMPDEST PUSH1 0x40 MLOAD PUSH2 0x389 SWAP2 SWAP1 PUSH2 0x161E JUMP JUMPDEST PUSH1 0x40 MLOAD DUP1 SWAP2 SUB SWAP1 RETURN JUMPDEST CALLVALUE DUP1 ISZERO PUSH2 0x39E JUMPI PUSH1 0x0 DUP1 REVERT JUMPDEST POP PUSH2 0x3B9 PUSH1 0x4 DUP1 CALLDATASIZE SUB DUP2 ADD SWAP1 PUSH2 0x3B4 SWAP2 SWAP1 PUSH2 0x139A JUMP JUMPDEST PUSH2 0xA0A JUMP JUMPDEST PUSH1 0x40 MLOAD PUSH2 0x3C6 SWAP2 SWAP1 PUSH2 0x161E JUMP JUMPDEST PUSH1 0x40 MLOAD DUP1 SWAP2 SUB SWAP1 RETURN JUMPDEST CALLVALUE DUP1 ISZERO PUSH2 0x3DB JUMPI PUSH1 0x0 DUP1 REVERT JUMPDEST POP PUSH2 0x3F6 PUSH1 0x4 DUP1 CALLDATASIZE SUB DUP2 ADD SWAP1 PUSH2 0x3F1 SWAP2 SWAP1 PUSH2 0x130F JUMP JUMPDEST PUSH2 0xA2D JUMP JUMPDEST PUSH1 0x40 MLOAD PUSH2 0x403 SWAP2 SWAP1 PUSH2 0x17BB JUMP JUMPDEST PUSH1 0x40 MLOAD DUP1 SWAP2 SUB SWAP1 RETURN JUMPDEST CALLVALUE DUP1 ISZERO PUSH2 0x418 JUMPI PUSH1 0x0 DUP1 REVERT JUMPDEST POP PUSH2 0x433 PUSH1 0x4 DUP1 CALLDATASIZE SUB DUP2 ADD SWAP1 PUSH2 0x42E SWAP2 SWAP1 PUSH2 0x12E6 JUMP JUMPDEST PUSH2 0xAB4 JUMP JUMPDEST STOP JUMPDEST PUSH1 0x60 PUSH1 0x3 DUP1 SLOAD PUSH2 0x444 SWAP1 PUSH2 0x1950 JUMP JUMPDEST DUP1 PUSH1 0x1F ADD PUSH1 0x20 DUP1 SWAP2 DIV MUL PUSH1 0x20 ADD PUSH1 0x40 MLOAD SWAP1 DUP2 ADD PUSH1 0x40 MSTORE DUP1 SWAP3 SWAP2 SWAP1 DUP2 DUP2 MSTORE PUSH1 0x20 ADD DUP3 DUP1 SLOAD PUSH2 0x470 SWAP1 PUSH2 0x1950 JUMP JUMPDEST DUP1 ISZERO PUSH2 0x4BD JUMPI DUP1 PUSH1 0x1F LT PUSH2 0x492 JUMPI PUSH2 0x100 DUP1 DUP4 SLOAD DIV MUL DUP4 MSTORE SWAP2 PUSH1 0x20 ADD SWAP2 PUSH2 0x4BD JUMP JUMPDEST DUP3 ADD SWAP2 SWAP1 PUSH1 0x0 MSTORE PUSH1 0x20 PUSH1 0x0 KECCAK256 SWAP1 JUMPDEST DUP2 SLOAD DUP2 MSTORE SWAP1 PUSH1 0x1 ADD SWAP1 PUSH1 0x20 ADD DUP1 DUP4 GT PUSH2 0x4A0 JUMPI DUP3 SWAP1 SUB PUSH1 0x1F AND DUP3 ADD SWAP2 JUMPDEST POP POP POP POP POP SWAP1 POP SWAP1 JUMP JUMPDEST PUSH1 0x0 DUP1 PUSH2 0x4D2 PUSH2 0xBAC JUMP JUMPDEST SWAP1 POP PUSH2 0x4DF DUP2 DUP6 DUP6 PUSH2 0xBB4 JUMP JUMPDEST PUSH1 0x1 SWAP2 POP POP SWAP3 SWAP2 POP POP JUMP JUMPDEST PUSH1 0x0 PUSH1 0x2 SLOAD SWAP1 POP SWAP1 JUMP JUMPDEST PUSH1 0x0 DUP1 PUSH2 0x4FF PUSH2 0xBAC JUMP JUMPDEST SWAP1 POP PUSH2 0x50C DUP6 DUP3 DUP6 PUSH2 0xD7F JUMP JUMPDEST PUSH2 0x517 DUP6 DUP6 DUP6 PUSH2 0xE0B JUMP JUMPDEST PUSH1 0x1 SWAP2 POP POP SWAP4 SWAP3 POP POP POP JUMP JUMPDEST PUSH1 0x9 SLOAD DUP2 JUMP JUMPDEST PUSH1 0x0 PUSH1 0x12 SWAP1 POP SWAP1 JUMP JUMPDEST PUSH1 0x0 DUP1 PUSH2 0x53D PUSH2 0xBAC JUMP JUMPDEST SWAP1 POP PUSH2 0x5D1 DUP2 DUP6 DUP6 PUSH1 0x1 PUSH1 0x0 DUP7 PUSH20 0xFFFFFFFFFFFFFFFFFFFFFFFFFFFFFFFFFFFFFFFF AND PUSH20 0xFFFFFFFFFFFFFFFFFFFFFFFFFFFFFFFFFFFFFFFF AND DUP2 MSTORE PUSH1 0x20 ADD SWAP1 DUP2 MSTORE PUSH1 0x20 ADD PUSH1 0x0 KECCAK256 PUSH1 0x0 DUP10 PUSH20 0xFFFFFFFFFFFFFFFFFFFFFFFFFFFFFFFFFFFFFFFF AND PUSH20 0xFFFFFFFFFFFFFFFFFFFFFFFFFFFFFFFFFFFFFFFF AND DUP2 MSTORE PUSH1 0x20 ADD SWAP1 DUP2 MSTORE PUSH1 0x20 ADD PUSH1 0x0 KECCAK256 SLOAD PUSH2 0x5CC SWAP2 SWAP1 PUSH2 0x180D JUMP JUMPDEST PUSH2 0xBB4 JUMP JUMPDEST PUSH1 0x1 SWAP2 POP POP SWAP3 SWAP2 POP POP JUMP JUMPDEST PUSH2 0x5E4 PUSH2 0xBAC JUMP JUMPDEST PUSH20 0xFFFFFFFFFFFFFFFFFFFFFFFFFFFFFFFFFFFFFFFF AND PUSH2 0x602 PUSH2 0x864 JUMP JUMPDEST PUSH20 0xFFFFFFFFFFFFFFFFFFFFFFFFFFFFFFFFFFFFFFFF AND EQ PUSH2 0x658 JUMPI PUSH1 0x40 MLOAD PUSH32 0x8C379A000000000000000000000000000000000000000000000000000000000 DUP2 MSTORE PUSH1 0x4 ADD PUSH2 0x64F SWAP1 PUSH2 0x16FB JUMP JUMPDEST PUSH1 0x40 MLOAD DUP1 SWAP2 SUB SWAP1 REVERT JUMPDEST PUSH2 0x662 DUP3 DUP3 PUSH2 0x108C JUMP JUMPDEST POP POP JUMP JUMPDEST PUSH1 0x0 DUP1 PUSH1 0x0 DUP4 PUSH20 0xFFFFFFFFFFFFFFFFFFFFFFFFFFFFFFFFFFFFFFFF AND PUSH20 0xFFFFFFFFFFFFFFFFFFFFFFFFFFFFFFFFFFFFFFFF AND DUP2 MSTORE PUSH1 0x20 ADD SWAP1 DUP2 MSTORE PUSH1 0x20 ADD PUSH1 0x0 KECCAK256 SLOAD SWAP1 POP SWAP2 SWAP1 POP JUMP JUMPDEST PUSH2 0x6B6 PUSH2 0xBAC JUMP JUMPDEST PUSH20 0xFFFFFFFFFFFFFFFFFFFFFFFFFFFFFFFFFFFFFFFF AND PUSH2 0x6D4 PUSH2 0x864 JUMP JUMPDEST PUSH20 0xFFFFFFFFFFFFFFFFFFFFFFFFFFFFFFFFFFFFFFFF AND EQ PUSH2 0x72A JUMPI PUSH1 0x40 MLOAD PUSH32 0x8C379A000000000000000000000000000000000000000000000000000000000 DUP2 MSTORE PUSH1 0x4 ADD PUSH2 0x721 SWAP1 PUSH2 0x16FB JUMP JUMPDEST PUSH1 0x40 MLOAD DUP1 SWAP2 SUB SWAP1 REVERT JUMPDEST PUSH2 0x734 PUSH1 0x0 PUSH2 0x11EC JUMP JUMPDEST JUMP JUMPDEST PUSH8 0xDE0B6B3A7640000 CALLVALUE LT ISZERO PUSH2 0x781 JUMPI PUSH1 0x40 MLOAD PUSH32 0x8C379A000000000000000000000000000000000000000000000000000000000 DUP2 MSTORE PUSH1 0x4 ADD PUSH2 0x778 SWAP1 PUSH2 0x175B JUMP JUMPDEST PUSH1 0x40 MLOAD DUP1 SWAP2 SUB SWAP1 REVERT JUMPDEST PUSH1 0x6 PUSH1 0x0 SWAP1 SLOAD SWAP1 PUSH2 0x100 EXP SWAP1 DIV PUSH20 0xFFFFFFFFFFFFFFFFFFFFFFFFFFFFFFFFFFFFFFFF AND PUSH20 0xFFFFFFFFFFFFFFFFFFFFFFFFFFFFFFFFFFFFFFFF AND PUSH2 0x8FC CALLVALUE SWAP1 DUP2 ISZERO MUL SWAP1 PUSH1 0x40 MLOAD PUSH1 0x0 PUSH1 0x40 MLOAD DUP1 DUP4 SUB DUP2 DUP6 DUP9 DUP9 CALL SWAP4 POP POP POP POP ISZERO DUP1 ISZERO PUSH2 0x7E9 JUMPI RETURNDATASIZE PUSH1 0x0 DUP1 RETURNDATACOPY RETURNDATASIZE PUSH1 0x0 REVERT JUMPDEST POP PUSH1 0x0 PUSH8 0xDE0B6B3A7640000 CALLVALUE PUSH2 0x800 SWAP2 SWAP1 PUSH2 0x1863 JUMP JUMPDEST SWAP1 POP DUP1 PUSH1 0x7 PUSH1 0x0 DUP3 DUP3 SLOAD PUSH2 0x814 SWAP2 SWAP1 PUSH2 0x1894 JUMP JUMPDEST SWAP3 POP POP DUP2 SWAP1 SSTORE POP PUSH2 0x825 DUP3 DUP3 PUSH2 0x108C JUMP JUMPDEST PUSH32 0x1F437F9D9A2CD912A1B9EF9573239CFD5BFC901558877D14B92F4BE14DD23F39 CALLER DUP4 DUP4 PUSH1 0x40 MLOAD PUSH2 0x858 SWAP4 SWAP3 SWAP2 SWAP1 PUSH2 0x15E7 JUMP JUMPDEST PUSH1 0x40 MLOAD DUP1 SWAP2 SUB SWAP1 LOG1 POP POP JUMP JUMPDEST PUSH1 0x0 PUSH1 0x5 PUSH1 0x0 SWAP1 SLOAD SWAP1 PUSH2 0x100 EXP SWAP1 DIV PUSH20 0xFFFFFFFFFFFFFFFFFFFFFFFFFFFFFFFFFFFFFFFF AND SWAP1 POP SWAP1 JUMP JUMPDEST PUSH1 0x60 PUSH1 0x4 DUP1 SLOAD PUSH2 0x89D SWAP1 PUSH2 0x1950 JUMP JUMPDEST DUP1 PUSH1 0x1F ADD PUSH1 0x20 DUP1 SWAP2 DIV MUL PUSH1 0x20 ADD PUSH1 0x40 MLOAD SWAP1 DUP2 ADD PUSH1 0x40 MSTORE DUP1 SWAP3 SWAP2 SWAP1 DUP2 DUP2 MSTORE PUSH1 0x20 ADD DUP3 DUP1 SLOAD PUSH2 0x8C9 SWAP1 PUSH2 0x1950 JUMP JUMPDEST DUP1 ISZERO PUSH2 0x916 JUMPI DUP1 PUSH1 0x1F LT PUSH2 0x8EB JUMPI PUSH2 0x100 DUP1 DUP4 SLOAD DIV MUL DUP4 MSTORE SWAP2 PUSH1 0x20 ADD SWAP2 PUSH2 0x916 JUMP JUMPDEST DUP3 ADD SWAP2 SWAP1 PUSH1 0x0 MSTORE PUSH1 0x20 PUSH1 0x0 KECCAK256 SWAP1 JUMPDEST DUP2 SLOAD DUP2 MSTORE SWAP1 PUSH1 0x1 ADD SWAP1 PUSH1 0x20 ADD DUP1 DUP4 GT PUSH2 0x8F9 JUMPI DUP3 SWAP1 SUB PUSH1 0x1F AND DUP3 ADD SWAP2 JUMPDEST POP POP POP POP POP SWAP1 POP SWAP1 JUMP JUMPDEST PUSH1 0x0 DUP1 PUSH2 0x92B PUSH2 0xBAC JUMP JUMPDEST SWAP1 POP PUSH1 0x0 PUSH1 0x1 PUSH1 0x0 DUP4 PUSH20 0xFFFFFFFFFFFFFFFFFFFFFFFFFFFFFFFFFFFFFFFF AND PUSH20 0xFFFFFFFFFFFFFFFFFFFFFFFFFFFFFFFFFFFFFFFF AND DUP2 MSTORE PUSH1 0x20 ADD SWAP1 DUP2 MSTORE PUSH1 0x20 ADD PUSH1 0x0 KECCAK256 PUSH1 0x0 DUP7 PUSH20 0xFFFFFFFFFFFFFFFFFFFFFFFFFFFFFFFFFFFFFFFF AND PUSH20 0xFFFFFFFFFFFFFFFFFFFFFFFFFFFFFFFFFFFFFFFF AND DUP2 MSTORE PUSH1 0x20 ADD SWAP1 DUP2 MSTORE PUSH1 0x20 ADD PUSH1 0x0 KECCAK256 SLOAD SWAP1 POP DUP4 DUP2 LT ISZERO PUSH2 0x9F1 JUMPI PUSH1 0x40 MLOAD PUSH32 0x8C379A000000000000000000000000000000000000000000000000000000000 DUP2 MSTORE PUSH1 0x4 ADD PUSH2 0x9E8 SWAP1 PUSH2 0x177B JUMP JUMPDEST PUSH1 0x40 MLOAD DUP1 SWAP2 SUB SWAP1 REVERT JUMPDEST PUSH2 0x9FE DUP3 DUP7 DUP7 DUP5 SUB PUSH2 0xBB4 JUMP JUMPDEST PUSH1 0x1 SWAP3 POP POP POP SWAP3 SWAP2 POP POP JUMP JUMPDEST PUSH1 0x0 DUP1 PUSH2 0xA15 PUSH2 0xBAC JUMP JUMPDEST SWAP1 POP PUSH2 0xA22 DUP2 DUP6 DUP6 PUSH2 0xE0B JUMP JUMPDEST PUSH1 0x1 SWAP2 POP POP SWAP3 SWAP2 POP POP JUMP JUMPDEST PUSH1 0x0 PUSH1 0x1 PUSH1 0x0 DUP5 PUSH20 0xFFFFFFFFFFFFFFFFFFFFFFFFFFFFFFFFFFFFFFFF AND PUSH20 0xFFFFFFFFFFFFFFFFFFFFFFFFFFFFFFFFFFFFFFFF AND DUP2 MSTORE PUSH1 0x20 ADD SWAP1 DUP2 MSTORE PUSH1 0x20 ADD PUSH1 0x0 KECCAK256 PUSH1 0x0 DUP4 PUSH20 0xFFFFFFFFFFFFFFFFFFFFFFFFFFFFFFFFFFFFFFFF AND PUSH20 0xFFFFFFFFFFFFFFFFFFFFFFFFFFFFFFFFFFFFFFFF AND DUP2 MSTORE PUSH1 0x20 ADD SWAP1 DUP2 MSTORE PUSH1 0x20 ADD PUSH1 0x0 KECCAK256 SLOAD SWAP1 POP SWAP3 SWAP2 POP POP JUMP JUMPDEST PUSH2 0xABC PUSH2 0xBAC JUMP JUMPDEST PUSH20 0xFFFFFFFFFFFFFFFFFFFFFFFFFFFFFFFFFFFFFFFF AND PUSH2 0xADA PUSH2 0x864 JUMP JUMPDEST PUSH20 0xFFFFFFFFFFFFFFFFFFFFFFFFFFFFFFFFFFFFFFFF AND EQ PUSH2 0xB30 JUMPI PUSH1 0x40 MLOAD PUSH32 0x8C379A000000000000000000000000000000000000000000000000000000000 DUP2 MSTORE PUSH1 0x4 ADD PUSH2 0xB27 SWAP1 PUSH2 0x16FB JUMP JUMPDEST PUSH1 0x40 MLOAD DUP1 SWAP2 SUB SWAP1 REVERT JUMPDEST PUSH1 0x0 PUSH20 0xFFFFFFFFFFFFFFFFFFFFFFFFFFFFFFFFFFFFFFFF AND DUP2 PUSH20 0xFFFFFFFFFFFFFFFFFFFFFFFFFFFFFFFFFFFFFFFF AND EQ ISZERO PUSH2 0xBA0 JUMPI PUSH1 0x40 MLOAD PUSH32 0x8C379A000000000000000000000000000000000000000000000000000000000 DUP2 MSTORE PUSH1 0x4 ADD PUSH2 0xB97 SWAP1 PUSH2 0x167B JUMP JUMPDEST PUSH1 0x40 MLOAD DUP1 SWAP2 SUB SWAP1 REVERT JUMPDEST PUSH2 0xBA9 DUP2 PUSH2 0x11EC JUMP JUMPDEST POP JUMP JUMPDEST PUSH1 0x0 CALLER SWAP1 POP SWAP1 JUMP JUMPDEST PUSH1 0x0 PUSH20 0xFFFFFFFFFFFFFFFFFFFFFFFFFFFFFFFFFFFFFFFF AND DUP4 PUSH20 0xFFFFFFFFFFFFFFFFFFFFFFFFFFFFFFFFFFFFFFFF AND EQ ISZERO PUSH2 0xC24 JUMPI PUSH1 0x40 MLOAD PUSH32 0x8C379A000000000000000000000000000000000000000000000000000000000 DUP2 MSTORE PUSH1 0x4 ADD PUSH2 0xC1B SWAP1 PUSH2 0x173B JUMP JUMPDEST PUSH1 0x40 MLOAD DUP1 SWAP2 SUB SWAP1 REVERT JUMPDEST PUSH1 0x0 PUSH20 0xFFFFFFFFFFFFFFFFFFFFFFFFFFFFFFFFFFFFFFFF AND DUP3 PUSH20 0xFFFFFFFFFFFFFFFFFFFFFFFFFFFFFFFFFFFFFFFF AND EQ ISZERO PUSH2 0xC94 JUMPI PUSH1 0x40 MLOAD PUSH32 0x8C379A000000000000000000000000000000000000000000000000000000000 DUP2 MSTORE PUSH1 0x4 ADD PUSH2 0xC8B SWAP1 PUSH2 0x169B JUMP JUMPDEST PUSH1 0x40 MLOAD DUP1 SWAP2 SUB SWAP1 REVERT JUMPDEST DUP1 PUSH1 0x1 PUSH1 0x0 DUP6 PUSH20 0xFFFFFFFFFFFFFFFFFFFFFFFFFFFFFFFFFFFFFFFF AND PUSH20 0xFFFFFFFFFFFFFFFFFFFFFFFFFFFFFFFFFFFFFFFF AND DUP2 MSTORE PUSH1 0x20 ADD SWAP1 DUP2 MSTORE PUSH1 0x20 ADD PUSH1 0x0 KECCAK256 PUSH1 0x0 DUP5 PUSH20 0xFFFFFFFFFFFFFFFFFFFFFFFFFFFFFFFFFFFFFFFF AND PUSH20 0xFFFFFFFFFFFFFFFFFFFFFFFFFFFFFFFFFFFFFFFF AND DUP2 MSTORE PUSH1 0x20 ADD SWAP1 DUP2 MSTORE PUSH1 0x20 ADD PUSH1 0x0 KECCAK256 DUP2 SWAP1 SSTORE POP DUP2 PUSH20 0xFFFFFFFFFFFFFFFFFFFFFFFFFFFFFFFFFFFFFFFF AND DUP4 PUSH20 0xFFFFFFFFFFFFFFFFFFFFFFFFFFFFFFFFFFFFFFFF AND PUSH32 0x8C5BE1E5EBEC7D5BD14F71427D1E84F3DD0314C0F7B2291E5B200AC8C7C3B925 DUP4 PUSH1 0x40 MLOAD PUSH2 0xD72 SWAP2 SWAP1 PUSH2 0x17BB JUMP JUMPDEST PUSH1 0x40 MLOAD DUP1 SWAP2 SUB SWAP1 LOG3 POP POP POP JUMP JUMPDEST PUSH1 0x0 PUSH2 0xD8B DUP5 DUP5 PUSH2 0xA2D JUMP JUMPDEST SWAP1 POP PUSH32 0xFFFFFFFFFFFFFFFFFFFFFFFFFFFFFFFFFFFFFFFFFFFFFFFFFFFFFFFFFFFFFFFF DUP2 EQ PUSH2 0xE05 JUMPI DUP2 DUP2 LT ISZERO PUSH2 0xDF7 JUMPI PUSH1 0x40 MLOAD PUSH32 0x8C379A000000000000000000000000000000000000000000000000000000000 DUP2 MSTORE PUSH1 0x4 ADD PUSH2 0xDEE SWAP1 PUSH2 0x16BB JUMP JUMPDEST PUSH1 0x40 MLOAD DUP1 SWAP2 SUB SWAP1 REVERT JUMPDEST PUSH2 0xE04 DUP5 DUP5 DUP5 DUP5 SUB PUSH2 0xBB4 JUMP JUMPDEST JUMPDEST POP POP POP POP JUMP JUMPDEST PUSH1 0x0 PUSH20 0xFFFFFFFFFFFFFFFFFFFFFFFFFFFFFFFFFFFFFFFF AND DUP4 PUSH20 0xFFFFFFFFFFFFFFFFFFFFFFFFFFFFFFFFFFFFFFFF AND EQ ISZERO PUSH2 0xE7B JUMPI PUSH1 0x40 MLOAD PUSH32 0x8C379A000000000000000000000000000000000000000000000000000000000 DUP2 MSTORE PUSH1 0x4 ADD PUSH2 0xE72 SWAP1 PUSH2 0x171B JUMP JUMPDEST PUSH1 0x40 MLOAD DUP1 SWAP2 SUB SWAP1 REVERT JUMPDEST PUSH1 0x0 PUSH20 0xFFFFFFFFFFFFFFFFFFFFFFFFFFFFFFFFFFFFFFFF AND DUP3 PUSH20 0xFFFFFFFFFFFFFFFFFFFFFFFFFFFFFFFFFFFFFFFF AND EQ ISZERO PUSH2 0xEEB JUMPI PUSH1 0x40 MLOAD PUSH32 0x8C379A000000000000000000000000000000000000000000000000000000000 DUP2 MSTORE PUSH1 0x4 ADD PUSH2 0xEE2 SWAP1 PUSH2 0x165B JUMP JUMPDEST PUSH1 0x40 MLOAD DUP1 SWAP2 SUB SWAP1 REVERT JUMPDEST PUSH2 0xEF6 DUP4 DUP4 DUP4 PUSH2 0x12B2 JUMP JUMPDEST PUSH1 0x0 DUP1 PUSH1 0x0 DUP6 PUSH20 0xFFFFFFFFFFFFFFFFFFFFFFFFFFFFFFFFFFFFFFFF AND PUSH20 0xFFFFFFFFFFFFFFFFFFFFFFFFFFFFFFFFFFFFFFFF AND DUP2 MSTORE PUSH1 0x20 ADD SWAP1 DUP2 MSTORE PUSH1 0x20 ADD PUSH1 0x0 KECCAK256 SLOAD SWAP1 POP DUP2 DUP2 LT ISZERO PUSH2 0xF7C JUMPI PUSH1 0x40 MLOAD PUSH32 0x8C379A000000000000000000000000000000000000000000000000000000000 DUP2 MSTORE PUSH1 0x4 ADD PUSH2 0xF73 SWAP1 PUSH2 0x16DB JUMP JUMPDEST PUSH1 0x40 MLOAD DUP1 SWAP2 SUB SWAP1 REVERT JUMPDEST DUP2 DUP2 SUB PUSH1 0x0 DUP1 DUP7 PUSH20 0xFFFFFFFFFFFFFFFFFFFFFFFFFFFFFFFFFFFFFFFF AND PUSH20 0xFFFFFFFFFFFFFFFFFFFFFFFFFFFFFFFFFFFFFFFF AND DUP2 MSTORE PUSH1 0x20 ADD SWAP1 DUP2 MSTORE PUSH1 0x20 ADD PUSH1 0x0 KECCAK256 DUP2 SWAP1 SSTORE POP DUP2 PUSH1 0x0 DUP1 DUP6 PUSH20 0xFFFFFFFFFFFFFFFFFFFFFFFFFFFFFFFFFFFFFFFF AND PUSH20 0xFFFFFFFFFFFFFFFFFFFFFFFFFFFFFFFFFFFFFFFF AND DUP2 MSTORE PUSH1 0x20 ADD SWAP1 DUP2 MSTORE PUSH1 0x20 ADD PUSH1 0x0 KECCAK256 PUSH1 0x0 DUP3 DUP3 SLOAD PUSH2 0x100F SWAP2 SWAP1 PUSH2 0x180D JUMP JUMPDEST SWAP3 POP POP DUP2 SWAP1 SSTORE POP DUP3 PUSH20 0xFFFFFFFFFFFFFFFFFFFFFFFFFFFFFFFFFFFFFFFF AND DUP5 PUSH20 0xFFFFFFFFFFFFFFFFFFFFFFFFFFFFFFFFFFFFFFFF AND PUSH32 0xDDF252AD1BE2C89B69C2B068FC378DAA952BA7F163C4A11628F55A4DF523B3EF DUP5 PUSH1 0x40 MLOAD PUSH2 0x1073 SWAP2 SWAP1 PUSH2 0x17BB JUMP JUMPDEST PUSH1 0x40 MLOAD DUP1 SWAP2 SUB SWAP1 LOG3 PUSH2 0x1086 DUP5 DUP5 DUP5 PUSH2 0x12B7 JUMP JUMPDEST POP POP POP POP JUMP JUMPDEST PUSH1 0x0 PUSH20 0xFFFFFFFFFFFFFFFFFFFFFFFFFFFFFFFFFFFFFFFF AND DUP3 PUSH20 0xFFFFFFFFFFFFFFFFFFFFFFFFFFFFFFFFFFFFFFFF AND EQ ISZERO PUSH2 0x10FC JUMPI PUSH1 0x40 MLOAD PUSH32 0x8C379A000000000000000000000000000000000000000000000000000000000 DUP2 MSTORE PUSH1 0x4 ADD PUSH2 0x10F3 SWAP1 PUSH2 0x179B JUMP JUMPDEST PUSH1 0x40 MLOAD DUP1 SWAP2 SUB SWAP1 REVERT JUMPDEST PUSH2 0x1108 PUSH1 0x0 DUP4 DUP4 PUSH2 0x12B2 JUMP JUMPDEST DUP1 PUSH1 0x2 PUSH1 0x0 DUP3 DUP3 SLOAD PUSH2 0x111A SWAP2 SWAP1 PUSH2 0x180D JUMP JUMPDEST SWAP3 POP POP DUP2 SWAP1 SSTORE POP DUP1 PUSH1 0x0 DUP1 DUP5 PUSH20 0xFFFFFFFFFFFFFFFFFFFFFFFFFFFFFFFFFFFFFFFF AND PUSH20 0xFFFFFFFFFFFFFFFFFFFFFFFFFFFFFFFFFFFFFFFF AND DUP2 MSTORE PUSH1 0x20 ADD SWAP1 DUP2 MSTORE PUSH1 0x20 ADD PUSH1 0x0 KECCAK256 PUSH1 0x0 DUP3 DUP3 SLOAD PUSH2 0x116F SWAP2 SWAP1 PUSH2 0x180D JUMP JUMPDEST SWAP3 POP POP DUP2 SWAP1 SSTORE POP DUP2 PUSH20 0xFFFFFFFFFFFFFFFFFFFFFFFFFFFFFFFFFFFFFFFF AND PUSH1 0x0 PUSH20 0xFFFFFFFFFFFFFFFFFFFFFFFFFFFFFFFFFFFFFFFF AND PUSH32 0xDDF252AD1BE2C89B69C2B068FC378DAA952BA7F163C4A11628F55A4DF523B3EF DUP4 PUSH1 0x40 MLOAD PUSH2 0x11D4 SWAP2 SWAP1 PUSH2 0x17BB JUMP JUMPDEST PUSH1 0x40 MLOAD DUP1 SWAP2 SUB SWAP1 LOG3 PUSH2 0x11E8 PUSH1 0x0 DUP4 DUP4 PUSH2 0x12B7 JUMP JUMPDEST POP POP JUMP JUMPDEST PUSH1 0x0 PUSH1 0x5 PUSH1 0x0 SWAP1 SLOAD SWAP1 PUSH2 0x100 EXP SWAP1 DIV PUSH20 0xFFFFFFFFFFFFFFFFFFFFFFFFFFFFFFFFFFFFFFFF AND SWAP1 POP DUP2 PUSH1 0x5 PUSH1 0x0 PUSH2 0x100 EXP DUP2 SLOAD DUP2 PUSH20 0xFFFFFFFFFFFFFFFFFFFFFFFFFFFFFFFFFFFFFFFF MUL NOT AND SWAP1 DUP4 PUSH20 0xFFFFFFFFFFFFFFFFFFFFFFFFFFFFFFFFFFFFFFFF AND MUL OR SWAP1 SSTORE POP DUP2 PUSH20 0xFFFFFFFFFFFFFFFFFFFFFFFFFFFFFFFFFFFFFFFF AND DUP2 PUSH20 0xFFFFFFFFFFFFFFFFFFFFFFFFFFFFFFFFFFFFFFFF AND PUSH32 0x8BE0079C531659141344CD1FD0A4F28419497F9722A3DAAFE3B4186F6B6457E0 PUSH1 0x40 MLOAD PUSH1 0x40 MLOAD DUP1 SWAP2 SUB SWAP1 LOG3 POP POP JUMP JUMPDEST POP POP POP JUMP JUMPDEST POP POP POP JUMP JUMPDEST PUSH1 0x0 DUP2 CALLDATALOAD SWAP1 POP PUSH2 0x12CB DUP2 PUSH2 0x1D13 JUMP JUMPDEST SWAP3 SWAP2 POP POP JUMP JUMPDEST PUSH1 0x0 DUP2 CALLDATALOAD SWAP1 POP PUSH2 0x12E0 DUP2 PUSH2 0x1D2A JUMP JUMPDEST SWAP3 SWAP2 POP POP JUMP JUMPDEST PUSH1 0x0 PUSH1 0x20 DUP3 DUP5 SUB SLT ISZERO PUSH2 0x12F8 JUMPI PUSH1 0x0 DUP1 REVERT JUMPDEST PUSH1 0x0 PUSH2 0x1306 DUP5 DUP3 DUP6 ADD PUSH2 0x12BC JUMP JUMPDEST SWAP2 POP POP SWAP3 SWAP2 POP POP JUMP JUMPDEST PUSH1 0x0 DUP1 PUSH1 0x40 DUP4 DUP6 SUB SLT ISZERO PUSH2 0x1322 JUMPI PUSH1 0x0 DUP1 REVERT JUMPDEST PUSH1 0x0 PUSH2 0x1330 DUP6 DUP3 DUP7 ADD PUSH2 0x12BC JUMP JUMPDEST SWAP3 POP POP PUSH1 0x20 PUSH2 0x1341 DUP6 DUP3 DUP7 ADD PUSH2 0x12BC JUMP JUMPDEST SWAP2 POP POP SWAP3 POP SWAP3 SWAP1 POP JUMP JUMPDEST PUSH1 0x0 DUP1 PUSH1 0x0 PUSH1 0x60 DUP5 DUP7 SUB SLT ISZERO PUSH2 0x1360 JUMPI PUSH1 0x0 DUP1 REVERT JUMPDEST PUSH1 0x0 PUSH2 0x136E DUP7 DUP3 DUP8 ADD PUSH2 0x12BC JUMP JUMPDEST SWAP4 POP POP PUSH1 0x20 PUSH2 0x137F DUP7 DUP3 DUP8 ADD PUSH2 0x12BC JUMP JUMPDEST SWAP3 POP POP PUSH1 0x40 PUSH2 0x1390 DUP7 DUP3 DUP8 ADD PUSH2 0x12D1 JUMP JUMPDEST SWAP2 POP POP SWAP3 POP SWAP3 POP SWAP3 JUMP JUMPDEST PUSH1 0x0 DUP1 PUSH1 0x40 DUP4 DUP6 SUB SLT ISZERO PUSH2 0x13AD JUMPI PUSH1 0x0 DUP1 REVERT JUMPDEST PUSH1 0x0 PUSH2 0x13BB DUP6 DUP3 DUP7 ADD PUSH2 0x12BC JUMP JUMPDEST SWAP3 POP POP PUSH1 0x20 PUSH2 0x13CC DUP6 DUP3 DUP7 ADD PUSH2 0x12D1 JUMP JUMPDEST SWAP2 POP POP SWAP3 POP SWAP3 SWAP1 POP JUMP JUMPDEST PUSH2 0x13DF DUP2 PUSH2 0x18C8 JUMP JUMPDEST DUP3 MSTORE POP POP JUMP JUMPDEST PUSH2 0x13EE DUP2 PUSH2 0x18DA JUMP JUMPDEST DUP3 MSTORE POP POP JUMP JUMPDEST PUSH1 0x0 PUSH2 0x13FF DUP3 PUSH2 0x17F1 JUMP JUMPDEST PUSH2 0x1409 DUP2 DUP6 PUSH2 0x17FC JUMP JUMPDEST SWAP4 POP PUSH2 0x1419 DUP2 DUP6 PUSH1 0x20 DUP7 ADD PUSH2 0x191D JUMP JUMPDEST PUSH2 0x1422 DUP2 PUSH2 0x1A0F JUMP JUMPDEST DUP5 ADD SWAP2 POP POP SWAP3 SWAP2 POP POP JUMP JUMPDEST PUSH1 0x0 PUSH2 0x143A PUSH1 0x23 DUP4 PUSH2 0x17FC JUMP JUMPDEST SWAP2 POP PUSH2 0x1445 DUP3 PUSH2 0x1A20 JUMP JUMPDEST PUSH1 0x40 DUP3 ADD SWAP1 POP SWAP2 SWAP1 POP JUMP JUMPDEST PUSH1 0x0 PUSH2 0x145D PUSH1 0x26 DUP4 PUSH2 0x17FC JUMP JUMPDEST SWAP2 POP PUSH2 0x1468 DUP3 PUSH2 0x1A6F JUMP JUMPDEST PUSH1 0x40 DUP3 ADD SWAP1 POP SWAP2 SWAP1 POP JUMP JUMPDEST PUSH1 0x0 PUSH2 0x1480 PUSH1 0x22 DUP4 PUSH2 0x17FC JUMP JUMPDEST SWAP2 POP PUSH2 0x148B DUP3 PUSH2 0x1ABE JUMP JUMPDEST PUSH1 0x40 DUP3 ADD SWAP1 POP SWAP2 SWAP1 POP JUMP JUMPDEST PUSH1 0x0 PUSH2 0x14A3 PUSH1 0x1D DUP4 PUSH2 0x17FC JUMP JUMPDEST SWAP2 POP PUSH2 0x14AE DUP3 PUSH2 0x1B0D JUMP JUMPDEST PUSH1 0x20 DUP3 ADD SWAP1 POP SWAP2 SWAP1 POP JUMP JUMPDEST PUSH1 0x0 PUSH2 0x14C6 PUSH1 0x26 DUP4 PUSH2 0x17FC JUMP JUMPDEST SWAP2 POP PUSH2 0x14D1 DUP3 PUSH2 0x1B36 JUMP JUMPDEST PUSH1 0x40 DUP3 ADD SWAP1 POP SWAP2 SWAP1 POP JUMP JUMPDEST PUSH1 0x0 PUSH2 0x14E9 PUSH1 0x20 DUP4 PUSH2 0x17FC JUMP JUMPDEST SWAP2 POP PUSH2 0x14F4 DUP3 PUSH2 0x1B85 JUMP JUMPDEST PUSH1 0x20 DUP3 ADD SWAP1 POP SWAP2 SWAP1 POP JUMP JUMPDEST PUSH1 0x0 PUSH2 0x150C PUSH1 0x25 DUP4 PUSH2 0x17FC JUMP JUMPDEST SWAP2 POP PUSH2 0x1517 DUP3 PUSH2 0x1BAE JUMP JUMPDEST PUSH1 0x40 DUP3 ADD SWAP1 POP SWAP2 SWAP1 POP JUMP JUMPDEST PUSH1 0x0 PUSH2 0x152F PUSH1 0x24 DUP4 PUSH2 0x17FC JUMP JUMPDEST SWAP2 POP PUSH2 0x153A DUP3 PUSH2 0x1BFD JUMP JUMPDEST PUSH1 0x40 DUP3 ADD SWAP1 POP SWAP2 SWAP1 POP JUMP JUMPDEST PUSH1 0x0 PUSH2 0x1552 PUSH1 0x21 DUP4 PUSH2 0x17FC JUMP JUMPDEST SWAP2 POP PUSH2 0x155D DUP3 PUSH2 0x1C4C JUMP JUMPDEST PUSH1 0x40 DUP3 ADD SWAP1 POP SWAP2 SWAP1 POP JUMP JUMPDEST PUSH1 0x0 PUSH2 0x1575 PUSH1 0x25 DUP4 PUSH2 0x17FC JUMP JUMPDEST SWAP2 POP PUSH2 0x1580 DUP3 PUSH2 0x1C9B JUMP JUMPDEST PUSH1 0x40 DUP3 ADD SWAP1 POP SWAP2 SWAP1 POP JUMP JUMPDEST PUSH1 0x0 PUSH2 0x1598 PUSH1 0x1F DUP4 PUSH2 0x17FC JUMP JUMPDEST SWAP2 POP PUSH2 0x15A3 DUP3 PUSH2 0x1CEA JUMP JUMPDEST PUSH1 0x20 DUP3 ADD SWAP1 POP SWAP2 SWAP1 POP JUMP JUMPDEST PUSH2 0x15B7 DUP2 PUSH2 0x1906 JUMP JUMPDEST DUP3 MSTORE POP POP JUMP JUMPDEST PUSH2 0x15C6 DUP2 PUSH2 0x1910 JUMP JUMPDEST DUP3 MSTORE POP POP JUMP JUMPDEST PUSH1 0x0 PUSH1 0x20 DUP3 ADD SWAP1 POP PUSH2 0x15E1 PUSH1 0x0 DUP4 ADD DUP5 PUSH2 0x13D6 JUMP JUMPDEST SWAP3 SWAP2 POP POP JUMP JUMPDEST PUSH1 0x0 PUSH1 0x60 DUP3 ADD SWAP1 POP PUSH2 0x15FC PUSH1 0x0 DUP4 ADD DUP7 PUSH2 0x13D6 JUMP JUMPDEST PUSH2 0x1609 PUSH1 0x20 DUP4 ADD DUP6 PUSH2 0x13D6 JUMP JUMPDEST PUSH2 0x1616 PUSH1 0x40 DUP4 ADD DUP5 PUSH2 0x15AE JUMP JUMPDEST SWAP5 SWAP4 POP POP POP POP JUMP JUMPDEST PUSH1 0x0 PUSH1 0x20 DUP3 ADD SWAP1 POP PUSH2 0x1633 PUSH1 0x0 DUP4 ADD DUP5 PUSH2 0x13E5 JUMP JUMPDEST SWAP3 SWAP2 POP POP JUMP JUMPDEST PUSH1 0x0 PUSH1 0x20 DUP3 ADD SWAP1 POP DUP2 DUP2 SUB PUSH1 0x0 DUP4 ADD MSTORE PUSH2 0x1653 DUP2 DUP5 PUSH2 0x13F4 JUMP JUMPDEST SWAP1 POP SWAP3 SWAP2 POP POP JUMP JUMPDEST PUSH1 0x0 PUSH1 0x20 DUP3 ADD SWAP1 POP DUP2 DUP2 SUB PUSH1 0x0 DUP4 ADD MSTORE PUSH2 0x1674 DUP2 PUSH2 0x142D JUMP JUMPDEST SWAP1 POP SWAP2 SWAP1 POP JUMP JUMPDEST PUSH1 0x0 PUSH1 0x20 DUP3 ADD SWAP1 POP DUP2 DUP2 SUB PUSH1 0x0 DUP4 ADD MSTORE PUSH2 0x1694 DUP2 PUSH2 0x1450 JUMP JUMPDEST SWAP1 POP SWAP2 SWAP1 POP JUMP JUMPDEST PUSH1 0x0 PUSH1 0x20 DUP3 ADD SWAP1 POP DUP2 DUP2 SUB PUSH1 0x0 DUP4 ADD MSTORE PUSH2 0x16B4 DUP2 PUSH2 0x1473 JUMP JUMPDEST SWAP1 POP SWAP2 SWAP1 POP JUMP JUMPDEST PUSH1 0x0 PUSH1 0x20 DUP3 ADD SWAP1 POP DUP2 DUP2 SUB PUSH1 0x0 DUP4 ADD MSTORE PUSH2 0x16D4 DUP2 PUSH2 0x1496 JUMP JUMPDEST SWAP1 POP SWAP2 SWAP1 POP JUMP JUMPDEST PUSH1 0x0 PUSH1 0x20 DUP3 ADD SWAP1 POP DUP2 DUP2 SUB PUSH1 0x0 DUP4 ADD MSTORE PUSH2 0x16F4 DUP2 PUSH2 0x14B9 JUMP JUMPDEST SWAP1 POP SWAP2 SWAP1 POP JUMP JUMPDEST PUSH1 0x0 PUSH1 0x20 DUP3 ADD SWAP1 POP DUP2 DUP2 SUB PUSH1 0x0 DUP4 ADD MSTORE PUSH2 0x1714 DUP2 PUSH2 0x14DC JUMP JUMPDEST SWAP1 POP SWAP2 SWAP1 POP JUMP JUMPDEST PUSH1 0x0 PUSH1 0x20 DUP3 ADD SWAP1 POP DUP2 DUP2 SUB PUSH1 0x0 DUP4 ADD MSTORE PUSH2 0x1734 DUP2 PUSH2 0x14FF JUMP JUMPDEST SWAP1 POP SWAP2 SWAP1 POP JUMP JUMPDEST PUSH1 0x0 PUSH1 0x20 DUP3 ADD SWAP1 POP DUP2 DUP2 SUB PUSH1 0x0 DUP4 ADD MSTORE PUSH2 0x1754 DUP2 PUSH2 0x1522 JUMP JUMPDEST SWAP1 POP SWAP2 SWAP1 POP JUMP JUMPDEST PUSH1 0x0 PUSH1 0x20 DUP3 ADD SWAP1 POP DUP2 DUP2 SUB PUSH1 0x0 DUP4 ADD MSTORE PUSH2 0x1774 DUP2 PUSH2 0x1545 JUMP JUMPDEST SWAP1 POP SWAP2 SWAP1 POP JUMP JUMPDEST PUSH1 0x0 PUSH1 0x20 DUP3 ADD SWAP1 POP DUP2 DUP2 SUB PUSH1 0x0 DUP4 ADD MSTORE PUSH2 0x1794 DUP2 PUSH2 0x1568 JUMP JUMPDEST SWAP1 POP SWAP2 SWAP1 POP JUMP JUMPDEST PUSH1 0x0 PUSH1 0x20 DUP3 ADD SWAP1 POP DUP2 DUP2 SUB PUSH1 0x0 DUP4 ADD MSTORE PUSH2 0x17B4 DUP2 PUSH2 0x158B JUMP JUMPDEST SWAP1 POP SWAP2 SWAP1 POP JUMP JUMPDEST PUSH1 0x0 PUSH1 0x20 DUP3 ADD SWAP1 POP PUSH2 0x17D0 PUSH1 0x0 DUP4 ADD DUP5 PUSH2 0x15AE JUMP JUMPDEST SWAP3 SWAP2 POP POP JUMP JUMPDEST PUSH1 0x0 PUSH1 0x20 DUP3 ADD SWAP1 POP PUSH2 0x17EB PUSH1 0x0 DUP4 ADD DUP5 PUSH2 0x15BD JUMP JUMPDEST SWAP3 SWAP2 POP POP JUMP JUMPDEST PUSH1 0x0 DUP2 MLOAD SWAP1 POP SWAP2 SWAP1 POP JUMP JUMPDEST PUSH1 0x0 DUP3 DUP3 MSTORE PUSH1 0x20 DUP3 ADD SWAP1 POP SWAP3 SWAP2 POP POP JUMP JUMPDEST PUSH1 0x0 PUSH2 0x1818 DUP3 PUSH2 0x1906 JUMP JUMPDEST SWAP2 POP PUSH2 0x1823 DUP4 PUSH2 0x1906 JUMP JUMPDEST SWAP3 POP DUP3 PUSH32 0xFFFFFFFFFFFFFFFFFFFFFFFFFFFFFFFFFFFFFFFFFFFFFFFFFFFFFFFFFFFFFFFF SUB DUP3 GT ISZERO PUSH2 0x1858 JUMPI PUSH2 0x1857 PUSH2 0x1982 JUMP JUMPDEST JUMPDEST DUP3 DUP3 ADD SWAP1 POP SWAP3 SWAP2 POP POP JUMP JUMPDEST PUSH1 0x0 PUSH2 0x186E DUP3 PUSH2 0x1906 JUMP JUMPDEST SWAP2 POP PUSH2 0x1879 DUP4 PUSH2 0x1906 JUMP JUMPDEST SWAP3 POP DUP3 PUSH2 0x1889 JUMPI PUSH2 0x1888 PUSH2 0x19B1 JUMP JUMPDEST JUMPDEST DUP3 DUP3 DIV SWAP1 POP SWAP3 SWAP2 POP POP JUMP JUMPDEST PUSH1 0x0 PUSH2 0x189F DUP3 PUSH2 0x1906 JUMP JUMPDEST SWAP2 POP PUSH2 0x18AA DUP4 PUSH2 0x1906 JUMP JUMPDEST SWAP3 POP DUP3 DUP3 LT ISZERO PUSH2 0x18BD JUMPI PUSH2 0x18BC PUSH2 0x1982 JUMP JUMPDEST JUMPDEST DUP3 DUP3 SUB SWAP1 POP SWAP3 SWAP2 POP POP JUMP JUMPDEST PUSH1 0x0 PUSH2 0x18D3 DUP3 PUSH2 0x18E6 JUMP JUMPDEST SWAP1 POP SWAP2 SWAP1 POP JUMP JUMPDEST PUSH1 0x0 DUP2 ISZERO ISZERO SWAP1 POP SWAP2 SWAP1 POP JUMP JUMPDEST PUSH1 0x0 PUSH20 0xFFFFFFFFFFFFFFFFFFFFFFFFFFFFFFFFFFFFFFFF DUP3 AND SWAP1 POP SWAP2 SWAP1 POP JUMP JUMPDEST PUSH1 0x0 DUP2 SWAP1 POP SWAP2 SWAP1 POP JUMP JUMPDEST PUSH1 0x0 PUSH1 0xFF DUP3 AND SWAP1 POP SWAP2 SWAP1 POP JUMP JUMPDEST PUSH1 0x0 JUMPDEST DUP4 DUP2 LT ISZERO PUSH2 0x193B JUMPI DUP1 DUP3 ADD MLOAD DUP2 DUP5 ADD MSTORE PUSH1 0x20 DUP2 ADD SWAP1 POP PUSH2 0x1920 JUMP JUMPDEST DUP4 DUP2 GT ISZERO PUSH2 0x194A JUMPI PUSH1 0x0 DUP5 DUP5 ADD MSTORE JUMPDEST POP POP POP POP JUMP JUMPDEST PUSH1 0x0 PUSH1 0x2 DUP3 DIV SWAP1 POP PUSH1 0x1 DUP3 AND DUP1 PUSH2 0x1968 JUMPI PUSH1 0x7F DUP3 AND SWAP2 POP JUMPDEST PUSH1 0x20 DUP3 LT DUP2 EQ ISZERO PUSH2 0x197C JUMPI PUSH2 0x197B PUSH2 0x19E0 JUMP JUMPDEST JUMPDEST POP SWAP2 SWAP1 POP JUMP JUMPDEST PUSH32 0x4E487B7100000000000000000000000000000000000000000000000000000000 PUSH1 0x0 MSTORE PUSH1 0x11 PUSH1 0x4 MSTORE PUSH1 0x24 PUSH1 0x0 REVERT JUMPDEST PUSH32 0x4E487B7100000000000000000000000000000000000000000000000000000000 PUSH1 0x0 MSTORE PUSH1 0x12 PUSH1 0x4 MSTORE PUSH1 0x24 PUSH1 0x0 REVERT JUMPDEST PUSH32 0x4E487B7100000000000000000000000000000000000000000000000000000000 PUSH1 0x0 MSTORE PUSH1 0x22 PUSH1 0x4 MSTORE PUSH1 0x24 PUSH1 0x0 REVERT JUMPDEST PUSH1 0x0 PUSH1 0x1F NOT PUSH1 0x1F DUP4 ADD AND SWAP1 POP SWAP2 SWAP1 POP JUMP JUMPDEST PUSH32 0x45524332303A207472616E7366657220746F20746865207A65726F2061646472 PUSH1 0x0 DUP3 ADD MSTORE PUSH32 0x6573730000000000000000000000000000000000000000000000000000000000 PUSH1 0x20 DUP3 ADD MSTORE POP JUMP JUMPDEST PUSH32 0x4F776E61626C653A206E6577206F776E657220697320746865207A65726F2061 PUSH1 0x0 DUP3 ADD MSTORE PUSH32 0x6464726573730000000000000000000000000000000000000000000000000000 PUSH1 0x20 DUP3 ADD MSTORE POP JUMP JUMPDEST PUSH32 0x45524332303A20617070726F766520746F20746865207A65726F206164647265 PUSH1 0x0 DUP3 ADD MSTORE PUSH32 0x7373000000000000000000000000000000000000000000000000000000000000 PUSH1 0x20 DUP3 ADD MSTORE POP JUMP JUMPDEST PUSH32 0x45524332303A20696E73756666696369656E7420616C6C6F77616E6365000000 PUSH1 0x0 DUP3 ADD MSTORE POP JUMP JUMPDEST PUSH32 0x45524332303A207472616E7366657220616D6F756E7420657863656564732062 PUSH1 0x0 DUP3 ADD MSTORE PUSH32 0x616C616E63650000000000000000000000000000000000000000000000000000 PUSH1 0x20 DUP3 ADD MSTORE POP JUMP JUMPDEST PUSH32 0x4F776E61626C653A2063616C6C6572206973206E6F7420746865206F776E6572 PUSH1 0x0 DUP3 ADD MSTORE POP JUMP JUMPDEST PUSH32 0x45524332303A207472616E736665722066726F6D20746865207A65726F206164 PUSH1 0x0 DUP3 ADD MSTORE PUSH32 0x6472657373000000000000000000000000000000000000000000000000000000 PUSH1 0x20 DUP3 ADD MSTORE POP JUMP JUMPDEST PUSH32 0x45524332303A20617070726F76652066726F6D20746865207A65726F20616464 PUSH1 0x0 DUP3 ADD MSTORE PUSH32 0x7265737300000000000000000000000000000000000000000000000000000000 PUSH1 0x20 DUP3 ADD MSTORE POP JUMP JUMPDEST PUSH32 0x496E73756666696369656E742042616C616E636520666F722070757263686173 PUSH1 0x0 DUP3 ADD MSTORE PUSH32 0x6500000000000000000000000000000000000000000000000000000000000000 PUSH1 0x20 DUP3 ADD MSTORE POP JUMP JUMPDEST PUSH32 0x45524332303A2064656372656173656420616C6C6F77616E63652062656C6F77 PUSH1 0x0 DUP3 ADD MSTORE PUSH32 0x207A65726F000000000000000000000000000000000000000000000000000000 PUSH1 0x20 DUP3 ADD MSTORE POP JUMP JUMPDEST PUSH32 0x45524332303A206D696E7420746F20746865207A65726F206164647265737300 PUSH1 0x0 DUP3 ADD MSTORE POP JUMP JUMPDEST PUSH2 0x1D1C DUP2 PUSH2 0x18C8 JUMP JUMPDEST DUP2 EQ PUSH2 0x1D27 JUMPI PUSH1 0x0 DUP1 REVERT JUMPDEST POP JUMP JUMPDEST PUSH2 0x1D33 DUP2 PUSH2 0x1906 JUMP JUMPDEST DUP2 EQ PUSH2 0x1D3E JUMPI PUSH1 0x0 DUP1 REVERT JUMPDEST POP JUMP INVALID LOG2 PUSH5 0x6970667358 0x22 SLT KECCAK256 EXTCODEHASH 0xDB 0xB0 PUSH5 0x1ADD1DAC4C PUSH28 0x2C10D6EEE99CB48D82E8F12BC1DD9C72BC5D8A698F2364736F6C6343 STOP ADDMOD DIV STOP CALLER "
				},
				"gasEstimates": {
					"creation": {
						"codeDepositCost": "1508600",
						"executionCost": "infinite",
						"totalCost": "infinite"
					},
					"external": {
						"allowance(address,address)": "infinite",
						"approve(address,uint256)": "infinite",
						"balanceOf(address)": "1564",
						"buyToken(address)": "infinite",
						"decimals()": "388",
						"decreaseAllowance(address,uint256)": "infinite",
						"increaseAllowance(address,uint256)": "infinite",
						"mint(address,uint256)": "infinite",
						"name()": "infinite",
						"owner()": "1311",
						"rate()": "1152",
						"renounceOwnership()": "24419",
						"symbol()": "infinite",
						"totalSupply()": "1205",
						"transfer(address,uint256)": "infinite",
						"transferFrom(address,address,uint256)": "infinite",
						"transferOwnership(address)": "24833"
					}
				},
				"methodIdentifiers": {
					"allowance(address,address)": "dd62ed3e",
					"approve(address,uint256)": "095ea7b3",
					"balanceOf(address)": "70a08231",
					"buyToken(address)": "7e72fb52",
					"decimals()": "313ce567",
					"decreaseAllowance(address,uint256)": "a457c2d7",
					"increaseAllowance(address,uint256)": "39509351",
					"mint(address,uint256)": "40c10f19",
					"name()": "06fdde03",
					"owner()": "8da5cb5b",
					"rate()": "2c4e722e",
					"renounceOwnership()": "715018a6",
					"symbol()": "95d89b41",
					"totalSupply()": "18160ddd",
					"transfer(address,uint256)": "a9059cbb",
					"transferFrom(address,address,uint256)": "23b872dd",
					"transferOwnership(address)": "f2fde38b"
				}
			},
			"userdoc": {
				"kind": "user",
				"methods": {},
				"version": 1
			}
		}
	}
}