{
	"BlockGames_Task3/ypeterc20.sol": {
		"YPetToken": {
			"abi": [
				{
					"inputs": [
						{
							"internalType": "address payable",
							"name": "ypetwallet",
							"type": "address"
						}
					],
					"stateMutability": "nonpayable",
					"type": "constructor"
				},
				{
					"anonymous": false,
					"inputs": [
						{
							"indexed": true,
							"internalType": "address",
							"name": "owner",
							"type": "address"
						},
						{
							"indexed": true,
							"internalType": "address",
							"name": "spender",
							"type": "address"
						},
						{
							"indexed": false,
							"internalType": "uint256",
							"name": "value",
							"type": "uint256"
						}
					],
					"name": "Approval",
					"type": "event"
				},
				{
					"anonymous": false,
					"inputs": [
						{
							"indexed": true,
							"internalType": "address",
							"name": "previousOwner",
							"type": "address"
						},
						{
							"indexed": true,
							"internalType": "address",
							"name": "newOwner",
							"type": "address"
						}
					],
					"name": "OwnershipTransferred",
					"type": "event"
				},
				{
					"anonymous": false,
					"inputs": [
						{
							"indexed": true,
							"internalType": "address",
							"name": "from",
							"type": "address"
						},
						{
							"indexed": true,
							"internalType": "address",
							"name": "to",
							"type": "address"
						},
						{
							"indexed": false,
							"internalType": "uint256",
							"name": "value",
							"type": "uint256"
						}
					],
					"name": "Transfer",
					"type": "event"
				},
				{
					"anonymous": false,
					"inputs": [
						{
							"indexed": false,
							"internalType": "address",
							"name": "buyer",
							"type": "address"
						},
						{
							"indexed": false,
							"internalType": "address",
							"name": "receiver",
							"type": "address"
						},
						{
							"indexed": false,
							"internalType": "uint256",
							"name": "amountBuy",
							"type": "uint256"
						}
					],
					"name": "onBuy",
					"type": "event"
				},
				{
					"inputs": [
						{
							"internalType": "address",
							"name": "owner",
							"type": "address"
						},
						{
							"internalType": "address",
							"name": "spender",
							"type": "address"
						}
					],
					"name": "allowance",
					"outputs": [
						{
							"internalType": "uint256",
							"name": "",
							"type": "uint256"
						}
					],
					"stateMutability": "view",
					"type": "function"
				},
				{
					"inputs": [
						{
							"internalType": "address",
							"name": "spender",
							"type": "address"
						},
						{
							"internalType": "uint256",
							"name": "amount",
							"type": "uint256"
						}
					],
					"name": "approve",
					"outputs": [
						{
							"internalType": "bool",
							"name": "",
							"type": "bool"
						}
					],
					"stateMutability": "nonpayable",
					"type": "function"
				},
				{
					"inputs": [
						{
							"internalType": "address",
							"name": "account",
							"type": "address"
						}
					],
					"name": "balanceOf",
					"outputs": [
						{
							"internalType": "uint256",
							"name": "",
							"type": "uint256"
						}
					],
					"stateMutability": "view",
					"type": "function"
				},
				{
					"inputs": [
						{
							"internalType": "address",
							"name": "receiver",
							"type": "address"
						}
					],
					"name": "buyToken",
					"outputs": [],
					"stateMutability": "payable",
					"type": "function"
				},
				{
					"inputs": [],
					"name": "decimals",
					"outputs": [
						{
							"internalType": "uint8",
							"name": "",
							"type": "uint8"
						}
					],
					"stateMutability": "view",
					"type": "function"
				},
				{
					"inputs": [
						{
							"internalType": "address",
							"name": "spender",
							"type": "address"
						},
						{
							"internalType": "uint256",
							"name": "subtractedValue",
							"type": "uint256"
						}
					],
					"name": "decreaseAllowance",
					"outputs": [
						{
							"internalType": "bool",
							"name": "",
							"type": "bool"
						}
					],
					"stateMutability": "nonpayable",
					"type": "function"
				},
				{
					"inputs": [
						{
							"internalType": "address",
							"name": "spender",
							"type": "address"
						},
						{
							"internalType": "uint256",
							"name": "addedValue",
							"type": "uint256"
						}
					],
					"name": "increaseAllowance",
					"outputs": [
						{
							"internalType": "bool",
							"name": "",
							"type": "bool"
						}
					],
					"stateMutability": "nonpayable",
					"type": "function"
				},
				{
					"inputs": [
						{
							"internalType": "address",
							"name": "to",
							"type": "address"
						},
						{
							"internalType": "uint256",
							"name": "amount",
							"type": "uint256"
						}
					],
					"name": "mint",
					"outputs": [],
					"stateMutability": "nonpayable",
					"type": "function"
				},
				{
					"inputs": [],
					"name": "name",
					"outputs": [
						{
							"internalType": "string",
							"name": "",
							"type": "string"
						}
					],
					"stateMutability": "view",
					"type": "function"
				},
				{
					"inputs": [],
					"name": "owner",
					"outputs": [
						{
							"internalType": "address",
							"name": "",
							"type": "address"
						}
					],
					"stateMutability": "view",
					"type": "function"
				},
				{
					"inputs": [],
					"name": "rate",
					"outputs": [
						{
							"internalType": "uint256",
							"name": "",
							"type": "uint256"
						}
					],
					"stateMutability": "view",
					"type": "function"
				},
				{
					"inputs": [],
					"name": "renounceOwnership",
					"outputs": [],
					"stateMutability": "nonpayable",
					"type": "function"
				},
				{
					"inputs": [],
					"name": "symbol",
					"outputs": [
						{
							"internalType": "string",
							"name": "",
							"type": "string"
						}
					],
					"stateMutability": "view",
					"type": "function"
				},
				{
					"inputs": [],
					"name": "totalSupply",
					"outputs": [
						{
							"internalType": "uint256",
							"name": "",
							"type": "uint256"
						}
					],
					"stateMutability": "view",
					"type": "function"
				},
				{
					"inputs": [
						{
							"internalType": "address",
							"name": "to",
							"type": "address"
						},
						{
							"internalType": "uint256",
							"name": "amount",
							"type": "uint256"
						}
					],
					"name": "transfer",
					"outputs": [
						{
							"internalType": "bool",
							"name": "",
							"type": "bool"
						}
					],
					"stateMutability": "nonpayable",
					"type": "function"
				},
				{
					"inputs": [
						{
							"internalType": "address",
							"name": "from",
							"type": "address"
						},
						{
							"internalType": "address",
							"name": "to",
							"type": "address"
						},
						{
							"internalType": "uint256",
							"name": "amount",
							"type": "uint256"
						}
					],
					"name": "transferFrom",
					"outputs": [
						{
							"internalType": "bool",
							"name": "",
							"type": "bool"
						}
					],
					"stateMutability": "nonpayable",
					"type": "function"
				},
				{
					"inputs": [
						{
							"internalType": "address",
							"name": "newOwner",
							"type": "address"
						}
					],
					"name": "transferOwnership",
					"outputs": [],
					"stateMutability": "nonpayable",
					"type": "function"
				}
			],
			"devdoc": {
				"kind": "dev",
				"methods": {
					"allowance(address,address)": {
						"details": "See {IERC20-allowance}."
					},
					"approve(address,uint256)": {
						"details": "See {IERC20-approve}. NOTE: If `amount` is the maximum `uint256`, the allowance is not updated on `transferFrom`. This is semantically equivalent to an infinite approval. Requirements: - `spender` cannot be the zero address."
					},
					"balanceOf(address)": {
						"details": "See {IERC20-balanceOf}."
					},
					"decimals()": {
						"details": "Returns the number of decimals used to get its user representation. For example, if `decimals` equals `2`, a balance of `505` tokens should be displayed to a user as `5.05` (`505 / 10 ** 2`). Tokens usually opt for a value of 18, imitating the relationship between Ether and Wei. This is the value {ERC20} uses, unless this function is overridden; NOTE: This information is only used for _display_ purposes: it in no way affects any of the arithmetic of the contract, including {IERC20-balanceOf} and {IERC20-transfer}."
					},
					"decreaseAllowance(address,uint256)": {
						"details": "Atomically decreases the allowance granted to `spender` by the caller. This is an alternative to {approve} that can be used as a mitigation for problems described in {IERC20-approve}. Emits an {Approval} event indicating the updated allowance. Requirements: - `spender` cannot be the zero address. - `spender` must have allowance for the caller of at least `subtractedValue`."
					},
					"increaseAllowance(address,uint256)": {
						"details": "Atomically increases the allowance granted to `spender` by the caller. This is an alternative to {approve} that can be used as a mitigation for problems described in {IERC20-approve}. Emits an {Approval} event indicating the updated allowance. Requirements: - `spender` cannot be the zero address."
					},
					"name()": {
						"details": "Returns the name of the token."
					},
					"owner()": {
						"details": "Returns the address of the current owner."
					},
					"renounceOwnership()": {
						"details": "Leaves the contract without owner. It will not be possible to call `onlyOwner` functions anymore. Can only be called by the current owner. NOTE: Renouncing ownership will leave the contract without an owner, thereby removing any functionality that is only available to the owner."
					},
					"symbol()": {
						"details": "Returns the symbol of the token, usually a shorter version of the name."
					},
					"totalSupply()": {
						"details": "See {IERC20-totalSupply}."
					},
					"transfer(address,uint256)": {
						"details": "See {IERC20-transfer}. Requirements: - `to` cannot be the zero address. - the caller must have a balance of at least `amount`."
					},
					"transferFrom(address,address,uint256)": {
						"details": "See {IERC20-transferFrom}. Emits an {Approval} event indicating the updated allowance. This is not required by the EIP. See the note at the beginning of {ERC20}. NOTE: Does not update the allowance if the current allowance is the maximum `uint256`. Requirements: - `from` and `to` cannot be the zero address. - `from` must have a balance of at least `amount`. - the caller must have allowance for ``from``'s tokens of at least `amount`."
					},
					"transferOwnership(address)": {
						"details": "Transfers ownership of the contract to a new account (`newOwner`). Can only be called by the current owner."
					}
				},
				"version": 1
			},
			"evm": {
				"assembly": "    /* \"BlockGames_Task3/ypeterc20.sol\":173:1136  contract YPetToken is ERC20, Ownable {\r... */\n  mstore(0x40, 0x80)\n    /* \"BlockGames_Task3/ypeterc20.sol\":283:293  decimals() */\n  tag_1\n    /* \"BlockGames_Task3/ypeterc20.sol\":283:291  decimals */\n  shl(0x20, tag_2)\n    /* \"BlockGames_Task3/ypeterc20.sol\":283:293  decimals() */\n  0x20\n  shr\n  jump\t// in\ntag_1:\n    /* \"BlockGames_Task3/ypeterc20.sol\":279:281  10 */\n  0x0a\n    /* \"BlockGames_Task3/ypeterc20.sol\":279:293  10**decimals() */\n  tag_3\n  swap2\n  swap1\n  tag_4\n  jump\t// in\ntag_3:\n    /* \"BlockGames_Task3/ypeterc20.sol\":270:277  1000000 */\n  0x0f4240\n    /* \"BlockGames_Task3/ypeterc20.sol\":270:293  1000000* 10**decimals() */\n  tag_5\n  swap2\n  swap1\n  tag_6\n  jump\t// in\ntag_5:\n    /* \"BlockGames_Task3/ypeterc20.sol\":247:293  uint256 _totalSupply = 1000000* 10**decimals() */\n  0x07\n  sstore\n    /* \"BlockGames_Task3/ypeterc20.sol\":356:366  decimals() */\n  tag_7\n    /* \"BlockGames_Task3/ypeterc20.sol\":356:364  decimals */\n  shl(0x20, tag_2)\n    /* \"BlockGames_Task3/ypeterc20.sol\":356:366  decimals() */\n  0x20\n  shr\n  jump\t// in\ntag_7:\n    /* \"BlockGames_Task3/ypeterc20.sol\":352:354  10 */\n  0x0a\n    /* \"BlockGames_Task3/ypeterc20.sol\":352:366  10**decimals() */\n  tag_8\n  swap2\n  swap1\n  tag_4\n  jump\t// in\ntag_8:\n    /* \"BlockGames_Task3/ypeterc20.sol\":346:350  1000 */\n  0x03e8\n    /* \"BlockGames_Task3/ypeterc20.sol\":346:366  1000* 10**decimals() */\n  tag_9\n  swap2\n  swap1\n  tag_6\n  jump\t// in\ntag_9:\n    /* \"BlockGames_Task3/ypeterc20.sol\":324:366  uint256 public rate = 1000* 10**decimals() */\n  0x09\n  sstore\n    /* \"BlockGames_Task3/ypeterc20.sol\":447:596  constructor(address payable ypetwallet) ERC20(\"YPetToken\", \"YPTN\") {\r... */\n  callvalue\n  dup1\n  iszero\n  tag_10\n  jumpi\n  0x00\n  dup1\n  revert\ntag_10:\n  pop\n  mload(0x40)\n  sub(codesize, bytecodeSize)\n  dup1\n  bytecodeSize\n  dup4\n  codecopy\n  dup2\n  dup2\n  add\n  0x40\n  mstore\n  dup2\n  add\n  swap1\n  tag_11\n  swap2\n  swap1\n  tag_12\n  jump\t// in\ntag_11:\n    /* \"@openzeppelin/contracts/token/ERC20/ERC20.sol\":1978:2091  constructor(string memory name_, string memory symbol_) {... */\n  mload(0x40)\n  dup1\n  0x40\n  add\n  0x40\n  mstore\n  dup1\n  0x09\n  dup2\n  mstore\n  0x20\n  add\n  0x59506574546f6b656e0000000000000000000000000000000000000000000000\n  dup2\n  mstore\n  pop\n  mload(0x40)\n  dup1\n  0x40\n  add\n  0x40\n  mstore\n  dup1\n  0x04\n  dup2\n  mstore\n  0x20\n  add\n  0x5950544e00000000000000000000000000000000000000000000000000000000\n  dup2\n  mstore\n  pop\n    /* \"@openzeppelin/contracts/token/ERC20/ERC20.sol\":2052:2057  name_ */\n  dup2\n    /* \"@openzeppelin/contracts/token/ERC20/ERC20.sol\":2044:2049  _name */\n  0x03\n    /* \"@openzeppelin/contracts/token/ERC20/ERC20.sol\":2044:2057  _name = name_ */\n  swap1\n  dup1\n  mload\n  swap1\n  0x20\n  add\n  swap1\n  tag_17\n  swap3\n  swap2\n  swap1\n  tag_18\n  jump\t// in\ntag_17:\n  pop\n    /* \"@openzeppelin/contracts/token/ERC20/ERC20.sol\":2077:2084  symbol_ */\n  dup1\n    /* \"@openzeppelin/contracts/token/ERC20/ERC20.sol\":2067:2074  _symbol */\n  0x04\n    /* \"@openzeppelin/contracts/token/ERC20/ERC20.sol\":2067:2084  _symbol = symbol_ */\n  swap1\n  dup1\n  mload\n  swap1\n  0x20\n  add\n  swap1\n  tag_19\n  swap3\n  swap2\n  swap1\n  tag_18\n  jump\t// in\ntag_19:\n  pop\n    /* \"@openzeppelin/contracts/token/ERC20/ERC20.sol\":1978:2091  constructor(string memory name_, string memory symbol_) {... */\n  pop\n  pop\n    /* \"@openzeppelin/contracts/access/Ownable.sol\":921:953  _transferOwnership(_msgSender()) */\n  tag_21\n    /* \"@openzeppelin/contracts/access/Ownable.sol\":940:952  _msgSender() */\n  tag_22\n    /* \"@openzeppelin/contracts/access/Ownable.sol\":940:950  _msgSender */\n  shl(0x20, tag_23)\n    /* \"@openzeppelin/contracts/access/Ownable.sol\":940:952  _msgSender() */\n  0x20\n  shr\n  jump\t// in\ntag_22:\n    /* \"@openzeppelin/contracts/access/Ownable.sol\":921:939  _transferOwnership */\n  shl(0x20, tag_24)\n    /* \"@openzeppelin/contracts/access/Ownable.sol\":921:953  _transferOwnership(_msgSender()) */\n  0x20\n  shr\n  jump\t// in\ntag_21:\n    /* \"BlockGames_Task3/ypeterc20.sol\":535:545  ypetwallet */\n  dup1\n    /* \"BlockGames_Task3/ypeterc20.sol\":525:532  yWallet */\n  0x06\n  0x00\n    /* \"BlockGames_Task3/ypeterc20.sol\":525:545  yWallet = ypetwallet */\n  0x0100\n  exp\n  dup2\n  sload\n  dup2\n  0xffffffffffffffffffffffffffffffffffffffff\n  mul\n  not\n  and\n  swap1\n  dup4\n  0xffffffffffffffffffffffffffffffffffffffff\n  and\n  mul\n  or\n  swap1\n  sstore\n  pop\n    /* \"BlockGames_Task3/ypeterc20.sol\":556:588  _mint(msg.sender, _totalSupply ) */\n  tag_26\n    /* \"BlockGames_Task3/ypeterc20.sol\":562:572  msg.sender */\n  caller\n    /* \"BlockGames_Task3/ypeterc20.sol\":574:586  _totalSupply */\n  sload(0x07)\n    /* \"BlockGames_Task3/ypeterc20.sol\":556:561  _mint */\n  shl(0x20, tag_27)\n    /* \"BlockGames_Task3/ypeterc20.sol\":556:588  _mint(msg.sender, _totalSupply ) */\n  0x20\n  shr\n  jump\t// in\ntag_26:\n    /* \"BlockGames_Task3/ypeterc20.sol\":447:596  constructor(address payable ypetwallet) ERC20(\"YPetToken\", \"YPTN\") {\r... */\n  pop\n    /* \"BlockGames_Task3/ypeterc20.sol\":173:1136  contract YPetToken is ERC20, Ownable {\r... */\n  jump(tag_28)\n    /* \"@openzeppelin/contracts/token/ERC20/ERC20.sol\":3093:3184  function decimals() public view virtual override returns (uint8) {... */\ntag_2:\n    /* \"@openzeppelin/contracts/token/ERC20/ERC20.sol\":3151:3156  uint8 */\n  0x00\n    /* \"@openzeppelin/contracts/token/ERC20/ERC20.sol\":3175:3177  18 */\n  0x12\n    /* \"@openzeppelin/contracts/token/ERC20/ERC20.sol\":3168:3177  return 18 */\n  swap1\n  pop\n    /* \"@openzeppelin/contracts/token/ERC20/ERC20.sol\":3093:3184  function decimals() public view virtual override returns (uint8) {... */\n  swap1\n  jump\t// out\n    /* \"@openzeppelin/contracts/utils/Context.sol\":640:736  function _msgSender() internal view virtual returns (address) {... */\ntag_23:\n    /* \"@openzeppelin/contracts/utils/Context.sol\":693:700  address */\n  0x00\n    /* \"@openzeppelin/contracts/utils/Context.sol\":719:729  msg.sender */\n  caller\n    /* \"@openzeppelin/contracts/utils/Context.sol\":712:729  return msg.sender */\n  swap1\n  pop\n    /* \"@openzeppelin/contracts/utils/Context.sol\":640:736  function _msgSender() internal view virtual returns (address) {... */\n  swap1\n  jump\t// out\n    /* \"@openzeppelin/contracts/access/Ownable.sol\":2270:2457  function _transferOwnership(address newOwner) internal virtual {... */\ntag_24:\n    /* \"@openzeppelin/contracts/access/Ownable.sol\":2343:2359  address oldOwner */\n  0x00\n    /* \"@openzeppelin/contracts/access/Ownable.sol\":2362:2368  _owner */\n  0x05\n  0x00\n  swap1\n  sload\n  swap1\n  0x0100\n  exp\n  swap1\n  div\n  0xffffffffffffffffffffffffffffffffffffffff\n  and\n    /* \"@openzeppelin/contracts/access/Ownable.sol\":2343:2368  address oldOwner = _owner */\n  swap1\n  pop\n    /* \"@openzeppelin/contracts/access/Ownable.sol\":2387:2395  newOwner */\n  dup2\n    /* \"@openzeppelin/contracts/access/Ownable.sol\":2378:2384  _owner */\n  0x05\n  0x00\n    /* \"@openzeppelin/contracts/access/Ownable.sol\":2378:2395  _owner = newOwner */\n  0x0100\n  exp\n  dup2\n  sload\n  dup2\n  0xffffffffffffffffffffffffffffffffffffffff\n  mul\n  not\n  and\n  swap1\n  dup4\n  0xffffffffffffffffffffffffffffffffffffffff\n  and\n  mul\n  or\n  swap1\n  sstore\n  pop\n    /* \"@openzeppelin/contracts/access/Ownable.sol\":2441:2449  newOwner */\n  dup2\n    /* \"@openzeppelin/contracts/access/Ownable.sol\":2410:2450  OwnershipTransferred(oldOwner, newOwner) */\n  0xffffffffffffffffffffffffffffffffffffffff\n  and\n    /* \"@openzeppelin/contracts/access/Ownable.sol\":2431:2439  oldOwner */\n  dup2\n    /* \"@openzeppelin/contracts/access/Ownable.sol\":2410:2450  OwnershipTransferred(oldOwner, newOwner) */\n  0xffffffffffffffffffffffffffffffffffffffff\n  and\n  0x8be0079c531659141344cd1fd0a4f28419497f9722a3daafe3b4186f6b6457e0\n  mload(0x40)\n  mload(0x40)\n  dup1\n  swap2\n  sub\n  swap1\n  log3\n    /* \"@openzeppelin/contracts/access/Ownable.sol\":2270:2457  function _transferOwnership(address newOwner) internal virtual {... */\n  pop\n  pop\n  jump\t// out\n    /* \"@openzeppelin/contracts/token/ERC20/ERC20.sol\":8415:8804  function _mint(address account, uint256 amount) internal virtual {... */\ntag_27:\n    /* \"@openzeppelin/contracts/token/ERC20/ERC20.sol\":8517:8518  0 */\n  0x00\n    /* \"@openzeppelin/contracts/token/ERC20/ERC20.sol\":8498:8519  account != address(0) */\n  0xffffffffffffffffffffffffffffffffffffffff\n  and\n    /* \"@openzeppelin/contracts/token/ERC20/ERC20.sol\":8498:8505  account */\n  dup3\n    /* \"@openzeppelin/contracts/token/ERC20/ERC20.sol\":8498:8519  account != address(0) */\n  0xffffffffffffffffffffffffffffffffffffffff\n  and\n  eq\n  iszero\n    /* \"@openzeppelin/contracts/token/ERC20/ERC20.sol\":8490:8555  require(account != address(0), \"ERC20: mint to the zero address\") */\n  tag_33\n  jumpi\n  mload(0x40)\n  0x08c379a000000000000000000000000000000000000000000000000000000000\n  dup2\n  mstore\n  0x04\n  add\n  tag_34\n  swap1\n  tag_35\n  jump\t// in\ntag_34:\n  mload(0x40)\n  dup1\n  swap2\n  sub\n  swap1\n  revert\ntag_33:\n    /* \"@openzeppelin/contracts/token/ERC20/ERC20.sol\":8566:8615  _beforeTokenTransfer(address(0), account, amount) */\n  tag_36\n    /* \"@openzeppelin/contracts/token/ERC20/ERC20.sol\":8595:8596  0 */\n  0x00\n    /* \"@openzeppelin/contracts/token/ERC20/ERC20.sol\":8599:8606  account */\n  dup4\n    /* \"@openzeppelin/contracts/token/ERC20/ERC20.sol\":8608:8614  amount */\n  dup4\n    /* \"@openzeppelin/contracts/token/ERC20/ERC20.sol\":8566:8586  _beforeTokenTransfer */\n  shl(0x20, tag_37)\n    /* \"@openzeppelin/contracts/token/ERC20/ERC20.sol\":8566:8615  _beforeTokenTransfer(address(0), account, amount) */\n  0x20\n  shr\n  jump\t// in\ntag_36:\n    /* \"@openzeppelin/contracts/token/ERC20/ERC20.sol\":8642:8648  amount */\n  dup1\n    /* \"@openzeppelin/contracts/token/ERC20/ERC20.sol\":8626:8638  _totalSupply */\n  0x02\n  0x00\n    /* \"@openzeppelin/contracts/token/ERC20/ERC20.sol\":8626:8648  _totalSupply += amount */\n  dup3\n  dup3\n  sload\n  tag_38\n  swap2\n  swap1\n  tag_39\n  jump\t// in\ntag_38:\n  swap3\n  pop\n  pop\n  dup2\n  swap1\n  sstore\n  pop\n    /* \"@openzeppelin/contracts/token/ERC20/ERC20.sol\":8680:8686  amount */\n  dup1\n    /* \"@openzeppelin/contracts/token/ERC20/ERC20.sol\":8658:8667  _balances */\n  0x00\n    /* \"@openzeppelin/contracts/token/ERC20/ERC20.sol\":8658:8676  _balances[account] */\n  dup1\n    /* \"@openzeppelin/contracts/token/ERC20/ERC20.sol\":8668:8675  account */\n  dup5\n    /* \"@openzeppelin/contracts/token/ERC20/ERC20.sol\":8658:8676  _balances[account] */\n  0xffffffffffffffffffffffffffffffffffffffff\n  and\n  0xffffffffffffffffffffffffffffffffffffffff\n  and\n  dup2\n  mstore\n  0x20\n  add\n  swap1\n  dup2\n  mstore\n  0x20\n  add\n  0x00\n  keccak256\n  0x00\n    /* \"@openzeppelin/contracts/token/ERC20/ERC20.sol\":8658:8686  _balances[account] += amount */\n  dup3\n  dup3\n  sload\n  tag_40\n  swap2\n  swap1\n  tag_39\n  jump\t// in\ntag_40:\n  swap3\n  pop\n  pop\n  dup2\n  swap1\n  sstore\n  pop\n    /* \"@openzeppelin/contracts/token/ERC20/ERC20.sol\":8722:8729  account */\n  dup2\n    /* \"@openzeppelin/contracts/token/ERC20/ERC20.sol\":8701:8738  Transfer(address(0), account, amount) */\n  0xffffffffffffffffffffffffffffffffffffffff\n  and\n    /* \"@openzeppelin/contracts/token/ERC20/ERC20.sol\":8718:8719  0 */\n  0x00\n    /* \"@openzeppelin/contracts/token/ERC20/ERC20.sol\":8701:8738  Transfer(address(0), account, amount) */\n  0xffffffffffffffffffffffffffffffffffffffff\n  and\n  0xddf252ad1be2c89b69c2b068fc378daa952ba7f163c4a11628f55a4df523b3ef\n    /* \"@openzeppelin/contracts/token/ERC20/ERC20.sol\":8731:8737  amount */\n  dup4\n    /* \"@openzeppelin/contracts/token/ERC20/ERC20.sol\":8701:8738  Transfer(address(0), account, amount) */\n  mload(0x40)\n  tag_41\n  swap2\n  swap1\n  tag_42\n  jump\t// in\ntag_41:\n  mload(0x40)\n  dup1\n  swap2\n  sub\n  swap1\n  log3\n    /* \"@openzeppelin/contracts/token/ERC20/ERC20.sol\":8749:8797  _afterTokenTransfer(address(0), account, amount) */\n  tag_43\n    /* \"@openzeppelin/contracts/token/ERC20/ERC20.sol\":8777:8778  0 */\n  0x00\n    /* \"@openzeppelin/contracts/token/ERC20/ERC20.sol\":8781:8788  account */\n  dup4\n    /* \"@openzeppelin/contracts/token/ERC20/ERC20.sol\":8790:8796  amount */\n  dup4\n    /* \"@openzeppelin/contracts/token/ERC20/ERC20.sol\":8749:8768  _afterTokenTransfer */\n  shl(0x20, tag_44)\n    /* \"@openzeppelin/contracts/token/ERC20/ERC20.sol\":8749:8797  _afterTokenTransfer(address(0), account, amount) */\n  0x20\n  shr\n  jump\t// in\ntag_43:\n    /* \"@openzeppelin/contracts/token/ERC20/ERC20.sol\":8415:8804  function _mint(address account, uint256 amount) internal virtual {... */\n  pop\n  pop\n  jump\t// out\n    /* \"@openzeppelin/contracts/token/ERC20/ERC20.sol\":11795:11916  function _beforeTokenTransfer(... */\ntag_37:\n  pop\n  pop\n  pop\n  jump\t// out\n    /* \"@openzeppelin/contracts/token/ERC20/ERC20.sol\":12504:12624  function _afterTokenTransfer(... */\ntag_44:\n  pop\n  pop\n  pop\n  jump\t// out\n    /* \"BlockGames_Task3/ypeterc20.sol\":173:1136  contract YPetToken is ERC20, Ownable {\r... */\ntag_18:\n  dup3\n  dup1\n  sload\n  tag_47\n  swap1\n  tag_48\n  jump\t// in\ntag_47:\n  swap1\n  0x00\n  mstore\n  keccak256(0x00, 0x20)\n  swap1\n  0x1f\n  add\n  0x20\n  swap1\n  div\n  dup2\n  add\n  swap3\n  dup3\n  tag_50\n  jumpi\n  0x00\n  dup6\n  sstore\n  jump(tag_49)\ntag_50:\n  dup3\n  0x1f\n  lt\n  tag_51\n  jumpi\n  dup1\n  mload\n  not(0xff)\n  and\n  dup4\n  dup1\n  add\n  or\n  dup6\n  sstore\n  jump(tag_49)\ntag_51:\n  dup3\n  dup1\n  add\n  0x01\n  add\n  dup6\n  sstore\n  dup3\n  iszero\n  tag_49\n  jumpi\n  swap2\n  dup3\n  add\ntag_52:\n  dup3\n  dup2\n  gt\n  iszero\n  tag_53\n  jumpi\n  dup3\n  mload\n  dup3\n  sstore\n  swap2\n  0x20\n  add\n  swap2\n  swap1\n  0x01\n  add\n  swap1\n  jump(tag_52)\ntag_53:\ntag_49:\n  pop\n  swap1\n  pop\n  tag_54\n  swap2\n  swap1\n  tag_55\n  jump\t// in\ntag_54:\n  pop\n  swap1\n  jump\t// out\ntag_55:\ntag_56:\n  dup1\n  dup3\n  gt\n  iszero\n  tag_57\n  jumpi\n  0x00\n  dup2\n  0x00\n  swap1\n  sstore\n  pop\n  0x01\n  add\n  jump(tag_56)\ntag_57:\n  pop\n  swap1\n  jump\t// out\n    /* \"#utility.yul\":7:166   */\ntag_59:\n    /* \"#utility.yul\":72:77   */\n  0x00\n    /* \"#utility.yul\":103:109   */\n  dup2\n    /* \"#utility.yul\":97:110   */\n  mload\n    /* \"#utility.yul\":88:110   */\n  swap1\n  pop\n    /* \"#utility.yul\":119:160   */\n  tag_61\n    /* \"#utility.yul\":154:159   */\n  dup2\n    /* \"#utility.yul\":119:160   */\n  tag_62\n  jump\t// in\ntag_61:\n    /* \"#utility.yul\":78:166   */\n  swap3\n  swap2\n  pop\n  pop\n  jump\t// out\n    /* \"#utility.yul\":172:472   */\ntag_12:\n    /* \"#utility.yul\":250:256   */\n  0x00\n    /* \"#utility.yul\":299:301   */\n  0x20\n    /* \"#utility.yul\":287:296   */\n  dup3\n    /* \"#utility.yul\":278:285   */\n  dup5\n    /* \"#utility.yul\":274:297   */\n  sub\n    /* \"#utility.yul\":270:302   */\n  slt\n    /* \"#utility.yul\":267:269   */\n  iszero\n  tag_64\n  jumpi\n    /* \"#utility.yul\":315:316   */\n  0x00\n    /* \"#utility.yul\":312:313   */\n  dup1\n    /* \"#utility.yul\":305:317   */\n  revert\n    /* \"#utility.yul\":267:269   */\ntag_64:\n    /* \"#utility.yul\":358:359   */\n  0x00\n    /* \"#utility.yul\":383:455   */\n  tag_65\n    /* \"#utility.yul\":447:454   */\n  dup5\n    /* \"#utility.yul\":438:444   */\n  dup3\n    /* \"#utility.yul\":427:436   */\n  dup6\n    /* \"#utility.yul\":423:445   */\n  add\n    /* \"#utility.yul\":383:455   */\n  tag_59\n  jump\t// in\ntag_65:\n    /* \"#utility.yul\":373:455   */\n  swap2\n  pop\n    /* \"#utility.yul\":329:465   */\n  pop\n    /* \"#utility.yul\":257:472   */\n  swap3\n  swap2\n  pop\n  pop\n  jump\t// out\n    /* \"#utility.yul\":478:844   */\ntag_66:\n    /* \"#utility.yul\":620:623   */\n  0x00\n    /* \"#utility.yul\":641:708   */\n  tag_68\n    /* \"#utility.yul\":705:707   */\n  0x1f\n    /* \"#utility.yul\":700:703   */\n  dup4\n    /* \"#utility.yul\":641:708   */\n  tag_69\n  jump\t// in\ntag_68:\n    /* \"#utility.yul\":634:708   */\n  swap2\n  pop\n    /* \"#utility.yul\":717:810   */\n  tag_70\n    /* \"#utility.yul\":806:809   */\n  dup3\n    /* \"#utility.yul\":717:810   */\n  tag_71\n  jump\t// in\ntag_70:\n    /* \"#utility.yul\":835:837   */\n  0x20\n    /* \"#utility.yul\":830:833   */\n  dup3\n    /* \"#utility.yul\":826:838   */\n  add\n    /* \"#utility.yul\":819:838   */\n  swap1\n  pop\n    /* \"#utility.yul\":624:844   */\n  swap2\n  swap1\n  pop\n  jump\t// out\n    /* \"#utility.yul\":850:968   */\ntag_72:\n    /* \"#utility.yul\":937:961   */\n  tag_74\n    /* \"#utility.yul\":955:960   */\n  dup2\n    /* \"#utility.yul\":937:961   */\n  tag_75\n  jump\t// in\ntag_74:\n    /* \"#utility.yul\":932:935   */\n  dup3\n    /* \"#utility.yul\":925:962   */\n  mstore\n    /* \"#utility.yul\":915:968   */\n  pop\n  pop\n  jump\t// out\n    /* \"#utility.yul\":974:1393   */\ntag_35:\n    /* \"#utility.yul\":1140:1144   */\n  0x00\n    /* \"#utility.yul\":1178:1180   */\n  0x20\n    /* \"#utility.yul\":1167:1176   */\n  dup3\n    /* \"#utility.yul\":1163:1181   */\n  add\n    /* \"#utility.yul\":1155:1181   */\n  swap1\n  pop\n    /* \"#utility.yul\":1227:1236   */\n  dup2\n    /* \"#utility.yul\":1221:1225   */\n  dup2\n    /* \"#utility.yul\":1217:1237   */\n  sub\n    /* \"#utility.yul\":1213:1214   */\n  0x00\n    /* \"#utility.yul\":1202:1211   */\n  dup4\n    /* \"#utility.yul\":1198:1215   */\n  add\n    /* \"#utility.yul\":1191:1238   */\n  mstore\n    /* \"#utility.yul\":1255:1386   */\n  tag_77\n    /* \"#utility.yul\":1381:1385   */\n  dup2\n    /* \"#utility.yul\":1255:1386   */\n  tag_66\n  jump\t// in\ntag_77:\n    /* \"#utility.yul\":1247:1386   */\n  swap1\n  pop\n    /* \"#utility.yul\":1145:1393   */\n  swap2\n  swap1\n  pop\n  jump\t// out\n    /* \"#utility.yul\":1399:1621   */\ntag_42:\n    /* \"#utility.yul\":1492:1496   */\n  0x00\n    /* \"#utility.yul\":1530:1532   */\n  0x20\n    /* \"#utility.yul\":1519:1528   */\n  dup3\n    /* \"#utility.yul\":1515:1533   */\n  add\n    /* \"#utility.yul\":1507:1533   */\n  swap1\n  pop\n    /* \"#utility.yul\":1543:1614   */\n  tag_79\n    /* \"#utility.yul\":1611:1612   */\n  0x00\n    /* \"#utility.yul\":1600:1609   */\n  dup4\n    /* \"#utility.yul\":1596:1613   */\n  add\n    /* \"#utility.yul\":1587:1593   */\n  dup5\n    /* \"#utility.yul\":1543:1614   */\n  tag_72\n  jump\t// in\ntag_79:\n    /* \"#utility.yul\":1497:1621   */\n  swap3\n  swap2\n  pop\n  pop\n  jump\t// out\n    /* \"#utility.yul\":1627:1796   */\ntag_69:\n    /* \"#utility.yul\":1711:1722   */\n  0x00\n    /* \"#utility.yul\":1745:1751   */\n  dup3\n    /* \"#utility.yul\":1740:1743   */\n  dup3\n    /* \"#utility.yul\":1733:1752   */\n  mstore\n    /* \"#utility.yul\":1785:1789   */\n  0x20\n    /* \"#utility.yul\":1780:1783   */\n  dup3\n    /* \"#utility.yul\":1776:1790   */\n  add\n    /* \"#utility.yul\":1761:1790   */\n  swap1\n  pop\n    /* \"#utility.yul\":1723:1796   */\n  swap3\n  swap2\n  pop\n  pop\n  jump\t// out\n    /* \"#utility.yul\":1802:2107   */\ntag_39:\n    /* \"#utility.yul\":1842:1845   */\n  0x00\n    /* \"#utility.yul\":1861:1881   */\n  tag_82\n    /* \"#utility.yul\":1879:1880   */\n  dup3\n    /* \"#utility.yul\":1861:1881   */\n  tag_75\n  jump\t// in\ntag_82:\n    /* \"#utility.yul\":1856:1881   */\n  swap2\n  pop\n    /* \"#utility.yul\":1895:1915   */\n  tag_83\n    /* \"#utility.yul\":1913:1914   */\n  dup4\n    /* \"#utility.yul\":1895:1915   */\n  tag_75\n  jump\t// in\ntag_83:\n    /* \"#utility.yul\":1890:1915   */\n  swap3\n  pop\n    /* \"#utility.yul\":2049:2050   */\n  dup3\n    /* \"#utility.yul\":1981:2047   */\n  0xffffffffffffffffffffffffffffffffffffffffffffffffffffffffffffffff\n    /* \"#utility.yul\":1977:2051   */\n  sub\n    /* \"#utility.yul\":1974:1975   */\n  dup3\n    /* \"#utility.yul\":1971:2052   */\n  gt\n    /* \"#utility.yul\":1968:1970   */\n  iszero\n  tag_84\n  jumpi\n    /* \"#utility.yul\":2055:2073   */\n  tag_85\n  tag_86\n  jump\t// in\ntag_85:\n    /* \"#utility.yul\":1968:1970   */\ntag_84:\n    /* \"#utility.yul\":2099:2100   */\n  dup3\n    /* \"#utility.yul\":2096:2097   */\n  dup3\n    /* \"#utility.yul\":2092:2101   */\n  add\n    /* \"#utility.yul\":2085:2101   */\n  swap1\n  pop\n    /* \"#utility.yul\":1846:2107   */\n  swap3\n  swap2\n  pop\n  pop\n  jump\t// out\n    /* \"#utility.yul\":2113:2961   */\ntag_87:\n    /* \"#utility.yul\":2174:2179   */\n  0x00\n    /* \"#utility.yul\":2181:2185   */\n  dup1\n    /* \"#utility.yul\":2205:2211   */\n  dup3\n    /* \"#utility.yul\":2196:2211   */\n  swap2\n  pop\n    /* \"#utility.yul\":2229:2234   */\n  dup4\n    /* \"#utility.yul\":2220:2234   */\n  swap1\n  pop\n    /* \"#utility.yul\":2243:2955   */\ntag_89:\n    /* \"#utility.yul\":2264:2265   */\n  0x01\n    /* \"#utility.yul\":2254:2262   */\n  dup6\n    /* \"#utility.yul\":2251:2266   */\n  gt\n    /* \"#utility.yul\":2243:2955   */\n  iszero\n  tag_91\n  jumpi\n    /* \"#utility.yul\":2359:2363   */\n  dup1\n    /* \"#utility.yul\":2354:2357   */\n  dup7\n    /* \"#utility.yul\":2350:2364   */\n  div\n    /* \"#utility.yul\":2344:2348   */\n  dup2\n    /* \"#utility.yul\":2341:2365   */\n  gt\n    /* \"#utility.yul\":2338:2340   */\n  iszero\n  tag_92\n  jumpi\n    /* \"#utility.yul\":2368:2386   */\n  tag_93\n  tag_86\n  jump\t// in\ntag_93:\n    /* \"#utility.yul\":2338:2340   */\ntag_92:\n    /* \"#utility.yul\":2418:2419   */\n  0x01\n    /* \"#utility.yul\":2408:2416   */\n  dup6\n    /* \"#utility.yul\":2404:2420   */\n  and\n    /* \"#utility.yul\":2401:2403   */\n  iszero\n  tag_94\n  jumpi\n    /* \"#utility.yul\":2833:2837   */\n  dup1\n    /* \"#utility.yul\":2826:2831   */\n  dup3\n    /* \"#utility.yul\":2822:2838   */\n  mul\n    /* \"#utility.yul\":2813:2838   */\n  swap2\n  pop\n    /* \"#utility.yul\":2401:2403   */\ntag_94:\n    /* \"#utility.yul\":2883:2887   */\n  dup1\n    /* \"#utility.yul\":2877:2881   */\n  dup2\n    /* \"#utility.yul\":2873:2888   */\n  mul\n    /* \"#utility.yul\":2865:2888   */\n  swap1\n  pop\n    /* \"#utility.yul\":2913:2945   */\n  tag_95\n    /* \"#utility.yul\":2936:2944   */\n  dup6\n    /* \"#utility.yul\":2913:2945   */\n  tag_96\n  jump\t// in\ntag_95:\n    /* \"#utility.yul\":2901:2945   */\n  swap5\n  pop\n    /* \"#utility.yul\":2243:2955   */\n  jump(tag_89)\ntag_91:\n    /* \"#utility.yul\":2186:2961   */\n  swap5\n  pop\n  swap5\n  swap3\n  pop\n  pop\n  pop\n  jump\t// out\n    /* \"#utility.yul\":2967:3248   */\ntag_4:\n    /* \"#utility.yul\":3025:3030   */\n  0x00\n    /* \"#utility.yul\":3049:3072   */\n  tag_98\n    /* \"#utility.yul\":3067:3071   */\n  dup3\n    /* \"#utility.yul\":3049:3072   */\n  tag_75\n  jump\t// in\ntag_98:\n    /* \"#utility.yul\":3041:3072   */\n  swap2\n  pop\n    /* \"#utility.yul\":3093:3118   */\n  tag_99\n    /* \"#utility.yul\":3109:3117   */\n  dup4\n    /* \"#utility.yul\":3093:3118   */\n  tag_100\n  jump\t// in\ntag_99:\n    /* \"#utility.yul\":3081:3118   */\n  swap3\n  pop\n    /* \"#utility.yul\":3137:3241   */\n  tag_101\n    /* \"#utility.yul\":3174:3240   */\n  0xffffffffffffffffffffffffffffffffffffffffffffffffffffffffffffffff\n    /* \"#utility.yul\":3164:3172   */\n  dup5\n    /* \"#utility.yul\":3158:3162   */\n  dup5\n    /* \"#utility.yul\":3137:3241   */\n  tag_102\n  jump\t// in\ntag_101:\n    /* \"#utility.yul\":3128:3241   */\n  swap1\n  pop\n    /* \"#utility.yul\":3031:3248   */\n  swap3\n  swap2\n  pop\n  pop\n  jump\t// out\n    /* \"#utility.yul\":3254:4327   */\ntag_102:\n    /* \"#utility.yul\":3308:3313   */\n  0x00\n    /* \"#utility.yul\":3499:3507   */\n  dup3\n    /* \"#utility.yul\":3489:3491   */\n  tag_104\n  jumpi\n    /* \"#utility.yul\":3520:3521   */\n  0x01\n    /* \"#utility.yul\":3511:3521   */\n  swap1\n  pop\n    /* \"#utility.yul\":3522:3527   */\n  jump(tag_103)\n    /* \"#utility.yul\":3489:3491   */\ntag_104:\n    /* \"#utility.yul\":3548:3552   */\n  dup2\n    /* \"#utility.yul\":3538:3540   */\n  tag_105\n  jumpi\n    /* \"#utility.yul\":3565:3566   */\n  0x00\n    /* \"#utility.yul\":3556:3566   */\n  swap1\n  pop\n    /* \"#utility.yul\":3567:3572   */\n  jump(tag_103)\n    /* \"#utility.yul\":3538:3540   */\ntag_105:\n    /* \"#utility.yul\":3634:3638   */\n  dup2\n    /* \"#utility.yul\":3682:3683   */\n  0x01\n    /* \"#utility.yul\":3677:3704   */\n  dup2\n  eq\n  tag_107\n  jumpi\n    /* \"#utility.yul\":3718:3719   */\n  0x02\n    /* \"#utility.yul\":3713:3904   */\n  dup2\n  eq\n  tag_108\n  jumpi\n    /* \"#utility.yul\":3627:3904   */\n  jump(tag_106)\n    /* \"#utility.yul\":3677:3704   */\ntag_107:\n    /* \"#utility.yul\":3695:3696   */\n  0x01\n    /* \"#utility.yul\":3686:3696   */\n  swap2\n  pop\n    /* \"#utility.yul\":3697:3702   */\n  pop\n  jump(tag_103)\n    /* \"#utility.yul\":3713:3904   */\ntag_108:\n    /* \"#utility.yul\":3758:3761   */\n  0xff\n    /* \"#utility.yul\":3748:3756   */\n  dup5\n    /* \"#utility.yul\":3745:3762   */\n  gt\n    /* \"#utility.yul\":3742:3744   */\n  iszero\n  tag_109\n  jumpi\n    /* \"#utility.yul\":3765:3783   */\n  tag_110\n  tag_86\n  jump\t// in\ntag_110:\n    /* \"#utility.yul\":3742:3744   */\ntag_109:\n    /* \"#utility.yul\":3814:3822   */\n  dup4\n    /* \"#utility.yul\":3811:3812   */\n  0x02\n    /* \"#utility.yul\":3807:3823   */\n  exp\n    /* \"#utility.yul\":3798:3823   */\n  swap2\n  pop\n    /* \"#utility.yul\":3849:3852   */\n  dup5\n    /* \"#utility.yul\":3842:3847   */\n  dup3\n    /* \"#utility.yul\":3839:3853   */\n  gt\n    /* \"#utility.yul\":3836:3838   */\n  iszero\n  tag_111\n  jumpi\n    /* \"#utility.yul\":3856:3874   */\n  tag_112\n  tag_86\n  jump\t// in\ntag_112:\n    /* \"#utility.yul\":3836:3838   */\ntag_111:\n    /* \"#utility.yul\":3889:3894   */\n  pop\n  jump(tag_103)\n    /* \"#utility.yul\":3627:3904   */\ntag_106:\n  pop\n    /* \"#utility.yul\":4013:4015   */\n  0x20\n    /* \"#utility.yul\":4003:4011   */\n  dup4\n    /* \"#utility.yul\":4000:4016   */\n  lt\n    /* \"#utility.yul\":3994:3997   */\n  0x0133\n    /* \"#utility.yul\":3988:3992   */\n  dup4\n    /* \"#utility.yul\":3985:3998   */\n  lt\n    /* \"#utility.yul\":3981:4017   */\n  and\n    /* \"#utility.yul\":3963:3965   */\n  0x4e\n    /* \"#utility.yul\":3953:3961   */\n  dup5\n    /* \"#utility.yul\":3950:3966   */\n  lt\n    /* \"#utility.yul\":3945:3947   */\n  0x0b\n    /* \"#utility.yul\":3939:3943   */\n  dup5\n    /* \"#utility.yul\":3936:3948   */\n  lt\n    /* \"#utility.yul\":3932:3967   */\n  and\n    /* \"#utility.yul\":3916:4027   */\n  or\n    /* \"#utility.yul\":3913:3915   */\n  iszero\n  tag_113\n  jumpi\n    /* \"#utility.yul\":4069:4077   */\n  dup3\n    /* \"#utility.yul\":4063:4067   */\n  dup3\n    /* \"#utility.yul\":4059:4078   */\n  exp\n    /* \"#utility.yul\":4050:4078   */\n  swap1\n  pop\n    /* \"#utility.yul\":4104:4107   */\n  dup4\n    /* \"#utility.yul\":4097:4102   */\n  dup2\n    /* \"#utility.yul\":4094:4108   */\n  gt\n    /* \"#utility.yul\":4091:4093   */\n  iszero\n  tag_114\n  jumpi\n    /* \"#utility.yul\":4111:4129   */\n  tag_115\n  tag_86\n  jump\t// in\ntag_115:\n    /* \"#utility.yul\":4091:4093   */\ntag_114:\n    /* \"#utility.yul\":4144:4149   */\n  jump(tag_103)\n    /* \"#utility.yul\":3913:3915   */\ntag_113:\n    /* \"#utility.yul\":4184:4226   */\n  tag_116\n    /* \"#utility.yul\":4222:4225   */\n  dup5\n    /* \"#utility.yul\":4212:4220   */\n  dup5\n    /* \"#utility.yul\":4206:4210   */\n  dup5\n    /* \"#utility.yul\":4203:4204   */\n  0x01\n    /* \"#utility.yul\":4184:4226   */\n  tag_87\n  jump\t// in\ntag_116:\n    /* \"#utility.yul\":4169:4226   */\n  swap3\n  pop\n  swap1\n  pop\n    /* \"#utility.yul\":4258:4262   */\n  dup2\n    /* \"#utility.yul\":4253:4256   */\n  dup5\n    /* \"#utility.yul\":4249:4263   */\n  div\n    /* \"#utility.yul\":4242:4247   */\n  dup2\n    /* \"#utility.yul\":4239:4264   */\n  gt\n    /* \"#utility.yul\":4236:4238   */\n  iszero\n  tag_117\n  jumpi\n    /* \"#utility.yul\":4267:4285   */\n  tag_118\n  tag_86\n  jump\t// in\ntag_118:\n    /* \"#utility.yul\":4236:4238   */\ntag_117:\n    /* \"#utility.yul\":4316:4320   */\n  dup2\n    /* \"#utility.yul\":4309:4314   */\n  dup2\n    /* \"#utility.yul\":4305:4321   */\n  mul\n    /* \"#utility.yul\":4296:4321   */\n  swap1\n  pop\n    /* \"#utility.yul\":3314:4327   */\ntag_103:\n  swap4\n  swap3\n  pop\n  pop\n  pop\n  jump\t// out\n    /* \"#utility.yul\":4333:4681   */\ntag_6:\n    /* \"#utility.yul\":4373:4380   */\n  0x00\n    /* \"#utility.yul\":4396:4416   */\n  tag_120\n    /* \"#utility.yul\":4414:4415   */\n  dup3\n    /* \"#utility.yul\":4396:4416   */\n  tag_75\n  jump\t// in\ntag_120:\n    /* \"#utility.yul\":4391:4416   */\n  swap2\n  pop\n    /* \"#utility.yul\":4430:4450   */\n  tag_121\n    /* \"#utility.yul\":4448:4449   */\n  dup4\n    /* \"#utility.yul\":4430:4450   */\n  tag_75\n  jump\t// in\ntag_121:\n    /* \"#utility.yul\":4425:4450   */\n  swap3\n  pop\n    /* \"#utility.yul\":4618:4619   */\n  dup2\n    /* \"#utility.yul\":4550:4616   */\n  0xffffffffffffffffffffffffffffffffffffffffffffffffffffffffffffffff\n    /* \"#utility.yul\":4546:4620   */\n  div\n    /* \"#utility.yul\":4543:4544   */\n  dup4\n    /* \"#utility.yul\":4540:4621   */\n  gt\n    /* \"#utility.yul\":4535:4536   */\n  dup3\n    /* \"#utility.yul\":4528:4537   */\n  iszero\n    /* \"#utility.yul\":4521:4538   */\n  iszero\n    /* \"#utility.yul\":4517:4622   */\n  and\n    /* \"#utility.yul\":4514:4516   */\n  iszero\n  tag_122\n  jumpi\n    /* \"#utility.yul\":4625:4643   */\n  tag_123\n  tag_86\n  jump\t// in\ntag_123:\n    /* \"#utility.yul\":4514:4516   */\ntag_122:\n    /* \"#utility.yul\":4673:4674   */\n  dup3\n    /* \"#utility.yul\":4670:4671   */\n  dup3\n    /* \"#utility.yul\":4666:4675   */\n  mul\n    /* \"#utility.yul\":4655:4675   */\n  swap1\n  pop\n    /* \"#utility.yul\":4381:4681   */\n  swap3\n  swap2\n  pop\n  pop\n  jump\t// out\n    /* \"#utility.yul\":4687:4791   */\ntag_124:\n    /* \"#utility.yul\":4732:4739   */\n  0x00\n    /* \"#utility.yul\":4761:4785   */\n  tag_126\n    /* \"#utility.yul\":4779:4784   */\n  dup3\n    /* \"#utility.yul\":4761:4785   */\n  tag_127\n  jump\t// in\ntag_126:\n    /* \"#utility.yul\":4750:4785   */\n  swap1\n  pop\n    /* \"#utility.yul\":4740:4791   */\n  swap2\n  swap1\n  pop\n  jump\t// out\n    /* \"#utility.yul\":4797:4923   */\ntag_127:\n    /* \"#utility.yul\":4834:4841   */\n  0x00\n    /* \"#utility.yul\":4874:4916   */\n  0xffffffffffffffffffffffffffffffffffffffff\n    /* \"#utility.yul\":4867:4872   */\n  dup3\n    /* \"#utility.yul\":4863:4917   */\n  and\n    /* \"#utility.yul\":4852:4917   */\n  swap1\n  pop\n    /* \"#utility.yul\":4842:4923   */\n  swap2\n  swap1\n  pop\n  jump\t// out\n    /* \"#utility.yul\":4929:5006   */\ntag_75:\n    /* \"#utility.yul\":4966:4973   */\n  0x00\n    /* \"#utility.yul\":4995:5000   */\n  dup2\n    /* \"#utility.yul\":4984:5000   */\n  swap1\n  pop\n    /* \"#utility.yul\":4974:5006   */\n  swap2\n  swap1\n  pop\n  jump\t// out\n    /* \"#utility.yul\":5012:5098   */\ntag_100:\n    /* \"#utility.yul\":5047:5054   */\n  0x00\n    /* \"#utility.yul\":5087:5091   */\n  0xff\n    /* \"#utility.yul\":5080:5085   */\n  dup3\n    /* \"#utility.yul\":5076:5092   */\n  and\n    /* \"#utility.yul\":5065:5092   */\n  swap1\n  pop\n    /* \"#utility.yul\":5055:5098   */\n  swap2\n  swap1\n  pop\n  jump\t// out\n    /* \"#utility.yul\":5104:5424   */\ntag_48:\n    /* \"#utility.yul\":5148:5154   */\n  0x00\n    /* \"#utility.yul\":5185:5186   */\n  0x02\n    /* \"#utility.yul\":5179:5183   */\n  dup3\n    /* \"#utility.yul\":5175:5187   */\n  div\n    /* \"#utility.yul\":5165:5187   */\n  swap1\n  pop\n    /* \"#utility.yul\":5232:5233   */\n  0x01\n    /* \"#utility.yul\":5226:5230   */\n  dup3\n    /* \"#utility.yul\":5222:5234   */\n  and\n    /* \"#utility.yul\":5253:5271   */\n  dup1\n    /* \"#utility.yul\":5243:5245   */\n  tag_132\n  jumpi\n    /* \"#utility.yul\":5309:5313   */\n  0x7f\n    /* \"#utility.yul\":5301:5307   */\n  dup3\n    /* \"#utility.yul\":5297:5314   */\n  and\n    /* \"#utility.yul\":5287:5314   */\n  swap2\n  pop\n    /* \"#utility.yul\":5243:5245   */\ntag_132:\n    /* \"#utility.yul\":5371:5373   */\n  0x20\n    /* \"#utility.yul\":5363:5369   */\n  dup3\n    /* \"#utility.yul\":5360:5374   */\n  lt\n    /* \"#utility.yul\":5340:5358   */\n  dup2\n    /* \"#utility.yul\":5337:5375   */\n  eq\n    /* \"#utility.yul\":5334:5336   */\n  iszero\n  tag_133\n  jumpi\n    /* \"#utility.yul\":5390:5408   */\n  tag_134\n  tag_135\n  jump\t// in\ntag_134:\n    /* \"#utility.yul\":5334:5336   */\ntag_133:\n    /* \"#utility.yul\":5155:5424   */\n  pop\n  swap2\n  swap1\n  pop\n  jump\t// out\n    /* \"#utility.yul\":5430:5610   */\ntag_86:\n    /* \"#utility.yul\":5478:5555   */\n  0x4e487b7100000000000000000000000000000000000000000000000000000000\n    /* \"#utility.yul\":5475:5476   */\n  0x00\n    /* \"#utility.yul\":5468:5556   */\n  mstore\n    /* \"#utility.yul\":5575:5579   */\n  0x11\n    /* \"#utility.yul\":5572:5573   */\n  0x04\n    /* \"#utility.yul\":5565:5580   */\n  mstore\n    /* \"#utility.yul\":5599:5603   */\n  0x24\n    /* \"#utility.yul\":5596:5597   */\n  0x00\n    /* \"#utility.yul\":5589:5604   */\n  revert\n    /* \"#utility.yul\":5616:5796   */\ntag_135:\n    /* \"#utility.yul\":5664:5741   */\n  0x4e487b7100000000000000000000000000000000000000000000000000000000\n    /* \"#utility.yul\":5661:5662   */\n  0x00\n    /* \"#utility.yul\":5654:5742   */\n  mstore\n    /* \"#utility.yul\":5761:5765   */\n  0x22\n    /* \"#utility.yul\":5758:5759   */\n  0x04\n    /* \"#utility.yul\":5751:5766   */\n  mstore\n    /* \"#utility.yul\":5785:5789   */\n  0x24\n    /* \"#utility.yul\":5782:5783   */\n  0x00\n    /* \"#utility.yul\":5775:5790   */\n  revert\n    /* \"#utility.yul\":5802:5904   */\ntag_96:\n    /* \"#utility.yul\":5844:5852   */\n  0x00\n    /* \"#utility.yul\":5891:5896   */\n  dup2\n    /* \"#utility.yul\":5888:5889   */\n  0x01\n    /* \"#utility.yul\":5884:5897   */\n  shr\n    /* \"#utility.yul\":5863:5897   */\n  swap1\n  pop\n    /* \"#utility.yul\":5853:5904   */\n  swap2\n  swap1\n  pop\n  jump\t// out\n    /* \"#utility.yul\":5910:6091   */\ntag_71:\n    /* \"#utility.yul\":6050:6083   */\n  0x45524332303a206d696e7420746f20746865207a65726f206164647265737300\n    /* \"#utility.yul\":6046:6047   */\n  0x00\n    /* \"#utility.yul\":6038:6044   */\n  dup3\n    /* \"#utility.yul\":6034:6048   */\n  add\n    /* \"#utility.yul\":6027:6084   */\n  mstore\n    /* \"#utility.yul\":6016:6091   */\n  pop\n  jump\t// out\n    /* \"#utility.yul\":6097:6235   */\ntag_62:\n    /* \"#utility.yul\":6178:6210   */\n  tag_141\n    /* \"#utility.yul\":6204:6209   */\n  dup2\n    /* \"#utility.yul\":6178:6210   */\n  tag_124\n  jump\t// in\ntag_141:\n    /* \"#utility.yul\":6171:6176   */\n  dup2\n    /* \"#utility.yul\":6168:6211   */\n  eq\n    /* \"#utility.yul\":6158:6160   */\n  tag_142\n  jumpi\n    /* \"#utility.yul\":6225:6226   */\n  0x00\n    /* \"#utility.yul\":6222:6223   */\n  dup1\n    /* \"#utility.yul\":6215:6227   */\n  revert\n    /* \"#utility.yul\":6158:6160   */\ntag_142:\n    /* \"#utility.yul\":6148:6235   */\n  pop\n  jump\t// out\n    /* \"BlockGames_Task3/ypeterc20.sol\":173:1136  contract YPetToken is ERC20, Ownable {\r... */\ntag_28:\n  dataSize(sub_0)\n  dup1\n  dataOffset(sub_0)\n  0x00\n  codecopy\n  0x00\n  return\nstop\n\nsub_0: assembly {\n        /* \"BlockGames_Task3/ypeterc20.sol\":173:1136  contract YPetToken is ERC20, Ownable {\r... */\n      mstore(0x40, 0x80)\n      jumpi(tag_1, lt(calldatasize, 0x04))\n      shr(0xe0, calldataload(0x00))\n      dup1\n      0x70a08231\n      gt\n      tag_19\n      jumpi\n      dup1\n      0x95d89b41\n      gt\n      tag_20\n      jumpi\n      dup1\n      0x95d89b41\n      eq\n      tag_14\n      jumpi\n      dup1\n      0xa457c2d7\n      eq\n      tag_15\n      jumpi\n      dup1\n      0xa9059cbb\n      eq\n      tag_16\n      jumpi\n      dup1\n      0xdd62ed3e\n      eq\n      tag_17\n      jumpi\n      dup1\n      0xf2fde38b\n      eq\n      tag_18\n      jumpi\n      jump(tag_1)\n    tag_20:\n      dup1\n      0x70a08231\n      eq\n      tag_10\n      jumpi\n      dup1\n      0x715018a6\n      eq\n      tag_11\n      jumpi\n      dup1\n      0x7e72fb52\n      eq\n      tag_12\n      jumpi\n      dup1\n      0x8da5cb5b\n      eq\n      tag_13\n      jumpi\n      jump(tag_1)\n    tag_19:\n      dup1\n      0x2c4e722e\n      gt\n      tag_21\n      jumpi\n      dup1\n      0x2c4e722e\n      eq\n      tag_6\n      jumpi\n      dup1\n      0x313ce567\n      eq\n      tag_7\n      jumpi\n      dup1\n      0x39509351\n      eq\n      tag_8\n      jumpi\n      dup1\n      0x40c10f19\n      eq\n      tag_9\n      jumpi\n      jump(tag_1)\n    tag_21:\n      dup1\n      0x06fdde03\n      eq\n      tag_2\n      jumpi\n      dup1\n      0x095ea7b3\n      eq\n      tag_3\n      jumpi\n      dup1\n      0x18160ddd\n      eq\n      tag_4\n      jumpi\n      dup1\n      0x23b872dd\n      eq\n      tag_5\n      jumpi\n    tag_1:\n      0x00\n      dup1\n      revert\n        /* \"@openzeppelin/contracts/token/ERC20/ERC20.sol\":2156:2254  function name() public view virtual override returns (string memory) {... */\n    tag_2:\n      callvalue\n      dup1\n      iszero\n      tag_22\n      jumpi\n      0x00\n      dup1\n      revert\n    tag_22:\n      pop\n      tag_23\n      tag_24\n      jump\t// in\n    tag_23:\n      mload(0x40)\n      tag_25\n      swap2\n      swap1\n      tag_26\n      jump\t// in\n    tag_25:\n      mload(0x40)\n      dup1\n      swap2\n      sub\n      swap1\n      return\n        /* \"@openzeppelin/contracts/token/ERC20/ERC20.sol\":4433:4630  function approve(address spender, uint256 amount) public virtual override returns (bool) {... */\n    tag_3:\n      callvalue\n      dup1\n      iszero\n      tag_27\n      jumpi\n      0x00\n      dup1\n      revert\n    tag_27:\n      pop\n      tag_28\n      0x04\n      dup1\n      calldatasize\n      sub\n      dup2\n      add\n      swap1\n      tag_29\n      swap2\n      swap1\n      tag_30\n      jump\t// in\n    tag_29:\n      tag_31\n      jump\t// in\n    tag_28:\n      mload(0x40)\n      tag_32\n      swap2\n      swap1\n      tag_33\n      jump\t// in\n    tag_32:\n      mload(0x40)\n      dup1\n      swap2\n      sub\n      swap1\n      return\n        /* \"@openzeppelin/contracts/token/ERC20/ERC20.sol\":3244:3350  function totalSupply() public view virtual override returns (uint256) {... */\n    tag_4:\n      callvalue\n      dup1\n      iszero\n      tag_34\n      jumpi\n      0x00\n      dup1\n      revert\n    tag_34:\n      pop\n      tag_35\n      tag_36\n      jump\t// in\n    tag_35:\n      mload(0x40)\n      tag_37\n      swap2\n      swap1\n      tag_38\n      jump\t// in\n    tag_37:\n      mload(0x40)\n      dup1\n      swap2\n      sub\n      swap1\n      return\n        /* \"@openzeppelin/contracts/token/ERC20/ERC20.sol\":5192:5478  function transferFrom(... */\n    tag_5:\n      callvalue\n      dup1\n      iszero\n      tag_39\n      jumpi\n      0x00\n      dup1\n      revert\n    tag_39:\n      pop\n      tag_40\n      0x04\n      dup1\n      calldatasize\n      sub\n      dup2\n      add\n      swap1\n      tag_41\n      swap2\n      swap1\n      tag_42\n      jump\t// in\n    tag_41:\n      tag_43\n      jump\t// in\n    tag_40:\n      mload(0x40)\n      tag_44\n      swap2\n      swap1\n      tag_33\n      jump\t// in\n    tag_44:\n      mload(0x40)\n      dup1\n      swap2\n      sub\n      swap1\n      return\n        /* \"BlockGames_Task3/ypeterc20.sol\":324:366  uint256 public rate = 1000* 10**decimals() */\n    tag_6:\n      callvalue\n      dup1\n      iszero\n      tag_45\n      jumpi\n      0x00\n      dup1\n      revert\n    tag_45:\n      pop\n      tag_46\n      tag_47\n      jump\t// in\n    tag_46:\n      mload(0x40)\n      tag_48\n      swap2\n      swap1\n      tag_38\n      jump\t// in\n    tag_48:\n      mload(0x40)\n      dup1\n      swap2\n      sub\n      swap1\n      return\n        /* \"@openzeppelin/contracts/token/ERC20/ERC20.sol\":3093:3184  function decimals() public view virtual override returns (uint8) {... */\n    tag_7:\n      callvalue\n      dup1\n      iszero\n      tag_49\n      jumpi\n      0x00\n      dup1\n      revert\n    tag_49:\n      pop\n      tag_50\n      tag_51\n      jump\t// in\n    tag_50:\n      mload(0x40)\n      tag_52\n      swap2\n      swap1\n      tag_53\n      jump\t// in\n    tag_52:\n      mload(0x40)\n      dup1\n      swap2\n      sub\n      swap1\n      return\n        /* \"@openzeppelin/contracts/token/ERC20/ERC20.sol\":5873:6109  function increaseAllowance(address spender, uint256 addedValue) public virtual returns (bool) {... */\n    tag_8:\n      callvalue\n      dup1\n      iszero\n      tag_54\n      jumpi\n      0x00\n      dup1\n      revert\n    tag_54:\n      pop\n      tag_55\n      0x04\n      dup1\n      calldatasize\n      sub\n      dup2\n      add\n      swap1\n      tag_56\n      swap2\n      swap1\n      tag_30\n      jump\t// in\n    tag_56:\n      tag_57\n      jump\t// in\n    tag_55:\n      mload(0x40)\n      tag_58\n      swap2\n      swap1\n      tag_33\n      jump\t// in\n    tag_58:\n      mload(0x40)\n      dup1\n      swap2\n      sub\n      swap1\n      return\n        /* \"BlockGames_Task3/ypeterc20.sol\":604:699  function mint(address to, uint256 amount) public onlyOwner {\r... */\n    tag_9:\n      callvalue\n      dup1\n      iszero\n      tag_59\n      jumpi\n      0x00\n      dup1\n      revert\n    tag_59:\n      pop\n      tag_60\n      0x04\n      dup1\n      calldatasize\n      sub\n      dup2\n      add\n      swap1\n      tag_61\n      swap2\n      swap1\n      tag_30\n      jump\t// in\n    tag_61:\n      tag_62\n      jump\t// in\n    tag_60:\n      stop\n        /* \"@openzeppelin/contracts/token/ERC20/ERC20.sol\":3408:3533  function balanceOf(address account) public view virtual override returns (uint256) {... */\n    tag_10:\n      callvalue\n      dup1\n      iszero\n      tag_63\n      jumpi\n      0x00\n      dup1\n      revert\n    tag_63:\n      pop\n      tag_64\n      0x04\n      dup1\n      calldatasize\n      sub\n      dup2\n      add\n      swap1\n      tag_65\n      swap2\n      swap1\n      tag_66\n      jump\t// in\n    tag_65:\n      tag_67\n      jump\t// in\n    tag_64:\n      mload(0x40)\n      tag_68\n      swap2\n      swap1\n      tag_38\n      jump\t// in\n    tag_68:\n      mload(0x40)\n      dup1\n      swap2\n      sub\n      swap1\n      return\n        /* \"@openzeppelin/contracts/access/Ownable.sol\":1668:1769  function renounceOwnership() public virtual onlyOwner {... */\n    tag_11:\n      callvalue\n      dup1\n      iszero\n      tag_69\n      jumpi\n      0x00\n      dup1\n      revert\n    tag_69:\n      pop\n      tag_70\n      tag_71\n      jump\t// in\n    tag_70:\n      stop\n        /* \"BlockGames_Task3/ypeterc20.sol\":707:1133  function buyToken(address receiver) public payable {\r... */\n    tag_12:\n      tag_72\n      0x04\n      dup1\n      calldatasize\n      sub\n      dup2\n      add\n      swap1\n      tag_73\n      swap2\n      swap1\n      tag_66\n      jump\t// in\n    tag_73:\n      tag_74\n      jump\t// in\n    tag_72:\n      stop\n        /* \"@openzeppelin/contracts/access/Ownable.sol\":1036:1121  function owner() public view virtual returns (address) {... */\n    tag_13:\n      callvalue\n      dup1\n      iszero\n      tag_75\n      jumpi\n      0x00\n      dup1\n      revert\n    tag_75:\n      pop\n      tag_76\n      tag_77\n      jump\t// in\n    tag_76:\n      mload(0x40)\n      tag_78\n      swap2\n      swap1\n      tag_79\n      jump\t// in\n    tag_78:\n      mload(0x40)\n      dup1\n      swap2\n      sub\n      swap1\n      return\n        /* \"@openzeppelin/contracts/token/ERC20/ERC20.sol\":2367:2469  function symbol() public view virtual override returns (string memory) {... */\n    tag_14:\n      callvalue\n      dup1\n      iszero\n      tag_80\n      jumpi\n      0x00\n      dup1\n      revert\n    tag_80:\n      pop\n      tag_81\n      tag_82\n      jump\t// in\n    tag_81:\n      mload(0x40)\n      tag_83\n      swap2\n      swap1\n      tag_26\n      jump\t// in\n    tag_83:\n      mload(0x40)\n      dup1\n      swap2\n      sub\n      swap1\n      return\n        /* \"@openzeppelin/contracts/token/ERC20/ERC20.sol\":6596:7025  function decreaseAllowance(address spender, uint256 subtractedValue) public virtual returns (bool) {... */\n    tag_15:\n      callvalue\n      dup1\n      iszero\n      tag_84\n      jumpi\n      0x00\n      dup1\n      revert\n    tag_84:\n      pop\n      tag_85\n      0x04\n      dup1\n      calldatasize\n      sub\n      dup2\n      add\n      swap1\n      tag_86\n      swap2\n      swap1\n      tag_30\n      jump\t// in\n    tag_86:\n      tag_87\n      jump\t// in\n    tag_85:\n      mload(0x40)\n      tag_88\n      swap2\n      swap1\n      tag_33\n      jump\t// in\n    tag_88:\n      mload(0x40)\n      dup1\n      swap2\n      sub\n      swap1\n      return\n        /* \"@openzeppelin/contracts/token/ERC20/ERC20.sol\":3729:3918  function transfer(address to, uint256 amount) public virtual override returns (bool) {... */\n    tag_16:\n      callvalue\n      dup1\n      iszero\n      tag_89\n      jumpi\n      0x00\n      dup1\n      revert\n    tag_89:\n      pop\n      tag_90\n      0x04\n      dup1\n      calldatasize\n      sub\n      dup2\n      add\n      swap1\n      tag_91\n      swap2\n      swap1\n      tag_30\n      jump\t// in\n    tag_91:\n      tag_92\n      jump\t// in\n    tag_90:\n      mload(0x40)\n      tag_93\n      swap2\n      swap1\n      tag_33\n      jump\t// in\n    tag_93:\n      mload(0x40)\n      dup1\n      swap2\n      sub\n      swap1\n      return\n        /* \"@openzeppelin/contracts/token/ERC20/ERC20.sol\":3976:4125  function allowance(address owner, address spender) public view virtual override returns (uint256) {... */\n    tag_17:\n      callvalue\n      dup1\n      iszero\n      tag_94\n      jumpi\n      0x00\n      dup1\n      revert\n    tag_94:\n      pop\n      tag_95\n      0x04\n      dup1\n      calldatasize\n      sub\n      dup2\n      add\n      swap1\n      tag_96\n      swap2\n      swap1\n      tag_97\n      jump\t// in\n    tag_96:\n      tag_98\n      jump\t// in\n    tag_95:\n      mload(0x40)\n      tag_99\n      swap2\n      swap1\n      tag_38\n      jump\t// in\n    tag_99:\n      mload(0x40)\n      dup1\n      swap2\n      sub\n      swap1\n      return\n        /* \"@openzeppelin/contracts/access/Ownable.sol\":1918:2116  function transferOwnership(address newOwner) public virtual onlyOwner {... */\n    tag_18:\n      callvalue\n      dup1\n      iszero\n      tag_100\n      jumpi\n      0x00\n      dup1\n      revert\n    tag_100:\n      pop\n      tag_101\n      0x04\n      dup1\n      calldatasize\n      sub\n      dup2\n      add\n      swap1\n      tag_102\n      swap2\n      swap1\n      tag_66\n      jump\t// in\n    tag_102:\n      tag_103\n      jump\t// in\n    tag_101:\n      stop\n        /* \"@openzeppelin/contracts/token/ERC20/ERC20.sol\":2156:2254  function name() public view virtual override returns (string memory) {... */\n    tag_24:\n        /* \"@openzeppelin/contracts/token/ERC20/ERC20.sol\":2210:2223  string memory */\n      0x60\n        /* \"@openzeppelin/contracts/token/ERC20/ERC20.sol\":2242:2247  _name */\n      0x03\n        /* \"@openzeppelin/contracts/token/ERC20/ERC20.sol\":2235:2247  return _name */\n      dup1\n      sload\n      tag_105\n      swap1\n      tag_106\n      jump\t// in\n    tag_105:\n      dup1\n      0x1f\n      add\n      0x20\n      dup1\n      swap2\n      div\n      mul\n      0x20\n      add\n      mload(0x40)\n      swap1\n      dup2\n      add\n      0x40\n      mstore\n      dup1\n      swap3\n      swap2\n      swap1\n      dup2\n      dup2\n      mstore\n      0x20\n      add\n      dup3\n      dup1\n      sload\n      tag_107\n      swap1\n      tag_106\n      jump\t// in\n    tag_107:\n      dup1\n      iszero\n      tag_108\n      jumpi\n      dup1\n      0x1f\n      lt\n      tag_109\n      jumpi\n      0x0100\n      dup1\n      dup4\n      sload\n      div\n      mul\n      dup4\n      mstore\n      swap2\n      0x20\n      add\n      swap2\n      jump(tag_108)\n    tag_109:\n      dup3\n      add\n      swap2\n      swap1\n      0x00\n      mstore\n      keccak256(0x00, 0x20)\n      swap1\n    tag_110:\n      dup2\n      sload\n      dup2\n      mstore\n      swap1\n      0x01\n      add\n      swap1\n      0x20\n      add\n      dup1\n      dup4\n      gt\n      tag_110\n      jumpi\n      dup3\n      swap1\n      sub\n      0x1f\n      and\n      dup3\n      add\n      swap2\n    tag_108:\n      pop\n      pop\n      pop\n      pop\n      pop\n      swap1\n      pop\n        /* \"@openzeppelin/contracts/token/ERC20/ERC20.sol\":2156:2254  function name() public view virtual override returns (string memory) {... */\n      swap1\n      jump\t// out\n        /* \"@openzeppelin/contracts/token/ERC20/ERC20.sol\":4433:4630  function approve(address spender, uint256 amount) public virtual override returns (bool) {... */\n    tag_31:\n        /* \"@openzeppelin/contracts/token/ERC20/ERC20.sol\":4516:4520  bool */\n      0x00\n        /* \"@openzeppelin/contracts/token/ERC20/ERC20.sol\":4532:4545  address owner */\n      dup1\n        /* \"@openzeppelin/contracts/token/ERC20/ERC20.sol\":4548:4560  _msgSender() */\n      tag_112\n        /* \"@openzeppelin/contracts/token/ERC20/ERC20.sol\":4548:4558  _msgSender */\n      tag_113\n        /* \"@openzeppelin/contracts/token/ERC20/ERC20.sol\":4548:4560  _msgSender() */\n      jump\t// in\n    tag_112:\n        /* \"@openzeppelin/contracts/token/ERC20/ERC20.sol\":4532:4560  address owner = _msgSender() */\n      swap1\n      pop\n        /* \"@openzeppelin/contracts/token/ERC20/ERC20.sol\":4570:4602  _approve(owner, spender, amount) */\n      tag_114\n        /* \"@openzeppelin/contracts/token/ERC20/ERC20.sol\":4579:4584  owner */\n      dup2\n        /* \"@openzeppelin/contracts/token/ERC20/ERC20.sol\":4586:4593  spender */\n      dup6\n        /* \"@openzeppelin/contracts/token/ERC20/ERC20.sol\":4595:4601  amount */\n      dup6\n        /* \"@openzeppelin/contracts/token/ERC20/ERC20.sol\":4570:4578  _approve */\n      tag_115\n        /* \"@openzeppelin/contracts/token/ERC20/ERC20.sol\":4570:4602  _approve(owner, spender, amount) */\n      jump\t// in\n    tag_114:\n        /* \"@openzeppelin/contracts/token/ERC20/ERC20.sol\":4619:4623  true */\n      0x01\n        /* \"@openzeppelin/contracts/token/ERC20/ERC20.sol\":4612:4623  return true */\n      swap2\n      pop\n      pop\n        /* \"@openzeppelin/contracts/token/ERC20/ERC20.sol\":4433:4630  function approve(address spender, uint256 amount) public virtual override returns (bool) {... */\n      swap3\n      swap2\n      pop\n      pop\n      jump\t// out\n        /* \"@openzeppelin/contracts/token/ERC20/ERC20.sol\":3244:3350  function totalSupply() public view virtual override returns (uint256) {... */\n    tag_36:\n        /* \"@openzeppelin/contracts/token/ERC20/ERC20.sol\":3305:3312  uint256 */\n      0x00\n        /* \"@openzeppelin/contracts/token/ERC20/ERC20.sol\":3331:3343  _totalSupply */\n      sload(0x02)\n        /* \"@openzeppelin/contracts/token/ERC20/ERC20.sol\":3324:3343  return _totalSupply */\n      swap1\n      pop\n        /* \"@openzeppelin/contracts/token/ERC20/ERC20.sol\":3244:3350  function totalSupply() public view virtual override returns (uint256) {... */\n      swap1\n      jump\t// out\n        /* \"@openzeppelin/contracts/token/ERC20/ERC20.sol\":5192:5478  function transferFrom(... */\n    tag_43:\n        /* \"@openzeppelin/contracts/token/ERC20/ERC20.sol\":5319:5323  bool */\n      0x00\n        /* \"@openzeppelin/contracts/token/ERC20/ERC20.sol\":5335:5350  address spender */\n      dup1\n        /* \"@openzeppelin/contracts/token/ERC20/ERC20.sol\":5353:5365  _msgSender() */\n      tag_118\n        /* \"@openzeppelin/contracts/token/ERC20/ERC20.sol\":5353:5363  _msgSender */\n      tag_113\n        /* \"@openzeppelin/contracts/token/ERC20/ERC20.sol\":5353:5365  _msgSender() */\n      jump\t// in\n    tag_118:\n        /* \"@openzeppelin/contracts/token/ERC20/ERC20.sol\":5335:5365  address spender = _msgSender() */\n      swap1\n      pop\n        /* \"@openzeppelin/contracts/token/ERC20/ERC20.sol\":5375:5413  _spendAllowance(from, spender, amount) */\n      tag_119\n        /* \"@openzeppelin/contracts/token/ERC20/ERC20.sol\":5391:5395  from */\n      dup6\n        /* \"@openzeppelin/contracts/token/ERC20/ERC20.sol\":5397:5404  spender */\n      dup3\n        /* \"@openzeppelin/contracts/token/ERC20/ERC20.sol\":5406:5412  amount */\n      dup6\n        /* \"@openzeppelin/contracts/token/ERC20/ERC20.sol\":5375:5390  _spendAllowance */\n      tag_120\n        /* \"@openzeppelin/contracts/token/ERC20/ERC20.sol\":5375:5413  _spendAllowance(from, spender, amount) */\n      jump\t// in\n    tag_119:\n        /* \"@openzeppelin/contracts/token/ERC20/ERC20.sol\":5423:5450  _transfer(from, to, amount) */\n      tag_121\n        /* \"@openzeppelin/contracts/token/ERC20/ERC20.sol\":5433:5437  from */\n      dup6\n        /* \"@openzeppelin/contracts/token/ERC20/ERC20.sol\":5439:5441  to */\n      dup6\n        /* \"@openzeppelin/contracts/token/ERC20/ERC20.sol\":5443:5449  amount */\n      dup6\n        /* \"@openzeppelin/contracts/token/ERC20/ERC20.sol\":5423:5432  _transfer */\n      tag_122\n        /* \"@openzeppelin/contracts/token/ERC20/ERC20.sol\":5423:5450  _transfer(from, to, amount) */\n      jump\t// in\n    tag_121:\n        /* \"@openzeppelin/contracts/token/ERC20/ERC20.sol\":5467:5471  true */\n      0x01\n        /* \"@openzeppelin/contracts/token/ERC20/ERC20.sol\":5460:5471  return true */\n      swap2\n      pop\n      pop\n        /* \"@openzeppelin/contracts/token/ERC20/ERC20.sol\":5192:5478  function transferFrom(... */\n      swap4\n      swap3\n      pop\n      pop\n      pop\n      jump\t// out\n        /* \"BlockGames_Task3/ypeterc20.sol\":324:366  uint256 public rate = 1000* 10**decimals() */\n    tag_47:\n      sload(0x09)\n      dup2\n      jump\t// out\n        /* \"@openzeppelin/contracts/token/ERC20/ERC20.sol\":3093:3184  function decimals() public view virtual override returns (uint8) {... */\n    tag_51:\n        /* \"@openzeppelin/contracts/token/ERC20/ERC20.sol\":3151:3156  uint8 */\n      0x00\n        /* \"@openzeppelin/contracts/token/ERC20/ERC20.sol\":3175:3177  18 */\n      0x12\n        /* \"@openzeppelin/contracts/token/ERC20/ERC20.sol\":3168:3177  return 18 */\n      swap1\n      pop\n        /* \"@openzeppelin/contracts/token/ERC20/ERC20.sol\":3093:3184  function decimals() public view virtual override returns (uint8) {... */\n      swap1\n      jump\t// out\n        /* \"@openzeppelin/contracts/token/ERC20/ERC20.sol\":5873:6109  function increaseAllowance(address spender, uint256 addedValue) public virtual returns (bool) {... */\n    tag_57:\n        /* \"@openzeppelin/contracts/token/ERC20/ERC20.sol\":5961:5965  bool */\n      0x00\n        /* \"@openzeppelin/contracts/token/ERC20/ERC20.sol\":5977:5990  address owner */\n      dup1\n        /* \"@openzeppelin/contracts/token/ERC20/ERC20.sol\":5993:6005  _msgSender() */\n      tag_125\n        /* \"@openzeppelin/contracts/token/ERC20/ERC20.sol\":5993:6003  _msgSender */\n      tag_113\n        /* \"@openzeppelin/contracts/token/ERC20/ERC20.sol\":5993:6005  _msgSender() */\n      jump\t// in\n    tag_125:\n        /* \"@openzeppelin/contracts/token/ERC20/ERC20.sol\":5977:6005  address owner = _msgSender() */\n      swap1\n      pop\n        /* \"@openzeppelin/contracts/token/ERC20/ERC20.sol\":6015:6081  _approve(owner, spender, _allowances[owner][spender] + addedValue) */\n      tag_126\n        /* \"@openzeppelin/contracts/token/ERC20/ERC20.sol\":6024:6029  owner */\n      dup2\n        /* \"@openzeppelin/contracts/token/ERC20/ERC20.sol\":6031:6038  spender */\n      dup6\n        /* \"@openzeppelin/contracts/token/ERC20/ERC20.sol\":6070:6080  addedValue */\n      dup6\n        /* \"@openzeppelin/contracts/token/ERC20/ERC20.sol\":6040:6051  _allowances */\n      0x01\n        /* \"@openzeppelin/contracts/token/ERC20/ERC20.sol\":6040:6058  _allowances[owner] */\n      0x00\n        /* \"@openzeppelin/contracts/token/ERC20/ERC20.sol\":6052:6057  owner */\n      dup7\n        /* \"@openzeppelin/contracts/token/ERC20/ERC20.sol\":6040:6058  _allowances[owner] */\n      0xffffffffffffffffffffffffffffffffffffffff\n      and\n      0xffffffffffffffffffffffffffffffffffffffff\n      and\n      dup2\n      mstore\n      0x20\n      add\n      swap1\n      dup2\n      mstore\n      0x20\n      add\n      0x00\n      keccak256\n        /* \"@openzeppelin/contracts/token/ERC20/ERC20.sol\":6040:6067  _allowances[owner][spender] */\n      0x00\n        /* \"@openzeppelin/contracts/token/ERC20/ERC20.sol\":6059:6066  spender */\n      dup10\n        /* \"@openzeppelin/contracts/token/ERC20/ERC20.sol\":6040:6067  _allowances[owner][spender] */\n      0xffffffffffffffffffffffffffffffffffffffff\n      and\n      0xffffffffffffffffffffffffffffffffffffffff\n      and\n      dup2\n      mstore\n      0x20\n      add\n      swap1\n      dup2\n      mstore\n      0x20\n      add\n      0x00\n      keccak256\n      sload\n        /* \"@openzeppelin/contracts/token/ERC20/ERC20.sol\":6040:6080  _allowances[owner][spender] + addedValue */\n      tag_127\n      swap2\n      swap1\n      tag_128\n      jump\t// in\n    tag_127:\n        /* \"@openzeppelin/contracts/token/ERC20/ERC20.sol\":6015:6023  _approve */\n      tag_115\n        /* \"@openzeppelin/contracts/token/ERC20/ERC20.sol\":6015:6081  _approve(owner, spender, _allowances[owner][spender] + addedValue) */\n      jump\t// in\n    tag_126:\n        /* \"@openzeppelin/contracts/token/ERC20/ERC20.sol\":6098:6102  true */\n      0x01\n        /* \"@openzeppelin/contracts/token/ERC20/ERC20.sol\":6091:6102  return true */\n      swap2\n      pop\n      pop\n        /* \"@openzeppelin/contracts/token/ERC20/ERC20.sol\":5873:6109  function increaseAllowance(address spender, uint256 addedValue) public virtual returns (bool) {... */\n      swap3\n      swap2\n      pop\n      pop\n      jump\t// out\n        /* \"BlockGames_Task3/ypeterc20.sol\":604:699  function mint(address to, uint256 amount) public onlyOwner {\r... */\n    tag_62:\n        /* \"@openzeppelin/contracts/access/Ownable.sol\":1259:1271  _msgSender() */\n      tag_130\n        /* \"@openzeppelin/contracts/access/Ownable.sol\":1259:1269  _msgSender */\n      tag_113\n        /* \"@openzeppelin/contracts/access/Ownable.sol\":1259:1271  _msgSender() */\n      jump\t// in\n    tag_130:\n        /* \"@openzeppelin/contracts/access/Ownable.sol\":1248:1271  owner() == _msgSender() */\n      0xffffffffffffffffffffffffffffffffffffffff\n      and\n        /* \"@openzeppelin/contracts/access/Ownable.sol\":1248:1255  owner() */\n      tag_131\n        /* \"@openzeppelin/contracts/access/Ownable.sol\":1248:1253  owner */\n      tag_77\n        /* \"@openzeppelin/contracts/access/Ownable.sol\":1248:1255  owner() */\n      jump\t// in\n    tag_131:\n        /* \"@openzeppelin/contracts/access/Ownable.sol\":1248:1271  owner() == _msgSender() */\n      0xffffffffffffffffffffffffffffffffffffffff\n      and\n      eq\n        /* \"@openzeppelin/contracts/access/Ownable.sol\":1240:1308  require(owner() == _msgSender(), \"Ownable: caller is not the owner\") */\n      tag_132\n      jumpi\n      mload(0x40)\n      0x08c379a000000000000000000000000000000000000000000000000000000000\n      dup2\n      mstore\n      0x04\n      add\n      tag_133\n      swap1\n      tag_134\n      jump\t// in\n    tag_133:\n      mload(0x40)\n      dup1\n      swap2\n      sub\n      swap1\n      revert\n    tag_132:\n        /* \"BlockGames_Task3/ypeterc20.sol\":674:691  _mint(to, amount) */\n      tag_136\n        /* \"BlockGames_Task3/ypeterc20.sol\":680:682  to */\n      dup3\n        /* \"BlockGames_Task3/ypeterc20.sol\":684:690  amount */\n      dup3\n        /* \"BlockGames_Task3/ypeterc20.sol\":674:679  _mint */\n      tag_137\n        /* \"BlockGames_Task3/ypeterc20.sol\":674:691  _mint(to, amount) */\n      jump\t// in\n    tag_136:\n        /* \"BlockGames_Task3/ypeterc20.sol\":604:699  function mint(address to, uint256 amount) public onlyOwner {\r... */\n      pop\n      pop\n      jump\t// out\n        /* \"@openzeppelin/contracts/token/ERC20/ERC20.sol\":3408:3533  function balanceOf(address account) public view virtual override returns (uint256) {... */\n    tag_67:\n        /* \"@openzeppelin/contracts/token/ERC20/ERC20.sol\":3482:3489  uint256 */\n      0x00\n        /* \"@openzeppelin/contracts/token/ERC20/ERC20.sol\":3508:3517  _balances */\n      dup1\n        /* \"@openzeppelin/contracts/token/ERC20/ERC20.sol\":3508:3526  _balances[account] */\n      0x00\n        /* \"@openzeppelin/contracts/token/ERC20/ERC20.sol\":3518:3525  account */\n      dup4\n        /* \"@openzeppelin/contracts/token/ERC20/ERC20.sol\":3508:3526  _balances[account] */\n      0xffffffffffffffffffffffffffffffffffffffff\n      and\n      0xffffffffffffffffffffffffffffffffffffffff\n      and\n      dup2\n      mstore\n      0x20\n      add\n      swap1\n      dup2\n      mstore\n      0x20\n      add\n      0x00\n      keccak256\n      sload\n        /* \"@openzeppelin/contracts/token/ERC20/ERC20.sol\":3501:3526  return _balances[account] */\n      swap1\n      pop\n        /* \"@openzeppelin/contracts/token/ERC20/ERC20.sol\":3408:3533  function balanceOf(address account) public view virtual override returns (uint256) {... */\n      swap2\n      swap1\n      pop\n      jump\t// out\n        /* \"@openzeppelin/contracts/access/Ownable.sol\":1668:1769  function renounceOwnership() public virtual onlyOwner {... */\n    tag_71:\n        /* \"@openzeppelin/contracts/access/Ownable.sol\":1259:1271  _msgSender() */\n      tag_140\n        /* \"@openzeppelin/contracts/access/Ownable.sol\":1259:1269  _msgSender */\n      tag_113\n        /* \"@openzeppelin/contracts/access/Ownable.sol\":1259:1271  _msgSender() */\n      jump\t// in\n    tag_140:\n        /* \"@openzeppelin/contracts/access/Ownable.sol\":1248:1271  owner() == _msgSender() */\n      0xffffffffffffffffffffffffffffffffffffffff\n      and\n        /* \"@openzeppelin/contracts/access/Ownable.sol\":1248:1255  owner() */\n      tag_141\n        /* \"@openzeppelin/contracts/access/Ownable.sol\":1248:1253  owner */\n      tag_77\n        /* \"@openzeppelin/contracts/access/Ownable.sol\":1248:1255  owner() */\n      jump\t// in\n    tag_141:\n        /* \"@openzeppelin/contracts/access/Ownable.sol\":1248:1271  owner() == _msgSender() */\n      0xffffffffffffffffffffffffffffffffffffffff\n      and\n      eq\n        /* \"@openzeppelin/contracts/access/Ownable.sol\":1240:1308  require(owner() == _msgSender(), \"Ownable: caller is not the owner\") */\n      tag_142\n      jumpi\n      mload(0x40)\n      0x08c379a000000000000000000000000000000000000000000000000000000000\n      dup2\n      mstore\n      0x04\n      add\n      tag_143\n      swap1\n      tag_134\n      jump\t// in\n    tag_143:\n      mload(0x40)\n      dup1\n      swap2\n      sub\n      swap1\n      revert\n    tag_142:\n        /* \"@openzeppelin/contracts/access/Ownable.sol\":1732:1762  _transferOwnership(address(0)) */\n      tag_145\n        /* \"@openzeppelin/contracts/access/Ownable.sol\":1759:1760  0 */\n      0x00\n        /* \"@openzeppelin/contracts/access/Ownable.sol\":1732:1750  _transferOwnership */\n      tag_146\n        /* \"@openzeppelin/contracts/access/Ownable.sol\":1732:1762  _transferOwnership(address(0)) */\n      jump\t// in\n    tag_145:\n        /* \"@openzeppelin/contracts/access/Ownable.sol\":1668:1769  function renounceOwnership() public virtual onlyOwner {... */\n      jump\t// out\n        /* \"BlockGames_Task3/ypeterc20.sol\":707:1133  function buyToken(address receiver) public payable {\r... */\n    tag_74:\n        /* \"BlockGames_Task3/ypeterc20.sol\":789:790  0 */\n      0x00\n        /* \"BlockGames_Task3/ypeterc20.sol\":777:786  msg.value */\n      callvalue\n        /* \"BlockGames_Task3/ypeterc20.sol\":777:790  msg.value < 0 */\n      lt\n        /* \"BlockGames_Task3/ypeterc20.sol\":769:798  require(msg.value < 0, \"loe\") */\n      tag_148\n      jumpi\n      mload(0x40)\n      0x08c379a000000000000000000000000000000000000000000000000000000000\n      dup2\n      mstore\n      0x04\n      add\n      tag_149\n      swap1\n      tag_150\n      jump\t// in\n    tag_149:\n      mload(0x40)\n      dup1\n      swap2\n      sub\n      swap1\n      revert\n    tag_148:\n        /* \"BlockGames_Task3/ypeterc20.sol\":809:816  yWallet */\n      0x06\n      0x00\n      swap1\n      sload\n      swap1\n      0x0100\n      exp\n      swap1\n      div\n      0xffffffffffffffffffffffffffffffffffffffff\n      and\n        /* \"BlockGames_Task3/ypeterc20.sol\":809:825  yWallet.transfer */\n      0xffffffffffffffffffffffffffffffffffffffff\n      and\n        /* \"BlockGames_Task3/ypeterc20.sol\":809:836  yWallet.transfer(msg.value) */\n      0x08fc\n        /* \"BlockGames_Task3/ypeterc20.sol\":826:835  msg.value */\n      callvalue\n        /* \"BlockGames_Task3/ypeterc20.sol\":809:836  yWallet.transfer(msg.value) */\n      swap1\n      dup2\n      iszero\n      mul\n      swap1\n      mload(0x40)\n      0x00\n      mload(0x40)\n      dup1\n      dup4\n      sub\n      dup2\n      dup6\n      dup9\n      dup9\n      call\n      swap4\n      pop\n      pop\n      pop\n      pop\n      iszero\n      dup1\n      iszero\n      tag_152\n      jumpi\n      returndatasize\n      0x00\n      dup1\n      returndatacopy\n      revert(0x00, returndatasize)\n    tag_152:\n      pop\n        /* \"BlockGames_Task3/ypeterc20.sol\":848:867  uint256 amountToBuy */\n      0x00\n        /* \"BlockGames_Task3/ypeterc20.sol\":891:895  rate */\n      sload(0x09)\n        /* \"BlockGames_Task3/ypeterc20.sol\":883:889  10**18 */\n      0x0de0b6b3a7640000\n        /* \"BlockGames_Task3/ypeterc20.sol\":871:880  msg.value */\n      callvalue\n        /* \"BlockGames_Task3/ypeterc20.sol\":871:889  msg.value / 10**18 */\n      tag_153\n      swap2\n      swap1\n      tag_154\n      jump\t// in\n    tag_153:\n        /* \"BlockGames_Task3/ypeterc20.sol\":870:895  (msg.value / 10**18)*rate */\n      tag_155\n      swap2\n      swap1\n      tag_156\n      jump\t// in\n    tag_155:\n        /* \"BlockGames_Task3/ypeterc20.sol\":848:895  uint256 amountToBuy = (msg.value / 10**18)*rate */\n      swap1\n      pop\n        /* \"BlockGames_Task3/ypeterc20.sol\":983:994  amountToBuy */\n      dup1\n        /* \"BlockGames_Task3/ypeterc20.sol\":961:980  balanceOf(receiver) */\n      tag_157\n        /* \"BlockGames_Task3/ypeterc20.sol\":971:979  receiver */\n      dup4\n        /* \"BlockGames_Task3/ypeterc20.sol\":961:970  balanceOf */\n      tag_67\n        /* \"BlockGames_Task3/ypeterc20.sol\":961:980  balanceOf(receiver) */\n      jump\t// in\n    tag_157:\n        /* \"BlockGames_Task3/ypeterc20.sol\":961:994  balanceOf(receiver) + amountToBuy */\n      tag_158\n      swap2\n      swap1\n      tag_128\n      jump\t// in\n    tag_158:\n        /* \"BlockGames_Task3/ypeterc20.sol\":949:958  _balances */\n      0x08\n        /* \"BlockGames_Task3/ypeterc20.sol\":949:994  _balances = balanceOf(receiver) + amountToBuy */\n      dup2\n      swap1\n      sstore\n      pop\n        /* \"BlockGames_Task3/ypeterc20.sol\":1021:1032  amountToBuy */\n      dup1\n        /* \"BlockGames_Task3/ypeterc20.sol\":1005:1017  _totalSupply */\n      0x07\n      0x00\n        /* \"BlockGames_Task3/ypeterc20.sol\":1005:1032  _totalSupply += amountToBuy */\n      dup3\n      dup3\n      sload\n      tag_159\n      swap2\n      swap1\n      tag_128\n      jump\t// in\n    tag_159:\n      swap3\n      pop\n      pop\n      dup2\n      swap1\n      sstore\n      pop\n        /* \"BlockGames_Task3/ypeterc20.sol\":1043:1071  _mint(receiver, amountToBuy) */\n      tag_160\n        /* \"BlockGames_Task3/ypeterc20.sol\":1049:1057  receiver */\n      dup3\n        /* \"BlockGames_Task3/ypeterc20.sol\":1059:1070  amountToBuy */\n      dup3\n        /* \"BlockGames_Task3/ypeterc20.sol\":1043:1048  _mint */\n      tag_137\n        /* \"BlockGames_Task3/ypeterc20.sol\":1043:1071  _mint(receiver, amountToBuy) */\n      jump\t// in\n    tag_160:\n        /* \"BlockGames_Task3/ypeterc20.sol\":1087:1125  onBuy(msg.sender, receiver, _balances) */\n      0x1f437f9d9a2cd912a1b9ef9573239cfd5bfc901558877d14b92f4be14dd23f39\n        /* \"BlockGames_Task3/ypeterc20.sol\":1093:1103  msg.sender */\n      caller\n        /* \"BlockGames_Task3/ypeterc20.sol\":1105:1113  receiver */\n      dup4\n        /* \"BlockGames_Task3/ypeterc20.sol\":1115:1124  _balances */\n      sload(0x08)\n        /* \"BlockGames_Task3/ypeterc20.sol\":1087:1125  onBuy(msg.sender, receiver, _balances) */\n      mload(0x40)\n      tag_161\n      swap4\n      swap3\n      swap2\n      swap1\n      tag_162\n      jump\t// in\n    tag_161:\n      mload(0x40)\n      dup1\n      swap2\n      sub\n      swap1\n      log1\n        /* \"BlockGames_Task3/ypeterc20.sol\":707:1133  function buyToken(address receiver) public payable {\r... */\n      pop\n      pop\n      jump\t// out\n        /* \"@openzeppelin/contracts/access/Ownable.sol\":1036:1121  function owner() public view virtual returns (address) {... */\n    tag_77:\n        /* \"@openzeppelin/contracts/access/Ownable.sol\":1082:1089  address */\n      0x00\n        /* \"@openzeppelin/contracts/access/Ownable.sol\":1108:1114  _owner */\n      0x05\n      0x00\n      swap1\n      sload\n      swap1\n      0x0100\n      exp\n      swap1\n      div\n      0xffffffffffffffffffffffffffffffffffffffff\n      and\n        /* \"@openzeppelin/contracts/access/Ownable.sol\":1101:1114  return _owner */\n      swap1\n      pop\n        /* \"@openzeppelin/contracts/access/Ownable.sol\":1036:1121  function owner() public view virtual returns (address) {... */\n      swap1\n      jump\t// out\n        /* \"@openzeppelin/contracts/token/ERC20/ERC20.sol\":2367:2469  function symbol() public view virtual override returns (string memory) {... */\n    tag_82:\n        /* \"@openzeppelin/contracts/token/ERC20/ERC20.sol\":2423:2436  string memory */\n      0x60\n        /* \"@openzeppelin/contracts/token/ERC20/ERC20.sol\":2455:2462  _symbol */\n      0x04\n        /* \"@openzeppelin/contracts/token/ERC20/ERC20.sol\":2448:2462  return _symbol */\n      dup1\n      sload\n      tag_165\n      swap1\n      tag_106\n      jump\t// in\n    tag_165:\n      dup1\n      0x1f\n      add\n      0x20\n      dup1\n      swap2\n      div\n      mul\n      0x20\n      add\n      mload(0x40)\n      swap1\n      dup2\n      add\n      0x40\n      mstore\n      dup1\n      swap3\n      swap2\n      swap1\n      dup2\n      dup2\n      mstore\n      0x20\n      add\n      dup3\n      dup1\n      sload\n      tag_166\n      swap1\n      tag_106\n      jump\t// in\n    tag_166:\n      dup1\n      iszero\n      tag_167\n      jumpi\n      dup1\n      0x1f\n      lt\n      tag_168\n      jumpi\n      0x0100\n      dup1\n      dup4\n      sload\n      div\n      mul\n      dup4\n      mstore\n      swap2\n      0x20\n      add\n      swap2\n      jump(tag_167)\n    tag_168:\n      dup3\n      add\n      swap2\n      swap1\n      0x00\n      mstore\n      keccak256(0x00, 0x20)\n      swap1\n    tag_169:\n      dup2\n      sload\n      dup2\n      mstore\n      swap1\n      0x01\n      add\n      swap1\n      0x20\n      add\n      dup1\n      dup4\n      gt\n      tag_169\n      jumpi\n      dup3\n      swap1\n      sub\n      0x1f\n      and\n      dup3\n      add\n      swap2\n    tag_167:\n      pop\n      pop\n      pop\n      pop\n      pop\n      swap1\n      pop\n        /* \"@openzeppelin/contracts/token/ERC20/ERC20.sol\":2367:2469  function symbol() public view virtual override returns (string memory) {... */\n      swap1\n      jump\t// out\n        /* \"@openzeppelin/contracts/token/ERC20/ERC20.sol\":6596:7025  function decreaseAllowance(address spender, uint256 subtractedValue) public virtual returns (bool) {... */\n    tag_87:\n        /* \"@openzeppelin/contracts/token/ERC20/ERC20.sol\":6689:6693  bool */\n      0x00\n        /* \"@openzeppelin/contracts/token/ERC20/ERC20.sol\":6705:6718  address owner */\n      dup1\n        /* \"@openzeppelin/contracts/token/ERC20/ERC20.sol\":6721:6733  _msgSender() */\n      tag_171\n        /* \"@openzeppelin/contracts/token/ERC20/ERC20.sol\":6721:6731  _msgSender */\n      tag_113\n        /* \"@openzeppelin/contracts/token/ERC20/ERC20.sol\":6721:6733  _msgSender() */\n      jump\t// in\n    tag_171:\n        /* \"@openzeppelin/contracts/token/ERC20/ERC20.sol\":6705:6733  address owner = _msgSender() */\n      swap1\n      pop\n        /* \"@openzeppelin/contracts/token/ERC20/ERC20.sol\":6743:6767  uint256 currentAllowance */\n      0x00\n        /* \"@openzeppelin/contracts/token/ERC20/ERC20.sol\":6770:6781  _allowances */\n      0x01\n        /* \"@openzeppelin/contracts/token/ERC20/ERC20.sol\":6770:6788  _allowances[owner] */\n      0x00\n        /* \"@openzeppelin/contracts/token/ERC20/ERC20.sol\":6782:6787  owner */\n      dup4\n        /* \"@openzeppelin/contracts/token/ERC20/ERC20.sol\":6770:6788  _allowances[owner] */\n      0xffffffffffffffffffffffffffffffffffffffff\n      and\n      0xffffffffffffffffffffffffffffffffffffffff\n      and\n      dup2\n      mstore\n      0x20\n      add\n      swap1\n      dup2\n      mstore\n      0x20\n      add\n      0x00\n      keccak256\n        /* \"@openzeppelin/contracts/token/ERC20/ERC20.sol\":6770:6797  _allowances[owner][spender] */\n      0x00\n        /* \"@openzeppelin/contracts/token/ERC20/ERC20.sol\":6789:6796  spender */\n      dup7\n        /* \"@openzeppelin/contracts/token/ERC20/ERC20.sol\":6770:6797  _allowances[owner][spender] */\n      0xffffffffffffffffffffffffffffffffffffffff\n      and\n      0xffffffffffffffffffffffffffffffffffffffff\n      and\n      dup2\n      mstore\n      0x20\n      add\n      swap1\n      dup2\n      mstore\n      0x20\n      add\n      0x00\n      keccak256\n      sload\n        /* \"@openzeppelin/contracts/token/ERC20/ERC20.sol\":6743:6797  uint256 currentAllowance = _allowances[owner][spender] */\n      swap1\n      pop\n        /* \"@openzeppelin/contracts/token/ERC20/ERC20.sol\":6835:6850  subtractedValue */\n      dup4\n        /* \"@openzeppelin/contracts/token/ERC20/ERC20.sol\":6815:6831  currentAllowance */\n      dup2\n        /* \"@openzeppelin/contracts/token/ERC20/ERC20.sol\":6815:6850  currentAllowance >= subtractedValue */\n      lt\n      iszero\n        /* \"@openzeppelin/contracts/token/ERC20/ERC20.sol\":6807:6892  require(currentAllowance >= subtractedValue, \"ERC20: decreased allowance below zero\") */\n      tag_172\n      jumpi\n      mload(0x40)\n      0x08c379a000000000000000000000000000000000000000000000000000000000\n      dup2\n      mstore\n      0x04\n      add\n      tag_173\n      swap1\n      tag_174\n      jump\t// in\n    tag_173:\n      mload(0x40)\n      dup1\n      swap2\n      sub\n      swap1\n      revert\n    tag_172:\n        /* \"@openzeppelin/contracts/token/ERC20/ERC20.sol\":6926:6986  _approve(owner, spender, currentAllowance - subtractedValue) */\n      tag_175\n        /* \"@openzeppelin/contracts/token/ERC20/ERC20.sol\":6935:6940  owner */\n      dup3\n        /* \"@openzeppelin/contracts/token/ERC20/ERC20.sol\":6942:6949  spender */\n      dup7\n        /* \"@openzeppelin/contracts/token/ERC20/ERC20.sol\":6970:6985  subtractedValue */\n      dup7\n        /* \"@openzeppelin/contracts/token/ERC20/ERC20.sol\":6951:6967  currentAllowance */\n      dup5\n        /* \"@openzeppelin/contracts/token/ERC20/ERC20.sol\":6951:6985  currentAllowance - subtractedValue */\n      sub\n        /* \"@openzeppelin/contracts/token/ERC20/ERC20.sol\":6926:6934  _approve */\n      tag_115\n        /* \"@openzeppelin/contracts/token/ERC20/ERC20.sol\":6926:6986  _approve(owner, spender, currentAllowance - subtractedValue) */\n      jump\t// in\n    tag_175:\n        /* \"@openzeppelin/contracts/token/ERC20/ERC20.sol\":7014:7018  true */\n      0x01\n        /* \"@openzeppelin/contracts/token/ERC20/ERC20.sol\":7007:7018  return true */\n      swap3\n      pop\n      pop\n      pop\n        /* \"@openzeppelin/contracts/token/ERC20/ERC20.sol\":6596:7025  function decreaseAllowance(address spender, uint256 subtractedValue) public virtual returns (bool) {... */\n      swap3\n      swap2\n      pop\n      pop\n      jump\t// out\n        /* \"@openzeppelin/contracts/token/ERC20/ERC20.sol\":3729:3918  function transfer(address to, uint256 amount) public virtual override returns (bool) {... */\n    tag_92:\n        /* \"@openzeppelin/contracts/token/ERC20/ERC20.sol\":3808:3812  bool */\n      0x00\n        /* \"@openzeppelin/contracts/token/ERC20/ERC20.sol\":3824:3837  address owner */\n      dup1\n        /* \"@openzeppelin/contracts/token/ERC20/ERC20.sol\":3840:3852  _msgSender() */\n      tag_177\n        /* \"@openzeppelin/contracts/token/ERC20/ERC20.sol\":3840:3850  _msgSender */\n      tag_113\n        /* \"@openzeppelin/contracts/token/ERC20/ERC20.sol\":3840:3852  _msgSender() */\n      jump\t// in\n    tag_177:\n        /* \"@openzeppelin/contracts/token/ERC20/ERC20.sol\":3824:3852  address owner = _msgSender() */\n      swap1\n      pop\n        /* \"@openzeppelin/contracts/token/ERC20/ERC20.sol\":3862:3890  _transfer(owner, to, amount) */\n      tag_178\n        /* \"@openzeppelin/contracts/token/ERC20/ERC20.sol\":3872:3877  owner */\n      dup2\n        /* \"@openzeppelin/contracts/token/ERC20/ERC20.sol\":3879:3881  to */\n      dup6\n        /* \"@openzeppelin/contracts/token/ERC20/ERC20.sol\":3883:3889  amount */\n      dup6\n        /* \"@openzeppelin/contracts/token/ERC20/ERC20.sol\":3862:3871  _transfer */\n      tag_122\n        /* \"@openzeppelin/contracts/token/ERC20/ERC20.sol\":3862:3890  _transfer(owner, to, amount) */\n      jump\t// in\n    tag_178:\n        /* \"@openzeppelin/contracts/token/ERC20/ERC20.sol\":3907:3911  true */\n      0x01\n        /* \"@openzeppelin/contracts/token/ERC20/ERC20.sol\":3900:3911  return true */\n      swap2\n      pop\n      pop\n        /* \"@openzeppelin/contracts/token/ERC20/ERC20.sol\":3729:3918  function transfer(address to, uint256 amount) public virtual override returns (bool) {... */\n      swap3\n      swap2\n      pop\n      pop\n      jump\t// out\n        /* \"@openzeppelin/contracts/token/ERC20/ERC20.sol\":3976:4125  function allowance(address owner, address spender) public view virtual override returns (uint256) {... */\n    tag_98:\n        /* \"@openzeppelin/contracts/token/ERC20/ERC20.sol\":4065:4072  uint256 */\n      0x00\n        /* \"@openzeppelin/contracts/token/ERC20/ERC20.sol\":4091:4102  _allowances */\n      0x01\n        /* \"@openzeppelin/contracts/token/ERC20/ERC20.sol\":4091:4109  _allowances[owner] */\n      0x00\n        /* \"@openzeppelin/contracts/token/ERC20/ERC20.sol\":4103:4108  owner */\n      dup5\n        /* \"@openzeppelin/contracts/token/ERC20/ERC20.sol\":4091:4109  _allowances[owner] */\n      0xffffffffffffffffffffffffffffffffffffffff\n      and\n      0xffffffffffffffffffffffffffffffffffffffff\n      and\n      dup2\n      mstore\n      0x20\n      add\n      swap1\n      dup2\n      mstore\n      0x20\n      add\n      0x00\n      keccak256\n        /* \"@openzeppelin/contracts/token/ERC20/ERC20.sol\":4091:4118  _allowances[owner][spender] */\n      0x00\n        /* \"@openzeppelin/contracts/token/ERC20/ERC20.sol\":4110:4117  spender */\n      dup4\n        /* \"@openzeppelin/contracts/token/ERC20/ERC20.sol\":4091:4118  _allowances[owner][spender] */\n      0xffffffffffffffffffffffffffffffffffffffff\n      and\n      0xffffffffffffffffffffffffffffffffffffffff\n      and\n      dup2\n      mstore\n      0x20\n      add\n      swap1\n      dup2\n      mstore\n      0x20\n      add\n      0x00\n      keccak256\n      sload\n        /* \"@openzeppelin/contracts/token/ERC20/ERC20.sol\":4084:4118  return _allowances[owner][spender] */\n      swap1\n      pop\n        /* \"@openzeppelin/contracts/token/ERC20/ERC20.sol\":3976:4125  function allowance(address owner, address spender) public view virtual override returns (uint256) {... */\n      swap3\n      swap2\n      pop\n      pop\n      jump\t// out\n        /* \"@openzeppelin/contracts/access/Ownable.sol\":1918:2116  function transferOwnership(address newOwner) public virtual onlyOwner {... */\n    tag_103:\n        /* \"@openzeppelin/contracts/access/Ownable.sol\":1259:1271  _msgSender() */\n      tag_181\n        /* \"@openzeppelin/contracts/access/Ownable.sol\":1259:1269  _msgSender */\n      tag_113\n        /* \"@openzeppelin/contracts/access/Ownable.sol\":1259:1271  _msgSender() */\n      jump\t// in\n    tag_181:\n        /* \"@openzeppelin/contracts/access/Ownable.sol\":1248:1271  owner() == _msgSender() */\n      0xffffffffffffffffffffffffffffffffffffffff\n      and\n        /* \"@openzeppelin/contracts/access/Ownable.sol\":1248:1255  owner() */\n      tag_182\n        /* \"@openzeppelin/contracts/access/Ownable.sol\":1248:1253  owner */\n      tag_77\n        /* \"@openzeppelin/contracts/access/Ownable.sol\":1248:1255  owner() */\n      jump\t// in\n    tag_182:\n        /* \"@openzeppelin/contracts/access/Ownable.sol\":1248:1271  owner() == _msgSender() */\n      0xffffffffffffffffffffffffffffffffffffffff\n      and\n      eq\n        /* \"@openzeppelin/contracts/access/Ownable.sol\":1240:1308  require(owner() == _msgSender(), \"Ownable: caller is not the owner\") */\n      tag_183\n      jumpi\n      mload(0x40)\n      0x08c379a000000000000000000000000000000000000000000000000000000000\n      dup2\n      mstore\n      0x04\n      add\n      tag_184\n      swap1\n      tag_134\n      jump\t// in\n    tag_184:\n      mload(0x40)\n      dup1\n      swap2\n      sub\n      swap1\n      revert\n    tag_183:\n        /* \"@openzeppelin/contracts/access/Ownable.sol\":2026:2027  0 */\n      0x00\n        /* \"@openzeppelin/contracts/access/Ownable.sol\":2006:2028  newOwner != address(0) */\n      0xffffffffffffffffffffffffffffffffffffffff\n      and\n        /* \"@openzeppelin/contracts/access/Ownable.sol\":2006:2014  newOwner */\n      dup2\n        /* \"@openzeppelin/contracts/access/Ownable.sol\":2006:2028  newOwner != address(0) */\n      0xffffffffffffffffffffffffffffffffffffffff\n      and\n      eq\n      iszero\n        /* \"@openzeppelin/contracts/access/Ownable.sol\":1998:2071  require(newOwner != address(0), \"Ownable: new owner is the zero address\") */\n      tag_186\n      jumpi\n      mload(0x40)\n      0x08c379a000000000000000000000000000000000000000000000000000000000\n      dup2\n      mstore\n      0x04\n      add\n      tag_187\n      swap1\n      tag_188\n      jump\t// in\n    tag_187:\n      mload(0x40)\n      dup1\n      swap2\n      sub\n      swap1\n      revert\n    tag_186:\n        /* \"@openzeppelin/contracts/access/Ownable.sol\":2081:2109  _transferOwnership(newOwner) */\n      tag_189\n        /* \"@openzeppelin/contracts/access/Ownable.sol\":2100:2108  newOwner */\n      dup2\n        /* \"@openzeppelin/contracts/access/Ownable.sol\":2081:2099  _transferOwnership */\n      tag_146\n        /* \"@openzeppelin/contracts/access/Ownable.sol\":2081:2109  _transferOwnership(newOwner) */\n      jump\t// in\n    tag_189:\n        /* \"@openzeppelin/contracts/access/Ownable.sol\":1918:2116  function transferOwnership(address newOwner) public virtual onlyOwner {... */\n      pop\n      jump\t// out\n        /* \"@openzeppelin/contracts/utils/Context.sol\":640:736  function _msgSender() internal view virtual returns (address) {... */\n    tag_113:\n        /* \"@openzeppelin/contracts/utils/Context.sol\":693:700  address */\n      0x00\n        /* \"@openzeppelin/contracts/utils/Context.sol\":719:729  msg.sender */\n      caller\n        /* \"@openzeppelin/contracts/utils/Context.sol\":712:729  return msg.sender */\n      swap1\n      pop\n        /* \"@openzeppelin/contracts/utils/Context.sol\":640:736  function _msgSender() internal view virtual returns (address) {... */\n      swap1\n      jump\t// out\n        /* \"@openzeppelin/contracts/token/ERC20/ERC20.sol\":10123:10493  function _approve(... */\n    tag_115:\n        /* \"@openzeppelin/contracts/token/ERC20/ERC20.sol\":10271:10272  0 */\n      0x00\n        /* \"@openzeppelin/contracts/token/ERC20/ERC20.sol\":10254:10273  owner != address(0) */\n      0xffffffffffffffffffffffffffffffffffffffff\n      and\n        /* \"@openzeppelin/contracts/token/ERC20/ERC20.sol\":10254:10259  owner */\n      dup4\n        /* \"@openzeppelin/contracts/token/ERC20/ERC20.sol\":10254:10273  owner != address(0) */\n      0xffffffffffffffffffffffffffffffffffffffff\n      and\n      eq\n      iszero\n        /* \"@openzeppelin/contracts/token/ERC20/ERC20.sol\":10246:10314  require(owner != address(0), \"ERC20: approve from the zero address\") */\n      tag_192\n      jumpi\n      mload(0x40)\n      0x08c379a000000000000000000000000000000000000000000000000000000000\n      dup2\n      mstore\n      0x04\n      add\n      tag_193\n      swap1\n      tag_194\n      jump\t// in\n    tag_193:\n      mload(0x40)\n      dup1\n      swap2\n      sub\n      swap1\n      revert\n    tag_192:\n        /* \"@openzeppelin/contracts/token/ERC20/ERC20.sol\":10351:10352  0 */\n      0x00\n        /* \"@openzeppelin/contracts/token/ERC20/ERC20.sol\":10332:10353  spender != address(0) */\n      0xffffffffffffffffffffffffffffffffffffffff\n      and\n        /* \"@openzeppelin/contracts/token/ERC20/ERC20.sol\":10332:10339  spender */\n      dup3\n        /* \"@openzeppelin/contracts/token/ERC20/ERC20.sol\":10332:10353  spender != address(0) */\n      0xffffffffffffffffffffffffffffffffffffffff\n      and\n      eq\n      iszero\n        /* \"@openzeppelin/contracts/token/ERC20/ERC20.sol\":10324:10392  require(spender != address(0), \"ERC20: approve to the zero address\") */\n      tag_195\n      jumpi\n      mload(0x40)\n      0x08c379a000000000000000000000000000000000000000000000000000000000\n      dup2\n      mstore\n      0x04\n      add\n      tag_196\n      swap1\n      tag_197\n      jump\t// in\n    tag_196:\n      mload(0x40)\n      dup1\n      swap2\n      sub\n      swap1\n      revert\n    tag_195:\n        /* \"@openzeppelin/contracts/token/ERC20/ERC20.sol\":10433:10439  amount */\n      dup1\n        /* \"@openzeppelin/contracts/token/ERC20/ERC20.sol\":10403:10414  _allowances */\n      0x01\n        /* \"@openzeppelin/contracts/token/ERC20/ERC20.sol\":10403:10421  _allowances[owner] */\n      0x00\n        /* \"@openzeppelin/contracts/token/ERC20/ERC20.sol\":10415:10420  owner */\n      dup6\n        /* \"@openzeppelin/contracts/token/ERC20/ERC20.sol\":10403:10421  _allowances[owner] */\n      0xffffffffffffffffffffffffffffffffffffffff\n      and\n      0xffffffffffffffffffffffffffffffffffffffff\n      and\n      dup2\n      mstore\n      0x20\n      add\n      swap1\n      dup2\n      mstore\n      0x20\n      add\n      0x00\n      keccak256\n        /* \"@openzeppelin/contracts/token/ERC20/ERC20.sol\":10403:10430  _allowances[owner][spender] */\n      0x00\n        /* \"@openzeppelin/contracts/token/ERC20/ERC20.sol\":10422:10429  spender */\n      dup5\n        /* \"@openzeppelin/contracts/token/ERC20/ERC20.sol\":10403:10430  _allowances[owner][spender] */\n      0xffffffffffffffffffffffffffffffffffffffff\n      and\n      0xffffffffffffffffffffffffffffffffffffffff\n      and\n      dup2\n      mstore\n      0x20\n      add\n      swap1\n      dup2\n      mstore\n      0x20\n      add\n      0x00\n      keccak256\n        /* \"@openzeppelin/contracts/token/ERC20/ERC20.sol\":10403:10439  _allowances[owner][spender] = amount */\n      dup2\n      swap1\n      sstore\n      pop\n        /* \"@openzeppelin/contracts/token/ERC20/ERC20.sol\":10470:10477  spender */\n      dup2\n        /* \"@openzeppelin/contracts/token/ERC20/ERC20.sol\":10454:10486  Approval(owner, spender, amount) */\n      0xffffffffffffffffffffffffffffffffffffffff\n      and\n        /* \"@openzeppelin/contracts/token/ERC20/ERC20.sol\":10463:10468  owner */\n      dup4\n        /* \"@openzeppelin/contracts/token/ERC20/ERC20.sol\":10454:10486  Approval(owner, spender, amount) */\n      0xffffffffffffffffffffffffffffffffffffffff\n      and\n      0x8c5be1e5ebec7d5bd14f71427d1e84f3dd0314c0f7b2291e5b200ac8c7c3b925\n        /* \"@openzeppelin/contracts/token/ERC20/ERC20.sol\":10479:10485  amount */\n      dup4\n        /* \"@openzeppelin/contracts/token/ERC20/ERC20.sol\":10454:10486  Approval(owner, spender, amount) */\n      mload(0x40)\n      tag_198\n      swap2\n      swap1\n      tag_38\n      jump\t// in\n    tag_198:\n      mload(0x40)\n      dup1\n      swap2\n      sub\n      swap1\n      log3\n        /* \"@openzeppelin/contracts/token/ERC20/ERC20.sol\":10123:10493  function _approve(... */\n      pop\n      pop\n      pop\n      jump\t// out\n        /* \"@openzeppelin/contracts/token/ERC20/ERC20.sol\":10770:11211  function _spendAllowance(... */\n    tag_120:\n        /* \"@openzeppelin/contracts/token/ERC20/ERC20.sol\":10900:10924  uint256 currentAllowance */\n      0x00\n        /* \"@openzeppelin/contracts/token/ERC20/ERC20.sol\":10927:10952  allowance(owner, spender) */\n      tag_200\n        /* \"@openzeppelin/contracts/token/ERC20/ERC20.sol\":10937:10942  owner */\n      dup5\n        /* \"@openzeppelin/contracts/token/ERC20/ERC20.sol\":10944:10951  spender */\n      dup5\n        /* \"@openzeppelin/contracts/token/ERC20/ERC20.sol\":10927:10936  allowance */\n      tag_98\n        /* \"@openzeppelin/contracts/token/ERC20/ERC20.sol\":10927:10952  allowance(owner, spender) */\n      jump\t// in\n    tag_200:\n        /* \"@openzeppelin/contracts/token/ERC20/ERC20.sol\":10900:10952  uint256 currentAllowance = allowance(owner, spender) */\n      swap1\n      pop\n        /* \"@openzeppelin/contracts/token/ERC20/ERC20.sol\":10986:11003  type(uint256).max */\n      0xffffffffffffffffffffffffffffffffffffffffffffffffffffffffffffffff\n        /* \"@openzeppelin/contracts/token/ERC20/ERC20.sol\":10966:10982  currentAllowance */\n      dup2\n        /* \"@openzeppelin/contracts/token/ERC20/ERC20.sol\":10966:11003  currentAllowance != type(uint256).max */\n      eq\n        /* \"@openzeppelin/contracts/token/ERC20/ERC20.sol\":10962:11205  if (currentAllowance != type(uint256).max) {... */\n      tag_201\n      jumpi\n        /* \"@openzeppelin/contracts/token/ERC20/ERC20.sol\":11047:11053  amount */\n      dup2\n        /* \"@openzeppelin/contracts/token/ERC20/ERC20.sol\":11027:11043  currentAllowance */\n      dup2\n        /* \"@openzeppelin/contracts/token/ERC20/ERC20.sol\":11027:11053  currentAllowance >= amount */\n      lt\n      iszero\n        /* \"@openzeppelin/contracts/token/ERC20/ERC20.sol\":11019:11087  require(currentAllowance >= amount, \"ERC20: insufficient allowance\") */\n      tag_202\n      jumpi\n      mload(0x40)\n      0x08c379a000000000000000000000000000000000000000000000000000000000\n      dup2\n      mstore\n      0x04\n      add\n      tag_203\n      swap1\n      tag_204\n      jump\t// in\n    tag_203:\n      mload(0x40)\n      dup1\n      swap2\n      sub\n      swap1\n      revert\n    tag_202:\n        /* \"@openzeppelin/contracts/token/ERC20/ERC20.sol\":11129:11180  _approve(owner, spender, currentAllowance - amount) */\n      tag_205\n        /* \"@openzeppelin/contracts/token/ERC20/ERC20.sol\":11138:11143  owner */\n      dup5\n        /* \"@openzeppelin/contracts/token/ERC20/ERC20.sol\":11145:11152  spender */\n      dup5\n        /* \"@openzeppelin/contracts/token/ERC20/ERC20.sol\":11173:11179  amount */\n      dup5\n        /* \"@openzeppelin/contracts/token/ERC20/ERC20.sol\":11154:11170  currentAllowance */\n      dup5\n        /* \"@openzeppelin/contracts/token/ERC20/ERC20.sol\":11154:11179  currentAllowance - amount */\n      sub\n        /* \"@openzeppelin/contracts/token/ERC20/ERC20.sol\":11129:11137  _approve */\n      tag_115\n        /* \"@openzeppelin/contracts/token/ERC20/ERC20.sol\":11129:11180  _approve(owner, spender, currentAllowance - amount) */\n      jump\t// in\n    tag_205:\n        /* \"@openzeppelin/contracts/token/ERC20/ERC20.sol\":10962:11205  if (currentAllowance != type(uint256).max) {... */\n    tag_201:\n        /* \"@openzeppelin/contracts/token/ERC20/ERC20.sol\":10770:11211  function _spendAllowance(... */\n      pop\n      pop\n      pop\n      pop\n      jump\t// out\n        /* \"@openzeppelin/contracts/token/ERC20/ERC20.sol\":7488:8139  function _transfer(... */\n    tag_122:\n        /* \"@openzeppelin/contracts/token/ERC20/ERC20.sol\":7630:7631  0 */\n      0x00\n        /* \"@openzeppelin/contracts/token/ERC20/ERC20.sol\":7614:7632  from != address(0) */\n      0xffffffffffffffffffffffffffffffffffffffff\n      and\n        /* \"@openzeppelin/contracts/token/ERC20/ERC20.sol\":7614:7618  from */\n      dup4\n        /* \"@openzeppelin/contracts/token/ERC20/ERC20.sol\":7614:7632  from != address(0) */\n      0xffffffffffffffffffffffffffffffffffffffff\n      and\n      eq\n      iszero\n        /* \"@openzeppelin/contracts/token/ERC20/ERC20.sol\":7606:7674  require(from != address(0), \"ERC20: transfer from the zero address\") */\n      tag_207\n      jumpi\n      mload(0x40)\n      0x08c379a000000000000000000000000000000000000000000000000000000000\n      dup2\n      mstore\n      0x04\n      add\n      tag_208\n      swap1\n      tag_209\n      jump\t// in\n    tag_208:\n      mload(0x40)\n      dup1\n      swap2\n      sub\n      swap1\n      revert\n    tag_207:\n        /* \"@openzeppelin/contracts/token/ERC20/ERC20.sol\":7706:7707  0 */\n      0x00\n        /* \"@openzeppelin/contracts/token/ERC20/ERC20.sol\":7692:7708  to != address(0) */\n      0xffffffffffffffffffffffffffffffffffffffff\n      and\n        /* \"@openzeppelin/contracts/token/ERC20/ERC20.sol\":7692:7694  to */\n      dup3\n        /* \"@openzeppelin/contracts/token/ERC20/ERC20.sol\":7692:7708  to != address(0) */\n      0xffffffffffffffffffffffffffffffffffffffff\n      and\n      eq\n      iszero\n        /* \"@openzeppelin/contracts/token/ERC20/ERC20.sol\":7684:7748  require(to != address(0), \"ERC20: transfer to the zero address\") */\n      tag_210\n      jumpi\n      mload(0x40)\n      0x08c379a000000000000000000000000000000000000000000000000000000000\n      dup2\n      mstore\n      0x04\n      add\n      tag_211\n      swap1\n      tag_212\n      jump\t// in\n    tag_211:\n      mload(0x40)\n      dup1\n      swap2\n      sub\n      swap1\n      revert\n    tag_210:\n        /* \"@openzeppelin/contracts/token/ERC20/ERC20.sol\":7759:7797  _beforeTokenTransfer(from, to, amount) */\n      tag_213\n        /* \"@openzeppelin/contracts/token/ERC20/ERC20.sol\":7780:7784  from */\n      dup4\n        /* \"@openzeppelin/contracts/token/ERC20/ERC20.sol\":7786:7788  to */\n      dup4\n        /* \"@openzeppelin/contracts/token/ERC20/ERC20.sol\":7790:7796  amount */\n      dup4\n        /* \"@openzeppelin/contracts/token/ERC20/ERC20.sol\":7759:7779  _beforeTokenTransfer */\n      tag_214\n        /* \"@openzeppelin/contracts/token/ERC20/ERC20.sol\":7759:7797  _beforeTokenTransfer(from, to, amount) */\n      jump\t// in\n    tag_213:\n        /* \"@openzeppelin/contracts/token/ERC20/ERC20.sol\":7808:7827  uint256 fromBalance */\n      0x00\n        /* \"@openzeppelin/contracts/token/ERC20/ERC20.sol\":7830:7839  _balances */\n      dup1\n        /* \"@openzeppelin/contracts/token/ERC20/ERC20.sol\":7830:7845  _balances[from] */\n      0x00\n        /* \"@openzeppelin/contracts/token/ERC20/ERC20.sol\":7840:7844  from */\n      dup6\n        /* \"@openzeppelin/contracts/token/ERC20/ERC20.sol\":7830:7845  _balances[from] */\n      0xffffffffffffffffffffffffffffffffffffffff\n      and\n      0xffffffffffffffffffffffffffffffffffffffff\n      and\n      dup2\n      mstore\n      0x20\n      add\n      swap1\n      dup2\n      mstore\n      0x20\n      add\n      0x00\n      keccak256\n      sload\n        /* \"@openzeppelin/contracts/token/ERC20/ERC20.sol\":7808:7845  uint256 fromBalance = _balances[from] */\n      swap1\n      pop\n        /* \"@openzeppelin/contracts/token/ERC20/ERC20.sol\":7878:7884  amount */\n      dup2\n        /* \"@openzeppelin/contracts/token/ERC20/ERC20.sol\":7863:7874  fromBalance */\n      dup2\n        /* \"@openzeppelin/contracts/token/ERC20/ERC20.sol\":7863:7884  fromBalance >= amount */\n      lt\n      iszero\n        /* \"@openzeppelin/contracts/token/ERC20/ERC20.sol\":7855:7927  require(fromBalance >= amount, \"ERC20: transfer amount exceeds balance\") */\n      tag_215\n      jumpi\n      mload(0x40)\n      0x08c379a000000000000000000000000000000000000000000000000000000000\n      dup2\n      mstore\n      0x04\n      add\n      tag_216\n      swap1\n      tag_217\n      jump\t// in\n    tag_216:\n      mload(0x40)\n      dup1\n      swap2\n      sub\n      swap1\n      revert\n    tag_215:\n        /* \"@openzeppelin/contracts/token/ERC20/ERC20.sol\":7993:7999  amount */\n      dup2\n        /* \"@openzeppelin/contracts/token/ERC20/ERC20.sol\":7979:7990  fromBalance */\n      dup2\n        /* \"@openzeppelin/contracts/token/ERC20/ERC20.sol\":7979:7999  fromBalance - amount */\n      sub\n        /* \"@openzeppelin/contracts/token/ERC20/ERC20.sol\":7961:7970  _balances */\n      0x00\n        /* \"@openzeppelin/contracts/token/ERC20/ERC20.sol\":7961:7976  _balances[from] */\n      dup1\n        /* \"@openzeppelin/contracts/token/ERC20/ERC20.sol\":7971:7975  from */\n      dup7\n        /* \"@openzeppelin/contracts/token/ERC20/ERC20.sol\":7961:7976  _balances[from] */\n      0xffffffffffffffffffffffffffffffffffffffff\n      and\n      0xffffffffffffffffffffffffffffffffffffffff\n      and\n      dup2\n      mstore\n      0x20\n      add\n      swap1\n      dup2\n      mstore\n      0x20\n      add\n      0x00\n      keccak256\n        /* \"@openzeppelin/contracts/token/ERC20/ERC20.sol\":7961:7999  _balances[from] = fromBalance - amount */\n      dup2\n      swap1\n      sstore\n      pop\n        /* \"@openzeppelin/contracts/token/ERC20/ERC20.sol\":8036:8042  amount */\n      dup2\n        /* \"@openzeppelin/contracts/token/ERC20/ERC20.sol\":8019:8028  _balances */\n      0x00\n        /* \"@openzeppelin/contracts/token/ERC20/ERC20.sol\":8019:8032  _balances[to] */\n      dup1\n        /* \"@openzeppelin/contracts/token/ERC20/ERC20.sol\":8029:8031  to */\n      dup6\n        /* \"@openzeppelin/contracts/token/ERC20/ERC20.sol\":8019:8032  _balances[to] */\n      0xffffffffffffffffffffffffffffffffffffffff\n      and\n      0xffffffffffffffffffffffffffffffffffffffff\n      and\n      dup2\n      mstore\n      0x20\n      add\n      swap1\n      dup2\n      mstore\n      0x20\n      add\n      0x00\n      keccak256\n      0x00\n        /* \"@openzeppelin/contracts/token/ERC20/ERC20.sol\":8019:8042  _balances[to] += amount */\n      dup3\n      dup3\n      sload\n      tag_218\n      swap2\n      swap1\n      tag_128\n      jump\t// in\n    tag_218:\n      swap3\n      pop\n      pop\n      dup2\n      swap1\n      sstore\n      pop\n        /* \"@openzeppelin/contracts/token/ERC20/ERC20.sol\":8073:8075  to */\n      dup3\n        /* \"@openzeppelin/contracts/token/ERC20/ERC20.sol\":8058:8084  Transfer(from, to, amount) */\n      0xffffffffffffffffffffffffffffffffffffffff\n      and\n        /* \"@openzeppelin/contracts/token/ERC20/ERC20.sol\":8067:8071  from */\n      dup5\n        /* \"@openzeppelin/contracts/token/ERC20/ERC20.sol\":8058:8084  Transfer(from, to, amount) */\n      0xffffffffffffffffffffffffffffffffffffffff\n      and\n      0xddf252ad1be2c89b69c2b068fc378daa952ba7f163c4a11628f55a4df523b3ef\n        /* \"@openzeppelin/contracts/token/ERC20/ERC20.sol\":8077:8083  amount */\n      dup5\n        /* \"@openzeppelin/contracts/token/ERC20/ERC20.sol\":8058:8084  Transfer(from, to, amount) */\n      mload(0x40)\n      tag_219\n      swap2\n      swap1\n      tag_38\n      jump\t// in\n    tag_219:\n      mload(0x40)\n      dup1\n      swap2\n      sub\n      swap1\n      log3\n        /* \"@openzeppelin/contracts/token/ERC20/ERC20.sol\":8095:8132  _afterTokenTransfer(from, to, amount) */\n      tag_220\n        /* \"@openzeppelin/contracts/token/ERC20/ERC20.sol\":8115:8119  from */\n      dup5\n        /* \"@openzeppelin/contracts/token/ERC20/ERC20.sol\":8121:8123  to */\n      dup5\n        /* \"@openzeppelin/contracts/token/ERC20/ERC20.sol\":8125:8131  amount */\n      dup5\n        /* \"@openzeppelin/contracts/token/ERC20/ERC20.sol\":8095:8114  _afterTokenTransfer */\n      tag_221\n        /* \"@openzeppelin/contracts/token/ERC20/ERC20.sol\":8095:8132  _afterTokenTransfer(from, to, amount) */\n      jump\t// in\n    tag_220:\n        /* \"@openzeppelin/contracts/token/ERC20/ERC20.sol\":7488:8139  function _transfer(... */\n      pop\n      pop\n      pop\n      pop\n      jump\t// out\n        /* \"@openzeppelin/contracts/token/ERC20/ERC20.sol\":8415:8804  function _mint(address account, uint256 amount) internal virtual {... */\n    tag_137:\n        /* \"@openzeppelin/contracts/token/ERC20/ERC20.sol\":8517:8518  0 */\n      0x00\n        /* \"@openzeppelin/contracts/token/ERC20/ERC20.sol\":8498:8519  account != address(0) */\n      0xffffffffffffffffffffffffffffffffffffffff\n      and\n        /* \"@openzeppelin/contracts/token/ERC20/ERC20.sol\":8498:8505  account */\n      dup3\n        /* \"@openzeppelin/contracts/token/ERC20/ERC20.sol\":8498:8519  account != address(0) */\n      0xffffffffffffffffffffffffffffffffffffffff\n      and\n      eq\n      iszero\n        /* \"@openzeppelin/contracts/token/ERC20/ERC20.sol\":8490:8555  require(account != address(0), \"ERC20: mint to the zero address\") */\n      tag_223\n      jumpi\n      mload(0x40)\n      0x08c379a000000000000000000000000000000000000000000000000000000000\n      dup2\n      mstore\n      0x04\n      add\n      tag_224\n      swap1\n      tag_225\n      jump\t// in\n    tag_224:\n      mload(0x40)\n      dup1\n      swap2\n      sub\n      swap1\n      revert\n    tag_223:\n        /* \"@openzeppelin/contracts/token/ERC20/ERC20.sol\":8566:8615  _beforeTokenTransfer(address(0), account, amount) */\n      tag_226\n        /* \"@openzeppelin/contracts/token/ERC20/ERC20.sol\":8595:8596  0 */\n      0x00\n        /* \"@openzeppelin/contracts/token/ERC20/ERC20.sol\":8599:8606  account */\n      dup4\n        /* \"@openzeppelin/contracts/token/ERC20/ERC20.sol\":8608:8614  amount */\n      dup4\n        /* \"@openzeppelin/contracts/token/ERC20/ERC20.sol\":8566:8586  _beforeTokenTransfer */\n      tag_214\n        /* \"@openzeppelin/contracts/token/ERC20/ERC20.sol\":8566:8615  _beforeTokenTransfer(address(0), account, amount) */\n      jump\t// in\n    tag_226:\n        /* \"@openzeppelin/contracts/token/ERC20/ERC20.sol\":8642:8648  amount */\n      dup1\n        /* \"@openzeppelin/contracts/token/ERC20/ERC20.sol\":8626:8638  _totalSupply */\n      0x02\n      0x00\n        /* \"@openzeppelin/contracts/token/ERC20/ERC20.sol\":8626:8648  _totalSupply += amount */\n      dup3\n      dup3\n      sload\n      tag_227\n      swap2\n      swap1\n      tag_128\n      jump\t// in\n    tag_227:\n      swap3\n      pop\n      pop\n      dup2\n      swap1\n      sstore\n      pop\n        /* \"@openzeppelin/contracts/token/ERC20/ERC20.sol\":8680:8686  amount */\n      dup1\n        /* \"@openzeppelin/contracts/token/ERC20/ERC20.sol\":8658:8667  _balances */\n      0x00\n        /* \"@openzeppelin/contracts/token/ERC20/ERC20.sol\":8658:8676  _balances[account] */\n      dup1\n        /* \"@openzeppelin/contracts/token/ERC20/ERC20.sol\":8668:8675  account */\n      dup5\n        /* \"@openzeppelin/contracts/token/ERC20/ERC20.sol\":8658:8676  _balances[account] */\n      0xffffffffffffffffffffffffffffffffffffffff\n      and\n      0xffffffffffffffffffffffffffffffffffffffff\n      and\n      dup2\n      mstore\n      0x20\n      add\n      swap1\n      dup2\n      mstore\n      0x20\n      add\n      0x00\n      keccak256\n      0x00\n        /* \"@openzeppelin/contracts/token/ERC20/ERC20.sol\":8658:8686  _balances[account] += amount */\n      dup3\n      dup3\n      sload\n      tag_228\n      swap2\n      swap1\n      tag_128\n      jump\t// in\n    tag_228:\n      swap3\n      pop\n      pop\n      dup2\n      swap1\n      sstore\n      pop\n        /* \"@openzeppelin/contracts/token/ERC20/ERC20.sol\":8722:8729  account */\n      dup2\n        /* \"@openzeppelin/contracts/token/ERC20/ERC20.sol\":8701:8738  Transfer(address(0), account, amount) */\n      0xffffffffffffffffffffffffffffffffffffffff\n      and\n        /* \"@openzeppelin/contracts/token/ERC20/ERC20.sol\":8718:8719  0 */\n      0x00\n        /* \"@openzeppelin/contracts/token/ERC20/ERC20.sol\":8701:8738  Transfer(address(0), account, amount) */\n      0xffffffffffffffffffffffffffffffffffffffff\n      and\n      0xddf252ad1be2c89b69c2b068fc378daa952ba7f163c4a11628f55a4df523b3ef\n        /* \"@openzeppelin/contracts/token/ERC20/ERC20.sol\":8731:8737  amount */\n      dup4\n        /* \"@openzeppelin/contracts/token/ERC20/ERC20.sol\":8701:8738  Transfer(address(0), account, amount) */\n      mload(0x40)\n      tag_229\n      swap2\n      swap1\n      tag_38\n      jump\t// in\n    tag_229:\n      mload(0x40)\n      dup1\n      swap2\n      sub\n      swap1\n      log3\n        /* \"@openzeppelin/contracts/token/ERC20/ERC20.sol\":8749:8797  _afterTokenTransfer(address(0), account, amount) */\n      tag_230\n        /* \"@openzeppelin/contracts/token/ERC20/ERC20.sol\":8777:8778  0 */\n      0x00\n        /* \"@openzeppelin/contracts/token/ERC20/ERC20.sol\":8781:8788  account */\n      dup4\n        /* \"@openzeppelin/contracts/token/ERC20/ERC20.sol\":8790:8796  amount */\n      dup4\n        /* \"@openzeppelin/contracts/token/ERC20/ERC20.sol\":8749:8768  _afterTokenTransfer */\n      tag_221\n        /* \"@openzeppelin/contracts/token/ERC20/ERC20.sol\":8749:8797  _afterTokenTransfer(address(0), account, amount) */\n      jump\t// in\n    tag_230:\n        /* \"@openzeppelin/contracts/token/ERC20/ERC20.sol\":8415:8804  function _mint(address account, uint256 amount) internal virtual {... */\n      pop\n      pop\n      jump\t// out\n        /* \"@openzeppelin/contracts/access/Ownable.sol\":2270:2457  function _transferOwnership(address newOwner) internal virtual {... */\n    tag_146:\n        /* \"@openzeppelin/contracts/access/Ownable.sol\":2343:2359  address oldOwner */\n      0x00\n        /* \"@openzeppelin/contracts/access/Ownable.sol\":2362:2368  _owner */\n      0x05\n      0x00\n      swap1\n      sload\n      swap1\n      0x0100\n      exp\n      swap1\n      div\n      0xffffffffffffffffffffffffffffffffffffffff\n      and\n        /* \"@openzeppelin/contracts/access/Ownable.sol\":2343:2368  address oldOwner = _owner */\n      swap1\n      pop\n        /* \"@openzeppelin/contracts/access/Ownable.sol\":2387:2395  newOwner */\n      dup2\n        /* \"@openzeppelin/contracts/access/Ownable.sol\":2378:2384  _owner */\n      0x05\n      0x00\n        /* \"@openzeppelin/contracts/access/Ownable.sol\":2378:2395  _owner = newOwner */\n      0x0100\n      exp\n      dup2\n      sload\n      dup2\n      0xffffffffffffffffffffffffffffffffffffffff\n      mul\n      not\n      and\n      swap1\n      dup4\n      0xffffffffffffffffffffffffffffffffffffffff\n      and\n      mul\n      or\n      swap1\n      sstore\n      pop\n        /* \"@openzeppelin/contracts/access/Ownable.sol\":2441:2449  newOwner */\n      dup2\n        /* \"@openzeppelin/contracts/access/Ownable.sol\":2410:2450  OwnershipTransferred(oldOwner, newOwner) */\n      0xffffffffffffffffffffffffffffffffffffffff\n      and\n        /* \"@openzeppelin/contracts/access/Ownable.sol\":2431:2439  oldOwner */\n      dup2\n        /* \"@openzeppelin/contracts/access/Ownable.sol\":2410:2450  OwnershipTransferred(oldOwner, newOwner) */\n      0xffffffffffffffffffffffffffffffffffffffff\n      and\n      0x8be0079c531659141344cd1fd0a4f28419497f9722a3daafe3b4186f6b6457e0\n      mload(0x40)\n      mload(0x40)\n      dup1\n      swap2\n      sub\n      swap1\n      log3\n        /* \"@openzeppelin/contracts/access/Ownable.sol\":2270:2457  function _transferOwnership(address newOwner) internal virtual {... */\n      pop\n      pop\n      jump\t// out\n        /* \"@openzeppelin/contracts/token/ERC20/ERC20.sol\":11795:11916  function _beforeTokenTransfer(... */\n    tag_214:\n      pop\n      pop\n      pop\n      jump\t// out\n        /* \"@openzeppelin/contracts/token/ERC20/ERC20.sol\":12504:12624  function _afterTokenTransfer(... */\n    tag_221:\n      pop\n      pop\n      pop\n      jump\t// out\n        /* \"#utility.yul\":7:146   */\n    tag_235:\n        /* \"#utility.yul\":53:58   */\n      0x00\n        /* \"#utility.yul\":91:97   */\n      dup2\n        /* \"#utility.yul\":78:98   */\n      calldataload\n        /* \"#utility.yul\":69:98   */\n      swap1\n      pop\n        /* \"#utility.yul\":107:140   */\n      tag_237\n        /* \"#utility.yul\":134:139   */\n      dup2\n        /* \"#utility.yul\":107:140   */\n      tag_238\n      jump\t// in\n    tag_237:\n        /* \"#utility.yul\":59:146   */\n      swap3\n      swap2\n      pop\n      pop\n      jump\t// out\n        /* \"#utility.yul\":152:291   */\n    tag_239:\n        /* \"#utility.yul\":198:203   */\n      0x00\n        /* \"#utility.yul\":236:242   */\n      dup2\n        /* \"#utility.yul\":223:243   */\n      calldataload\n        /* \"#utility.yul\":214:243   */\n      swap1\n      pop\n        /* \"#utility.yul\":252:285   */\n      tag_241\n        /* \"#utility.yul\":279:284   */\n      dup2\n        /* \"#utility.yul\":252:285   */\n      tag_242\n      jump\t// in\n    tag_241:\n        /* \"#utility.yul\":204:291   */\n      swap3\n      swap2\n      pop\n      pop\n      jump\t// out\n        /* \"#utility.yul\":297:559   */\n    tag_66:\n        /* \"#utility.yul\":356:362   */\n      0x00\n        /* \"#utility.yul\":405:407   */\n      0x20\n        /* \"#utility.yul\":393:402   */\n      dup3\n        /* \"#utility.yul\":384:391   */\n      dup5\n        /* \"#utility.yul\":380:403   */\n      sub\n        /* \"#utility.yul\":376:408   */\n      slt\n        /* \"#utility.yul\":373:375   */\n      iszero\n      tag_244\n      jumpi\n        /* \"#utility.yul\":421:422   */\n      0x00\n        /* \"#utility.yul\":418:419   */\n      dup1\n        /* \"#utility.yul\":411:423   */\n      revert\n        /* \"#utility.yul\":373:375   */\n    tag_244:\n        /* \"#utility.yul\":464:465   */\n      0x00\n        /* \"#utility.yul\":489:542   */\n      tag_245\n        /* \"#utility.yul\":534:541   */\n      dup5\n        /* \"#utility.yul\":525:531   */\n      dup3\n        /* \"#utility.yul\":514:523   */\n      dup6\n        /* \"#utility.yul\":510:532   */\n      add\n        /* \"#utility.yul\":489:542   */\n      tag_235\n      jump\t// in\n    tag_245:\n        /* \"#utility.yul\":479:542   */\n      swap2\n      pop\n        /* \"#utility.yul\":435:552   */\n      pop\n        /* \"#utility.yul\":363:559   */\n      swap3\n      swap2\n      pop\n      pop\n      jump\t// out\n        /* \"#utility.yul\":565:972   */\n    tag_97:\n        /* \"#utility.yul\":633:639   */\n      0x00\n        /* \"#utility.yul\":641:647   */\n      dup1\n        /* \"#utility.yul\":690:692   */\n      0x40\n        /* \"#utility.yul\":678:687   */\n      dup4\n        /* \"#utility.yul\":669:676   */\n      dup6\n        /* \"#utility.yul\":665:688   */\n      sub\n        /* \"#utility.yul\":661:693   */\n      slt\n        /* \"#utility.yul\":658:660   */\n      iszero\n      tag_247\n      jumpi\n        /* \"#utility.yul\":706:707   */\n      0x00\n        /* \"#utility.yul\":703:704   */\n      dup1\n        /* \"#utility.yul\":696:708   */\n      revert\n        /* \"#utility.yul\":658:660   */\n    tag_247:\n        /* \"#utility.yul\":749:750   */\n      0x00\n        /* \"#utility.yul\":774:827   */\n      tag_248\n        /* \"#utility.yul\":819:826   */\n      dup6\n        /* \"#utility.yul\":810:816   */\n      dup3\n        /* \"#utility.yul\":799:808   */\n      dup7\n        /* \"#utility.yul\":795:817   */\n      add\n        /* \"#utility.yul\":774:827   */\n      tag_235\n      jump\t// in\n    tag_248:\n        /* \"#utility.yul\":764:827   */\n      swap3\n      pop\n        /* \"#utility.yul\":720:837   */\n      pop\n        /* \"#utility.yul\":876:878   */\n      0x20\n        /* \"#utility.yul\":902:955   */\n      tag_249\n        /* \"#utility.yul\":947:954   */\n      dup6\n        /* \"#utility.yul\":938:944   */\n      dup3\n        /* \"#utility.yul\":927:936   */\n      dup7\n        /* \"#utility.yul\":923:945   */\n      add\n        /* \"#utility.yul\":902:955   */\n      tag_235\n      jump\t// in\n    tag_249:\n        /* \"#utility.yul\":892:955   */\n      swap2\n      pop\n        /* \"#utility.yul\":847:965   */\n      pop\n        /* \"#utility.yul\":648:972   */\n      swap3\n      pop\n      swap3\n      swap1\n      pop\n      jump\t// out\n        /* \"#utility.yul\":978:1530   */\n    tag_42:\n        /* \"#utility.yul\":1055:1061   */\n      0x00\n        /* \"#utility.yul\":1063:1069   */\n      dup1\n        /* \"#utility.yul\":1071:1077   */\n      0x00\n        /* \"#utility.yul\":1120:1122   */\n      0x60\n        /* \"#utility.yul\":1108:1117   */\n      dup5\n        /* \"#utility.yul\":1099:1106   */\n      dup7\n        /* \"#utility.yul\":1095:1118   */\n      sub\n        /* \"#utility.yul\":1091:1123   */\n      slt\n        /* \"#utility.yul\":1088:1090   */\n      iszero\n      tag_251\n      jumpi\n        /* \"#utility.yul\":1136:1137   */\n      0x00\n        /* \"#utility.yul\":1133:1134   */\n      dup1\n        /* \"#utility.yul\":1126:1138   */\n      revert\n        /* \"#utility.yul\":1088:1090   */\n    tag_251:\n        /* \"#utility.yul\":1179:1180   */\n      0x00\n        /* \"#utility.yul\":1204:1257   */\n      tag_252\n        /* \"#utility.yul\":1249:1256   */\n      dup7\n        /* \"#utility.yul\":1240:1246   */\n      dup3\n        /* \"#utility.yul\":1229:1238   */\n      dup8\n        /* \"#utility.yul\":1225:1247   */\n      add\n        /* \"#utility.yul\":1204:1257   */\n      tag_235\n      jump\t// in\n    tag_252:\n        /* \"#utility.yul\":1194:1257   */\n      swap4\n      pop\n        /* \"#utility.yul\":1150:1267   */\n      pop\n        /* \"#utility.yul\":1306:1308   */\n      0x20\n        /* \"#utility.yul\":1332:1385   */\n      tag_253\n        /* \"#utility.yul\":1377:1384   */\n      dup7\n        /* \"#utility.yul\":1368:1374   */\n      dup3\n        /* \"#utility.yul\":1357:1366   */\n      dup8\n        /* \"#utility.yul\":1353:1375   */\n      add\n        /* \"#utility.yul\":1332:1385   */\n      tag_235\n      jump\t// in\n    tag_253:\n        /* \"#utility.yul\":1322:1385   */\n      swap3\n      pop\n        /* \"#utility.yul\":1277:1395   */\n      pop\n        /* \"#utility.yul\":1434:1436   */\n      0x40\n        /* \"#utility.yul\":1460:1513   */\n      tag_254\n        /* \"#utility.yul\":1505:1512   */\n      dup7\n        /* \"#utility.yul\":1496:1502   */\n      dup3\n        /* \"#utility.yul\":1485:1494   */\n      dup8\n        /* \"#utility.yul\":1481:1503   */\n      add\n        /* \"#utility.yul\":1460:1513   */\n      tag_239\n      jump\t// in\n    tag_254:\n        /* \"#utility.yul\":1450:1513   */\n      swap2\n      pop\n        /* \"#utility.yul\":1405:1523   */\n      pop\n        /* \"#utility.yul\":1078:1530   */\n      swap3\n      pop\n      swap3\n      pop\n      swap3\n      jump\t// out\n        /* \"#utility.yul\":1536:1943   */\n    tag_30:\n        /* \"#utility.yul\":1604:1610   */\n      0x00\n        /* \"#utility.yul\":1612:1618   */\n      dup1\n        /* \"#utility.yul\":1661:1663   */\n      0x40\n        /* \"#utility.yul\":1649:1658   */\n      dup4\n        /* \"#utility.yul\":1640:1647   */\n      dup6\n        /* \"#utility.yul\":1636:1659   */\n      sub\n        /* \"#utility.yul\":1632:1664   */\n      slt\n        /* \"#utility.yul\":1629:1631   */\n      iszero\n      tag_256\n      jumpi\n        /* \"#utility.yul\":1677:1678   */\n      0x00\n        /* \"#utility.yul\":1674:1675   */\n      dup1\n        /* \"#utility.yul\":1667:1679   */\n      revert\n        /* \"#utility.yul\":1629:1631   */\n    tag_256:\n        /* \"#utility.yul\":1720:1721   */\n      0x00\n        /* \"#utility.yul\":1745:1798   */\n      tag_257\n        /* \"#utility.yul\":1790:1797   */\n      dup6\n        /* \"#utility.yul\":1781:1787   */\n      dup3\n        /* \"#utility.yul\":1770:1779   */\n      dup7\n        /* \"#utility.yul\":1766:1788   */\n      add\n        /* \"#utility.yul\":1745:1798   */\n      tag_235\n      jump\t// in\n    tag_257:\n        /* \"#utility.yul\":1735:1798   */\n      swap3\n      pop\n        /* \"#utility.yul\":1691:1808   */\n      pop\n        /* \"#utility.yul\":1847:1849   */\n      0x20\n        /* \"#utility.yul\":1873:1926   */\n      tag_258\n        /* \"#utility.yul\":1918:1925   */\n      dup6\n        /* \"#utility.yul\":1909:1915   */\n      dup3\n        /* \"#utility.yul\":1898:1907   */\n      dup7\n        /* \"#utility.yul\":1894:1916   */\n      add\n        /* \"#utility.yul\":1873:1926   */\n      tag_239\n      jump\t// in\n    tag_258:\n        /* \"#utility.yul\":1863:1926   */\n      swap2\n      pop\n        /* \"#utility.yul\":1818:1936   */\n      pop\n        /* \"#utility.yul\":1619:1943   */\n      swap3\n      pop\n      swap3\n      swap1\n      pop\n      jump\t// out\n        /* \"#utility.yul\":1949:2067   */\n    tag_259:\n        /* \"#utility.yul\":2036:2060   */\n      tag_261\n        /* \"#utility.yul\":2054:2059   */\n      dup2\n        /* \"#utility.yul\":2036:2060   */\n      tag_262\n      jump\t// in\n    tag_261:\n        /* \"#utility.yul\":2031:2034   */\n      dup3\n        /* \"#utility.yul\":2024:2061   */\n      mstore\n        /* \"#utility.yul\":2014:2067   */\n      pop\n      pop\n      jump\t// out\n        /* \"#utility.yul\":2073:2182   */\n    tag_263:\n        /* \"#utility.yul\":2154:2175   */\n      tag_265\n        /* \"#utility.yul\":2169:2174   */\n      dup2\n        /* \"#utility.yul\":2154:2175   */\n      tag_266\n      jump\t// in\n    tag_265:\n        /* \"#utility.yul\":2149:2152   */\n      dup3\n        /* \"#utility.yul\":2142:2176   */\n      mstore\n        /* \"#utility.yul\":2132:2182   */\n      pop\n      pop\n      jump\t// out\n        /* \"#utility.yul\":2188:2552   */\n    tag_267:\n        /* \"#utility.yul\":2276:2279   */\n      0x00\n        /* \"#utility.yul\":2304:2343   */\n      tag_269\n        /* \"#utility.yul\":2337:2342   */\n      dup3\n        /* \"#utility.yul\":2304:2343   */\n      tag_270\n      jump\t// in\n    tag_269:\n        /* \"#utility.yul\":2359:2430   */\n      tag_271\n        /* \"#utility.yul\":2423:2429   */\n      dup2\n        /* \"#utility.yul\":2418:2421   */\n      dup6\n        /* \"#utility.yul\":2359:2430   */\n      tag_272\n      jump\t// in\n    tag_271:\n        /* \"#utility.yul\":2352:2430   */\n      swap4\n      pop\n        /* \"#utility.yul\":2439:2491   */\n      tag_273\n        /* \"#utility.yul\":2484:2490   */\n      dup2\n        /* \"#utility.yul\":2479:2482   */\n      dup6\n        /* \"#utility.yul\":2472:2476   */\n      0x20\n        /* \"#utility.yul\":2465:2470   */\n      dup7\n        /* \"#utility.yul\":2461:2477   */\n      add\n        /* \"#utility.yul\":2439:2491   */\n      tag_274\n      jump\t// in\n    tag_273:\n        /* \"#utility.yul\":2516:2545   */\n      tag_275\n        /* \"#utility.yul\":2538:2544   */\n      dup2\n        /* \"#utility.yul\":2516:2545   */\n      tag_276\n      jump\t// in\n    tag_275:\n        /* \"#utility.yul\":2511:2514   */\n      dup5\n        /* \"#utility.yul\":2507:2546   */\n      add\n        /* \"#utility.yul\":2500:2546   */\n      swap2\n      pop\n        /* \"#utility.yul\":2280:2552   */\n      pop\n      swap3\n      swap2\n      pop\n      pop\n      jump\t// out\n        /* \"#utility.yul\":2558:2924   */\n    tag_277:\n        /* \"#utility.yul\":2700:2703   */\n      0x00\n        /* \"#utility.yul\":2721:2788   */\n      tag_279\n        /* \"#utility.yul\":2785:2787   */\n      0x23\n        /* \"#utility.yul\":2780:2783   */\n      dup4\n        /* \"#utility.yul\":2721:2788   */\n      tag_272\n      jump\t// in\n    tag_279:\n        /* \"#utility.yul\":2714:2788   */\n      swap2\n      pop\n        /* \"#utility.yul\":2797:2890   */\n      tag_280\n        /* \"#utility.yul\":2886:2889   */\n      dup3\n        /* \"#utility.yul\":2797:2890   */\n      tag_281\n      jump\t// in\n    tag_280:\n        /* \"#utility.yul\":2915:2917   */\n      0x40\n        /* \"#utility.yul\":2910:2913   */\n      dup3\n        /* \"#utility.yul\":2906:2918   */\n      add\n        /* \"#utility.yul\":2899:2918   */\n      swap1\n      pop\n        /* \"#utility.yul\":2704:2924   */\n      swap2\n      swap1\n      pop\n      jump\t// out\n        /* \"#utility.yul\":2930:3296   */\n    tag_282:\n        /* \"#utility.yul\":3072:3075   */\n      0x00\n        /* \"#utility.yul\":3093:3160   */\n      tag_284\n        /* \"#utility.yul\":3157:3159   */\n      0x26\n        /* \"#utility.yul\":3152:3155   */\n      dup4\n        /* \"#utility.yul\":3093:3160   */\n      tag_272\n      jump\t// in\n    tag_284:\n        /* \"#utility.yul\":3086:3160   */\n      swap2\n      pop\n        /* \"#utility.yul\":3169:3262   */\n      tag_285\n        /* \"#utility.yul\":3258:3261   */\n      dup3\n        /* \"#utility.yul\":3169:3262   */\n      tag_286\n      jump\t// in\n    tag_285:\n        /* \"#utility.yul\":3287:3289   */\n      0x40\n        /* \"#utility.yul\":3282:3285   */\n      dup3\n        /* \"#utility.yul\":3278:3290   */\n      add\n        /* \"#utility.yul\":3271:3290   */\n      swap1\n      pop\n        /* \"#utility.yul\":3076:3296   */\n      swap2\n      swap1\n      pop\n      jump\t// out\n        /* \"#utility.yul\":3302:3668   */\n    tag_287:\n        /* \"#utility.yul\":3444:3447   */\n      0x00\n        /* \"#utility.yul\":3465:3532   */\n      tag_289\n        /* \"#utility.yul\":3529:3531   */\n      0x22\n        /* \"#utility.yul\":3524:3527   */\n      dup4\n        /* \"#utility.yul\":3465:3532   */\n      tag_272\n      jump\t// in\n    tag_289:\n        /* \"#utility.yul\":3458:3532   */\n      swap2\n      pop\n        /* \"#utility.yul\":3541:3634   */\n      tag_290\n        /* \"#utility.yul\":3630:3633   */\n      dup3\n        /* \"#utility.yul\":3541:3634   */\n      tag_291\n      jump\t// in\n    tag_290:\n        /* \"#utility.yul\":3659:3661   */\n      0x40\n        /* \"#utility.yul\":3654:3657   */\n      dup3\n        /* \"#utility.yul\":3650:3662   */\n      add\n        /* \"#utility.yul\":3643:3662   */\n      swap1\n      pop\n        /* \"#utility.yul\":3448:3668   */\n      swap2\n      swap1\n      pop\n      jump\t// out\n        /* \"#utility.yul\":3674:4040   */\n    tag_292:\n        /* \"#utility.yul\":3816:3819   */\n      0x00\n        /* \"#utility.yul\":3837:3904   */\n      tag_294\n        /* \"#utility.yul\":3901:3903   */\n      0x1d\n        /* \"#utility.yul\":3896:3899   */\n      dup4\n        /* \"#utility.yul\":3837:3904   */\n      tag_272\n      jump\t// in\n    tag_294:\n        /* \"#utility.yul\":3830:3904   */\n      swap2\n      pop\n        /* \"#utility.yul\":3913:4006   */\n      tag_295\n        /* \"#utility.yul\":4002:4005   */\n      dup3\n        /* \"#utility.yul\":3913:4006   */\n      tag_296\n      jump\t// in\n    tag_295:\n        /* \"#utility.yul\":4031:4033   */\n      0x20\n        /* \"#utility.yul\":4026:4029   */\n      dup3\n        /* \"#utility.yul\":4022:4034   */\n      add\n        /* \"#utility.yul\":4015:4034   */\n      swap1\n      pop\n        /* \"#utility.yul\":3820:4040   */\n      swap2\n      swap1\n      pop\n      jump\t// out\n        /* \"#utility.yul\":4046:4412   */\n    tag_297:\n        /* \"#utility.yul\":4188:4191   */\n      0x00\n        /* \"#utility.yul\":4209:4276   */\n      tag_299\n        /* \"#utility.yul\":4273:4275   */\n      0x26\n        /* \"#utility.yul\":4268:4271   */\n      dup4\n        /* \"#utility.yul\":4209:4276   */\n      tag_272\n      jump\t// in\n    tag_299:\n        /* \"#utility.yul\":4202:4276   */\n      swap2\n      pop\n        /* \"#utility.yul\":4285:4378   */\n      tag_300\n        /* \"#utility.yul\":4374:4377   */\n      dup3\n        /* \"#utility.yul\":4285:4378   */\n      tag_301\n      jump\t// in\n    tag_300:\n        /* \"#utility.yul\":4403:4405   */\n      0x40\n        /* \"#utility.yul\":4398:4401   */\n      dup3\n        /* \"#utility.yul\":4394:4406   */\n      add\n        /* \"#utility.yul\":4387:4406   */\n      swap1\n      pop\n        /* \"#utility.yul\":4192:4412   */\n      swap2\n      swap1\n      pop\n      jump\t// out\n        /* \"#utility.yul\":4418:4783   */\n    tag_302:\n        /* \"#utility.yul\":4560:4563   */\n      0x00\n        /* \"#utility.yul\":4581:4647   */\n      tag_304\n        /* \"#utility.yul\":4645:4646   */\n      0x03\n        /* \"#utility.yul\":4640:4643   */\n      dup4\n        /* \"#utility.yul\":4581:4647   */\n      tag_272\n      jump\t// in\n    tag_304:\n        /* \"#utility.yul\":4574:4647   */\n      swap2\n      pop\n        /* \"#utility.yul\":4656:4749   */\n      tag_305\n        /* \"#utility.yul\":4745:4748   */\n      dup3\n        /* \"#utility.yul\":4656:4749   */\n      tag_306\n      jump\t// in\n    tag_305:\n        /* \"#utility.yul\":4774:4776   */\n      0x20\n        /* \"#utility.yul\":4769:4772   */\n      dup3\n        /* \"#utility.yul\":4765:4777   */\n      add\n        /* \"#utility.yul\":4758:4777   */\n      swap1\n      pop\n        /* \"#utility.yul\":4564:4783   */\n      swap2\n      swap1\n      pop\n      jump\t// out\n        /* \"#utility.yul\":4789:5155   */\n    tag_307:\n        /* \"#utility.yul\":4931:4934   */\n      0x00\n        /* \"#utility.yul\":4952:5019   */\n      tag_309\n        /* \"#utility.yul\":5016:5018   */\n      0x20\n        /* \"#utility.yul\":5011:5014   */\n      dup4\n        /* \"#utility.yul\":4952:5019   */\n      tag_272\n      jump\t// in\n    tag_309:\n        /* \"#utility.yul\":4945:5019   */\n      swap2\n      pop\n        /* \"#utility.yul\":5028:5121   */\n      tag_310\n        /* \"#utility.yul\":5117:5120   */\n      dup3\n        /* \"#utility.yul\":5028:5121   */\n      tag_311\n      jump\t// in\n    tag_310:\n        /* \"#utility.yul\":5146:5148   */\n      0x20\n        /* \"#utility.yul\":5141:5144   */\n      dup3\n        /* \"#utility.yul\":5137:5149   */\n      add\n        /* \"#utility.yul\":5130:5149   */\n      swap1\n      pop\n        /* \"#utility.yul\":4935:5155   */\n      swap2\n      swap1\n      pop\n      jump\t// out\n        /* \"#utility.yul\":5161:5527   */\n    tag_312:\n        /* \"#utility.yul\":5303:5306   */\n      0x00\n        /* \"#utility.yul\":5324:5391   */\n      tag_314\n        /* \"#utility.yul\":5388:5390   */\n      0x25\n        /* \"#utility.yul\":5383:5386   */\n      dup4\n        /* \"#utility.yul\":5324:5391   */\n      tag_272\n      jump\t// in\n    tag_314:\n        /* \"#utility.yul\":5317:5391   */\n      swap2\n      pop\n        /* \"#utility.yul\":5400:5493   */\n      tag_315\n        /* \"#utility.yul\":5489:5492   */\n      dup3\n        /* \"#utility.yul\":5400:5493   */\n      tag_316\n      jump\t// in\n    tag_315:\n        /* \"#utility.yul\":5518:5520   */\n      0x40\n        /* \"#utility.yul\":5513:5516   */\n      dup3\n        /* \"#utility.yul\":5509:5521   */\n      add\n        /* \"#utility.yul\":5502:5521   */\n      swap1\n      pop\n        /* \"#utility.yul\":5307:5527   */\n      swap2\n      swap1\n      pop\n      jump\t// out\n        /* \"#utility.yul\":5533:5899   */\n    tag_317:\n        /* \"#utility.yul\":5675:5678   */\n      0x00\n        /* \"#utility.yul\":5696:5763   */\n      tag_319\n        /* \"#utility.yul\":5760:5762   */\n      0x24\n        /* \"#utility.yul\":5755:5758   */\n      dup4\n        /* \"#utility.yul\":5696:5763   */\n      tag_272\n      jump\t// in\n    tag_319:\n        /* \"#utility.yul\":5689:5763   */\n      swap2\n      pop\n        /* \"#utility.yul\":5772:5865   */\n      tag_320\n        /* \"#utility.yul\":5861:5864   */\n      dup3\n        /* \"#utility.yul\":5772:5865   */\n      tag_321\n      jump\t// in\n    tag_320:\n        /* \"#utility.yul\":5890:5892   */\n      0x40\n        /* \"#utility.yul\":5885:5888   */\n      dup3\n        /* \"#utility.yul\":5881:5893   */\n      add\n        /* \"#utility.yul\":5874:5893   */\n      swap1\n      pop\n        /* \"#utility.yul\":5679:5899   */\n      swap2\n      swap1\n      pop\n      jump\t// out\n        /* \"#utility.yul\":5905:6271   */\n    tag_322:\n        /* \"#utility.yul\":6047:6050   */\n      0x00\n        /* \"#utility.yul\":6068:6135   */\n      tag_324\n        /* \"#utility.yul\":6132:6134   */\n      0x25\n        /* \"#utility.yul\":6127:6130   */\n      dup4\n        /* \"#utility.yul\":6068:6135   */\n      tag_272\n      jump\t// in\n    tag_324:\n        /* \"#utility.yul\":6061:6135   */\n      swap2\n      pop\n        /* \"#utility.yul\":6144:6237   */\n      tag_325\n        /* \"#utility.yul\":6233:6236   */\n      dup3\n        /* \"#utility.yul\":6144:6237   */\n      tag_326\n      jump\t// in\n    tag_325:\n        /* \"#utility.yul\":6262:6264   */\n      0x40\n        /* \"#utility.yul\":6257:6260   */\n      dup3\n        /* \"#utility.yul\":6253:6265   */\n      add\n        /* \"#utility.yul\":6246:6265   */\n      swap1\n      pop\n        /* \"#utility.yul\":6051:6271   */\n      swap2\n      swap1\n      pop\n      jump\t// out\n        /* \"#utility.yul\":6277:6643   */\n    tag_327:\n        /* \"#utility.yul\":6419:6422   */\n      0x00\n        /* \"#utility.yul\":6440:6507   */\n      tag_329\n        /* \"#utility.yul\":6504:6506   */\n      0x1f\n        /* \"#utility.yul\":6499:6502   */\n      dup4\n        /* \"#utility.yul\":6440:6507   */\n      tag_272\n      jump\t// in\n    tag_329:\n        /* \"#utility.yul\":6433:6507   */\n      swap2\n      pop\n        /* \"#utility.yul\":6516:6609   */\n      tag_330\n        /* \"#utility.yul\":6605:6608   */\n      dup3\n        /* \"#utility.yul\":6516:6609   */\n      tag_331\n      jump\t// in\n    tag_330:\n        /* \"#utility.yul\":6634:6636   */\n      0x20\n        /* \"#utility.yul\":6629:6632   */\n      dup3\n        /* \"#utility.yul\":6625:6637   */\n      add\n        /* \"#utility.yul\":6618:6637   */\n      swap1\n      pop\n        /* \"#utility.yul\":6423:6643   */\n      swap2\n      swap1\n      pop\n      jump\t// out\n        /* \"#utility.yul\":6649:6767   */\n    tag_332:\n        /* \"#utility.yul\":6736:6760   */\n      tag_334\n        /* \"#utility.yul\":6754:6759   */\n      dup2\n        /* \"#utility.yul\":6736:6760   */\n      tag_335\n      jump\t// in\n    tag_334:\n        /* \"#utility.yul\":6731:6734   */\n      dup3\n        /* \"#utility.yul\":6724:6761   */\n      mstore\n        /* \"#utility.yul\":6714:6767   */\n      pop\n      pop\n      jump\t// out\n        /* \"#utility.yul\":6773:6885   */\n    tag_336:\n        /* \"#utility.yul\":6856:6878   */\n      tag_338\n        /* \"#utility.yul\":6872:6877   */\n      dup2\n        /* \"#utility.yul\":6856:6878   */\n      tag_339\n      jump\t// in\n    tag_338:\n        /* \"#utility.yul\":6851:6854   */\n      dup3\n        /* \"#utility.yul\":6844:6879   */\n      mstore\n        /* \"#utility.yul\":6834:6885   */\n      pop\n      pop\n      jump\t// out\n        /* \"#utility.yul\":6891:7113   */\n    tag_79:\n        /* \"#utility.yul\":6984:6988   */\n      0x00\n        /* \"#utility.yul\":7022:7024   */\n      0x20\n        /* \"#utility.yul\":7011:7020   */\n      dup3\n        /* \"#utility.yul\":7007:7025   */\n      add\n        /* \"#utility.yul\":6999:7025   */\n      swap1\n      pop\n        /* \"#utility.yul\":7035:7106   */\n      tag_341\n        /* \"#utility.yul\":7103:7104   */\n      0x00\n        /* \"#utility.yul\":7092:7101   */\n      dup4\n        /* \"#utility.yul\":7088:7105   */\n      add\n        /* \"#utility.yul\":7079:7085   */\n      dup5\n        /* \"#utility.yul\":7035:7106   */\n      tag_259\n      jump\t// in\n    tag_341:\n        /* \"#utility.yul\":6989:7113   */\n      swap3\n      swap2\n      pop\n      pop\n      jump\t// out\n        /* \"#utility.yul\":7119:7561   */\n    tag_162:\n        /* \"#utility.yul\":7268:7272   */\n      0x00\n        /* \"#utility.yul\":7306:7308   */\n      0x60\n        /* \"#utility.yul\":7295:7304   */\n      dup3\n        /* \"#utility.yul\":7291:7309   */\n      add\n        /* \"#utility.yul\":7283:7309   */\n      swap1\n      pop\n        /* \"#utility.yul\":7319:7390   */\n      tag_343\n        /* \"#utility.yul\":7387:7388   */\n      0x00\n        /* \"#utility.yul\":7376:7385   */\n      dup4\n        /* \"#utility.yul\":7372:7389   */\n      add\n        /* \"#utility.yul\":7363:7369   */\n      dup7\n        /* \"#utility.yul\":7319:7390   */\n      tag_259\n      jump\t// in\n    tag_343:\n        /* \"#utility.yul\":7400:7472   */\n      tag_344\n        /* \"#utility.yul\":7468:7470   */\n      0x20\n        /* \"#utility.yul\":7457:7466   */\n      dup4\n        /* \"#utility.yul\":7453:7471   */\n      add\n        /* \"#utility.yul\":7444:7450   */\n      dup6\n        /* \"#utility.yul\":7400:7472   */\n      tag_259\n      jump\t// in\n    tag_344:\n        /* \"#utility.yul\":7482:7554   */\n      tag_345\n        /* \"#utility.yul\":7550:7552   */\n      0x40\n        /* \"#utility.yul\":7539:7548   */\n      dup4\n        /* \"#utility.yul\":7535:7553   */\n      add\n        /* \"#utility.yul\":7526:7532   */\n      dup5\n        /* \"#utility.yul\":7482:7554   */\n      tag_332\n      jump\t// in\n    tag_345:\n        /* \"#utility.yul\":7273:7561   */\n      swap5\n      swap4\n      pop\n      pop\n      pop\n      pop\n      jump\t// out\n        /* \"#utility.yul\":7567:7777   */\n    tag_33:\n        /* \"#utility.yul\":7654:7658   */\n      0x00\n        /* \"#utility.yul\":7692:7694   */\n      0x20\n        /* \"#utility.yul\":7681:7690   */\n      dup3\n        /* \"#utility.yul\":7677:7695   */\n      add\n        /* \"#utility.yul\":7669:7695   */\n      swap1\n      pop\n        /* \"#utility.yul\":7705:7770   */\n      tag_347\n        /* \"#utility.yul\":7767:7768   */\n      0x00\n        /* \"#utility.yul\":7756:7765   */\n      dup4\n        /* \"#utility.yul\":7752:7769   */\n      add\n        /* \"#utility.yul\":7743:7749   */\n      dup5\n        /* \"#utility.yul\":7705:7770   */\n      tag_263\n      jump\t// in\n    tag_347:\n        /* \"#utility.yul\":7659:7777   */\n      swap3\n      swap2\n      pop\n      pop\n      jump\t// out\n        /* \"#utility.yul\":7783:8096   */\n    tag_26:\n        /* \"#utility.yul\":7896:7900   */\n      0x00\n        /* \"#utility.yul\":7934:7936   */\n      0x20\n        /* \"#utility.yul\":7923:7932   */\n      dup3\n        /* \"#utility.yul\":7919:7937   */\n      add\n        /* \"#utility.yul\":7911:7937   */\n      swap1\n      pop\n        /* \"#utility.yul\":7983:7992   */\n      dup2\n        /* \"#utility.yul\":7977:7981   */\n      dup2\n        /* \"#utility.yul\":7973:7993   */\n      sub\n        /* \"#utility.yul\":7969:7970   */\n      0x00\n        /* \"#utility.yul\":7958:7967   */\n      dup4\n        /* \"#utility.yul\":7954:7971   */\n      add\n        /* \"#utility.yul\":7947:7994   */\n      mstore\n        /* \"#utility.yul\":8011:8089   */\n      tag_349\n        /* \"#utility.yul\":8084:8088   */\n      dup2\n        /* \"#utility.yul\":8075:8081   */\n      dup5\n        /* \"#utility.yul\":8011:8089   */\n      tag_267\n      jump\t// in\n    tag_349:\n        /* \"#utility.yul\":8003:8089   */\n      swap1\n      pop\n        /* \"#utility.yul\":7901:8096   */\n      swap3\n      swap2\n      pop\n      pop\n      jump\t// out\n        /* \"#utility.yul\":8102:8521   */\n    tag_212:\n        /* \"#utility.yul\":8268:8272   */\n      0x00\n        /* \"#utility.yul\":8306:8308   */\n      0x20\n        /* \"#utility.yul\":8295:8304   */\n      dup3\n        /* \"#utility.yul\":8291:8309   */\n      add\n        /* \"#utility.yul\":8283:8309   */\n      swap1\n      pop\n        /* \"#utility.yul\":8355:8364   */\n      dup2\n        /* \"#utility.yul\":8349:8353   */\n      dup2\n        /* \"#utility.yul\":8345:8365   */\n      sub\n        /* \"#utility.yul\":8341:8342   */\n      0x00\n        /* \"#utility.yul\":8330:8339   */\n      dup4\n        /* \"#utility.yul\":8326:8343   */\n      add\n        /* \"#utility.yul\":8319:8366   */\n      mstore\n        /* \"#utility.yul\":8383:8514   */\n      tag_351\n        /* \"#utility.yul\":8509:8513   */\n      dup2\n        /* \"#utility.yul\":8383:8514   */\n      tag_277\n      jump\t// in\n    tag_351:\n        /* \"#utility.yul\":8375:8514   */\n      swap1\n      pop\n        /* \"#utility.yul\":8273:8521   */\n      swap2\n      swap1\n      pop\n      jump\t// out\n        /* \"#utility.yul\":8527:8946   */\n    tag_188:\n        /* \"#utility.yul\":8693:8697   */\n      0x00\n        /* \"#utility.yul\":8731:8733   */\n      0x20\n        /* \"#utility.yul\":8720:8729   */\n      dup3\n        /* \"#utility.yul\":8716:8734   */\n      add\n        /* \"#utility.yul\":8708:8734   */\n      swap1\n      pop\n        /* \"#utility.yul\":8780:8789   */\n      dup2\n        /* \"#utility.yul\":8774:8778   */\n      dup2\n        /* \"#utility.yul\":8770:8790   */\n      sub\n        /* \"#utility.yul\":8766:8767   */\n      0x00\n        /* \"#utility.yul\":8755:8764   */\n      dup4\n        /* \"#utility.yul\":8751:8768   */\n      add\n        /* \"#utility.yul\":8744:8791   */\n      mstore\n        /* \"#utility.yul\":8808:8939   */\n      tag_353\n        /* \"#utility.yul\":8934:8938   */\n      dup2\n        /* \"#utility.yul\":8808:8939   */\n      tag_282\n      jump\t// in\n    tag_353:\n        /* \"#utility.yul\":8800:8939   */\n      swap1\n      pop\n        /* \"#utility.yul\":8698:8946   */\n      swap2\n      swap1\n      pop\n      jump\t// out\n        /* \"#utility.yul\":8952:9371   */\n    tag_197:\n        /* \"#utility.yul\":9118:9122   */\n      0x00\n        /* \"#utility.yul\":9156:9158   */\n      0x20\n        /* \"#utility.yul\":9145:9154   */\n      dup3\n        /* \"#utility.yul\":9141:9159   */\n      add\n        /* \"#utility.yul\":9133:9159   */\n      swap1\n      pop\n        /* \"#utility.yul\":9205:9214   */\n      dup2\n        /* \"#utility.yul\":9199:9203   */\n      dup2\n        /* \"#utility.yul\":9195:9215   */\n      sub\n        /* \"#utility.yul\":9191:9192   */\n      0x00\n        /* \"#utility.yul\":9180:9189   */\n      dup4\n        /* \"#utility.yul\":9176:9193   */\n      add\n        /* \"#utility.yul\":9169:9216   */\n      mstore\n        /* \"#utility.yul\":9233:9364   */\n      tag_355\n        /* \"#utility.yul\":9359:9363   */\n      dup2\n        /* \"#utility.yul\":9233:9364   */\n      tag_287\n      jump\t// in\n    tag_355:\n        /* \"#utility.yul\":9225:9364   */\n      swap1\n      pop\n        /* \"#utility.yul\":9123:9371   */\n      swap2\n      swap1\n      pop\n      jump\t// out\n        /* \"#utility.yul\":9377:9796   */\n    tag_204:\n        /* \"#utility.yul\":9543:9547   */\n      0x00\n        /* \"#utility.yul\":9581:9583   */\n      0x20\n        /* \"#utility.yul\":9570:9579   */\n      dup3\n        /* \"#utility.yul\":9566:9584   */\n      add\n        /* \"#utility.yul\":9558:9584   */\n      swap1\n      pop\n        /* \"#utility.yul\":9630:9639   */\n      dup2\n        /* \"#utility.yul\":9624:9628   */\n      dup2\n        /* \"#utility.yul\":9620:9640   */\n      sub\n        /* \"#utility.yul\":9616:9617   */\n      0x00\n        /* \"#utility.yul\":9605:9614   */\n      dup4\n        /* \"#utility.yul\":9601:9618   */\n      add\n        /* \"#utility.yul\":9594:9641   */\n      mstore\n        /* \"#utility.yul\":9658:9789   */\n      tag_357\n        /* \"#utility.yul\":9784:9788   */\n      dup2\n        /* \"#utility.yul\":9658:9789   */\n      tag_292\n      jump\t// in\n    tag_357:\n        /* \"#utility.yul\":9650:9789   */\n      swap1\n      pop\n        /* \"#utility.yul\":9548:9796   */\n      swap2\n      swap1\n      pop\n      jump\t// out\n        /* \"#utility.yul\":9802:10221   */\n    tag_217:\n        /* \"#utility.yul\":9968:9972   */\n      0x00\n        /* \"#utility.yul\":10006:10008   */\n      0x20\n        /* \"#utility.yul\":9995:10004   */\n      dup3\n        /* \"#utility.yul\":9991:10009   */\n      add\n        /* \"#utility.yul\":9983:10009   */\n      swap1\n      pop\n        /* \"#utility.yul\":10055:10064   */\n      dup2\n        /* \"#utility.yul\":10049:10053   */\n      dup2\n        /* \"#utility.yul\":10045:10065   */\n      sub\n        /* \"#utility.yul\":10041:10042   */\n      0x00\n        /* \"#utility.yul\":10030:10039   */\n      dup4\n        /* \"#utility.yul\":10026:10043   */\n      add\n        /* \"#utility.yul\":10019:10066   */\n      mstore\n        /* \"#utility.yul\":10083:10214   */\n      tag_359\n        /* \"#utility.yul\":10209:10213   */\n      dup2\n        /* \"#utility.yul\":10083:10214   */\n      tag_297\n      jump\t// in\n    tag_359:\n        /* \"#utility.yul\":10075:10214   */\n      swap1\n      pop\n        /* \"#utility.yul\":9973:10221   */\n      swap2\n      swap1\n      pop\n      jump\t// out\n        /* \"#utility.yul\":10227:10646   */\n    tag_150:\n        /* \"#utility.yul\":10393:10397   */\n      0x00\n        /* \"#utility.yul\":10431:10433   */\n      0x20\n        /* \"#utility.yul\":10420:10429   */\n      dup3\n        /* \"#utility.yul\":10416:10434   */\n      add\n        /* \"#utility.yul\":10408:10434   */\n      swap1\n      pop\n        /* \"#utility.yul\":10480:10489   */\n      dup2\n        /* \"#utility.yul\":10474:10478   */\n      dup2\n        /* \"#utility.yul\":10470:10490   */\n      sub\n        /* \"#utility.yul\":10466:10467   */\n      0x00\n        /* \"#utility.yul\":10455:10464   */\n      dup4\n        /* \"#utility.yul\":10451:10468   */\n      add\n        /* \"#utility.yul\":10444:10491   */\n      mstore\n        /* \"#utility.yul\":10508:10639   */\n      tag_361\n        /* \"#utility.yul\":10634:10638   */\n      dup2\n        /* \"#utility.yul\":10508:10639   */\n      tag_302\n      jump\t// in\n    tag_361:\n        /* \"#utility.yul\":10500:10639   */\n      swap1\n      pop\n        /* \"#utility.yul\":10398:10646   */\n      swap2\n      swap1\n      pop\n      jump\t// out\n        /* \"#utility.yul\":10652:11071   */\n    tag_134:\n        /* \"#utility.yul\":10818:10822   */\n      0x00\n        /* \"#utility.yul\":10856:10858   */\n      0x20\n        /* \"#utility.yul\":10845:10854   */\n      dup3\n        /* \"#utility.yul\":10841:10859   */\n      add\n        /* \"#utility.yul\":10833:10859   */\n      swap1\n      pop\n        /* \"#utility.yul\":10905:10914   */\n      dup2\n        /* \"#utility.yul\":10899:10903   */\n      dup2\n        /* \"#utility.yul\":10895:10915   */\n      sub\n        /* \"#utility.yul\":10891:10892   */\n      0x00\n        /* \"#utility.yul\":10880:10889   */\n      dup4\n        /* \"#utility.yul\":10876:10893   */\n      add\n        /* \"#utility.yul\":10869:10916   */\n      mstore\n        /* \"#utility.yul\":10933:11064   */\n      tag_363\n        /* \"#utility.yul\":11059:11063   */\n      dup2\n        /* \"#utility.yul\":10933:11064   */\n      tag_307\n      jump\t// in\n    tag_363:\n        /* \"#utility.yul\":10925:11064   */\n      swap1\n      pop\n        /* \"#utility.yul\":10823:11071   */\n      swap2\n      swap1\n      pop\n      jump\t// out\n        /* \"#utility.yul\":11077:11496   */\n    tag_209:\n        /* \"#utility.yul\":11243:11247   */\n      0x00\n        /* \"#utility.yul\":11281:11283   */\n      0x20\n        /* \"#utility.yul\":11270:11279   */\n      dup3\n        /* \"#utility.yul\":11266:11284   */\n      add\n        /* \"#utility.yul\":11258:11284   */\n      swap1\n      pop\n        /* \"#utility.yul\":11330:11339   */\n      dup2\n        /* \"#utility.yul\":11324:11328   */\n      dup2\n        /* \"#utility.yul\":11320:11340   */\n      sub\n        /* \"#utility.yul\":11316:11317   */\n      0x00\n        /* \"#utility.yul\":11305:11314   */\n      dup4\n        /* \"#utility.yul\":11301:11318   */\n      add\n        /* \"#utility.yul\":11294:11341   */\n      mstore\n        /* \"#utility.yul\":11358:11489   */\n      tag_365\n        /* \"#utility.yul\":11484:11488   */\n      dup2\n        /* \"#utility.yul\":11358:11489   */\n      tag_312\n      jump\t// in\n    tag_365:\n        /* \"#utility.yul\":11350:11489   */\n      swap1\n      pop\n        /* \"#utility.yul\":11248:11496   */\n      swap2\n      swap1\n      pop\n      jump\t// out\n        /* \"#utility.yul\":11502:11921   */\n    tag_194:\n        /* \"#utility.yul\":11668:11672   */\n      0x00\n        /* \"#utility.yul\":11706:11708   */\n      0x20\n        /* \"#utility.yul\":11695:11704   */\n      dup3\n        /* \"#utility.yul\":11691:11709   */\n      add\n        /* \"#utility.yul\":11683:11709   */\n      swap1\n      pop\n        /* \"#utility.yul\":11755:11764   */\n      dup2\n        /* \"#utility.yul\":11749:11753   */\n      dup2\n        /* \"#utility.yul\":11745:11765   */\n      sub\n        /* \"#utility.yul\":11741:11742   */\n      0x00\n        /* \"#utility.yul\":11730:11739   */\n      dup4\n        /* \"#utility.yul\":11726:11743   */\n      add\n        /* \"#utility.yul\":11719:11766   */\n      mstore\n        /* \"#utility.yul\":11783:11914   */\n      tag_367\n        /* \"#utility.yul\":11909:11913   */\n      dup2\n        /* \"#utility.yul\":11783:11914   */\n      tag_317\n      jump\t// in\n    tag_367:\n        /* \"#utility.yul\":11775:11914   */\n      swap1\n      pop\n        /* \"#utility.yul\":11673:11921   */\n      swap2\n      swap1\n      pop\n      jump\t// out\n        /* \"#utility.yul\":11927:12346   */\n    tag_174:\n        /* \"#utility.yul\":12093:12097   */\n      0x00\n        /* \"#utility.yul\":12131:12133   */\n      0x20\n        /* \"#utility.yul\":12120:12129   */\n      dup3\n        /* \"#utility.yul\":12116:12134   */\n      add\n        /* \"#utility.yul\":12108:12134   */\n      swap1\n      pop\n        /* \"#utility.yul\":12180:12189   */\n      dup2\n        /* \"#utility.yul\":12174:12178   */\n      dup2\n        /* \"#utility.yul\":12170:12190   */\n      sub\n        /* \"#utility.yul\":12166:12167   */\n      0x00\n        /* \"#utility.yul\":12155:12164   */\n      dup4\n        /* \"#utility.yul\":12151:12168   */\n      add\n        /* \"#utility.yul\":12144:12191   */\n      mstore\n        /* \"#utility.yul\":12208:12339   */\n      tag_369\n        /* \"#utility.yul\":12334:12338   */\n      dup2\n        /* \"#utility.yul\":12208:12339   */\n      tag_322\n      jump\t// in\n    tag_369:\n        /* \"#utility.yul\":12200:12339   */\n      swap1\n      pop\n        /* \"#utility.yul\":12098:12346   */\n      swap2\n      swap1\n      pop\n      jump\t// out\n        /* \"#utility.yul\":12352:12771   */\n    tag_225:\n        /* \"#utility.yul\":12518:12522   */\n      0x00\n        /* \"#utility.yul\":12556:12558   */\n      0x20\n        /* \"#utility.yul\":12545:12554   */\n      dup3\n        /* \"#utility.yul\":12541:12559   */\n      add\n        /* \"#utility.yul\":12533:12559   */\n      swap1\n      pop\n        /* \"#utility.yul\":12605:12614   */\n      dup2\n        /* \"#utility.yul\":12599:12603   */\n      dup2\n        /* \"#utility.yul\":12595:12615   */\n      sub\n        /* \"#utility.yul\":12591:12592   */\n      0x00\n        /* \"#utility.yul\":12580:12589   */\n      dup4\n        /* \"#utility.yul\":12576:12593   */\n      add\n        /* \"#utility.yul\":12569:12616   */\n      mstore\n        /* \"#utility.yul\":12633:12764   */\n      tag_371\n        /* \"#utility.yul\":12759:12763   */\n      dup2\n        /* \"#utility.yul\":12633:12764   */\n      tag_327\n      jump\t// in\n    tag_371:\n        /* \"#utility.yul\":12625:12764   */\n      swap1\n      pop\n        /* \"#utility.yul\":12523:12771   */\n      swap2\n      swap1\n      pop\n      jump\t// out\n        /* \"#utility.yul\":12777:12999   */\n    tag_38:\n        /* \"#utility.yul\":12870:12874   */\n      0x00\n        /* \"#utility.yul\":12908:12910   */\n      0x20\n        /* \"#utility.yul\":12897:12906   */\n      dup3\n        /* \"#utility.yul\":12893:12911   */\n      add\n        /* \"#utility.yul\":12885:12911   */\n      swap1\n      pop\n        /* \"#utility.yul\":12921:12992   */\n      tag_373\n        /* \"#utility.yul\":12989:12990   */\n      0x00\n        /* \"#utility.yul\":12978:12987   */\n      dup4\n        /* \"#utility.yul\":12974:12991   */\n      add\n        /* \"#utility.yul\":12965:12971   */\n      dup5\n        /* \"#utility.yul\":12921:12992   */\n      tag_332\n      jump\t// in\n    tag_373:\n        /* \"#utility.yul\":12875:12999   */\n      swap3\n      swap2\n      pop\n      pop\n      jump\t// out\n        /* \"#utility.yul\":13005:13219   */\n    tag_53:\n        /* \"#utility.yul\":13094:13098   */\n      0x00\n        /* \"#utility.yul\":13132:13134   */\n      0x20\n        /* \"#utility.yul\":13121:13130   */\n      dup3\n        /* \"#utility.yul\":13117:13135   */\n      add\n        /* \"#utility.yul\":13109:13135   */\n      swap1\n      pop\n        /* \"#utility.yul\":13145:13212   */\n      tag_375\n        /* \"#utility.yul\":13209:13210   */\n      0x00\n        /* \"#utility.yul\":13198:13207   */\n      dup4\n        /* \"#utility.yul\":13194:13211   */\n      add\n        /* \"#utility.yul\":13185:13191   */\n      dup5\n        /* \"#utility.yul\":13145:13212   */\n      tag_336\n      jump\t// in\n    tag_375:\n        /* \"#utility.yul\":13099:13219   */\n      swap3\n      swap2\n      pop\n      pop\n      jump\t// out\n        /* \"#utility.yul\":13225:13324   */\n    tag_270:\n        /* \"#utility.yul\":13277:13283   */\n      0x00\n        /* \"#utility.yul\":13311:13316   */\n      dup2\n        /* \"#utility.yul\":13305:13317   */\n      mload\n        /* \"#utility.yul\":13295:13317   */\n      swap1\n      pop\n        /* \"#utility.yul\":13284:13324   */\n      swap2\n      swap1\n      pop\n      jump\t// out\n        /* \"#utility.yul\":13330:13499   */\n    tag_272:\n        /* \"#utility.yul\":13414:13425   */\n      0x00\n        /* \"#utility.yul\":13448:13454   */\n      dup3\n        /* \"#utility.yul\":13443:13446   */\n      dup3\n        /* \"#utility.yul\":13436:13455   */\n      mstore\n        /* \"#utility.yul\":13488:13492   */\n      0x20\n        /* \"#utility.yul\":13483:13486   */\n      dup3\n        /* \"#utility.yul\":13479:13493   */\n      add\n        /* \"#utility.yul\":13464:13493   */\n      swap1\n      pop\n        /* \"#utility.yul\":13426:13499   */\n      swap3\n      swap2\n      pop\n      pop\n      jump\t// out\n        /* \"#utility.yul\":13505:13810   */\n    tag_128:\n        /* \"#utility.yul\":13545:13548   */\n      0x00\n        /* \"#utility.yul\":13564:13584   */\n      tag_379\n        /* \"#utility.yul\":13582:13583   */\n      dup3\n        /* \"#utility.yul\":13564:13584   */\n      tag_335\n      jump\t// in\n    tag_379:\n        /* \"#utility.yul\":13559:13584   */\n      swap2\n      pop\n        /* \"#utility.yul\":13598:13618   */\n      tag_380\n        /* \"#utility.yul\":13616:13617   */\n      dup4\n        /* \"#utility.yul\":13598:13618   */\n      tag_335\n      jump\t// in\n    tag_380:\n        /* \"#utility.yul\":13593:13618   */\n      swap3\n      pop\n        /* \"#utility.yul\":13752:13753   */\n      dup3\n        /* \"#utility.yul\":13684:13750   */\n      0xffffffffffffffffffffffffffffffffffffffffffffffffffffffffffffffff\n        /* \"#utility.yul\":13680:13754   */\n      sub\n        /* \"#utility.yul\":13677:13678   */\n      dup3\n        /* \"#utility.yul\":13674:13755   */\n      gt\n        /* \"#utility.yul\":13671:13673   */\n      iszero\n      tag_381\n      jumpi\n        /* \"#utility.yul\":13758:13776   */\n      tag_382\n      tag_383\n      jump\t// in\n    tag_382:\n        /* \"#utility.yul\":13671:13673   */\n    tag_381:\n        /* \"#utility.yul\":13802:13803   */\n      dup3\n        /* \"#utility.yul\":13799:13800   */\n      dup3\n        /* \"#utility.yul\":13795:13804   */\n      add\n        /* \"#utility.yul\":13788:13804   */\n      swap1\n      pop\n        /* \"#utility.yul\":13549:13810   */\n      swap3\n      swap2\n      pop\n      pop\n      jump\t// out\n        /* \"#utility.yul\":13816:14001   */\n    tag_154:\n        /* \"#utility.yul\":13856:13857   */\n      0x00\n        /* \"#utility.yul\":13873:13893   */\n      tag_385\n        /* \"#utility.yul\":13891:13892   */\n      dup3\n        /* \"#utility.yul\":13873:13893   */\n      tag_335\n      jump\t// in\n    tag_385:\n        /* \"#utility.yul\":13868:13893   */\n      swap2\n      pop\n        /* \"#utility.yul\":13907:13927   */\n      tag_386\n        /* \"#utility.yul\":13925:13926   */\n      dup4\n        /* \"#utility.yul\":13907:13927   */\n      tag_335\n      jump\t// in\n    tag_386:\n        /* \"#utility.yul\":13902:13927   */\n      swap3\n      pop\n        /* \"#utility.yul\":13946:13947   */\n      dup3\n        /* \"#utility.yul\":13936:13938   */\n      tag_387\n      jumpi\n        /* \"#utility.yul\":13951:13969   */\n      tag_388\n      tag_389\n      jump\t// in\n    tag_388:\n        /* \"#utility.yul\":13936:13938   */\n    tag_387:\n        /* \"#utility.yul\":13993:13994   */\n      dup3\n        /* \"#utility.yul\":13990:13991   */\n      dup3\n        /* \"#utility.yul\":13986:13995   */\n      div\n        /* \"#utility.yul\":13981:13995   */\n      swap1\n      pop\n        /* \"#utility.yul\":13858:14001   */\n      swap3\n      swap2\n      pop\n      pop\n      jump\t// out\n        /* \"#utility.yul\":14007:14355   */\n    tag_156:\n        /* \"#utility.yul\":14047:14054   */\n      0x00\n        /* \"#utility.yul\":14070:14090   */\n      tag_391\n        /* \"#utility.yul\":14088:14089   */\n      dup3\n        /* \"#utility.yul\":14070:14090   */\n      tag_335\n      jump\t// in\n    tag_391:\n        /* \"#utility.yul\":14065:14090   */\n      swap2\n      pop\n        /* \"#utility.yul\":14104:14124   */\n      tag_392\n        /* \"#utility.yul\":14122:14123   */\n      dup4\n        /* \"#utility.yul\":14104:14124   */\n      tag_335\n      jump\t// in\n    tag_392:\n        /* \"#utility.yul\":14099:14124   */\n      swap3\n      pop\n        /* \"#utility.yul\":14292:14293   */\n      dup2\n        /* \"#utility.yul\":14224:14290   */\n      0xffffffffffffffffffffffffffffffffffffffffffffffffffffffffffffffff\n        /* \"#utility.yul\":14220:14294   */\n      div\n        /* \"#utility.yul\":14217:14218   */\n      dup4\n        /* \"#utility.yul\":14214:14295   */\n      gt\n        /* \"#utility.yul\":14209:14210   */\n      dup3\n        /* \"#utility.yul\":14202:14211   */\n      iszero\n        /* \"#utility.yul\":14195:14212   */\n      iszero\n        /* \"#utility.yul\":14191:14296   */\n      and\n        /* \"#utility.yul\":14188:14190   */\n      iszero\n      tag_393\n      jumpi\n        /* \"#utility.yul\":14299:14317   */\n      tag_394\n      tag_383\n      jump\t// in\n    tag_394:\n        /* \"#utility.yul\":14188:14190   */\n    tag_393:\n        /* \"#utility.yul\":14347:14348   */\n      dup3\n        /* \"#utility.yul\":14344:14345   */\n      dup3\n        /* \"#utility.yul\":14340:14349   */\n      mul\n        /* \"#utility.yul\":14329:14349   */\n      swap1\n      pop\n        /* \"#utility.yul\":14055:14355   */\n      swap3\n      swap2\n      pop\n      pop\n      jump\t// out\n        /* \"#utility.yul\":14361:14457   */\n    tag_262:\n        /* \"#utility.yul\":14398:14405   */\n      0x00\n        /* \"#utility.yul\":14427:14451   */\n      tag_396\n        /* \"#utility.yul\":14445:14450   */\n      dup3\n        /* \"#utility.yul\":14427:14451   */\n      tag_397\n      jump\t// in\n    tag_396:\n        /* \"#utility.yul\":14416:14451   */\n      swap1\n      pop\n        /* \"#utility.yul\":14406:14457   */\n      swap2\n      swap1\n      pop\n      jump\t// out\n        /* \"#utility.yul\":14463:14553   */\n    tag_266:\n        /* \"#utility.yul\":14497:14504   */\n      0x00\n        /* \"#utility.yul\":14540:14545   */\n      dup2\n        /* \"#utility.yul\":14533:14546   */\n      iszero\n        /* \"#utility.yul\":14526:14547   */\n      iszero\n        /* \"#utility.yul\":14515:14547   */\n      swap1\n      pop\n        /* \"#utility.yul\":14505:14553   */\n      swap2\n      swap1\n      pop\n      jump\t// out\n        /* \"#utility.yul\":14559:14685   */\n    tag_397:\n        /* \"#utility.yul\":14596:14603   */\n      0x00\n        /* \"#utility.yul\":14636:14678   */\n      0xffffffffffffffffffffffffffffffffffffffff\n        /* \"#utility.yul\":14629:14634   */\n      dup3\n        /* \"#utility.yul\":14625:14679   */\n      and\n        /* \"#utility.yul\":14614:14679   */\n      swap1\n      pop\n        /* \"#utility.yul\":14604:14685   */\n      swap2\n      swap1\n      pop\n      jump\t// out\n        /* \"#utility.yul\":14691:14768   */\n    tag_335:\n        /* \"#utility.yul\":14728:14735   */\n      0x00\n        /* \"#utility.yul\":14757:14762   */\n      dup2\n        /* \"#utility.yul\":14746:14762   */\n      swap1\n      pop\n        /* \"#utility.yul\":14736:14768   */\n      swap2\n      swap1\n      pop\n      jump\t// out\n        /* \"#utility.yul\":14774:14860   */\n    tag_339:\n        /* \"#utility.yul\":14809:14816   */\n      0x00\n        /* \"#utility.yul\":14849:14853   */\n      0xff\n        /* \"#utility.yul\":14842:14847   */\n      dup3\n        /* \"#utility.yul\":14838:14854   */\n      and\n        /* \"#utility.yul\":14827:14854   */\n      swap1\n      pop\n        /* \"#utility.yul\":14817:14860   */\n      swap2\n      swap1\n      pop\n      jump\t// out\n        /* \"#utility.yul\":14866:15173   */\n    tag_274:\n        /* \"#utility.yul\":14934:14935   */\n      0x00\n        /* \"#utility.yul\":14944:15057   */\n    tag_403:\n        /* \"#utility.yul\":14958:14964   */\n      dup4\n        /* \"#utility.yul\":14955:14956   */\n      dup2\n        /* \"#utility.yul\":14952:14965   */\n      lt\n        /* \"#utility.yul\":14944:15057   */\n      iszero\n      tag_405\n      jumpi\n        /* \"#utility.yul\":15043:15044   */\n      dup1\n        /* \"#utility.yul\":15038:15041   */\n      dup3\n        /* \"#utility.yul\":15034:15045   */\n      add\n        /* \"#utility.yul\":15028:15046   */\n      mload\n        /* \"#utility.yul\":15024:15025   */\n      dup2\n        /* \"#utility.yul\":15019:15022   */\n      dup5\n        /* \"#utility.yul\":15015:15026   */\n      add\n        /* \"#utility.yul\":15008:15047   */\n      mstore\n        /* \"#utility.yul\":14980:14982   */\n      0x20\n        /* \"#utility.yul\":14977:14978   */\n      dup2\n        /* \"#utility.yul\":14973:14983   */\n      add\n        /* \"#utility.yul\":14968:14983   */\n      swap1\n      pop\n        /* \"#utility.yul\":14944:15057   */\n      jump(tag_403)\n    tag_405:\n        /* \"#utility.yul\":15075:15081   */\n      dup4\n        /* \"#utility.yul\":15072:15073   */\n      dup2\n        /* \"#utility.yul\":15069:15082   */\n      gt\n        /* \"#utility.yul\":15066:15068   */\n      iszero\n      tag_406\n      jumpi\n        /* \"#utility.yul\":15155:15156   */\n      0x00\n        /* \"#utility.yul\":15146:15152   */\n      dup5\n        /* \"#utility.yul\":15141:15144   */\n      dup5\n        /* \"#utility.yul\":15137:15153   */\n      add\n        /* \"#utility.yul\":15130:15157   */\n      mstore\n        /* \"#utility.yul\":15066:15068   */\n    tag_406:\n        /* \"#utility.yul\":14915:15173   */\n      pop\n      pop\n      pop\n      pop\n      jump\t// out\n        /* \"#utility.yul\":15179:15499   */\n    tag_106:\n        /* \"#utility.yul\":15223:15229   */\n      0x00\n        /* \"#utility.yul\":15260:15261   */\n      0x02\n        /* \"#utility.yul\":15254:15258   */\n      dup3\n        /* \"#utility.yul\":15250:15262   */\n      div\n        /* \"#utility.yul\":15240:15262   */\n      swap1\n      pop\n        /* \"#utility.yul\":15307:15308   */\n      0x01\n        /* \"#utility.yul\":15301:15305   */\n      dup3\n        /* \"#utility.yul\":15297:15309   */\n      and\n        /* \"#utility.yul\":15328:15346   */\n      dup1\n        /* \"#utility.yul\":15318:15320   */\n      tag_408\n      jumpi\n        /* \"#utility.yul\":15384:15388   */\n      0x7f\n        /* \"#utility.yul\":15376:15382   */\n      dup3\n        /* \"#utility.yul\":15372:15389   */\n      and\n        /* \"#utility.yul\":15362:15389   */\n      swap2\n      pop\n        /* \"#utility.yul\":15318:15320   */\n    tag_408:\n        /* \"#utility.yul\":15446:15448   */\n      0x20\n        /* \"#utility.yul\":15438:15444   */\n      dup3\n        /* \"#utility.yul\":15435:15449   */\n      lt\n        /* \"#utility.yul\":15415:15433   */\n      dup2\n        /* \"#utility.yul\":15412:15450   */\n      eq\n        /* \"#utility.yul\":15409:15411   */\n      iszero\n      tag_409\n      jumpi\n        /* \"#utility.yul\":15465:15483   */\n      tag_410\n      tag_411\n      jump\t// in\n    tag_410:\n        /* \"#utility.yul\":15409:15411   */\n    tag_409:\n        /* \"#utility.yul\":15230:15499   */\n      pop\n      swap2\n      swap1\n      pop\n      jump\t// out\n        /* \"#utility.yul\":15505:15685   */\n    tag_383:\n        /* \"#utility.yul\":15553:15630   */\n      0x4e487b7100000000000000000000000000000000000000000000000000000000\n        /* \"#utility.yul\":15550:15551   */\n      0x00\n        /* \"#utility.yul\":15543:15631   */\n      mstore\n        /* \"#utility.yul\":15650:15654   */\n      0x11\n        /* \"#utility.yul\":15647:15648   */\n      0x04\n        /* \"#utility.yul\":15640:15655   */\n      mstore\n        /* \"#utility.yul\":15674:15678   */\n      0x24\n        /* \"#utility.yul\":15671:15672   */\n      0x00\n        /* \"#utility.yul\":15664:15679   */\n      revert\n        /* \"#utility.yul\":15691:15871   */\n    tag_389:\n        /* \"#utility.yul\":15739:15816   */\n      0x4e487b7100000000000000000000000000000000000000000000000000000000\n        /* \"#utility.yul\":15736:15737   */\n      0x00\n        /* \"#utility.yul\":15729:15817   */\n      mstore\n        /* \"#utility.yul\":15836:15840   */\n      0x12\n        /* \"#utility.yul\":15833:15834   */\n      0x04\n        /* \"#utility.yul\":15826:15841   */\n      mstore\n        /* \"#utility.yul\":15860:15864   */\n      0x24\n        /* \"#utility.yul\":15857:15858   */\n      0x00\n        /* \"#utility.yul\":15850:15865   */\n      revert\n        /* \"#utility.yul\":15877:16057   */\n    tag_411:\n        /* \"#utility.yul\":15925:16002   */\n      0x4e487b7100000000000000000000000000000000000000000000000000000000\n        /* \"#utility.yul\":15922:15923   */\n      0x00\n        /* \"#utility.yul\":15915:16003   */\n      mstore\n        /* \"#utility.yul\":16022:16026   */\n      0x22\n        /* \"#utility.yul\":16019:16020   */\n      0x04\n        /* \"#utility.yul\":16012:16027   */\n      mstore\n        /* \"#utility.yul\":16046:16050   */\n      0x24\n        /* \"#utility.yul\":16043:16044   */\n      0x00\n        /* \"#utility.yul\":16036:16051   */\n      revert\n        /* \"#utility.yul\":16063:16165   */\n    tag_276:\n        /* \"#utility.yul\":16104:16110   */\n      0x00\n        /* \"#utility.yul\":16155:16157   */\n      0x1f\n        /* \"#utility.yul\":16151:16158   */\n      not\n        /* \"#utility.yul\":16146:16148   */\n      0x1f\n        /* \"#utility.yul\":16139:16144   */\n      dup4\n        /* \"#utility.yul\":16135:16149   */\n      add\n        /* \"#utility.yul\":16131:16159   */\n      and\n        /* \"#utility.yul\":16121:16159   */\n      swap1\n      pop\n        /* \"#utility.yul\":16111:16165   */\n      swap2\n      swap1\n      pop\n      jump\t// out\n        /* \"#utility.yul\":16171:16393   */\n    tag_281:\n        /* \"#utility.yul\":16311:16345   */\n      0x45524332303a207472616e7366657220746f20746865207a65726f2061646472\n        /* \"#utility.yul\":16307:16308   */\n      0x00\n        /* \"#utility.yul\":16299:16305   */\n      dup3\n        /* \"#utility.yul\":16295:16309   */\n      add\n        /* \"#utility.yul\":16288:16346   */\n      mstore\n        /* \"#utility.yul\":16380:16385   */\n      0x6573730000000000000000000000000000000000000000000000000000000000\n        /* \"#utility.yul\":16375:16377   */\n      0x20\n        /* \"#utility.yul\":16367:16373   */\n      dup3\n        /* \"#utility.yul\":16363:16378   */\n      add\n        /* \"#utility.yul\":16356:16386   */\n      mstore\n        /* \"#utility.yul\":16277:16393   */\n      pop\n      jump\t// out\n        /* \"#utility.yul\":16399:16624   */\n    tag_286:\n        /* \"#utility.yul\":16539:16573   */\n      0x4f776e61626c653a206e6577206f776e657220697320746865207a65726f2061\n        /* \"#utility.yul\":16535:16536   */\n      0x00\n        /* \"#utility.yul\":16527:16533   */\n      dup3\n        /* \"#utility.yul\":16523:16537   */\n      add\n        /* \"#utility.yul\":16516:16574   */\n      mstore\n        /* \"#utility.yul\":16608:16616   */\n      0x6464726573730000000000000000000000000000000000000000000000000000\n        /* \"#utility.yul\":16603:16605   */\n      0x20\n        /* \"#utility.yul\":16595:16601   */\n      dup3\n        /* \"#utility.yul\":16591:16606   */\n      add\n        /* \"#utility.yul\":16584:16617   */\n      mstore\n        /* \"#utility.yul\":16505:16624   */\n      pop\n      jump\t// out\n        /* \"#utility.yul\":16630:16851   */\n    tag_291:\n        /* \"#utility.yul\":16770:16804   */\n      0x45524332303a20617070726f766520746f20746865207a65726f206164647265\n        /* \"#utility.yul\":16766:16767   */\n      0x00\n        /* \"#utility.yul\":16758:16764   */\n      dup3\n        /* \"#utility.yul\":16754:16768   */\n      add\n        /* \"#utility.yul\":16747:16805   */\n      mstore\n        /* \"#utility.yul\":16839:16843   */\n      0x7373000000000000000000000000000000000000000000000000000000000000\n        /* \"#utility.yul\":16834:16836   */\n      0x20\n        /* \"#utility.yul\":16826:16832   */\n      dup3\n        /* \"#utility.yul\":16822:16837   */\n      add\n        /* \"#utility.yul\":16815:16844   */\n      mstore\n        /* \"#utility.yul\":16736:16851   */\n      pop\n      jump\t// out\n        /* \"#utility.yul\":16857:17036   */\n    tag_296:\n        /* \"#utility.yul\":16997:17028   */\n      0x45524332303a20696e73756666696369656e7420616c6c6f77616e6365000000\n        /* \"#utility.yul\":16993:16994   */\n      0x00\n        /* \"#utility.yul\":16985:16991   */\n      dup3\n        /* \"#utility.yul\":16981:16995   */\n      add\n        /* \"#utility.yul\":16974:17029   */\n      mstore\n        /* \"#utility.yul\":16963:17036   */\n      pop\n      jump\t// out\n        /* \"#utility.yul\":17042:17267   */\n    tag_301:\n        /* \"#utility.yul\":17182:17216   */\n      0x45524332303a207472616e7366657220616d6f756e7420657863656564732062\n        /* \"#utility.yul\":17178:17179   */\n      0x00\n        /* \"#utility.yul\":17170:17176   */\n      dup3\n        /* \"#utility.yul\":17166:17180   */\n      add\n        /* \"#utility.yul\":17159:17217   */\n      mstore\n        /* \"#utility.yul\":17251:17259   */\n      0x616c616e63650000000000000000000000000000000000000000000000000000\n        /* \"#utility.yul\":17246:17248   */\n      0x20\n        /* \"#utility.yul\":17238:17244   */\n      dup3\n        /* \"#utility.yul\":17234:17249   */\n      add\n        /* \"#utility.yul\":17227:17260   */\n      mstore\n        /* \"#utility.yul\":17148:17267   */\n      pop\n      jump\t// out\n        /* \"#utility.yul\":17273:17426   */\n    tag_306:\n        /* \"#utility.yul\":17413:17418   */\n      0x6c6f650000000000000000000000000000000000000000000000000000000000\n        /* \"#utility.yul\":17409:17410   */\n      0x00\n        /* \"#utility.yul\":17401:17407   */\n      dup3\n        /* \"#utility.yul\":17397:17411   */\n      add\n        /* \"#utility.yul\":17390:17419   */\n      mstore\n        /* \"#utility.yul\":17379:17426   */\n      pop\n      jump\t// out\n        /* \"#utility.yul\":17432:17614   */\n    tag_311:\n        /* \"#utility.yul\":17572:17606   */\n      0x4f776e61626c653a2063616c6c6572206973206e6f7420746865206f776e6572\n        /* \"#utility.yul\":17568:17569   */\n      0x00\n        /* \"#utility.yul\":17560:17566   */\n      dup3\n        /* \"#utility.yul\":17556:17570   */\n      add\n        /* \"#utility.yul\":17549:17607   */\n      mstore\n        /* \"#utility.yul\":17538:17614   */\n      pop\n      jump\t// out\n        /* \"#utility.yul\":17620:17844   */\n    tag_316:\n        /* \"#utility.yul\":17760:17794   */\n      0x45524332303a207472616e736665722066726f6d20746865207a65726f206164\n        /* \"#utility.yul\":17756:17757   */\n      0x00\n        /* \"#utility.yul\":17748:17754   */\n      dup3\n        /* \"#utility.yul\":17744:17758   */\n      add\n        /* \"#utility.yul\":17737:17795   */\n      mstore\n        /* \"#utility.yul\":17829:17836   */\n      0x6472657373000000000000000000000000000000000000000000000000000000\n        /* \"#utility.yul\":17824:17826   */\n      0x20\n        /* \"#utility.yul\":17816:17822   */\n      dup3\n        /* \"#utility.yul\":17812:17827   */\n      add\n        /* \"#utility.yul\":17805:17837   */\n      mstore\n        /* \"#utility.yul\":17726:17844   */\n      pop\n      jump\t// out\n        /* \"#utility.yul\":17850:18073   */\n    tag_321:\n        /* \"#utility.yul\":17990:18024   */\n      0x45524332303a20617070726f76652066726f6d20746865207a65726f20616464\n        /* \"#utility.yul\":17986:17987   */\n      0x00\n        /* \"#utility.yul\":17978:17984   */\n      dup3\n        /* \"#utility.yul\":17974:17988   */\n      add\n        /* \"#utility.yul\":17967:18025   */\n      mstore\n        /* \"#utility.yul\":18059:18065   */\n      0x7265737300000000000000000000000000000000000000000000000000000000\n        /* \"#utility.yul\":18054:18056   */\n      0x20\n        /* \"#utility.yul\":18046:18052   */\n      dup3\n        /* \"#utility.yul\":18042:18057   */\n      add\n        /* \"#utility.yul\":18035:18066   */\n      mstore\n        /* \"#utility.yul\":17956:18073   */\n      pop\n      jump\t// out\n        /* \"#utility.yul\":18079:18303   */\n    tag_326:\n        /* \"#utility.yul\":18219:18253   */\n      0x45524332303a2064656372656173656420616c6c6f77616e63652062656c6f77\n        /* \"#utility.yul\":18215:18216   */\n      0x00\n        /* \"#utility.yul\":18207:18213   */\n      dup3\n        /* \"#utility.yul\":18203:18217   */\n      add\n        /* \"#utility.yul\":18196:18254   */\n      mstore\n        /* \"#utility.yul\":18288:18295   */\n      0x207a65726f000000000000000000000000000000000000000000000000000000\n        /* \"#utility.yul\":18283:18285   */\n      0x20\n        /* \"#utility.yul\":18275:18281   */\n      dup3\n        /* \"#utility.yul\":18271:18286   */\n      add\n        /* \"#utility.yul\":18264:18296   */\n      mstore\n        /* \"#utility.yul\":18185:18303   */\n      pop\n      jump\t// out\n        /* \"#utility.yul\":18309:18490   */\n    tag_331:\n        /* \"#utility.yul\":18449:18482   */\n      0x45524332303a206d696e7420746f20746865207a65726f206164647265737300\n        /* \"#utility.yul\":18445:18446   */\n      0x00\n        /* \"#utility.yul\":18437:18443   */\n      dup3\n        /* \"#utility.yul\":18433:18447   */\n      add\n        /* \"#utility.yul\":18426:18483   */\n      mstore\n        /* \"#utility.yul\":18415:18490   */\n      pop\n      jump\t// out\n        /* \"#utility.yul\":18496:18618   */\n    tag_238:\n        /* \"#utility.yul\":18569:18593   */\n      tag_428\n        /* \"#utility.yul\":18587:18592   */\n      dup2\n        /* \"#utility.yul\":18569:18593   */\n      tag_262\n      jump\t// in\n    tag_428:\n        /* \"#utility.yul\":18562:18567   */\n      dup2\n        /* \"#utility.yul\":18559:18594   */\n      eq\n        /* \"#utility.yul\":18549:18551   */\n      tag_429\n      jumpi\n        /* \"#utility.yul\":18608:18609   */\n      0x00\n        /* \"#utility.yul\":18605:18606   */\n      dup1\n        /* \"#utility.yul\":18598:18610   */\n      revert\n        /* \"#utility.yul\":18549:18551   */\n    tag_429:\n        /* \"#utility.yul\":18539:18618   */\n      pop\n      jump\t// out\n        /* \"#utility.yul\":18624:18746   */\n    tag_242:\n        /* \"#utility.yul\":18697:18721   */\n      tag_431\n        /* \"#utility.yul\":18715:18720   */\n      dup2\n        /* \"#utility.yul\":18697:18721   */\n      tag_335\n      jump\t// in\n    tag_431:\n        /* \"#utility.yul\":18690:18695   */\n      dup2\n        /* \"#utility.yul\":18687:18722   */\n      eq\n        /* \"#utility.yul\":18677:18679   */\n      tag_432\n      jumpi\n        /* \"#utility.yul\":18736:18737   */\n      0x00\n        /* \"#utility.yul\":18733:18734   */\n      dup1\n        /* \"#utility.yul\":18726:18738   */\n      revert\n        /* \"#utility.yul\":18677:18679   */\n    tag_432:\n        /* \"#utility.yul\":18667:18746   */\n      pop\n      jump\t// out\n\n    auxdata: 0xa2646970667358221220011b47bb68cc48125bbe9745038105e42dce3be04cbb1d704daa2d539ea60bf064736f6c63430008040033\n}\n",
				"bytecode": {
					"linkReferences": {},
					"object": "608060405262000014620001b460201b60201c565b600a62000022919062000641565b620f42406200003291906200077e565b60075562000045620001b460201b60201c565b600a62000053919062000641565b6103e86200006291906200077e565b6009553480156200007257600080fd5b50604051620026b6380380620026b68339818101604052810190620000989190620004d5565b6040518060400160405280600981526020017f59506574546f6b656e00000000000000000000000000000000000000000000008152506040518060400160405280600481526020017f5950544e0000000000000000000000000000000000000000000000000000000081525081600390805190602001906200011c9291906200040e565b508060049080519060200190620001359291906200040e565b505050620001586200014c620001bd60201b60201c565b620001c560201b60201c565b80600660006101000a81548173ffffffffffffffffffffffffffffffffffffffff021916908373ffffffffffffffffffffffffffffffffffffffff160217905550620001ad336007546200028b60201b60201c565b506200090e565b60006012905090565b600033905090565b6000600560009054906101000a900473ffffffffffffffffffffffffffffffffffffffff16905081600560006101000a81548173ffffffffffffffffffffffffffffffffffffffff021916908373ffffffffffffffffffffffffffffffffffffffff1602179055508173ffffffffffffffffffffffffffffffffffffffff168173ffffffffffffffffffffffffffffffffffffffff167f8be0079c531659141344cd1fd0a4f28419497f9722a3daafe3b4186f6b6457e060405160405180910390a35050565b600073ffffffffffffffffffffffffffffffffffffffff168273ffffffffffffffffffffffffffffffffffffffff161415620002fe576040517f08c379a0000000000000000000000000000000000000000000000000000000008152600401620002f59062000539565b60405180910390fd5b62000312600083836200040460201b60201c565b806002600082825462000326919062000589565b92505081905550806000808473ffffffffffffffffffffffffffffffffffffffff1673ffffffffffffffffffffffffffffffffffffffff16815260200190815260200160002060008282546200037d919062000589565b925050819055508173ffffffffffffffffffffffffffffffffffffffff16600073ffffffffffffffffffffffffffffffffffffffff167fddf252ad1be2c89b69c2b068fc378daa952ba7f163c4a11628f55a4df523b3ef83604051620003e491906200055b565b60405180910390a362000400600083836200040960201b60201c565b5050565b505050565b505050565b8280546200041c906200082a565b90600052602060002090601f0160209004810192826200044057600085556200048c565b82601f106200045b57805160ff19168380011785556200048c565b828001600101855582156200048c579182015b828111156200048b5782518255916020019190600101906200046e565b5b5090506200049b91906200049f565b5090565b5b80821115620004ba576000816000905550600101620004a0565b5090565b600081519050620004cf81620008f4565b92915050565b600060208284031215620004e857600080fd5b6000620004f884828501620004be565b91505092915050565b600062000510601f8362000578565b91506200051d82620008cb565b602082019050919050565b620005338162000813565b82525050565b60006020820190508181036000830152620005548162000501565b9050919050565b600060208201905062000572600083018462000528565b92915050565b600082825260208201905092915050565b6000620005968262000813565b9150620005a38362000813565b9250827fffffffffffffffffffffffffffffffffffffffffffffffffffffffffffffffff03821115620005db57620005da62000860565b5b828201905092915050565b6000808291508390505b6001851115620006385780860481111562000610576200060f62000860565b5b6001851615620006205780820291505b80810290506200063085620008be565b9450620005f0565b94509492505050565b60006200064e8262000813565b91506200065b836200081d565b92506200068a7fffffffffffffffffffffffffffffffffffffffffffffffffffffffffffffffff848462000692565b905092915050565b600082620006a4576001905062000777565b81620006b4576000905062000777565b8160018114620006cd5760028114620006d8576200070e565b600191505062000777565b60ff841115620006ed57620006ec62000860565b5b8360020a91508482111562000707576200070662000860565b5b5062000777565b5060208310610133831016604e8410600b8410161715620007485782820a90508381111562000742576200074162000860565b5b62000777565b620007578484846001620005e6565b9250905081840481111562000771576200077062000860565b5b81810290505b9392505050565b60006200078b8262000813565b9150620007988362000813565b9250817fffffffffffffffffffffffffffffffffffffffffffffffffffffffffffffffff0483118215151615620007d457620007d362000860565b5b828202905092915050565b6000620007ec82620007f3565b9050919050565b600073ffffffffffffffffffffffffffffffffffffffff82169050919050565b6000819050919050565b600060ff82169050919050565b600060028204905060018216806200084357607f821691505b602082108114156200085a57620008596200088f565b5b50919050565b7f4e487b7100000000000000000000000000000000000000000000000000000000600052601160045260246000fd5b7f4e487b7100000000000000000000000000000000000000000000000000000000600052602260045260246000fd5b60008160011c9050919050565b7f45524332303a206d696e7420746f20746865207a65726f206164647265737300600082015250565b620008ff81620007df565b81146200090b57600080fd5b50565b611d98806200091e6000396000f3fe6080604052600436106100fe5760003560e01c806370a082311161009557806395d89b411161006457806395d89b411461032a578063a457c2d714610355578063a9059cbb14610392578063dd62ed3e146103cf578063f2fde38b1461040c576100fe565b806370a082311461028f578063715018a6146102cc5780637e72fb52146102e35780638da5cb5b146102ff576100fe565b80632c4e722e116100d15780632c4e722e146101d3578063313ce567146101fe578063395093511461022957806340c10f1914610266576100fe565b806306fdde0314610103578063095ea7b31461012e57806318160ddd1461016b57806323b872dd14610196575b600080fd5b34801561010f57600080fd5b50610118610435565b604051610125919061165a565b60405180910390f35b34801561013a57600080fd5b50610155600480360381019061015091906113bb565b6104c7565b604051610162919061163f565b60405180910390f35b34801561017757600080fd5b506101806104ea565b60405161018d91906117dc565b60405180910390f35b3480156101a257600080fd5b506101bd60048036038101906101b8919061136c565b6104f4565b6040516101ca919061163f565b60405180910390f35b3480156101df57600080fd5b506101e8610523565b6040516101f591906117dc565b60405180910390f35b34801561020a57600080fd5b50610213610529565b60405161022091906117f7565b60405180910390f35b34801561023557600080fd5b50610250600480360381019061024b91906113bb565b610532565b60405161025d919061163f565b60405180910390f35b34801561027257600080fd5b5061028d600480360381019061028891906113bb565b6105dc565b005b34801561029b57600080fd5b506102b660048036038101906102b19190611307565b610666565b6040516102c391906117dc565b60405180910390f35b3480156102d857600080fd5b506102e16106ae565b005b6102fd60048036038101906102f89190611307565b610736565b005b34801561030b57600080fd5b50610314610885565b60405161032191906115ed565b60405180910390f35b34801561033657600080fd5b5061033f6108af565b60405161034c919061165a565b60405180910390f35b34801561036157600080fd5b5061037c600480360381019061037791906113bb565b610941565b604051610389919061163f565b60405180910390f35b34801561039e57600080fd5b506103b960048036038101906103b491906113bb565b610a2b565b6040516103c6919061163f565b60405180910390f35b3480156103db57600080fd5b506103f660048036038101906103f19190611330565b610a4e565b60405161040391906117dc565b60405180910390f35b34801561041857600080fd5b50610433600480360381019061042e9190611307565b610ad5565b005b60606003805461044490611997565b80601f016020809104026020016040519081016040528092919081815260200182805461047090611997565b80156104bd5780601f10610492576101008083540402835291602001916104bd565b820191906000526020600020905b8154815290600101906020018083116104a057829003601f168201915b5050505050905090565b6000806104d2610bcd565b90506104df818585610bd5565b600191505092915050565b6000600254905090565b6000806104ff610bcd565b905061050c858285610da0565b610517858585610e2c565b60019150509392505050565b60095481565b60006012905090565b60008061053d610bcd565b90506105d1818585600160008673ffffffffffffffffffffffffffffffffffffffff1673ffffffffffffffffffffffffffffffffffffffff16815260200190815260200160002060008973ffffffffffffffffffffffffffffffffffffffff1673ffffffffffffffffffffffffffffffffffffffff168152602001908152602001600020546105cc919061182e565b610bd5565b600191505092915050565b6105e4610bcd565b73ffffffffffffffffffffffffffffffffffffffff16610602610885565b73ffffffffffffffffffffffffffffffffffffffff1614610658576040517f08c379a000000000000000000000000000000000000000000000000000000000815260040161064f9061173c565b60405180910390fd5b61066282826110ad565b5050565b60008060008373ffffffffffffffffffffffffffffffffffffffff1673ffffffffffffffffffffffffffffffffffffffff168152602001908152602001600020549050919050565b6106b6610bcd565b73ffffffffffffffffffffffffffffffffffffffff166106d4610885565b73ffffffffffffffffffffffffffffffffffffffff161461072a576040517f08c379a00000000000000000000000000000000000000000000000000000000081526004016107219061173c565b60405180910390fd5b610734600061120d565b565b60003410610779576040517f08c379a00000000000000000000000000000000000000000000000000000000081526004016107709061171c565b60405180910390fd5b600660009054906101000a900473ffffffffffffffffffffffffffffffffffffffff1673ffffffffffffffffffffffffffffffffffffffff166108fc349081150290604051600060405180830381858888f193505050501580156107e1573d6000803e3d6000fd5b506000600954670de0b6b3a7640000346107fb9190611884565b61080591906118b5565b90508061081183610666565b61081b919061182e565b6008819055508060076000828254610833919061182e565b9250508190555061084482826110ad565b7f1f437f9d9a2cd912a1b9ef9573239cfd5bfc901558877d14b92f4be14dd23f39338360085460405161087993929190611608565b60405180910390a15050565b6000600560009054906101000a900473ffffffffffffffffffffffffffffffffffffffff16905090565b6060600480546108be90611997565b80601f01602080910402602001604051908101604052809291908181526020018280546108ea90611997565b80156109375780601f1061090c57610100808354040283529160200191610937565b820191906000526020600020905b81548152906001019060200180831161091a57829003601f168201915b5050505050905090565b60008061094c610bcd565b90506000600160008373ffffffffffffffffffffffffffffffffffffffff1673ffffffffffffffffffffffffffffffffffffffff16815260200190815260200160002060008673ffffffffffffffffffffffffffffffffffffffff1673ffffffffffffffffffffffffffffffffffffffff16815260200190815260200160002054905083811015610a12576040517f08c379a0000000000000000000000000000000000000000000000000000000008152600401610a099061179c565b60405180910390fd5b610a1f8286868403610bd5565b60019250505092915050565b600080610a36610bcd565b9050610a43818585610e2c565b600191505092915050565b6000600160008473ffffffffffffffffffffffffffffffffffffffff1673ffffffffffffffffffffffffffffffffffffffff16815260200190815260200160002060008373ffffffffffffffffffffffffffffffffffffffff1673ffffffffffffffffffffffffffffffffffffffff16815260200190815260200160002054905092915050565b610add610bcd565b73ffffffffffffffffffffffffffffffffffffffff16610afb610885565b73ffffffffffffffffffffffffffffffffffffffff1614610b51576040517f08c379a0000000000000000000000000000000000000000000000000000000008152600401610b489061173c565b60405180910390fd5b600073ffffffffffffffffffffffffffffffffffffffff168173ffffffffffffffffffffffffffffffffffffffff161415610bc1576040517f08c379a0000000000000000000000000000000000000000000000000000000008152600401610bb89061169c565b60405180910390fd5b610bca8161120d565b50565b600033905090565b600073ffffffffffffffffffffffffffffffffffffffff168373ffffffffffffffffffffffffffffffffffffffff161415610c45576040517f08c379a0000000000000000000000000000000000000000000000000000000008152600401610c3c9061177c565b60405180910390fd5b600073ffffffffffffffffffffffffffffffffffffffff168273ffffffffffffffffffffffffffffffffffffffff161415610cb5576040517f08c379a0000000000000000000000000000000000000000000000000000000008152600401610cac906116bc565b60405180910390fd5b80600160008573ffffffffffffffffffffffffffffffffffffffff1673ffffffffffffffffffffffffffffffffffffffff16815260200190815260200160002060008473ffffffffffffffffffffffffffffffffffffffff1673ffffffffffffffffffffffffffffffffffffffff168152602001908152602001600020819055508173ffffffffffffffffffffffffffffffffffffffff168373ffffffffffffffffffffffffffffffffffffffff167f8c5be1e5ebec7d5bd14f71427d1e84f3dd0314c0f7b2291e5b200ac8c7c3b92583604051610d9391906117dc565b60405180910390a3505050565b6000610dac8484610a4e565b90507fffffffffffffffffffffffffffffffffffffffffffffffffffffffffffffffff8114610e265781811015610e18576040517f08c379a0000000000000000000000000000000000000000000000000000000008152600401610e0f906116dc565b60405180910390fd5b610e258484848403610bd5565b5b50505050565b600073ffffffffffffffffffffffffffffffffffffffff168373ffffffffffffffffffffffffffffffffffffffff161415610e9c576040517f08c379a0000000000000000000000000000000000000000000000000000000008152600401610e939061175c565b60405180910390fd5b600073ffffffffffffffffffffffffffffffffffffffff168273ffffffffffffffffffffffffffffffffffffffff161415610f0c576040517f08c379a0000000000000000000000000000000000000000000000000000000008152600401610f039061167c565b60405180910390fd5b610f178383836112d3565b60008060008573ffffffffffffffffffffffffffffffffffffffff1673ffffffffffffffffffffffffffffffffffffffff16815260200190815260200160002054905081811015610f9d576040517f08c379a0000000000000000000000000000000000000000000000000000000008152600401610f94906116fc565b60405180910390fd5b8181036000808673ffffffffffffffffffffffffffffffffffffffff1673ffffffffffffffffffffffffffffffffffffffff16815260200190815260200160002081905550816000808573ffffffffffffffffffffffffffffffffffffffff1673ffffffffffffffffffffffffffffffffffffffff1681526020019081526020016000206000828254611030919061182e565b925050819055508273ffffffffffffffffffffffffffffffffffffffff168473ffffffffffffffffffffffffffffffffffffffff167fddf252ad1be2c89b69c2b068fc378daa952ba7f163c4a11628f55a4df523b3ef8460405161109491906117dc565b60405180910390a36110a78484846112d8565b50505050565b600073ffffffffffffffffffffffffffffffffffffffff168273ffffffffffffffffffffffffffffffffffffffff16141561111d576040517f08c379a0000000000000000000000000000000000000000000000000000000008152600401611114906117bc565b60405180910390fd5b611129600083836112d3565b806002600082825461113b919061182e565b92505081905550806000808473ffffffffffffffffffffffffffffffffffffffff1673ffffffffffffffffffffffffffffffffffffffff1681526020019081526020016000206000828254611190919061182e565b925050819055508173ffffffffffffffffffffffffffffffffffffffff16600073ffffffffffffffffffffffffffffffffffffffff167fddf252ad1be2c89b69c2b068fc378daa952ba7f163c4a11628f55a4df523b3ef836040516111f591906117dc565b60405180910390a3611209600083836112d8565b5050565b6000600560009054906101000a900473ffffffffffffffffffffffffffffffffffffffff16905081600560006101000a81548173ffffffffffffffffffffffffffffffffffffffff021916908373ffffffffffffffffffffffffffffffffffffffff1602179055508173ffffffffffffffffffffffffffffffffffffffff168173ffffffffffffffffffffffffffffffffffffffff167f8be0079c531659141344cd1fd0a4f28419497f9722a3daafe3b4186f6b6457e060405160405180910390a35050565b505050565b505050565b6000813590506112ec81611d34565b92915050565b60008135905061130181611d4b565b92915050565b60006020828403121561131957600080fd5b6000611327848285016112dd565b91505092915050565b6000806040838503121561134357600080fd5b6000611351858286016112dd565b9250506020611362858286016112dd565b9150509250929050565b60008060006060848603121561138157600080fd5b600061138f868287016112dd565b93505060206113a0868287016112dd565b92505060406113b1868287016112f2565b9150509250925092565b600080604083850312156113ce57600080fd5b60006113dc858286016112dd565b92505060206113ed858286016112f2565b9150509250929050565b6114008161190f565b82525050565b61140f81611921565b82525050565b600061142082611812565b61142a818561181d565b935061143a818560208601611964565b61144381611a56565b840191505092915050565b600061145b60238361181d565b915061146682611a67565b604082019050919050565b600061147e60268361181d565b915061148982611ab6565b604082019050919050565b60006114a160228361181d565b91506114ac82611b05565b604082019050919050565b60006114c4601d8361181d565b91506114cf82611b54565b602082019050919050565b60006114e760268361181d565b91506114f282611b7d565b604082019050919050565b600061150a60038361181d565b915061151582611bcc565b602082019050919050565b600061152d60208361181d565b915061153882611bf5565b602082019050919050565b600061155060258361181d565b915061155b82611c1e565b604082019050919050565b600061157360248361181d565b915061157e82611c6d565b604082019050919050565b600061159660258361181d565b91506115a182611cbc565b604082019050919050565b60006115b9601f8361181d565b91506115c482611d0b565b602082019050919050565b6115d88161194d565b82525050565b6115e781611957565b82525050565b600060208201905061160260008301846113f7565b92915050565b600060608201905061161d60008301866113f7565b61162a60208301856113f7565b61163760408301846115cf565b949350505050565b60006020820190506116546000830184611406565b92915050565b600060208201905081810360008301526116748184611415565b905092915050565b600060208201905081810360008301526116958161144e565b9050919050565b600060208201905081810360008301526116b581611471565b9050919050565b600060208201905081810360008301526116d581611494565b9050919050565b600060208201905081810360008301526116f5816114b7565b9050919050565b60006020820190508181036000830152611715816114da565b9050919050565b60006020820190508181036000830152611735816114fd565b9050919050565b6000602082019050818103600083015261175581611520565b9050919050565b6000602082019050818103600083015261177581611543565b9050919050565b6000602082019050818103600083015261179581611566565b9050919050565b600060208201905081810360008301526117b581611589565b9050919050565b600060208201905081810360008301526117d5816115ac565b9050919050565b60006020820190506117f160008301846115cf565b92915050565b600060208201905061180c60008301846115de565b92915050565b600081519050919050565b600082825260208201905092915050565b60006118398261194d565b91506118448361194d565b9250827fffffffffffffffffffffffffffffffffffffffffffffffffffffffffffffffff03821115611879576118786119c9565b5b828201905092915050565b600061188f8261194d565b915061189a8361194d565b9250826118aa576118a96119f8565b5b828204905092915050565b60006118c08261194d565b91506118cb8361194d565b9250817fffffffffffffffffffffffffffffffffffffffffffffffffffffffffffffffff0483118215151615611904576119036119c9565b5b828202905092915050565b600061191a8261192d565b9050919050565b60008115159050919050565b600073ffffffffffffffffffffffffffffffffffffffff82169050919050565b6000819050919050565b600060ff82169050919050565b60005b83811015611982578082015181840152602081019050611967565b83811115611991576000848401525b50505050565b600060028204905060018216806119af57607f821691505b602082108114156119c3576119c2611a27565b5b50919050565b7f4e487b7100000000000000000000000000000000000000000000000000000000600052601160045260246000fd5b7f4e487b7100000000000000000000000000000000000000000000000000000000600052601260045260246000fd5b7f4e487b7100000000000000000000000000000000000000000000000000000000600052602260045260246000fd5b6000601f19601f8301169050919050565b7f45524332303a207472616e7366657220746f20746865207a65726f206164647260008201527f6573730000000000000000000000000000000000000000000000000000000000602082015250565b7f4f776e61626c653a206e6577206f776e657220697320746865207a65726f206160008201527f6464726573730000000000000000000000000000000000000000000000000000602082015250565b7f45524332303a20617070726f766520746f20746865207a65726f20616464726560008201527f7373000000000000000000000000000000000000000000000000000000000000602082015250565b7f45524332303a20696e73756666696369656e7420616c6c6f77616e6365000000600082015250565b7f45524332303a207472616e7366657220616d6f756e742065786365656473206260008201527f616c616e63650000000000000000000000000000000000000000000000000000602082015250565b7f6c6f650000000000000000000000000000000000000000000000000000000000600082015250565b7f4f776e61626c653a2063616c6c6572206973206e6f7420746865206f776e6572600082015250565b7f45524332303a207472616e736665722066726f6d20746865207a65726f20616460008201527f6472657373000000000000000000000000000000000000000000000000000000602082015250565b7f45524332303a20617070726f76652066726f6d20746865207a65726f2061646460008201527f7265737300000000000000000000000000000000000000000000000000000000602082015250565b7f45524332303a2064656372656173656420616c6c6f77616e63652062656c6f7760008201527f207a65726f000000000000000000000000000000000000000000000000000000602082015250565b7f45524332303a206d696e7420746f20746865207a65726f206164647265737300600082015250565b611d3d8161190f565b8114611d4857600080fd5b50565b611d548161194d565b8114611d5f57600080fd5b5056fea2646970667358221220011b47bb68cc48125bbe9745038105e42dce3be04cbb1d704daa2d539ea60bf064736f6c63430008040033",
					"opcodes": "PUSH1 0x80 PUSH1 0x40 MSTORE PUSH3 0x14 PUSH3 0x1B4 PUSH1 0x20 SHL PUSH1 0x20 SHR JUMP JUMPDEST PUSH1 0xA PUSH3 0x22 SWAP2 SWAP1 PUSH3 0x641 JUMP JUMPDEST PUSH3 0xF4240 PUSH3 0x32 SWAP2 SWAP1 PUSH3 0x77E JUMP JUMPDEST PUSH1 0x7 SSTORE PUSH3 0x45 PUSH3 0x1B4 PUSH1 0x20 SHL PUSH1 0x20 SHR JUMP JUMPDEST PUSH1 0xA PUSH3 0x53 SWAP2 SWAP1 PUSH3 0x641 JUMP JUMPDEST PUSH2 0x3E8 PUSH3 0x62 SWAP2 SWAP1 PUSH3 0x77E JUMP JUMPDEST PUSH1 0x9 SSTORE CALLVALUE DUP1 ISZERO PUSH3 0x72 JUMPI PUSH1 0x0 DUP1 REVERT JUMPDEST POP PUSH1 0x40 MLOAD PUSH3 0x26B6 CODESIZE SUB DUP1 PUSH3 0x26B6 DUP4 CODECOPY DUP2 DUP2 ADD PUSH1 0x40 MSTORE DUP2 ADD SWAP1 PUSH3 0x98 SWAP2 SWAP1 PUSH3 0x4D5 JUMP JUMPDEST PUSH1 0x40 MLOAD DUP1 PUSH1 0x40 ADD PUSH1 0x40 MSTORE DUP1 PUSH1 0x9 DUP2 MSTORE PUSH1 0x20 ADD PUSH32 0x59506574546F6B656E0000000000000000000000000000000000000000000000 DUP2 MSTORE POP PUSH1 0x40 MLOAD DUP1 PUSH1 0x40 ADD PUSH1 0x40 MSTORE DUP1 PUSH1 0x4 DUP2 MSTORE PUSH1 0x20 ADD PUSH32 0x5950544E00000000000000000000000000000000000000000000000000000000 DUP2 MSTORE POP DUP2 PUSH1 0x3 SWAP1 DUP1 MLOAD SWAP1 PUSH1 0x20 ADD SWAP1 PUSH3 0x11C SWAP3 SWAP2 SWAP1 PUSH3 0x40E JUMP JUMPDEST POP DUP1 PUSH1 0x4 SWAP1 DUP1 MLOAD SWAP1 PUSH1 0x20 ADD SWAP1 PUSH3 0x135 SWAP3 SWAP2 SWAP1 PUSH3 0x40E JUMP JUMPDEST POP POP POP PUSH3 0x158 PUSH3 0x14C PUSH3 0x1BD PUSH1 0x20 SHL PUSH1 0x20 SHR JUMP JUMPDEST PUSH3 0x1C5 PUSH1 0x20 SHL PUSH1 0x20 SHR JUMP JUMPDEST DUP1 PUSH1 0x6 PUSH1 0x0 PUSH2 0x100 EXP DUP2 SLOAD DUP2 PUSH20 0xFFFFFFFFFFFFFFFFFFFFFFFFFFFFFFFFFFFFFFFF MUL NOT AND SWAP1 DUP4 PUSH20 0xFFFFFFFFFFFFFFFFFFFFFFFFFFFFFFFFFFFFFFFF AND MUL OR SWAP1 SSTORE POP PUSH3 0x1AD CALLER PUSH1 0x7 SLOAD PUSH3 0x28B PUSH1 0x20 SHL PUSH1 0x20 SHR JUMP JUMPDEST POP PUSH3 0x90E JUMP JUMPDEST PUSH1 0x0 PUSH1 0x12 SWAP1 POP SWAP1 JUMP JUMPDEST PUSH1 0x0 CALLER SWAP1 POP SWAP1 JUMP JUMPDEST PUSH1 0x0 PUSH1 0x5 PUSH1 0x0 SWAP1 SLOAD SWAP1 PUSH2 0x100 EXP SWAP1 DIV PUSH20 0xFFFFFFFFFFFFFFFFFFFFFFFFFFFFFFFFFFFFFFFF AND SWAP1 POP DUP2 PUSH1 0x5 PUSH1 0x0 PUSH2 0x100 EXP DUP2 SLOAD DUP2 PUSH20 0xFFFFFFFFFFFFFFFFFFFFFFFFFFFFFFFFFFFFFFFF MUL NOT AND SWAP1 DUP4 PUSH20 0xFFFFFFFFFFFFFFFFFFFFFFFFFFFFFFFFFFFFFFFF AND MUL OR SWAP1 SSTORE POP DUP2 PUSH20 0xFFFFFFFFFFFFFFFFFFFFFFFFFFFFFFFFFFFFFFFF AND DUP2 PUSH20 0xFFFFFFFFFFFFFFFFFFFFFFFFFFFFFFFFFFFFFFFF AND PUSH32 0x8BE0079C531659141344CD1FD0A4F28419497F9722A3DAAFE3B4186F6B6457E0 PUSH1 0x40 MLOAD PUSH1 0x40 MLOAD DUP1 SWAP2 SUB SWAP1 LOG3 POP POP JUMP JUMPDEST PUSH1 0x0 PUSH20 0xFFFFFFFFFFFFFFFFFFFFFFFFFFFFFFFFFFFFFFFF AND DUP3 PUSH20 0xFFFFFFFFFFFFFFFFFFFFFFFFFFFFFFFFFFFFFFFF AND EQ ISZERO PUSH3 0x2FE JUMPI PUSH1 0x40 MLOAD PUSH32 0x8C379A000000000000000000000000000000000000000000000000000000000 DUP2 MSTORE PUSH1 0x4 ADD PUSH3 0x2F5 SWAP1 PUSH3 0x539 JUMP JUMPDEST PUSH1 0x40 MLOAD DUP1 SWAP2 SUB SWAP1 REVERT JUMPDEST PUSH3 0x312 PUSH1 0x0 DUP4 DUP4 PUSH3 0x404 PUSH1 0x20 SHL PUSH1 0x20 SHR JUMP JUMPDEST DUP1 PUSH1 0x2 PUSH1 0x0 DUP3 DUP3 SLOAD PUSH3 0x326 SWAP2 SWAP1 PUSH3 0x589 JUMP JUMPDEST SWAP3 POP POP DUP2 SWAP1 SSTORE POP DUP1 PUSH1 0x0 DUP1 DUP5 PUSH20 0xFFFFFFFFFFFFFFFFFFFFFFFFFFFFFFFFFFFFFFFF AND PUSH20 0xFFFFFFFFFFFFFFFFFFFFFFFFFFFFFFFFFFFFFFFF AND DUP2 MSTORE PUSH1 0x20 ADD SWAP1 DUP2 MSTORE PUSH1 0x20 ADD PUSH1 0x0 KECCAK256 PUSH1 0x0 DUP3 DUP3 SLOAD PUSH3 0x37D SWAP2 SWAP1 PUSH3 0x589 JUMP JUMPDEST SWAP3 POP POP DUP2 SWAP1 SSTORE POP DUP2 PUSH20 0xFFFFFFFFFFFFFFFFFFFFFFFFFFFFFFFFFFFFFFFF AND PUSH1 0x0 PUSH20 0xFFFFFFFFFFFFFFFFFFFFFFFFFFFFFFFFFFFFFFFF AND PUSH32 0xDDF252AD1BE2C89B69C2B068FC378DAA952BA7F163C4A11628F55A4DF523B3EF DUP4 PUSH1 0x40 MLOAD PUSH3 0x3E4 SWAP2 SWAP1 PUSH3 0x55B JUMP JUMPDEST PUSH1 0x40 MLOAD DUP1 SWAP2 SUB SWAP1 LOG3 PUSH3 0x400 PUSH1 0x0 DUP4 DUP4 PUSH3 0x409 PUSH1 0x20 SHL PUSH1 0x20 SHR JUMP JUMPDEST POP POP JUMP JUMPDEST POP POP POP JUMP JUMPDEST POP POP POP JUMP JUMPDEST DUP3 DUP1 SLOAD PUSH3 0x41C SWAP1 PUSH3 0x82A JUMP JUMPDEST SWAP1 PUSH1 0x0 MSTORE PUSH1 0x20 PUSH1 0x0 KECCAK256 SWAP1 PUSH1 0x1F ADD PUSH1 0x20 SWAP1 DIV DUP2 ADD SWAP3 DUP3 PUSH3 0x440 JUMPI PUSH1 0x0 DUP6 SSTORE PUSH3 0x48C JUMP JUMPDEST DUP3 PUSH1 0x1F LT PUSH3 0x45B JUMPI DUP1 MLOAD PUSH1 0xFF NOT AND DUP4 DUP1 ADD OR DUP6 SSTORE PUSH3 0x48C JUMP JUMPDEST DUP3 DUP1 ADD PUSH1 0x1 ADD DUP6 SSTORE DUP3 ISZERO PUSH3 0x48C JUMPI SWAP2 DUP3 ADD JUMPDEST DUP3 DUP2 GT ISZERO PUSH3 0x48B JUMPI DUP3 MLOAD DUP3 SSTORE SWAP2 PUSH1 0x20 ADD SWAP2 SWAP1 PUSH1 0x1 ADD SWAP1 PUSH3 0x46E JUMP JUMPDEST JUMPDEST POP SWAP1 POP PUSH3 0x49B SWAP2 SWAP1 PUSH3 0x49F JUMP JUMPDEST POP SWAP1 JUMP JUMPDEST JUMPDEST DUP1 DUP3 GT ISZERO PUSH3 0x4BA JUMPI PUSH1 0x0 DUP2 PUSH1 0x0 SWAP1 SSTORE POP PUSH1 0x1 ADD PUSH3 0x4A0 JUMP JUMPDEST POP SWAP1 JUMP JUMPDEST PUSH1 0x0 DUP2 MLOAD SWAP1 POP PUSH3 0x4CF DUP2 PUSH3 0x8F4 JUMP JUMPDEST SWAP3 SWAP2 POP POP JUMP JUMPDEST PUSH1 0x0 PUSH1 0x20 DUP3 DUP5 SUB SLT ISZERO PUSH3 0x4E8 JUMPI PUSH1 0x0 DUP1 REVERT JUMPDEST PUSH1 0x0 PUSH3 0x4F8 DUP5 DUP3 DUP6 ADD PUSH3 0x4BE JUMP JUMPDEST SWAP2 POP POP SWAP3 SWAP2 POP POP JUMP JUMPDEST PUSH1 0x0 PUSH3 0x510 PUSH1 0x1F DUP4 PUSH3 0x578 JUMP JUMPDEST SWAP2 POP PUSH3 0x51D DUP3 PUSH3 0x8CB JUMP JUMPDEST PUSH1 0x20 DUP3 ADD SWAP1 POP SWAP2 SWAP1 POP JUMP JUMPDEST PUSH3 0x533 DUP2 PUSH3 0x813 JUMP JUMPDEST DUP3 MSTORE POP POP JUMP JUMPDEST PUSH1 0x0 PUSH1 0x20 DUP3 ADD SWAP1 POP DUP2 DUP2 SUB PUSH1 0x0 DUP4 ADD MSTORE PUSH3 0x554 DUP2 PUSH3 0x501 JUMP JUMPDEST SWAP1 POP SWAP2 SWAP1 POP JUMP JUMPDEST PUSH1 0x0 PUSH1 0x20 DUP3 ADD SWAP1 POP PUSH3 0x572 PUSH1 0x0 DUP4 ADD DUP5 PUSH3 0x528 JUMP JUMPDEST SWAP3 SWAP2 POP POP JUMP JUMPDEST PUSH1 0x0 DUP3 DUP3 MSTORE PUSH1 0x20 DUP3 ADD SWAP1 POP SWAP3 SWAP2 POP POP JUMP JUMPDEST PUSH1 0x0 PUSH3 0x596 DUP3 PUSH3 0x813 JUMP JUMPDEST SWAP2 POP PUSH3 0x5A3 DUP4 PUSH3 0x813 JUMP JUMPDEST SWAP3 POP DUP3 PUSH32 0xFFFFFFFFFFFFFFFFFFFFFFFFFFFFFFFFFFFFFFFFFFFFFFFFFFFFFFFFFFFFFFFF SUB DUP3 GT ISZERO PUSH3 0x5DB JUMPI PUSH3 0x5DA PUSH3 0x860 JUMP JUMPDEST JUMPDEST DUP3 DUP3 ADD SWAP1 POP SWAP3 SWAP2 POP POP JUMP JUMPDEST PUSH1 0x0 DUP1 DUP3 SWAP2 POP DUP4 SWAP1 POP JUMPDEST PUSH1 0x1 DUP6 GT ISZERO PUSH3 0x638 JUMPI DUP1 DUP7 DIV DUP2 GT ISZERO PUSH3 0x610 JUMPI PUSH3 0x60F PUSH3 0x860 JUMP JUMPDEST JUMPDEST PUSH1 0x1 DUP6 AND ISZERO PUSH3 0x620 JUMPI DUP1 DUP3 MUL SWAP2 POP JUMPDEST DUP1 DUP2 MUL SWAP1 POP PUSH3 0x630 DUP6 PUSH3 0x8BE JUMP JUMPDEST SWAP5 POP PUSH3 0x5F0 JUMP JUMPDEST SWAP5 POP SWAP5 SWAP3 POP POP POP JUMP JUMPDEST PUSH1 0x0 PUSH3 0x64E DUP3 PUSH3 0x813 JUMP JUMPDEST SWAP2 POP PUSH3 0x65B DUP4 PUSH3 0x81D JUMP JUMPDEST SWAP3 POP PUSH3 0x68A PUSH32 0xFFFFFFFFFFFFFFFFFFFFFFFFFFFFFFFFFFFFFFFFFFFFFFFFFFFFFFFFFFFFFFFF DUP5 DUP5 PUSH3 0x692 JUMP JUMPDEST SWAP1 POP SWAP3 SWAP2 POP POP JUMP JUMPDEST PUSH1 0x0 DUP3 PUSH3 0x6A4 JUMPI PUSH1 0x1 SWAP1 POP PUSH3 0x777 JUMP JUMPDEST DUP2 PUSH3 0x6B4 JUMPI PUSH1 0x0 SWAP1 POP PUSH3 0x777 JUMP JUMPDEST DUP2 PUSH1 0x1 DUP2 EQ PUSH3 0x6CD JUMPI PUSH1 0x2 DUP2 EQ PUSH3 0x6D8 JUMPI PUSH3 0x70E JUMP JUMPDEST PUSH1 0x1 SWAP2 POP POP PUSH3 0x777 JUMP JUMPDEST PUSH1 0xFF DUP5 GT ISZERO PUSH3 0x6ED JUMPI PUSH3 0x6EC PUSH3 0x860 JUMP JUMPDEST JUMPDEST DUP4 PUSH1 0x2 EXP SWAP2 POP DUP5 DUP3 GT ISZERO PUSH3 0x707 JUMPI PUSH3 0x706 PUSH3 0x860 JUMP JUMPDEST JUMPDEST POP PUSH3 0x777 JUMP JUMPDEST POP PUSH1 0x20 DUP4 LT PUSH2 0x133 DUP4 LT AND PUSH1 0x4E DUP5 LT PUSH1 0xB DUP5 LT AND OR ISZERO PUSH3 0x748 JUMPI DUP3 DUP3 EXP SWAP1 POP DUP4 DUP2 GT ISZERO PUSH3 0x742 JUMPI PUSH3 0x741 PUSH3 0x860 JUMP JUMPDEST JUMPDEST PUSH3 0x777 JUMP JUMPDEST PUSH3 0x757 DUP5 DUP5 DUP5 PUSH1 0x1 PUSH3 0x5E6 JUMP JUMPDEST SWAP3 POP SWAP1 POP DUP2 DUP5 DIV DUP2 GT ISZERO PUSH3 0x771 JUMPI PUSH3 0x770 PUSH3 0x860 JUMP JUMPDEST JUMPDEST DUP2 DUP2 MUL SWAP1 POP JUMPDEST SWAP4 SWAP3 POP POP POP JUMP JUMPDEST PUSH1 0x0 PUSH3 0x78B DUP3 PUSH3 0x813 JUMP JUMPDEST SWAP2 POP PUSH3 0x798 DUP4 PUSH3 0x813 JUMP JUMPDEST SWAP3 POP DUP2 PUSH32 0xFFFFFFFFFFFFFFFFFFFFFFFFFFFFFFFFFFFFFFFFFFFFFFFFFFFFFFFFFFFFFFFF DIV DUP4 GT DUP3 ISZERO ISZERO AND ISZERO PUSH3 0x7D4 JUMPI PUSH3 0x7D3 PUSH3 0x860 JUMP JUMPDEST JUMPDEST DUP3 DUP3 MUL SWAP1 POP SWAP3 SWAP2 POP POP JUMP JUMPDEST PUSH1 0x0 PUSH3 0x7EC DUP3 PUSH3 0x7F3 JUMP JUMPDEST SWAP1 POP SWAP2 SWAP1 POP JUMP JUMPDEST PUSH1 0x0 PUSH20 0xFFFFFFFFFFFFFFFFFFFFFFFFFFFFFFFFFFFFFFFF DUP3 AND SWAP1 POP SWAP2 SWAP1 POP JUMP JUMPDEST PUSH1 0x0 DUP2 SWAP1 POP SWAP2 SWAP1 POP JUMP JUMPDEST PUSH1 0x0 PUSH1 0xFF DUP3 AND SWAP1 POP SWAP2 SWAP1 POP JUMP JUMPDEST PUSH1 0x0 PUSH1 0x2 DUP3 DIV SWAP1 POP PUSH1 0x1 DUP3 AND DUP1 PUSH3 0x843 JUMPI PUSH1 0x7F DUP3 AND SWAP2 POP JUMPDEST PUSH1 0x20 DUP3 LT DUP2 EQ ISZERO PUSH3 0x85A JUMPI PUSH3 0x859 PUSH3 0x88F JUMP JUMPDEST JUMPDEST POP SWAP2 SWAP1 POP JUMP JUMPDEST PUSH32 0x4E487B7100000000000000000000000000000000000000000000000000000000 PUSH1 0x0 MSTORE PUSH1 0x11 PUSH1 0x4 MSTORE PUSH1 0x24 PUSH1 0x0 REVERT JUMPDEST PUSH32 0x4E487B7100000000000000000000000000000000000000000000000000000000 PUSH1 0x0 MSTORE PUSH1 0x22 PUSH1 0x4 MSTORE PUSH1 0x24 PUSH1 0x0 REVERT JUMPDEST PUSH1 0x0 DUP2 PUSH1 0x1 SHR SWAP1 POP SWAP2 SWAP1 POP JUMP JUMPDEST PUSH32 0x45524332303A206D696E7420746F20746865207A65726F206164647265737300 PUSH1 0x0 DUP3 ADD MSTORE POP JUMP JUMPDEST PUSH3 0x8FF DUP2 PUSH3 0x7DF JUMP JUMPDEST DUP2 EQ PUSH3 0x90B JUMPI PUSH1 0x0 DUP1 REVERT JUMPDEST POP JUMP JUMPDEST PUSH2 0x1D98 DUP1 PUSH3 0x91E PUSH1 0x0 CODECOPY PUSH1 0x0 RETURN INVALID PUSH1 0x80 PUSH1 0x40 MSTORE PUSH1 0x4 CALLDATASIZE LT PUSH2 0xFE JUMPI PUSH1 0x0 CALLDATALOAD PUSH1 0xE0 SHR DUP1 PUSH4 0x70A08231 GT PUSH2 0x95 JUMPI DUP1 PUSH4 0x95D89B41 GT PUSH2 0x64 JUMPI DUP1 PUSH4 0x95D89B41 EQ PUSH2 0x32A JUMPI DUP1 PUSH4 0xA457C2D7 EQ PUSH2 0x355 JUMPI DUP1 PUSH4 0xA9059CBB EQ PUSH2 0x392 JUMPI DUP1 PUSH4 0xDD62ED3E EQ PUSH2 0x3CF JUMPI DUP1 PUSH4 0xF2FDE38B EQ PUSH2 0x40C JUMPI PUSH2 0xFE JUMP JUMPDEST DUP1 PUSH4 0x70A08231 EQ PUSH2 0x28F JUMPI DUP1 PUSH4 0x715018A6 EQ PUSH2 0x2CC JUMPI DUP1 PUSH4 0x7E72FB52 EQ PUSH2 0x2E3 JUMPI DUP1 PUSH4 0x8DA5CB5B EQ PUSH2 0x2FF JUMPI PUSH2 0xFE JUMP JUMPDEST DUP1 PUSH4 0x2C4E722E GT PUSH2 0xD1 JUMPI DUP1 PUSH4 0x2C4E722E EQ PUSH2 0x1D3 JUMPI DUP1 PUSH4 0x313CE567 EQ PUSH2 0x1FE JUMPI DUP1 PUSH4 0x39509351 EQ PUSH2 0x229 JUMPI DUP1 PUSH4 0x40C10F19 EQ PUSH2 0x266 JUMPI PUSH2 0xFE JUMP JUMPDEST DUP1 PUSH4 0x6FDDE03 EQ PUSH2 0x103 JUMPI DUP1 PUSH4 0x95EA7B3 EQ PUSH2 0x12E JUMPI DUP1 PUSH4 0x18160DDD EQ PUSH2 0x16B JUMPI DUP1 PUSH4 0x23B872DD EQ PUSH2 0x196 JUMPI JUMPDEST PUSH1 0x0 DUP1 REVERT JUMPDEST CALLVALUE DUP1 ISZERO PUSH2 0x10F JUMPI PUSH1 0x0 DUP1 REVERT JUMPDEST POP PUSH2 0x118 PUSH2 0x435 JUMP JUMPDEST PUSH1 0x40 MLOAD PUSH2 0x125 SWAP2 SWAP1 PUSH2 0x165A JUMP JUMPDEST PUSH1 0x40 MLOAD DUP1 SWAP2 SUB SWAP1 RETURN JUMPDEST CALLVALUE DUP1 ISZERO PUSH2 0x13A JUMPI PUSH1 0x0 DUP1 REVERT JUMPDEST POP PUSH2 0x155 PUSH1 0x4 DUP1 CALLDATASIZE SUB DUP2 ADD SWAP1 PUSH2 0x150 SWAP2 SWAP1 PUSH2 0x13BB JUMP JUMPDEST PUSH2 0x4C7 JUMP JUMPDEST PUSH1 0x40 MLOAD PUSH2 0x162 SWAP2 SWAP1 PUSH2 0x163F JUMP JUMPDEST PUSH1 0x40 MLOAD DUP1 SWAP2 SUB SWAP1 RETURN JUMPDEST CALLVALUE DUP1 ISZERO PUSH2 0x177 JUMPI PUSH1 0x0 DUP1 REVERT JUMPDEST POP PUSH2 0x180 PUSH2 0x4EA JUMP JUMPDEST PUSH1 0x40 MLOAD PUSH2 0x18D SWAP2 SWAP1 PUSH2 0x17DC JUMP JUMPDEST PUSH1 0x40 MLOAD DUP1 SWAP2 SUB SWAP1 RETURN JUMPDEST CALLVALUE DUP1 ISZERO PUSH2 0x1A2 JUMPI PUSH1 0x0 DUP1 REVERT JUMPDEST POP PUSH2 0x1BD PUSH1 0x4 DUP1 CALLDATASIZE SUB DUP2 ADD SWAP1 PUSH2 0x1B8 SWAP2 SWAP1 PUSH2 0x136C JUMP JUMPDEST PUSH2 0x4F4 JUMP JUMPDEST PUSH1 0x40 MLOAD PUSH2 0x1CA SWAP2 SWAP1 PUSH2 0x163F JUMP JUMPDEST PUSH1 0x40 MLOAD DUP1 SWAP2 SUB SWAP1 RETURN JUMPDEST CALLVALUE DUP1 ISZERO PUSH2 0x1DF JUMPI PUSH1 0x0 DUP1 REVERT JUMPDEST POP PUSH2 0x1E8 PUSH2 0x523 JUMP JUMPDEST PUSH1 0x40 MLOAD PUSH2 0x1F5 SWAP2 SWAP1 PUSH2 0x17DC JUMP JUMPDEST PUSH1 0x40 MLOAD DUP1 SWAP2 SUB SWAP1 RETURN JUMPDEST CALLVALUE DUP1 ISZERO PUSH2 0x20A JUMPI PUSH1 0x0 DUP1 REVERT JUMPDEST POP PUSH2 0x213 PUSH2 0x529 JUMP JUMPDEST PUSH1 0x40 MLOAD PUSH2 0x220 SWAP2 SWAP1 PUSH2 0x17F7 JUMP JUMPDEST PUSH1 0x40 MLOAD DUP1 SWAP2 SUB SWAP1 RETURN JUMPDEST CALLVALUE DUP1 ISZERO PUSH2 0x235 JUMPI PUSH1 0x0 DUP1 REVERT JUMPDEST POP PUSH2 0x250 PUSH1 0x4 DUP1 CALLDATASIZE SUB DUP2 ADD SWAP1 PUSH2 0x24B SWAP2 SWAP1 PUSH2 0x13BB JUMP JUMPDEST PUSH2 0x532 JUMP JUMPDEST PUSH1 0x40 MLOAD PUSH2 0x25D SWAP2 SWAP1 PUSH2 0x163F JUMP JUMPDEST PUSH1 0x40 MLOAD DUP1 SWAP2 SUB SWAP1 RETURN JUMPDEST CALLVALUE DUP1 ISZERO PUSH2 0x272 JUMPI PUSH1 0x0 DUP1 REVERT JUMPDEST POP PUSH2 0x28D PUSH1 0x4 DUP1 CALLDATASIZE SUB DUP2 ADD SWAP1 PUSH2 0x288 SWAP2 SWAP1 PUSH2 0x13BB JUMP JUMPDEST PUSH2 0x5DC JUMP JUMPDEST STOP JUMPDEST CALLVALUE DUP1 ISZERO PUSH2 0x29B JUMPI PUSH1 0x0 DUP1 REVERT JUMPDEST POP PUSH2 0x2B6 PUSH1 0x4 DUP1 CALLDATASIZE SUB DUP2 ADD SWAP1 PUSH2 0x2B1 SWAP2 SWAP1 PUSH2 0x1307 JUMP JUMPDEST PUSH2 0x666 JUMP JUMPDEST PUSH1 0x40 MLOAD PUSH2 0x2C3 SWAP2 SWAP1 PUSH2 0x17DC JUMP JUMPDEST PUSH1 0x40 MLOAD DUP1 SWAP2 SUB SWAP1 RETURN JUMPDEST CALLVALUE DUP1 ISZERO PUSH2 0x2D8 JUMPI PUSH1 0x0 DUP1 REVERT JUMPDEST POP PUSH2 0x2E1 PUSH2 0x6AE JUMP JUMPDEST STOP JUMPDEST PUSH2 0x2FD PUSH1 0x4 DUP1 CALLDATASIZE SUB DUP2 ADD SWAP1 PUSH2 0x2F8 SWAP2 SWAP1 PUSH2 0x1307 JUMP JUMPDEST PUSH2 0x736 JUMP JUMPDEST STOP JUMPDEST CALLVALUE DUP1 ISZERO PUSH2 0x30B JUMPI PUSH1 0x0 DUP1 REVERT JUMPDEST POP PUSH2 0x314 PUSH2 0x885 JUMP JUMPDEST PUSH1 0x40 MLOAD PUSH2 0x321 SWAP2 SWAP1 PUSH2 0x15ED JUMP JUMPDEST PUSH1 0x40 MLOAD DUP1 SWAP2 SUB SWAP1 RETURN JUMPDEST CALLVALUE DUP1 ISZERO PUSH2 0x336 JUMPI PUSH1 0x0 DUP1 REVERT JUMPDEST POP PUSH2 0x33F PUSH2 0x8AF JUMP JUMPDEST PUSH1 0x40 MLOAD PUSH2 0x34C SWAP2 SWAP1 PUSH2 0x165A JUMP JUMPDEST PUSH1 0x40 MLOAD DUP1 SWAP2 SUB SWAP1 RETURN JUMPDEST CALLVALUE DUP1 ISZERO PUSH2 0x361 JUMPI PUSH1 0x0 DUP1 REVERT JUMPDEST POP PUSH2 0x37C PUSH1 0x4 DUP1 CALLDATASIZE SUB DUP2 ADD SWAP1 PUSH2 0x377 SWAP2 SWAP1 PUSH2 0x13BB JUMP JUMPDEST PUSH2 0x941 JUMP JUMPDEST PUSH1 0x40 MLOAD PUSH2 0x389 SWAP2 SWAP1 PUSH2 0x163F JUMP JUMPDEST PUSH1 0x40 MLOAD DUP1 SWAP2 SUB SWAP1 RETURN JUMPDEST CALLVALUE DUP1 ISZERO PUSH2 0x39E JUMPI PUSH1 0x0 DUP1 REVERT JUMPDEST POP PUSH2 0x3B9 PUSH1 0x4 DUP1 CALLDATASIZE SUB DUP2 ADD SWAP1 PUSH2 0x3B4 SWAP2 SWAP1 PUSH2 0x13BB JUMP JUMPDEST PUSH2 0xA2B JUMP JUMPDEST PUSH1 0x40 MLOAD PUSH2 0x3C6 SWAP2 SWAP1 PUSH2 0x163F JUMP JUMPDEST PUSH1 0x40 MLOAD DUP1 SWAP2 SUB SWAP1 RETURN JUMPDEST CALLVALUE DUP1 ISZERO PUSH2 0x3DB JUMPI PUSH1 0x0 DUP1 REVERT JUMPDEST POP PUSH2 0x3F6 PUSH1 0x4 DUP1 CALLDATASIZE SUB DUP2 ADD SWAP1 PUSH2 0x3F1 SWAP2 SWAP1 PUSH2 0x1330 JUMP JUMPDEST PUSH2 0xA4E JUMP JUMPDEST PUSH1 0x40 MLOAD PUSH2 0x403 SWAP2 SWAP1 PUSH2 0x17DC JUMP JUMPDEST PUSH1 0x40 MLOAD DUP1 SWAP2 SUB SWAP1 RETURN JUMPDEST CALLVALUE DUP1 ISZERO PUSH2 0x418 JUMPI PUSH1 0x0 DUP1 REVERT JUMPDEST POP PUSH2 0x433 PUSH1 0x4 DUP1 CALLDATASIZE SUB DUP2 ADD SWAP1 PUSH2 0x42E SWAP2 SWAP1 PUSH2 0x1307 JUMP JUMPDEST PUSH2 0xAD5 JUMP JUMPDEST STOP JUMPDEST PUSH1 0x60 PUSH1 0x3 DUP1 SLOAD PUSH2 0x444 SWAP1 PUSH2 0x1997 JUMP JUMPDEST DUP1 PUSH1 0x1F ADD PUSH1 0x20 DUP1 SWAP2 DIV MUL PUSH1 0x20 ADD PUSH1 0x40 MLOAD SWAP1 DUP2 ADD PUSH1 0x40 MSTORE DUP1 SWAP3 SWAP2 SWAP1 DUP2 DUP2 MSTORE PUSH1 0x20 ADD DUP3 DUP1 SLOAD PUSH2 0x470 SWAP1 PUSH2 0x1997 JUMP JUMPDEST DUP1 ISZERO PUSH2 0x4BD JUMPI DUP1 PUSH1 0x1F LT PUSH2 0x492 JUMPI PUSH2 0x100 DUP1 DUP4 SLOAD DIV MUL DUP4 MSTORE SWAP2 PUSH1 0x20 ADD SWAP2 PUSH2 0x4BD JUMP JUMPDEST DUP3 ADD SWAP2 SWAP1 PUSH1 0x0 MSTORE PUSH1 0x20 PUSH1 0x0 KECCAK256 SWAP1 JUMPDEST DUP2 SLOAD DUP2 MSTORE SWAP1 PUSH1 0x1 ADD SWAP1 PUSH1 0x20 ADD DUP1 DUP4 GT PUSH2 0x4A0 JUMPI DUP3 SWAP1 SUB PUSH1 0x1F AND DUP3 ADD SWAP2 JUMPDEST POP POP POP POP POP SWAP1 POP SWAP1 JUMP JUMPDEST PUSH1 0x0 DUP1 PUSH2 0x4D2 PUSH2 0xBCD JUMP JUMPDEST SWAP1 POP PUSH2 0x4DF DUP2 DUP6 DUP6 PUSH2 0xBD5 JUMP JUMPDEST PUSH1 0x1 SWAP2 POP POP SWAP3 SWAP2 POP POP JUMP JUMPDEST PUSH1 0x0 PUSH1 0x2 SLOAD SWAP1 POP SWAP1 JUMP JUMPDEST PUSH1 0x0 DUP1 PUSH2 0x4FF PUSH2 0xBCD JUMP JUMPDEST SWAP1 POP PUSH2 0x50C DUP6 DUP3 DUP6 PUSH2 0xDA0 JUMP JUMPDEST PUSH2 0x517 DUP6 DUP6 DUP6 PUSH2 0xE2C JUMP JUMPDEST PUSH1 0x1 SWAP2 POP POP SWAP4 SWAP3 POP POP POP JUMP JUMPDEST PUSH1 0x9 SLOAD DUP2 JUMP JUMPDEST PUSH1 0x0 PUSH1 0x12 SWAP1 POP SWAP1 JUMP JUMPDEST PUSH1 0x0 DUP1 PUSH2 0x53D PUSH2 0xBCD JUMP JUMPDEST SWAP1 POP PUSH2 0x5D1 DUP2 DUP6 DUP6 PUSH1 0x1 PUSH1 0x0 DUP7 PUSH20 0xFFFFFFFFFFFFFFFFFFFFFFFFFFFFFFFFFFFFFFFF AND PUSH20 0xFFFFFFFFFFFFFFFFFFFFFFFFFFFFFFFFFFFFFFFF AND DUP2 MSTORE PUSH1 0x20 ADD SWAP1 DUP2 MSTORE PUSH1 0x20 ADD PUSH1 0x0 KECCAK256 PUSH1 0x0 DUP10 PUSH20 0xFFFFFFFFFFFFFFFFFFFFFFFFFFFFFFFFFFFFFFFF AND PUSH20 0xFFFFFFFFFFFFFFFFFFFFFFFFFFFFFFFFFFFFFFFF AND DUP2 MSTORE PUSH1 0x20 ADD SWAP1 DUP2 MSTORE PUSH1 0x20 ADD PUSH1 0x0 KECCAK256 SLOAD PUSH2 0x5CC SWAP2 SWAP1 PUSH2 0x182E JUMP JUMPDEST PUSH2 0xBD5 JUMP JUMPDEST PUSH1 0x1 SWAP2 POP POP SWAP3 SWAP2 POP POP JUMP JUMPDEST PUSH2 0x5E4 PUSH2 0xBCD JUMP JUMPDEST PUSH20 0xFFFFFFFFFFFFFFFFFFFFFFFFFFFFFFFFFFFFFFFF AND PUSH2 0x602 PUSH2 0x885 JUMP JUMPDEST PUSH20 0xFFFFFFFFFFFFFFFFFFFFFFFFFFFFFFFFFFFFFFFF AND EQ PUSH2 0x658 JUMPI PUSH1 0x40 MLOAD PUSH32 0x8C379A000000000000000000000000000000000000000000000000000000000 DUP2 MSTORE PUSH1 0x4 ADD PUSH2 0x64F SWAP1 PUSH2 0x173C JUMP JUMPDEST PUSH1 0x40 MLOAD DUP1 SWAP2 SUB SWAP1 REVERT JUMPDEST PUSH2 0x662 DUP3 DUP3 PUSH2 0x10AD JUMP JUMPDEST POP POP JUMP JUMPDEST PUSH1 0x0 DUP1 PUSH1 0x0 DUP4 PUSH20 0xFFFFFFFFFFFFFFFFFFFFFFFFFFFFFFFFFFFFFFFF AND PUSH20 0xFFFFFFFFFFFFFFFFFFFFFFFFFFFFFFFFFFFFFFFF AND DUP2 MSTORE PUSH1 0x20 ADD SWAP1 DUP2 MSTORE PUSH1 0x20 ADD PUSH1 0x0 KECCAK256 SLOAD SWAP1 POP SWAP2 SWAP1 POP JUMP JUMPDEST PUSH2 0x6B6 PUSH2 0xBCD JUMP JUMPDEST PUSH20 0xFFFFFFFFFFFFFFFFFFFFFFFFFFFFFFFFFFFFFFFF AND PUSH2 0x6D4 PUSH2 0x885 JUMP JUMPDEST PUSH20 0xFFFFFFFFFFFFFFFFFFFFFFFFFFFFFFFFFFFFFFFF AND EQ PUSH2 0x72A JUMPI PUSH1 0x40 MLOAD PUSH32 0x8C379A000000000000000000000000000000000000000000000000000000000 DUP2 MSTORE PUSH1 0x4 ADD PUSH2 0x721 SWAP1 PUSH2 0x173C JUMP JUMPDEST PUSH1 0x40 MLOAD DUP1 SWAP2 SUB SWAP1 REVERT JUMPDEST PUSH2 0x734 PUSH1 0x0 PUSH2 0x120D JUMP JUMPDEST JUMP JUMPDEST PUSH1 0x0 CALLVALUE LT PUSH2 0x779 JUMPI PUSH1 0x40 MLOAD PUSH32 0x8C379A000000000000000000000000000000000000000000000000000000000 DUP2 MSTORE PUSH1 0x4 ADD PUSH2 0x770 SWAP1 PUSH2 0x171C JUMP JUMPDEST PUSH1 0x40 MLOAD DUP1 SWAP2 SUB SWAP1 REVERT JUMPDEST PUSH1 0x6 PUSH1 0x0 SWAP1 SLOAD SWAP1 PUSH2 0x100 EXP SWAP1 DIV PUSH20 0xFFFFFFFFFFFFFFFFFFFFFFFFFFFFFFFFFFFFFFFF AND PUSH20 0xFFFFFFFFFFFFFFFFFFFFFFFFFFFFFFFFFFFFFFFF AND PUSH2 0x8FC CALLVALUE SWAP1 DUP2 ISZERO MUL SWAP1 PUSH1 0x40 MLOAD PUSH1 0x0 PUSH1 0x40 MLOAD DUP1 DUP4 SUB DUP2 DUP6 DUP9 DUP9 CALL SWAP4 POP POP POP POP ISZERO DUP1 ISZERO PUSH2 0x7E1 JUMPI RETURNDATASIZE PUSH1 0x0 DUP1 RETURNDATACOPY RETURNDATASIZE PUSH1 0x0 REVERT JUMPDEST POP PUSH1 0x0 PUSH1 0x9 SLOAD PUSH8 0xDE0B6B3A7640000 CALLVALUE PUSH2 0x7FB SWAP2 SWAP1 PUSH2 0x1884 JUMP JUMPDEST PUSH2 0x805 SWAP2 SWAP1 PUSH2 0x18B5 JUMP JUMPDEST SWAP1 POP DUP1 PUSH2 0x811 DUP4 PUSH2 0x666 JUMP JUMPDEST PUSH2 0x81B SWAP2 SWAP1 PUSH2 0x182E JUMP JUMPDEST PUSH1 0x8 DUP2 SWAP1 SSTORE POP DUP1 PUSH1 0x7 PUSH1 0x0 DUP3 DUP3 SLOAD PUSH2 0x833 SWAP2 SWAP1 PUSH2 0x182E JUMP JUMPDEST SWAP3 POP POP DUP2 SWAP1 SSTORE POP PUSH2 0x844 DUP3 DUP3 PUSH2 0x10AD JUMP JUMPDEST PUSH32 0x1F437F9D9A2CD912A1B9EF9573239CFD5BFC901558877D14B92F4BE14DD23F39 CALLER DUP4 PUSH1 0x8 SLOAD PUSH1 0x40 MLOAD PUSH2 0x879 SWAP4 SWAP3 SWAP2 SWAP1 PUSH2 0x1608 JUMP JUMPDEST PUSH1 0x40 MLOAD DUP1 SWAP2 SUB SWAP1 LOG1 POP POP JUMP JUMPDEST PUSH1 0x0 PUSH1 0x5 PUSH1 0x0 SWAP1 SLOAD SWAP1 PUSH2 0x100 EXP SWAP1 DIV PUSH20 0xFFFFFFFFFFFFFFFFFFFFFFFFFFFFFFFFFFFFFFFF AND SWAP1 POP SWAP1 JUMP JUMPDEST PUSH1 0x60 PUSH1 0x4 DUP1 SLOAD PUSH2 0x8BE SWAP1 PUSH2 0x1997 JUMP JUMPDEST DUP1 PUSH1 0x1F ADD PUSH1 0x20 DUP1 SWAP2 DIV MUL PUSH1 0x20 ADD PUSH1 0x40 MLOAD SWAP1 DUP2 ADD PUSH1 0x40 MSTORE DUP1 SWAP3 SWAP2 SWAP1 DUP2 DUP2 MSTORE PUSH1 0x20 ADD DUP3 DUP1 SLOAD PUSH2 0x8EA SWAP1 PUSH2 0x1997 JUMP JUMPDEST DUP1 ISZERO PUSH2 0x937 JUMPI DUP1 PUSH1 0x1F LT PUSH2 0x90C JUMPI PUSH2 0x100 DUP1 DUP4 SLOAD DIV MUL DUP4 MSTORE SWAP2 PUSH1 0x20 ADD SWAP2 PUSH2 0x937 JUMP JUMPDEST DUP3 ADD SWAP2 SWAP1 PUSH1 0x0 MSTORE PUSH1 0x20 PUSH1 0x0 KECCAK256 SWAP1 JUMPDEST DUP2 SLOAD DUP2 MSTORE SWAP1 PUSH1 0x1 ADD SWAP1 PUSH1 0x20 ADD DUP1 DUP4 GT PUSH2 0x91A JUMPI DUP3 SWAP1 SUB PUSH1 0x1F AND DUP3 ADD SWAP2 JUMPDEST POP POP POP POP POP SWAP1 POP SWAP1 JUMP JUMPDEST PUSH1 0x0 DUP1 PUSH2 0x94C PUSH2 0xBCD JUMP JUMPDEST SWAP1 POP PUSH1 0x0 PUSH1 0x1 PUSH1 0x0 DUP4 PUSH20 0xFFFFFFFFFFFFFFFFFFFFFFFFFFFFFFFFFFFFFFFF AND PUSH20 0xFFFFFFFFFFFFFFFFFFFFFFFFFFFFFFFFFFFFFFFF AND DUP2 MSTORE PUSH1 0x20 ADD SWAP1 DUP2 MSTORE PUSH1 0x20 ADD PUSH1 0x0 KECCAK256 PUSH1 0x0 DUP7 PUSH20 0xFFFFFFFFFFFFFFFFFFFFFFFFFFFFFFFFFFFFFFFF AND PUSH20 0xFFFFFFFFFFFFFFFFFFFFFFFFFFFFFFFFFFFFFFFF AND DUP2 MSTORE PUSH1 0x20 ADD SWAP1 DUP2 MSTORE PUSH1 0x20 ADD PUSH1 0x0 KECCAK256 SLOAD SWAP1 POP DUP4 DUP2 LT ISZERO PUSH2 0xA12 JUMPI PUSH1 0x40 MLOAD PUSH32 0x8C379A000000000000000000000000000000000000000000000000000000000 DUP2 MSTORE PUSH1 0x4 ADD PUSH2 0xA09 SWAP1 PUSH2 0x179C JUMP JUMPDEST PUSH1 0x40 MLOAD DUP1 SWAP2 SUB SWAP1 REVERT JUMPDEST PUSH2 0xA1F DUP3 DUP7 DUP7 DUP5 SUB PUSH2 0xBD5 JUMP JUMPDEST PUSH1 0x1 SWAP3 POP POP POP SWAP3 SWAP2 POP POP JUMP JUMPDEST PUSH1 0x0 DUP1 PUSH2 0xA36 PUSH2 0xBCD JUMP JUMPDEST SWAP1 POP PUSH2 0xA43 DUP2 DUP6 DUP6 PUSH2 0xE2C JUMP JUMPDEST PUSH1 0x1 SWAP2 POP POP SWAP3 SWAP2 POP POP JUMP JUMPDEST PUSH1 0x0 PUSH1 0x1 PUSH1 0x0 DUP5 PUSH20 0xFFFFFFFFFFFFFFFFFFFFFFFFFFFFFFFFFFFFFFFF AND PUSH20 0xFFFFFFFFFFFFFFFFFFFFFFFFFFFFFFFFFFFFFFFF AND DUP2 MSTORE PUSH1 0x20 ADD SWAP1 DUP2 MSTORE PUSH1 0x20 ADD PUSH1 0x0 KECCAK256 PUSH1 0x0 DUP4 PUSH20 0xFFFFFFFFFFFFFFFFFFFFFFFFFFFFFFFFFFFFFFFF AND PUSH20 0xFFFFFFFFFFFFFFFFFFFFFFFFFFFFFFFFFFFFFFFF AND DUP2 MSTORE PUSH1 0x20 ADD SWAP1 DUP2 MSTORE PUSH1 0x20 ADD PUSH1 0x0 KECCAK256 SLOAD SWAP1 POP SWAP3 SWAP2 POP POP JUMP JUMPDEST PUSH2 0xADD PUSH2 0xBCD JUMP JUMPDEST PUSH20 0xFFFFFFFFFFFFFFFFFFFFFFFFFFFFFFFFFFFFFFFF AND PUSH2 0xAFB PUSH2 0x885 JUMP JUMPDEST PUSH20 0xFFFFFFFFFFFFFFFFFFFFFFFFFFFFFFFFFFFFFFFF AND EQ PUSH2 0xB51 JUMPI PUSH1 0x40 MLOAD PUSH32 0x8C379A000000000000000000000000000000000000000000000000000000000 DUP2 MSTORE PUSH1 0x4 ADD PUSH2 0xB48 SWAP1 PUSH2 0x173C JUMP JUMPDEST PUSH1 0x40 MLOAD DUP1 SWAP2 SUB SWAP1 REVERT JUMPDEST PUSH1 0x0 PUSH20 0xFFFFFFFFFFFFFFFFFFFFFFFFFFFFFFFFFFFFFFFF AND DUP2 PUSH20 0xFFFFFFFFFFFFFFFFFFFFFFFFFFFFFFFFFFFFFFFF AND EQ ISZERO PUSH2 0xBC1 JUMPI PUSH1 0x40 MLOAD PUSH32 0x8C379A000000000000000000000000000000000000000000000000000000000 DUP2 MSTORE PUSH1 0x4 ADD PUSH2 0xBB8 SWAP1 PUSH2 0x169C JUMP JUMPDEST PUSH1 0x40 MLOAD DUP1 SWAP2 SUB SWAP1 REVERT JUMPDEST PUSH2 0xBCA DUP2 PUSH2 0x120D JUMP JUMPDEST POP JUMP JUMPDEST PUSH1 0x0 CALLER SWAP1 POP SWAP1 JUMP JUMPDEST PUSH1 0x0 PUSH20 0xFFFFFFFFFFFFFFFFFFFFFFFFFFFFFFFFFFFFFFFF AND DUP4 PUSH20 0xFFFFFFFFFFFFFFFFFFFFFFFFFFFFFFFFFFFFFFFF AND EQ ISZERO PUSH2 0xC45 JUMPI PUSH1 0x40 MLOAD PUSH32 0x8C379A000000000000000000000000000000000000000000000000000000000 DUP2 MSTORE PUSH1 0x4 ADD PUSH2 0xC3C SWAP1 PUSH2 0x177C JUMP JUMPDEST PUSH1 0x40 MLOAD DUP1 SWAP2 SUB SWAP1 REVERT JUMPDEST PUSH1 0x0 PUSH20 0xFFFFFFFFFFFFFFFFFFFFFFFFFFFFFFFFFFFFFFFF AND DUP3 PUSH20 0xFFFFFFFFFFFFFFFFFFFFFFFFFFFFFFFFFFFFFFFF AND EQ ISZERO PUSH2 0xCB5 JUMPI PUSH1 0x40 MLOAD PUSH32 0x8C379A000000000000000000000000000000000000000000000000000000000 DUP2 MSTORE PUSH1 0x4 ADD PUSH2 0xCAC SWAP1 PUSH2 0x16BC JUMP JUMPDEST PUSH1 0x40 MLOAD DUP1 SWAP2 SUB SWAP1 REVERT JUMPDEST DUP1 PUSH1 0x1 PUSH1 0x0 DUP6 PUSH20 0xFFFFFFFFFFFFFFFFFFFFFFFFFFFFFFFFFFFFFFFF AND PUSH20 0xFFFFFFFFFFFFFFFFFFFFFFFFFFFFFFFFFFFFFFFF AND DUP2 MSTORE PUSH1 0x20 ADD SWAP1 DUP2 MSTORE PUSH1 0x20 ADD PUSH1 0x0 KECCAK256 PUSH1 0x0 DUP5 PUSH20 0xFFFFFFFFFFFFFFFFFFFFFFFFFFFFFFFFFFFFFFFF AND PUSH20 0xFFFFFFFFFFFFFFFFFFFFFFFFFFFFFFFFFFFFFFFF AND DUP2 MSTORE PUSH1 0x20 ADD SWAP1 DUP2 MSTORE PUSH1 0x20 ADD PUSH1 0x0 KECCAK256 DUP2 SWAP1 SSTORE POP DUP2 PUSH20 0xFFFFFFFFFFFFFFFFFFFFFFFFFFFFFFFFFFFFFFFF AND DUP4 PUSH20 0xFFFFFFFFFFFFFFFFFFFFFFFFFFFFFFFFFFFFFFFF AND PUSH32 0x8C5BE1E5EBEC7D5BD14F71427D1E84F3DD0314C0F7B2291E5B200AC8C7C3B925 DUP4 PUSH1 0x40 MLOAD PUSH2 0xD93 SWAP2 SWAP1 PUSH2 0x17DC JUMP JUMPDEST PUSH1 0x40 MLOAD DUP1 SWAP2 SUB SWAP1 LOG3 POP POP POP JUMP JUMPDEST PUSH1 0x0 PUSH2 0xDAC DUP5 DUP5 PUSH2 0xA4E JUMP JUMPDEST SWAP1 POP PUSH32 0xFFFFFFFFFFFFFFFFFFFFFFFFFFFFFFFFFFFFFFFFFFFFFFFFFFFFFFFFFFFFFFFF DUP2 EQ PUSH2 0xE26 JUMPI DUP2 DUP2 LT ISZERO PUSH2 0xE18 JUMPI PUSH1 0x40 MLOAD PUSH32 0x8C379A000000000000000000000000000000000000000000000000000000000 DUP2 MSTORE PUSH1 0x4 ADD PUSH2 0xE0F SWAP1 PUSH2 0x16DC JUMP JUMPDEST PUSH1 0x40 MLOAD DUP1 SWAP2 SUB SWAP1 REVERT JUMPDEST PUSH2 0xE25 DUP5 DUP5 DUP5 DUP5 SUB PUSH2 0xBD5 JUMP JUMPDEST JUMPDEST POP POP POP POP JUMP JUMPDEST PUSH1 0x0 PUSH20 0xFFFFFFFFFFFFFFFFFFFFFFFFFFFFFFFFFFFFFFFF AND DUP4 PUSH20 0xFFFFFFFFFFFFFFFFFFFFFFFFFFFFFFFFFFFFFFFF AND EQ ISZERO PUSH2 0xE9C JUMPI PUSH1 0x40 MLOAD PUSH32 0x8C379A000000000000000000000000000000000000000000000000000000000 DUP2 MSTORE PUSH1 0x4 ADD PUSH2 0xE93 SWAP1 PUSH2 0x175C JUMP JUMPDEST PUSH1 0x40 MLOAD DUP1 SWAP2 SUB SWAP1 REVERT JUMPDEST PUSH1 0x0 PUSH20 0xFFFFFFFFFFFFFFFFFFFFFFFFFFFFFFFFFFFFFFFF AND DUP3 PUSH20 0xFFFFFFFFFFFFFFFFFFFFFFFFFFFFFFFFFFFFFFFF AND EQ ISZERO PUSH2 0xF0C JUMPI PUSH1 0x40 MLOAD PUSH32 0x8C379A000000000000000000000000000000000000000000000000000000000 DUP2 MSTORE PUSH1 0x4 ADD PUSH2 0xF03 SWAP1 PUSH2 0x167C JUMP JUMPDEST PUSH1 0x40 MLOAD DUP1 SWAP2 SUB SWAP1 REVERT JUMPDEST PUSH2 0xF17 DUP4 DUP4 DUP4 PUSH2 0x12D3 JUMP JUMPDEST PUSH1 0x0 DUP1 PUSH1 0x0 DUP6 PUSH20 0xFFFFFFFFFFFFFFFFFFFFFFFFFFFFFFFFFFFFFFFF AND PUSH20 0xFFFFFFFFFFFFFFFFFFFFFFFFFFFFFFFFFFFFFFFF AND DUP2 MSTORE PUSH1 0x20 ADD SWAP1 DUP2 MSTORE PUSH1 0x20 ADD PUSH1 0x0 KECCAK256 SLOAD SWAP1 POP DUP2 DUP2 LT ISZERO PUSH2 0xF9D JUMPI PUSH1 0x40 MLOAD PUSH32 0x8C379A000000000000000000000000000000000000000000000000000000000 DUP2 MSTORE PUSH1 0x4 ADD PUSH2 0xF94 SWAP1 PUSH2 0x16FC JUMP JUMPDEST PUSH1 0x40 MLOAD DUP1 SWAP2 SUB SWAP1 REVERT JUMPDEST DUP2 DUP2 SUB PUSH1 0x0 DUP1 DUP7 PUSH20 0xFFFFFFFFFFFFFFFFFFFFFFFFFFFFFFFFFFFFFFFF AND PUSH20 0xFFFFFFFFFFFFFFFFFFFFFFFFFFFFFFFFFFFFFFFF AND DUP2 MSTORE PUSH1 0x20 ADD SWAP1 DUP2 MSTORE PUSH1 0x20 ADD PUSH1 0x0 KECCAK256 DUP2 SWAP1 SSTORE POP DUP2 PUSH1 0x0 DUP1 DUP6 PUSH20 0xFFFFFFFFFFFFFFFFFFFFFFFFFFFFFFFFFFFFFFFF AND PUSH20 0xFFFFFFFFFFFFFFFFFFFFFFFFFFFFFFFFFFFFFFFF AND DUP2 MSTORE PUSH1 0x20 ADD SWAP1 DUP2 MSTORE PUSH1 0x20 ADD PUSH1 0x0 KECCAK256 PUSH1 0x0 DUP3 DUP3 SLOAD PUSH2 0x1030 SWAP2 SWAP1 PUSH2 0x182E JUMP JUMPDEST SWAP3 POP POP DUP2 SWAP1 SSTORE POP DUP3 PUSH20 0xFFFFFFFFFFFFFFFFFFFFFFFFFFFFFFFFFFFFFFFF AND DUP5 PUSH20 0xFFFFFFFFFFFFFFFFFFFFFFFFFFFFFFFFFFFFFFFF AND PUSH32 0xDDF252AD1BE2C89B69C2B068FC378DAA952BA7F163C4A11628F55A4DF523B3EF DUP5 PUSH1 0x40 MLOAD PUSH2 0x1094 SWAP2 SWAP1 PUSH2 0x17DC JUMP JUMPDEST PUSH1 0x40 MLOAD DUP1 SWAP2 SUB SWAP1 LOG3 PUSH2 0x10A7 DUP5 DUP5 DUP5 PUSH2 0x12D8 JUMP JUMPDEST POP POP POP POP JUMP JUMPDEST PUSH1 0x0 PUSH20 0xFFFFFFFFFFFFFFFFFFFFFFFFFFFFFFFFFFFFFFFF AND DUP3 PUSH20 0xFFFFFFFFFFFFFFFFFFFFFFFFFFFFFFFFFFFFFFFF AND EQ ISZERO PUSH2 0x111D JUMPI PUSH1 0x40 MLOAD PUSH32 0x8C379A000000000000000000000000000000000000000000000000000000000 DUP2 MSTORE PUSH1 0x4 ADD PUSH2 0x1114 SWAP1 PUSH2 0x17BC JUMP JUMPDEST PUSH1 0x40 MLOAD DUP1 SWAP2 SUB SWAP1 REVERT JUMPDEST PUSH2 0x1129 PUSH1 0x0 DUP4 DUP4 PUSH2 0x12D3 JUMP JUMPDEST DUP1 PUSH1 0x2 PUSH1 0x0 DUP3 DUP3 SLOAD PUSH2 0x113B SWAP2 SWAP1 PUSH2 0x182E JUMP JUMPDEST SWAP3 POP POP DUP2 SWAP1 SSTORE POP DUP1 PUSH1 0x0 DUP1 DUP5 PUSH20 0xFFFFFFFFFFFFFFFFFFFFFFFFFFFFFFFFFFFFFFFF AND PUSH20 0xFFFFFFFFFFFFFFFFFFFFFFFFFFFFFFFFFFFFFFFF AND DUP2 MSTORE PUSH1 0x20 ADD SWAP1 DUP2 MSTORE PUSH1 0x20 ADD PUSH1 0x0 KECCAK256 PUSH1 0x0 DUP3 DUP3 SLOAD PUSH2 0x1190 SWAP2 SWAP1 PUSH2 0x182E JUMP JUMPDEST SWAP3 POP POP DUP2 SWAP1 SSTORE POP DUP2 PUSH20 0xFFFFFFFFFFFFFFFFFFFFFFFFFFFFFFFFFFFFFFFF AND PUSH1 0x0 PUSH20 0xFFFFFFFFFFFFFFFFFFFFFFFFFFFFFFFFFFFFFFFF AND PUSH32 0xDDF252AD1BE2C89B69C2B068FC378DAA952BA7F163C4A11628F55A4DF523B3EF DUP4 PUSH1 0x40 MLOAD PUSH2 0x11F5 SWAP2 SWAP1 PUSH2 0x17DC JUMP JUMPDEST PUSH1 0x40 MLOAD DUP1 SWAP2 SUB SWAP1 LOG3 PUSH2 0x1209 PUSH1 0x0 DUP4 DUP4 PUSH2 0x12D8 JUMP JUMPDEST POP POP JUMP JUMPDEST PUSH1 0x0 PUSH1 0x5 PUSH1 0x0 SWAP1 SLOAD SWAP1 PUSH2 0x100 EXP SWAP1 DIV PUSH20 0xFFFFFFFFFFFFFFFFFFFFFFFFFFFFFFFFFFFFFFFF AND SWAP1 POP DUP2 PUSH1 0x5 PUSH1 0x0 PUSH2 0x100 EXP DUP2 SLOAD DUP2 PUSH20 0xFFFFFFFFFFFFFFFFFFFFFFFFFFFFFFFFFFFFFFFF MUL NOT AND SWAP1 DUP4 PUSH20 0xFFFFFFFFFFFFFFFFFFFFFFFFFFFFFFFFFFFFFFFF AND MUL OR SWAP1 SSTORE POP DUP2 PUSH20 0xFFFFFFFFFFFFFFFFFFFFFFFFFFFFFFFFFFFFFFFF AND DUP2 PUSH20 0xFFFFFFFFFFFFFFFFFFFFFFFFFFFFFFFFFFFFFFFF AND PUSH32 0x8BE0079C531659141344CD1FD0A4F28419497F9722A3DAAFE3B4186F6B6457E0 PUSH1 0x40 MLOAD PUSH1 0x40 MLOAD DUP1 SWAP2 SUB SWAP1 LOG3 POP POP JUMP JUMPDEST POP POP POP JUMP JUMPDEST POP POP POP JUMP JUMPDEST PUSH1 0x0 DUP2 CALLDATALOAD SWAP1 POP PUSH2 0x12EC DUP2 PUSH2 0x1D34 JUMP JUMPDEST SWAP3 SWAP2 POP POP JUMP JUMPDEST PUSH1 0x0 DUP2 CALLDATALOAD SWAP1 POP PUSH2 0x1301 DUP2 PUSH2 0x1D4B JUMP JUMPDEST SWAP3 SWAP2 POP POP JUMP JUMPDEST PUSH1 0x0 PUSH1 0x20 DUP3 DUP5 SUB SLT ISZERO PUSH2 0x1319 JUMPI PUSH1 0x0 DUP1 REVERT JUMPDEST PUSH1 0x0 PUSH2 0x1327 DUP5 DUP3 DUP6 ADD PUSH2 0x12DD JUMP JUMPDEST SWAP2 POP POP SWAP3 SWAP2 POP POP JUMP JUMPDEST PUSH1 0x0 DUP1 PUSH1 0x40 DUP4 DUP6 SUB SLT ISZERO PUSH2 0x1343 JUMPI PUSH1 0x0 DUP1 REVERT JUMPDEST PUSH1 0x0 PUSH2 0x1351 DUP6 DUP3 DUP7 ADD PUSH2 0x12DD JUMP JUMPDEST SWAP3 POP POP PUSH1 0x20 PUSH2 0x1362 DUP6 DUP3 DUP7 ADD PUSH2 0x12DD JUMP JUMPDEST SWAP2 POP POP SWAP3 POP SWAP3 SWAP1 POP JUMP JUMPDEST PUSH1 0x0 DUP1 PUSH1 0x0 PUSH1 0x60 DUP5 DUP7 SUB SLT ISZERO PUSH2 0x1381 JUMPI PUSH1 0x0 DUP1 REVERT JUMPDEST PUSH1 0x0 PUSH2 0x138F DUP7 DUP3 DUP8 ADD PUSH2 0x12DD JUMP JUMPDEST SWAP4 POP POP PUSH1 0x20 PUSH2 0x13A0 DUP7 DUP3 DUP8 ADD PUSH2 0x12DD JUMP JUMPDEST SWAP3 POP POP PUSH1 0x40 PUSH2 0x13B1 DUP7 DUP3 DUP8 ADD PUSH2 0x12F2 JUMP JUMPDEST SWAP2 POP POP SWAP3 POP SWAP3 POP SWAP3 JUMP JUMPDEST PUSH1 0x0 DUP1 PUSH1 0x40 DUP4 DUP6 SUB SLT ISZERO PUSH2 0x13CE JUMPI PUSH1 0x0 DUP1 REVERT JUMPDEST PUSH1 0x0 PUSH2 0x13DC DUP6 DUP3 DUP7 ADD PUSH2 0x12DD JUMP JUMPDEST SWAP3 POP POP PUSH1 0x20 PUSH2 0x13ED DUP6 DUP3 DUP7 ADD PUSH2 0x12F2 JUMP JUMPDEST SWAP2 POP POP SWAP3 POP SWAP3 SWAP1 POP JUMP JUMPDEST PUSH2 0x1400 DUP2 PUSH2 0x190F JUMP JUMPDEST DUP3 MSTORE POP POP JUMP JUMPDEST PUSH2 0x140F DUP2 PUSH2 0x1921 JUMP JUMPDEST DUP3 MSTORE POP POP JUMP JUMPDEST PUSH1 0x0 PUSH2 0x1420 DUP3 PUSH2 0x1812 JUMP JUMPDEST PUSH2 0x142A DUP2 DUP6 PUSH2 0x181D JUMP JUMPDEST SWAP4 POP PUSH2 0x143A DUP2 DUP6 PUSH1 0x20 DUP7 ADD PUSH2 0x1964 JUMP JUMPDEST PUSH2 0x1443 DUP2 PUSH2 0x1A56 JUMP JUMPDEST DUP5 ADD SWAP2 POP POP SWAP3 SWAP2 POP POP JUMP JUMPDEST PUSH1 0x0 PUSH2 0x145B PUSH1 0x23 DUP4 PUSH2 0x181D JUMP JUMPDEST SWAP2 POP PUSH2 0x1466 DUP3 PUSH2 0x1A67 JUMP JUMPDEST PUSH1 0x40 DUP3 ADD SWAP1 POP SWAP2 SWAP1 POP JUMP JUMPDEST PUSH1 0x0 PUSH2 0x147E PUSH1 0x26 DUP4 PUSH2 0x181D JUMP JUMPDEST SWAP2 POP PUSH2 0x1489 DUP3 PUSH2 0x1AB6 JUMP JUMPDEST PUSH1 0x40 DUP3 ADD SWAP1 POP SWAP2 SWAP1 POP JUMP JUMPDEST PUSH1 0x0 PUSH2 0x14A1 PUSH1 0x22 DUP4 PUSH2 0x181D JUMP JUMPDEST SWAP2 POP PUSH2 0x14AC DUP3 PUSH2 0x1B05 JUMP JUMPDEST PUSH1 0x40 DUP3 ADD SWAP1 POP SWAP2 SWAP1 POP JUMP JUMPDEST PUSH1 0x0 PUSH2 0x14C4 PUSH1 0x1D DUP4 PUSH2 0x181D JUMP JUMPDEST SWAP2 POP PUSH2 0x14CF DUP3 PUSH2 0x1B54 JUMP JUMPDEST PUSH1 0x20 DUP3 ADD SWAP1 POP SWAP2 SWAP1 POP JUMP JUMPDEST PUSH1 0x0 PUSH2 0x14E7 PUSH1 0x26 DUP4 PUSH2 0x181D JUMP JUMPDEST SWAP2 POP PUSH2 0x14F2 DUP3 PUSH2 0x1B7D JUMP JUMPDEST PUSH1 0x40 DUP3 ADD SWAP1 POP SWAP2 SWAP1 POP JUMP JUMPDEST PUSH1 0x0 PUSH2 0x150A PUSH1 0x3 DUP4 PUSH2 0x181D JUMP JUMPDEST SWAP2 POP PUSH2 0x1515 DUP3 PUSH2 0x1BCC JUMP JUMPDEST PUSH1 0x20 DUP3 ADD SWAP1 POP SWAP2 SWAP1 POP JUMP JUMPDEST PUSH1 0x0 PUSH2 0x152D PUSH1 0x20 DUP4 PUSH2 0x181D JUMP JUMPDEST SWAP2 POP PUSH2 0x1538 DUP3 PUSH2 0x1BF5 JUMP JUMPDEST PUSH1 0x20 DUP3 ADD SWAP1 POP SWAP2 SWAP1 POP JUMP JUMPDEST PUSH1 0x0 PUSH2 0x1550 PUSH1 0x25 DUP4 PUSH2 0x181D JUMP JUMPDEST SWAP2 POP PUSH2 0x155B DUP3 PUSH2 0x1C1E JUMP JUMPDEST PUSH1 0x40 DUP3 ADD SWAP1 POP SWAP2 SWAP1 POP JUMP JUMPDEST PUSH1 0x0 PUSH2 0x1573 PUSH1 0x24 DUP4 PUSH2 0x181D JUMP JUMPDEST SWAP2 POP PUSH2 0x157E DUP3 PUSH2 0x1C6D JUMP JUMPDEST PUSH1 0x40 DUP3 ADD SWAP1 POP SWAP2 SWAP1 POP JUMP JUMPDEST PUSH1 0x0 PUSH2 0x1596 PUSH1 0x25 DUP4 PUSH2 0x181D JUMP JUMPDEST SWAP2 POP PUSH2 0x15A1 DUP3 PUSH2 0x1CBC JUMP JUMPDEST PUSH1 0x40 DUP3 ADD SWAP1 POP SWAP2 SWAP1 POP JUMP JUMPDEST PUSH1 0x0 PUSH2 0x15B9 PUSH1 0x1F DUP4 PUSH2 0x181D JUMP JUMPDEST SWAP2 POP PUSH2 0x15C4 DUP3 PUSH2 0x1D0B JUMP JUMPDEST PUSH1 0x20 DUP3 ADD SWAP1 POP SWAP2 SWAP1 POP JUMP JUMPDEST PUSH2 0x15D8 DUP2 PUSH2 0x194D JUMP JUMPDEST DUP3 MSTORE POP POP JUMP JUMPDEST PUSH2 0x15E7 DUP2 PUSH2 0x1957 JUMP JUMPDEST DUP3 MSTORE POP POP JUMP JUMPDEST PUSH1 0x0 PUSH1 0x20 DUP3 ADD SWAP1 POP PUSH2 0x1602 PUSH1 0x0 DUP4 ADD DUP5 PUSH2 0x13F7 JUMP JUMPDEST SWAP3 SWAP2 POP POP JUMP JUMPDEST PUSH1 0x0 PUSH1 0x60 DUP3 ADD SWAP1 POP PUSH2 0x161D PUSH1 0x0 DUP4 ADD DUP7 PUSH2 0x13F7 JUMP JUMPDEST PUSH2 0x162A PUSH1 0x20 DUP4 ADD DUP6 PUSH2 0x13F7 JUMP JUMPDEST PUSH2 0x1637 PUSH1 0x40 DUP4 ADD DUP5 PUSH2 0x15CF JUMP JUMPDEST SWAP5 SWAP4 POP POP POP POP JUMP JUMPDEST PUSH1 0x0 PUSH1 0x20 DUP3 ADD SWAP1 POP PUSH2 0x1654 PUSH1 0x0 DUP4 ADD DUP5 PUSH2 0x1406 JUMP JUMPDEST SWAP3 SWAP2 POP POP JUMP JUMPDEST PUSH1 0x0 PUSH1 0x20 DUP3 ADD SWAP1 POP DUP2 DUP2 SUB PUSH1 0x0 DUP4 ADD MSTORE PUSH2 0x1674 DUP2 DUP5 PUSH2 0x1415 JUMP JUMPDEST SWAP1 POP SWAP3 SWAP2 POP POP JUMP JUMPDEST PUSH1 0x0 PUSH1 0x20 DUP3 ADD SWAP1 POP DUP2 DUP2 SUB PUSH1 0x0 DUP4 ADD MSTORE PUSH2 0x1695 DUP2 PUSH2 0x144E JUMP JUMPDEST SWAP1 POP SWAP2 SWAP1 POP JUMP JUMPDEST PUSH1 0x0 PUSH1 0x20 DUP3 ADD SWAP1 POP DUP2 DUP2 SUB PUSH1 0x0 DUP4 ADD MSTORE PUSH2 0x16B5 DUP2 PUSH2 0x1471 JUMP JUMPDEST SWAP1 POP SWAP2 SWAP1 POP JUMP JUMPDEST PUSH1 0x0 PUSH1 0x20 DUP3 ADD SWAP1 POP DUP2 DUP2 SUB PUSH1 0x0 DUP4 ADD MSTORE PUSH2 0x16D5 DUP2 PUSH2 0x1494 JUMP JUMPDEST SWAP1 POP SWAP2 SWAP1 POP JUMP JUMPDEST PUSH1 0x0 PUSH1 0x20 DUP3 ADD SWAP1 POP DUP2 DUP2 SUB PUSH1 0x0 DUP4 ADD MSTORE PUSH2 0x16F5 DUP2 PUSH2 0x14B7 JUMP JUMPDEST SWAP1 POP SWAP2 SWAP1 POP JUMP JUMPDEST PUSH1 0x0 PUSH1 0x20 DUP3 ADD SWAP1 POP DUP2 DUP2 SUB PUSH1 0x0 DUP4 ADD MSTORE PUSH2 0x1715 DUP2 PUSH2 0x14DA JUMP JUMPDEST SWAP1 POP SWAP2 SWAP1 POP JUMP JUMPDEST PUSH1 0x0 PUSH1 0x20 DUP3 ADD SWAP1 POP DUP2 DUP2 SUB PUSH1 0x0 DUP4 ADD MSTORE PUSH2 0x1735 DUP2 PUSH2 0x14FD JUMP JUMPDEST SWAP1 POP SWAP2 SWAP1 POP JUMP JUMPDEST PUSH1 0x0 PUSH1 0x20 DUP3 ADD SWAP1 POP DUP2 DUP2 SUB PUSH1 0x0 DUP4 ADD MSTORE PUSH2 0x1755 DUP2 PUSH2 0x1520 JUMP JUMPDEST SWAP1 POP SWAP2 SWAP1 POP JUMP JUMPDEST PUSH1 0x0 PUSH1 0x20 DUP3 ADD SWAP1 POP DUP2 DUP2 SUB PUSH1 0x0 DUP4 ADD MSTORE PUSH2 0x1775 DUP2 PUSH2 0x1543 JUMP JUMPDEST SWAP1 POP SWAP2 SWAP1 POP JUMP JUMPDEST PUSH1 0x0 PUSH1 0x20 DUP3 ADD SWAP1 POP DUP2 DUP2 SUB PUSH1 0x0 DUP4 ADD MSTORE PUSH2 0x1795 DUP2 PUSH2 0x1566 JUMP JUMPDEST SWAP1 POP SWAP2 SWAP1 POP JUMP JUMPDEST PUSH1 0x0 PUSH1 0x20 DUP3 ADD SWAP1 POP DUP2 DUP2 SUB PUSH1 0x0 DUP4 ADD MSTORE PUSH2 0x17B5 DUP2 PUSH2 0x1589 JUMP JUMPDEST SWAP1 POP SWAP2 SWAP1 POP JUMP JUMPDEST PUSH1 0x0 PUSH1 0x20 DUP3 ADD SWAP1 POP DUP2 DUP2 SUB PUSH1 0x0 DUP4 ADD MSTORE PUSH2 0x17D5 DUP2 PUSH2 0x15AC JUMP JUMPDEST SWAP1 POP SWAP2 SWAP1 POP JUMP JUMPDEST PUSH1 0x0 PUSH1 0x20 DUP3 ADD SWAP1 POP PUSH2 0x17F1 PUSH1 0x0 DUP4 ADD DUP5 PUSH2 0x15CF JUMP JUMPDEST SWAP3 SWAP2 POP POP JUMP JUMPDEST PUSH1 0x0 PUSH1 0x20 DUP3 ADD SWAP1 POP PUSH2 0x180C PUSH1 0x0 DUP4 ADD DUP5 PUSH2 0x15DE JUMP JUMPDEST SWAP3 SWAP2 POP POP JUMP JUMPDEST PUSH1 0x0 DUP2 MLOAD SWAP1 POP SWAP2 SWAP1 POP JUMP JUMPDEST PUSH1 0x0 DUP3 DUP3 MSTORE PUSH1 0x20 DUP3 ADD SWAP1 POP SWAP3 SWAP2 POP POP JUMP JUMPDEST PUSH1 0x0 PUSH2 0x1839 DUP3 PUSH2 0x194D JUMP JUMPDEST SWAP2 POP PUSH2 0x1844 DUP4 PUSH2 0x194D JUMP JUMPDEST SWAP3 POP DUP3 PUSH32 0xFFFFFFFFFFFFFFFFFFFFFFFFFFFFFFFFFFFFFFFFFFFFFFFFFFFFFFFFFFFFFFFF SUB DUP3 GT ISZERO PUSH2 0x1879 JUMPI PUSH2 0x1878 PUSH2 0x19C9 JUMP JUMPDEST JUMPDEST DUP3 DUP3 ADD SWAP1 POP SWAP3 SWAP2 POP POP JUMP JUMPDEST PUSH1 0x0 PUSH2 0x188F DUP3 PUSH2 0x194D JUMP JUMPDEST SWAP2 POP PUSH2 0x189A DUP4 PUSH2 0x194D JUMP JUMPDEST SWAP3 POP DUP3 PUSH2 0x18AA JUMPI PUSH2 0x18A9 PUSH2 0x19F8 JUMP JUMPDEST JUMPDEST DUP3 DUP3 DIV SWAP1 POP SWAP3 SWAP2 POP POP JUMP JUMPDEST PUSH1 0x0 PUSH2 0x18C0 DUP3 PUSH2 0x194D JUMP JUMPDEST SWAP2 POP PUSH2 0x18CB DUP4 PUSH2 0x194D JUMP JUMPDEST SWAP3 POP DUP2 PUSH32 0xFFFFFFFFFFFFFFFFFFFFFFFFFFFFFFFFFFFFFFFFFFFFFFFFFFFFFFFFFFFFFFFF DIV DUP4 GT DUP3 ISZERO ISZERO AND ISZERO PUSH2 0x1904 JUMPI PUSH2 0x1903 PUSH2 0x19C9 JUMP JUMPDEST JUMPDEST DUP3 DUP3 MUL SWAP1 POP SWAP3 SWAP2 POP POP JUMP JUMPDEST PUSH1 0x0 PUSH2 0x191A DUP3 PUSH2 0x192D JUMP JUMPDEST SWAP1 POP SWAP2 SWAP1 POP JUMP JUMPDEST PUSH1 0x0 DUP2 ISZERO ISZERO SWAP1 POP SWAP2 SWAP1 POP JUMP JUMPDEST PUSH1 0x0 PUSH20 0xFFFFFFFFFFFFFFFFFFFFFFFFFFFFFFFFFFFFFFFF DUP3 AND SWAP1 POP SWAP2 SWAP1 POP JUMP JUMPDEST PUSH1 0x0 DUP2 SWAP1 POP SWAP2 SWAP1 POP JUMP JUMPDEST PUSH1 0x0 PUSH1 0xFF DUP3 AND SWAP1 POP SWAP2 SWAP1 POP JUMP JUMPDEST PUSH1 0x0 JUMPDEST DUP4 DUP2 LT ISZERO PUSH2 0x1982 JUMPI DUP1 DUP3 ADD MLOAD DUP2 DUP5 ADD MSTORE PUSH1 0x20 DUP2 ADD SWAP1 POP PUSH2 0x1967 JUMP JUMPDEST DUP4 DUP2 GT ISZERO PUSH2 0x1991 JUMPI PUSH1 0x0 DUP5 DUP5 ADD MSTORE JUMPDEST POP POP POP POP JUMP JUMPDEST PUSH1 0x0 PUSH1 0x2 DUP3 DIV SWAP1 POP PUSH1 0x1 DUP3 AND DUP1 PUSH2 0x19AF JUMPI PUSH1 0x7F DUP3 AND SWAP2 POP JUMPDEST PUSH1 0x20 DUP3 LT DUP2 EQ ISZERO PUSH2 0x19C3 JUMPI PUSH2 0x19C2 PUSH2 0x1A27 JUMP JUMPDEST JUMPDEST POP SWAP2 SWAP1 POP JUMP JUMPDEST PUSH32 0x4E487B7100000000000000000000000000000000000000000000000000000000 PUSH1 0x0 MSTORE PUSH1 0x11 PUSH1 0x4 MSTORE PUSH1 0x24 PUSH1 0x0 REVERT JUMPDEST PUSH32 0x4E487B7100000000000000000000000000000000000000000000000000000000 PUSH1 0x0 MSTORE PUSH1 0x12 PUSH1 0x4 MSTORE PUSH1 0x24 PUSH1 0x0 REVERT JUMPDEST PUSH32 0x4E487B7100000000000000000000000000000000000000000000000000000000 PUSH1 0x0 MSTORE PUSH1 0x22 PUSH1 0x4 MSTORE PUSH1 0x24 PUSH1 0x0 REVERT JUMPDEST PUSH1 0x0 PUSH1 0x1F NOT PUSH1 0x1F DUP4 ADD AND SWAP1 POP SWAP2 SWAP1 POP JUMP JUMPDEST PUSH32 0x45524332303A207472616E7366657220746F20746865207A65726F2061646472 PUSH1 0x0 DUP3 ADD MSTORE PUSH32 0x6573730000000000000000000000000000000000000000000000000000000000 PUSH1 0x20 DUP3 ADD MSTORE POP JUMP JUMPDEST PUSH32 0x4F776E61626C653A206E6577206F776E657220697320746865207A65726F2061 PUSH1 0x0 DUP3 ADD MSTORE PUSH32 0x6464726573730000000000000000000000000000000000000000000000000000 PUSH1 0x20 DUP3 ADD MSTORE POP JUMP JUMPDEST PUSH32 0x45524332303A20617070726F766520746F20746865207A65726F206164647265 PUSH1 0x0 DUP3 ADD MSTORE PUSH32 0x7373000000000000000000000000000000000000000000000000000000000000 PUSH1 0x20 DUP3 ADD MSTORE POP JUMP JUMPDEST PUSH32 0x45524332303A20696E73756666696369656E7420616C6C6F77616E6365000000 PUSH1 0x0 DUP3 ADD MSTORE POP JUMP JUMPDEST PUSH32 0x45524332303A207472616E7366657220616D6F756E7420657863656564732062 PUSH1 0x0 DUP3 ADD MSTORE PUSH32 0x616C616E63650000000000000000000000000000000000000000000000000000 PUSH1 0x20 DUP3 ADD MSTORE POP JUMP JUMPDEST PUSH32 0x6C6F650000000000000000000000000000000000000000000000000000000000 PUSH1 0x0 DUP3 ADD MSTORE POP JUMP JUMPDEST PUSH32 0x4F776E61626C653A2063616C6C6572206973206E6F7420746865206F776E6572 PUSH1 0x0 DUP3 ADD MSTORE POP JUMP JUMPDEST PUSH32 0x45524332303A207472616E736665722066726F6D20746865207A65726F206164 PUSH1 0x0 DUP3 ADD MSTORE PUSH32 0x6472657373000000000000000000000000000000000000000000000000000000 PUSH1 0x20 DUP3 ADD MSTORE POP JUMP JUMPDEST PUSH32 0x45524332303A20617070726F76652066726F6D20746865207A65726F20616464 PUSH1 0x0 DUP3 ADD MSTORE PUSH32 0x7265737300000000000000000000000000000000000000000000000000000000 PUSH1 0x20 DUP3 ADD MSTORE POP JUMP JUMPDEST PUSH32 0x45524332303A2064656372656173656420616C6C6F77616E63652062656C6F77 PUSH1 0x0 DUP3 ADD MSTORE PUSH32 0x207A65726F000000000000000000000000000000000000000000000000000000 PUSH1 0x20 DUP3 ADD MSTORE POP JUMP JUMPDEST PUSH32 0x45524332303A206D696E7420746F20746865207A65726F206164647265737300 PUSH1 0x0 DUP3 ADD MSTORE POP JUMP JUMPDEST PUSH2 0x1D3D DUP2 PUSH2 0x190F JUMP JUMPDEST DUP2 EQ PUSH2 0x1D48 JUMPI PUSH1 0x0 DUP1 REVERT JUMPDEST POP JUMP JUMPDEST PUSH2 0x1D54 DUP2 PUSH2 0x194D JUMP JUMPDEST DUP2 EQ PUSH2 0x1D5F JUMPI PUSH1 0x0 DUP1 REVERT JUMPDEST POP JUMP INVALID LOG2 PUSH5 0x6970667358 0x22 SLT KECCAK256 ADD SHL SELFBALANCE 0xBB PUSH9 0xCC48125BBE97450381 SDIV 0xE4 0x2D 0xCE EXTCODESIZE 0xE0 0x4C 0xBB SAR PUSH17 0x4DAA2D539EA60BF064736F6C6343000804 STOP CALLER "
				},
				"gasEstimates": {
					"creation": {
						"codeDepositCost": "1515200",
						"executionCost": "infinite",
						"totalCost": "infinite"
					},
					"external": {
						"allowance(address,address)": "infinite",
						"approve(address,uint256)": "infinite",
						"balanceOf(address)": "1564",
						"buyToken(address)": "807",
						"decimals()": "388",
						"decreaseAllowance(address,uint256)": "infinite",
						"increaseAllowance(address,uint256)": "infinite",
						"mint(address,uint256)": "infinite",
						"name()": "infinite",
						"owner()": "1311",
						"rate()": "1152",
						"renounceOwnership()": "24419",
						"symbol()": "infinite",
						"totalSupply()": "1205",
						"transfer(address,uint256)": "infinite",
						"transferFrom(address,address,uint256)": "infinite",
						"transferOwnership(address)": "24833"
					}
				},
				"methodIdentifiers": {
					"allowance(address,address)": "dd62ed3e",
					"approve(address,uint256)": "095ea7b3",
					"balanceOf(address)": "70a08231",
					"buyToken(address)": "7e72fb52",
					"decimals()": "313ce567",
					"decreaseAllowance(address,uint256)": "a457c2d7",
					"increaseAllowance(address,uint256)": "39509351",
					"mint(address,uint256)": "40c10f19",
					"name()": "06fdde03",
					"owner()": "8da5cb5b",
					"rate()": "2c4e722e",
					"renounceOwnership()": "715018a6",
					"symbol()": "95d89b41",
					"totalSupply()": "18160ddd",
					"transfer(address,uint256)": "a9059cbb",
					"transferFrom(address,address,uint256)": "23b872dd",
					"transferOwnership(address)": "f2fde38b"
				}
			},
			"userdoc": {
				"kind": "user",
				"methods": {},
				"version": 1
			}
		}
	}
}